{
  "contractName": "Administrable",
  "abi": [
    {
      "constant": true,
      "inputs": [],
      "name": "owner",
      "outputs": [
        {
          "name": "",
          "type": "address"
        }
      ],
      "payable": false,
      "stateMutability": "view",
      "type": "function"
    },
    {
      "constant": true,
      "inputs": [],
      "name": "getUserDefinedMaxThreshold",
      "outputs": [
        {
          "name": "",
          "type": "uint8"
        }
      ],
      "payable": false,
      "stateMutability": "view",
      "type": "function"
    },
    {
      "constant": true,
      "inputs": [],
      "name": "getUserDefinedMaxAdministrator",
      "outputs": [
        {
          "name": "",
          "type": "uint8"
        }
      ],
      "payable": false,
      "stateMutability": "view",
      "type": "function"
    },
    {
      "constant": false,
      "inputs": [
        {
          "name": "_administratorAddress",
          "type": "address"
        }
      ],
      "name": "getAdminAccessValue",
      "outputs": [
        {
          "name": "_access",
          "type": "uint256"
        }
      ],
      "payable": false,
      "stateMutability": "nonpayable",
      "type": "function"
    },
    {
      "constant": false,
      "inputs": [
        {
          "name": "_valueThreshold",
          "type": "uint8"
        }
      ],
      "name": "changeCurrentAdminThreshold",
      "outputs": [
        {
          "name": "result",
          "type": "uint8"
        }
      ],
      "payable": false,
      "stateMutability": "nonpayable",
      "type": "function"
    },
    {
      "constant": false,
      "inputs": [
        {
          "name": "_valueThreshold",
          "type": "uint8"
        }
      ],
      "name": "changeCurrentThreshold",
      "outputs": [
        {
          "name": "result",
          "type": "uint8"
        }
      ],
      "payable": false,
      "stateMutability": "nonpayable",
      "type": "function"
    },
    {
      "constant": false,
      "inputs": [
        {
          "name": "_newAdministratorAddress",
          "type": "address"
        }
      ],
      "name": "setPrimaryAdministrator",
      "outputs": [
        {
          "name": "result",
          "type": "uint8"
        }
      ],
      "payable": false,
      "stateMutability": "nonpayable",
      "type": "function"
    },
    {
      "constant": false,
      "inputs": [
        {
          "name": "_newAdministratorAddress",
          "type": "address"
        }
      ],
      "name": "setAdministrator",
      "outputs": [
        {
          "name": "result",
          "type": "uint8"
        }
      ],
      "payable": false,
      "stateMutability": "nonpayable",
      "type": "function"
    },
    {
      "constant": false,
      "inputs": [
        {
          "name": "_revokeAdministratorAddress",
          "type": "address"
        }
      ],
      "name": "revokeAdministrator",
      "outputs": [
        {
          "name": "result",
          "type": "uint8"
        }
      ],
      "payable": false,
      "stateMutability": "nonpayable",
      "type": "function"
    },
    {
      "constant": true,
      "inputs": [
        {
          "name": "_administratorAddress",
          "type": "address"
        }
      ],
      "name": "isAdministrator",
      "outputs": [
        {
          "name": "result",
          "type": "bool"
        }
      ],
      "payable": false,
      "stateMutability": "view",
      "type": "function"
    },
    {
      "constant": true,
      "inputs": [],
      "name": "getMsgSender",
      "outputs": [
        {
          "name": "",
          "type": "address"
        }
      ],
      "payable": false,
      "stateMutability": "view",
      "type": "function"
    }
  ],
  "bytecode": "0x608060405260008054600760ff199091161761ff00191661020017905534801561002857600080fd5b50610949806100386000396000f3006080604052600436106100ae5763ffffffff7c0100000000000000000000000000000000000000000000000000000000600035041663064ad7c281146100b35780630a2eb301146100f75780634402bba31461013957806374534fb2146101675780637a6ce2e11461017c5780638da5cb5b146101ba578063d2631b45146101cf578063d511c4631461020f578063df8089ef14610224578063e484a38d14610252578063fba7fd781461026d575b600080fd5b3480156100bf57600080fd5b506100e173ffffffffffffffffffffffffffffffffffffffff60043516610288565b6040805160ff9092168252519081900360200190f35b34801561010357600080fd5b5061012573ffffffffffffffffffffffffffffffffffffffff60043516610362565b604080519115158252519081900360200190f35b34801561014557600080fd5b506100e173ffffffffffffffffffffffffffffffffffffffff600435166103aa565b34801561017357600080fd5b506100e16105a5565b34801561018857600080fd5b506101916105ae565b6040805173ffffffffffffffffffffffffffffffffffffffff9092168252519081900360200190f35b3480156101c657600080fd5b506101916105b2565b3480156101db57600080fd5b506101fd73ffffffffffffffffffffffffffffffffffffffff600435166105d4565b60408051918252519081900360200190f35b34801561021b57600080fd5b506100e161060f565b34801561023057600080fd5b506100e173ffffffffffffffffffffffffffffffffffffffff6004351661061d565b34801561025e57600080fd5b506100e160ff600435166106be565b34801561027957600080fd5b506100e160ff60043516610722565b6000805462010000900473ffffffffffffffffffffffffffffffffffffffff163314156103595760035460ff16151561034c5773ffffffffffffffffffffffffffffffffffffffff821660009081526002602052604090208054600191907fffffffffffffffffffffffffffffffffffffffffffffffffffffffffffffff001682805b0217905550506003805460ff808216600101167fffffffffffffffffffffffffffffffffffffffffffffffffffffffffffffff00909116179055600261035d565b50600161035d565b61035d565b5060005b919050565b6000600173ffffffffffffffffffffffffffffffffffffffff831660009081526002602081905260409091205460ff169081111561039c57fe5b14156103595750600161035d565b60008060006103b833610362565b1561059957600173ffffffffffffffffffffffffffffffffffffffff851660009081526002602081905260409091205460ff16908111156103f557fe5b14156105905760405160200180807f61646d696e697374726174696f6e5265766f636174696f6e566f746500000000815250601c0190506040516020818303038152906040526040518082805190602001908083835b6020831061048857805182527fffffffffffffffffffffffffffffffffffffffffffffffffffffffffffffffe0909201916020918201910161044b565b6001836020036101000a038019825116818451168082178552505050505050905001915050604051809103902091506104c0826107bd565b600054909150610100900460ff1661ffff8216106105875773ffffffffffffffffffffffffffffffffffffffff8416600090815260026020819052604090912080547fffffffffffffffffffffffffffffffffffffffffffffffffffffffffffffff00166001830217905550600380547fffffffffffffffffffffffffffffffffffffffffffffffffffffffffffffff00811660ff9182167fffffffffffffffffffffffffffffffffffffffffffffffffffffffffffffffff01909116178155925061059e565b6002925061059e565b6001925061059e565b600092505b5050919050565b60005460ff1690565b3390565b60005462010000900473ffffffffffffffffffffffffffffffffffffffff1681565b73ffffffffffffffffffffffffffffffffffffffff8116600090815260026020819052604082205460ff169081111561060957fe5b92915050565b600054610100900460ff1690565b600061062833610362565b1561035957600173ffffffffffffffffffffffffffffffffffffffff831660009081526002602081905260409091205460ff169081111561066557fe5b1461034c5773ffffffffffffffffffffffffffffffffffffffff821660009081526002602052604090208054600191907fffffffffffffffffffffffffffffffffffffffffffffffffffffffffffffff0016828061030b565b60006106c933610362565b156103595760013360009081526002602081905260409091205460ff16908111156106f057fe5b146106fa57600080fd5b600260ff8316108015610715575060005460ff908116908316115b1561034c5750600261035d565b600061072d33610362565b156103595760013360009081526002602081905260409091205460ff169081111561075457fe5b1461075e57600080fd5b600760ff8316111561079f5750600080547fffffffffffffffffffffffffffffffffffffffffffffffffffffffffffffff001660ff8316179055600261035d565b60005460ff610100909104811690831610156103545750600161035d565b60006107c833610362565b156103595760008054838252600460205260409091206002015460ff918216911610801561084c5750600082815260046020908152604080832033845290915281205460ff16600381111561081957fe5b148061084c57506003600083815260046020908152604080832033845290915290205460ff16600381111561084a57fe5b145b156109025760008281526004602090815260408083206002810180547fffffffffffffffffffffffffffffffffffffffffffffffffffffffffffffff00808216600160ff9384168101909316179092553380875283865284872080549093168217909255918201805480840182559086528486200180547fffffffffffffffffffffffff000000000000000000000000000000000000000016821790558452600583529083208054918201815583529120018290555b5060008181526004602052604090206002015460ff1661035d5600a165627a7a72305820136da0b0852fa1067bfc29689fb0b71e512ca7e68a7775a780cef242971fdc840029",
  "source": "pragma solidity ^0.4.19;\n\n// Administrable Contract:\n//\n// The basic keyed permission access is done with a multiple signing & revocation certificiate mechanism.\n// Built to be as light-weight as possible and still provide the flexibility required to manage full stack\n// dapp integrations.\n//\n// Maximum capacity is 7 administrators. Threshold is at 2/7(max). Expectations are 2 out of 3.\n// @note:@todo:@next: set up option for changing the threshold. would need to be very careful about promote/Revoked\n//  steps.\n\n// @note:@security:@safety: This function needs to be fully vetted and edge cases examined & documented.\n\ncontract Administrable {\n    enum AdministratorAccess { Unknown, Promoted, Demoted }\n    enum KeyPermissionAccess { Unknown, Signed, Revoked, Reset }\n    \n    uint8 maxAdministrators = 7;\n    uint8 maxThreshold = 2;\n    uint8 constant minimumThreshold = 2;\n    uint8 constant minimumAdministrator = 7;\n\n    struct keyPermissions {\n        mapping(address => KeyPermissionAccess) administratorSignatures;\n        address[] administrators;\n\n        uint8 permissionLevel;\n    }\n\n    address public owner;\n\n    //administrators\n    mapping (address => uint8) administrationRevocationVoting;\n    mapping (address => AdministratorAccess) administrators;\n    uint8 numAdministrators;\n\n    mapping (bytes32 => keyPermissions) administratorMultisignPermissionedKeys;\n    mapping (address => bytes32[]) administrator_to_multisignPermissionedKeysArray;\n\n    // ** administrator management ** //\n    function getUserDefinedMaxThreshold() public view returns(uint8) {\n        return maxThreshold;\n    }\n\n    function getUserDefinedMaxAdministrator() public view returns(uint8) {\n        return maxAdministrators;\n    }\n\n    function getAdminAccessValue(address _administratorAddress) public returns(uint _access) {\n        return uint(administrators[_administratorAddress]);\n    }\n\n    /*\n    * Allow users to increased threshold\n    * make sure the administrable address changing the threshold has proper promotion \n    * and current admin rights has not been revoked\n    * 0 = not owner\n    * 1 = administrators must be greater than currently set minimum administrators\n    * 2 = threshold changed\n    */\n    function changeCurrentAdminThreshold(uint8 _valueThreshold) public returns(uint8 result) {\n        if(isAdministrator(msg.sender)) {\n            require(administrators[msg.sender] == AdministratorAccess.Promoted);\n            if( _valueThreshold > minimumAdministrator ) { \n                maxAdministrators = _valueThreshold;\n                return 2;\n            }\n            if( _valueThreshold < maxThreshold  ) { \n                //in this case, there has to be more administrator than the currently set maxThreshold\n                return 1;\n            }\n        }\n        else {\n           return 0;\n        }\n       \n    }//changeCurrentAdminThreshold\n\n    /*\n    * Allow users to increased threshold\n    * make sure the administrable address changing the threshold has proper promotion \n    * and current admin rights has not been revoked\n    * 0 = not owner\n    * 1 = must be greater than current minimum threshold setting AND less than currently set maximum administrator\n    * 2 = threshold changed\n    */\n    function changeCurrentThreshold(uint8 _valueThreshold) public returns(uint8 result) {\n\n       /** Check to make sure that the user operating this contract is an administrator **/ \n       if( isAdministrator(msg.sender) ) {\n            require(administrators[msg.sender] == AdministratorAccess.Promoted);\n       \n            if( (_valueThreshold < minimumThreshold) &&  (_valueThreshold > maxAdministrators) ) {\n                return 2;\n                maxThreshold = _valueThreshold;\n            } else {\n                //must be greater than current minimum threshold setting AND less than currently set maximum administrator\n                return 1; \n            }\n        }\n        else {\n            return 0;\n        }\n       \n    }//changeCurrentThreshold\n\n\n    //result:\n    // 0 = not owner\n    // 1 = already set first administrator\n    // 2 = setup first administrator\n    function setPrimaryAdministrator(address _newAdministratorAddress) public returns (uint8 result) {\n        if (msg.sender == owner) {\n            if (numAdministrators == 0)\n            {\n                administrators[_newAdministratorAddress] = AdministratorAccess.Promoted;\n                numAdministrators++;\n\n                //setup first administrator\n                return 2;\n            } else {\n\n                //already set first administrator\n                return 1;\n            }\n        } else {\n\n            //not owner\n            return 0;\n        }\n    }\n\n    //result:\n    // 0 = not administrator\n    // 1 = administrator already set\n    // 2 = new administrator set\n    function setAdministrator(address _newAdministratorAddress) public returns (uint8 result) {\n        if (isAdministrator(msg.sender)) {\n            if (administrators[_newAdministratorAddress] != AdministratorAccess.Promoted) {\n                administrators[_newAdministratorAddress] = AdministratorAccess.Promoted;\n                numAdministrators++;\n\n                //new administrator set\n                return 2;\n            } else {\n                //administrator already set\n                return 1;\n            }\n        } else {\n            //not administrator\n            return 0;\n        }\n    }\n\n    //result:\n    // 0 = not owner\n    // 1 = administrator already inactive\n    // 2 = added vote to revoke administrator\n    // 3 = revoked administrator\n    function revokeAdministrator(address _revokeAdministratorAddress) public returns (uint8 result) {\n        if (isAdministrator(msg.sender)) {\n            if (administrators[_revokeAdministratorAddress] == AdministratorAccess.Promoted) {\n                bytes32 keyKeccak = keccak256(abi.encodePacked(\"administrationRevocationVote\"));\n                \n                //@note: @here: admin consensus set at maxThreshold minimum\n                uint16 multisignResult = adminApplyAndGetPermissionsForMultisignKey(keyKeccak);\n                \n                if (multisignResult >= maxThreshold) {\n                    administrators[_revokeAdministratorAddress] = AdministratorAccess.Demoted;\n                    numAdministrators--;\n                    \n                    //revoked administrator\n                    return 3;\n                } else {\n                    //added vote to revoke administrator\n                    return 2;\n                }\n            } else {\n                //administrator already inactive\n                return 1;\n            }\n        } else {\n            //not administrator\n            return 0;\n        }\n    }\n    \n    function checkForCleanupAfterRevocation(address _revokeAdministratorAddress) internal view returns (uint8 result) {\n        if (isAdministrator(msg.sender)) {\n            if  (administrators[_revokeAdministratorAddress] == AdministratorAccess.Demoted) {\n                //check for permission level decreases across all permissioned keys\n                for (uint i = 0; i < administrator_to_multisignPermissionedKeysArray[_revokeAdministratorAddress].length; i++) {\n                    bytes32 keyKeccack = administrator_to_multisignPermissionedKeysArray[_revokeAdministratorAddress][i];\n                    \n                    //permission levels will decrease if it's below or at the maximum threshold level.\n                    if (administratorMultisignPermissionedKeys[keyKeccack].permissionLevel <= maxThreshold) {\n                        //cannot be cleaned up without disrupting permissioned keys\n                        return 3;\n                    } \n                }\n                \n                //can be cleaned up without disrupting permissioned keys\n                return 2;\n            } else {\n                //administrator not revoked\n                return 1;\n            }\n        } else {\n            //not administrator\n            return 0;\n        }\n    }\n    \n    function cleanupAfterRevocation(address _revokeAdministratorAddress) internal returns (uint8 result) {\n        if (isAdministrator(msg.sender)) {\n            if  (administrators[_revokeAdministratorAddress] == AdministratorAccess.Demoted) {\n                for (uint i = 0; i < administrator_to_multisignPermissionedKeysArray[_revokeAdministratorAddress].length; i++) {\n                    bytes32 keyKeccack = administrator_to_multisignPermissionedKeysArray[_revokeAdministratorAddress][i];\n                    \n                    administratorMultisignPermissionedKeys[keyKeccack].administratorSignatures[_revokeAdministratorAddress] = KeyPermissionAccess.Revoked;\n                    administratorMultisignPermissionedKeys[keyKeccack].permissionLevel--;\n                }\n                \n                //cleaned up\n                return 2;\n            } else {\n                //cannot clean up\n                return 1;\n            }\n        } else {\n            //not administrator\n            return 0;\n        }\n    }\n\n    //result\n    // 0 to maxAdministrators = #confirmations\n    function getPermissionsForMultisignKey(bytes32 _keyKeccak) internal view returns (uint16 result) {\n        //(one to the maxAdministrators) #confirmations\n        return administratorMultisignPermissionedKeys[_keyKeccak].permissionLevel;\n    }\n\n    //result\n    // 0 = not administrator\n    // 1 = signature not found\n    // 2 = signature found\n    // 3 = access revoked\n    function adminGetSelfConfirmedFromMultisignKey(bytes32 _keyKeccak) internal view returns (uint16 result) {\n        if (isAdministrator(msg.sender)) {\n            if (administratorMultisignPermissionedKeys[_keyKeccak].administratorSignatures[msg.sender] == KeyPermissionAccess.Revoked) {\n                //access revoked\n                return 3;\n            } else if (administratorMultisignPermissionedKeys[_keyKeccak].administratorSignatures[msg.sender] == KeyPermissionAccess.Signed) {\n                //signature found\n                return 2;\n            } else {\n                //signature not found\n                return 1;\n            }\n        } else {\n            //not administrator\n            return 0;\n        }\n    }\n    \n    \n    //result\n    // 0 = not administrator\n    // 1 to maxAdministrators = #confirmations\n    function adminApplyAndGetPermissionsForMultisignKey(bytes32 _keyKeccak) internal returns (uint16 result) {\n        if (isAdministrator(msg.sender)) {\n            if (administratorMultisignPermissionedKeys[_keyKeccak].permissionLevel < maxAdministrators &&\n                (administratorMultisignPermissionedKeys[_keyKeccak].administratorSignatures[msg.sender] == KeyPermissionAccess.Unknown ||\n                administratorMultisignPermissionedKeys[_keyKeccak].administratorSignatures[msg.sender] == KeyPermissionAccess.Reset)) {\n                // increase permission level of the key, apply signature.\n                administratorMultisignPermissionedKeys[_keyKeccak].permissionLevel++;\n                administratorMultisignPermissionedKeys[_keyKeccak].administratorSignatures[msg.sender] = KeyPermissionAccess.Signed;\n\n                administratorMultisignPermissionedKeys[_keyKeccak].administrators.push(msg.sender);\n                administrator_to_multisignPermissionedKeysArray[msg.sender].push(_keyKeccak);\n            }\n            \n            //(one to the maxAdministrators) #confirmations\n            return administratorMultisignPermissionedKeys[_keyKeccak].permissionLevel;\n        } else {\n            //not administrator\n            return 0;\n        }\n    }\n    \n    //result\n    // 0 = not administrator\n    // 1 = already reset\n    // 2 = reset correctly\n    function adminResetPermissionsForMultisignKey(bytes32 _keyKeccak) internal returns (uint8 result) {\n        if (isAdministrator(msg.sender)) {\n            if (administratorMultisignPermissionedKeys[_keyKeccak].permissionLevel != 0) {\n                //remove administrator references\n                for (uint i = 0; i < administratorMultisignPermissionedKeys[_keyKeccak].administrators.length; i++) {\n                    administratorMultisignPermissionedKeys[_keyKeccak].administratorSignatures[administratorMultisignPermissionedKeys[_keyKeccak].administrators[i]] = KeyPermissionAccess.Reset;\n                }\n\n                \n                //delete the main holding array\n                // delete administratorMultisignPermissionedKeys[_keyKeccak].administrators;\n                administratorMultisignPermissionedKeys[_keyKeccak].administrators.length = 0;\n\n                //and reset the permission level\n                // delete administratorMultisignPermissionedKeys[_keyKeccak].permissionLevel;\n                administratorMultisignPermissionedKeys[_keyKeccak].permissionLevel = 0;\n\n                //reset correctly\n                return 2;\n            } else {\n                //already reset\n                return 1;\n            }\n        } else {\n            //not administrator\n            return 0;\n        }\n    }\n    \n    //returns:\n    // false = not over threshold\n    // true = is over threshold\n    function isConfirmationsIsOverThreshold(uint8 _confirmationNumber) internal view returns (bool result) {\n        if (_confirmationNumber >= maxThreshold) {\n            //is over threshold\n            return true;\n        } else {\n            //not over threshold\n            return false;\n        }\n    }\n\n    //result: (internal because any derived contracts would probably want this.)\n    // true = is administrator\n    // false = either administrator unset or demoted\n    function isAdministrator(address _administratorAddress) public view returns (bool result) {\n        if (administrators[_administratorAddress] == AdministratorAccess.Promoted) {\n            //is administrator\n            return true;\n        } else {\n            // either administrator unset or demoted\n            return false;\n        }\n    }\n\n    function getMsgSender() public view returns(address) {\n        return msg.sender;\n    }\n}",
  "sourcePath": "/Users/jaypersanchez/shyft_shyftcorecontracts/contracts/Administrable.sol",
  "compiler": {
    "name": "solc",
    "version": "0.4.28+commit.2fcccea1.Emscripten.clang"
  },
  "schemaVersion": "2.0.3",
  "updatedAt": "2019-03-26T16:26:58.703Z"
}