{
  "contractName": "BioData",
  "abi": [
    {
      "constant": true,
      "inputs": [
        {
          "name": "",
          "type": "uint256"
        }
      ],
      "name": "biodatalist",
      "outputs": [
        {
          "name": "id",
          "type": "uint256"
        },
        {
          "name": "contractOwner",
          "type": "address"
        },
        {
          "name": "firstName",
          "type": "string"
        },
        {
          "name": "middleName",
          "type": "string"
        },
        {
          "name": "lastName",
          "type": "string"
        }
      ],
      "payable": false,
      "stateMutability": "view",
      "type": "function"
    },
    {
      "inputs": [],
      "payable": false,
      "stateMutability": "nonpayable",
      "type": "constructor"
    },
    {
      "anonymous": false,
      "inputs": [
        {
          "indexed": true,
          "name": "_id",
          "type": "uint256"
        },
        {
          "indexed": true,
          "name": "_contractOwner",
          "type": "address"
        },
        {
          "indexed": false,
          "name": "_firstName",
          "type": "string"
        },
        {
          "indexed": false,
          "name": "_middleName",
          "type": "string"
        },
        {
          "indexed": false,
          "name": "_lastName",
          "type": "string"
        }
      ],
      "name": "LogSetBioData",
      "type": "event"
    },
    {
      "constant": false,
      "inputs": [
        {
          "name": "_privateKey",
          "type": "string"
        }
      ],
      "name": "setAttestationData",
      "outputs": [],
      "payable": false,
      "stateMutability": "nonpayable",
      "type": "function"
    },
    {
      "constant": false,
      "inputs": [
        {
          "name": "_firstName",
          "type": "string"
        },
        {
          "name": "_middleName",
          "type": "string"
        },
        {
          "name": "_lastName",
          "type": "string"
        }
      ],
      "name": "setBioData",
      "outputs": [],
      "payable": false,
      "stateMutability": "nonpayable",
      "type": "function"
    },
    {
      "constant": true,
      "inputs": [],
      "name": "getNumberOfBioDataItems",
      "outputs": [
        {
          "name": "",
          "type": "uint256"
        }
      ],
      "payable": false,
      "stateMutability": "view",
      "type": "function"
    },
    {
      "constant": true,
      "inputs": [],
      "name": "getBioData",
      "outputs": [
        {
          "name": "",
          "type": "uint256[]"
        }
      ],
      "payable": false,
      "stateMutability": "view",
      "type": "function"
    }
  ],
  "bytecode": "0x608060405234801561001057600080fd5b50610ac0806100206000396000f30060806040526004361061006c5763ffffffff7c01000000000000000000000000000000000000000000000000000000006000350416630ab690cc81146100715780632623ec36146100cc578063c0356e3014610131578063d87d8bb4146102c7578063d9adf7ec146102ee575b600080fd5b34801561007d57600080fd5b506040805160206004803580820135601f81018490048402850184019095528484526100ca9436949293602493928401919081908401838280828437509497506103c39650505050505050565b005b3480156100d857600080fd5b506100e1610456565b60408051602080825283518183015283519192839290830191858101910280838360005b8381101561011d578181015183820152602001610105565b505050509050019250505060405180910390f35b34801561013d57600080fd5b50610149600435610553565b604051808681526020018573ffffffffffffffffffffffffffffffffffffffff1673ffffffffffffffffffffffffffffffffffffffff168152602001806020018060200180602001848103845287818151815260200191508051906020019080838360005b838110156101c65781810151838201526020016101ae565b50505050905090810190601f1680156101f35780820380516001836020036101000a031916815260200191505b50848103835286518152865160209182019188019080838360005b8381101561022657818101518382015260200161020e565b50505050905090810190601f1680156102535780820380516001836020036101000a031916815260200191505b50848103825285518152855160209182019187019080838360005b8381101561028657818101518382015260200161026e565b50505050905090810190601f1680156102b35780820380516001836020036101000a031916815260200191505b509850505050505050505060405180910390f35b3480156102d357600080fd5b506102dc61078f565b60408051918252519081900360200190f35b3480156102fa57600080fd5b506040805160206004803580820135601f81018490048402850184019095528484526100ca94369492936024939284019190819084018382808284375050604080516020601f89358b018035918201839004830284018301909452808352979a99988101979196509182019450925082915084018382808284375050604080516020601f89358b018035918201839004830284018301909452808352979a9998810197919650918201945092508291508401838280828437509497506107969650505050505050565b506040805160c081018252600080825260208201819052918101919091527f646173666173646673640000000000000000000000000000000000000000000060608201527f64617461656e6372797074696f6e00000000000000000000000000000000000060808201527f766572796c6f6e67737472696e6776616c75650000000000000000000000000060a090910152565b6060806000806060600060015460405190808252806020026020018201604052801561048c578160200160208202803883390190505b50945060009350600192505b60015483116104d85760008381526020819052604090205485518690869081106104be57fe5b602090810290910101526001938401939290920191610498565b83604051908082528060200260200182016040528015610502578160200160208202803883390190505b509150600090505b8381101561054a57848181518110151561052057fe5b90602001906020020151828281518110151561053857fe5b6020908102909101015260010161050a565b50949350505050565b60006020818152918152604090819020805460018083015460028085018054875161010095821615959095027fffffffffffffffffffffffffffffffffffffffffffffffffffffffffffffffff011691909104601f8101889004880284018801909652858352929573ffffffffffffffffffffffffffffffffffffffff90911694919291908301828280156106295780601f106105fe57610100808354040283529160200191610629565b820191906000526020600020905b81548152906001019060200180831161060c57829003601f168201915b5050505060038301805460408051602060026001851615610100027fffffffffffffffffffffffffffffffffffffffffffffffffffffffffffffffff0190941693909304601f81018490048402820184019092528181529495949350908301828280156106d75780601f106106ac576101008083540402835291602001916106d7565b820191906000526020600020905b8154815290600101906020018083116106ba57829003601f168201915b5050505060048301805460408051602060026001851615610100027fffffffffffffffffffffffffffffffffffffffffffffffffffffffffffffffff0190941693909304601f81018490048402820184019092528181529495949350908301828280156107855780601f1061075a57610100808354040283529160200191610785565b820191906000526020600020905b81548152906001019060200180831161076857829003601f168201915b5050505050905085565b6001545b90565b6001805481018082556040805160a081018252828152336020808301918252828401898152606084018990526080840188905260009586528582529390942082518155905194810180547fffffffffffffffffffffffff00000000000000000000000000000000000000001673ffffffffffffffffffffffffffffffffffffffff909616959095179094559051805191939261083a926002850192909101906109fc565b50606082015180516108569160038401916020909101906109fc565b50608082015180516108729160048401916020909101906109fc565b509050503373ffffffffffffffffffffffffffffffffffffffff166001547f4024ff6832499e428332fac2de5712f6ae65e523b2eee17350b944c1429d4afe85858560405180806020018060200180602001848103845287818151815260200191508051906020019080838360005b838110156108f95781810151838201526020016108e1565b50505050905090810190601f1680156109265780820380516001836020036101000a031916815260200191505b50848103835286518152865160209182019188019080838360005b83811015610959578181015183820152602001610941565b50505050905090810190601f1680156109865780820380516001836020036101000a031916815260200191505b50848103825285518152855160209182019187019080838360005b838110156109b95781810151838201526020016109a1565b50505050905090810190601f1680156109e65780820380516001836020036101000a031916815260200191505b50965050505050505060405180910390a3505050565b828054600181600116156101000203166002900490600052602060002090601f016020900481019282601f10610a3d57805160ff1916838001178555610a6a565b82800160010185558215610a6a579182015b82811115610a6a578251825591602001919060010190610a4f565b50610a76929150610a7a565b5090565b61079391905b80821115610a765760008155600101610a805600a165627a7a7230582046820df7adaf6b82594218fad199c1b92467d3ba41d9c862bea70928020bf6010029",
  "source": "pragma solidity ^0.4.19;\n\n\ncontract BioData {\n\n\n    struct BioDataObj {\n        uint id;\n        address contractOwner;\n        string firstName;\n        string middleName;\n        string lastName;\n    }\n\n    struct AttestationData {\n        //address _identifiedAddress;\n        uint16 _jurisdiction;\n        uint64 _effectiveTime;\n        uint64 _expiryTime;\n        bytes32 _publicData;\n        bytes32 _documentsEncrypted;\n        bytes32 _documentAvailabilityEncrypted;\n    }\n\n    mapping(uint => BioDataObj) public biodatalist;\n    \n    uint recordCounter;\n    \n    constructor() public {\n        //BioDataObj.contractOwner = msg.sender;\n    }\n\n    event LogSetBioData(uint indexed _id, address indexed _contractOwner, string _firstName, string _middleName, string _lastName);\n\n\n    function setAttestationData(string _privateKey) public {\n        //_privateKey used to set identifiedAddress and jurisdiction\n        //address _identifiedAddress = address(_privateKey);\n        uint16 _jurisdiction = 0;\n        uint64 _effectiveTime = 0;\n        uint64 _expiryTime = 0;\n        bytes32 _publicData = bytes32(\"dasfasdfsd\");\n        bytes32 _documentsEncrypted = bytes32(\"dataencryption\");\n        bytes32 _documentAvailabilityEncrypted = bytes32(\"verylongstringvalue\");\n\n        AttestationData (\n            _jurisdiction,\n            _effectiveTime,\n            _expiryTime,\n            _publicData,\n            _documentsEncrypted,\n            _documentAvailabilityEncrypted\n        );\n    }\n\n    function setBioData(string _firstName, string _middleName, string _lastName) public {\n        \n        //increment counter\n        recordCounter++;\n        //store BioData\n        biodatalist[recordCounter] = BioDataObj(recordCounter,msg.sender,_firstName, _middleName, _lastName);\n        //triger set event\n        emit LogSetBioData(recordCounter,msg.sender, _firstName, _middleName, _lastName);\n    }\n\n    //fetch number of bio data items\n    function getNumberOfBioDataItems() public view returns (uint) {\n        return recordCounter;\n    }\n\n    //fetch and return all bio data that is saved\n    function getBioData() public view returns (uint[]) {\n        //prepare output array\n        uint[] memory bioDataIds = new uint[](recordCounter);\n        uint numberOfSavedBioData = 0;\n        //itirate over biodatalist\n        for(uint i = 1; i <= recordCounter; i++) {\n            //show bio data item\n            bioDataIds[numberOfSavedBioData] = biodatalist[i].id;\n            numberOfSavedBioData++;\n        }\n        //copy bioDataIds array just get ids pertaining to contractOwner\n        uint[] memory owneddata = new uint[](numberOfSavedBioData);\n        for(uint j = 0; j < numberOfSavedBioData; j++) {\n            owneddata[j] = bioDataIds[j];\n        }\n\n        return owneddata;\n    }\n\n\n}",
  "sourcePath": "/Users/jaypersanchez/shyft_shyftcorecontracts/contracts/BioData.sol",
  "compiler": {
    "name": "solc",
    "version": "0.4.28+commit.2fcccea1.Emscripten.clang"
  },
  "schemaVersion": "2.0.3",
  "updatedAt": "2019-01-10T06:17:38.132Z"
}