{
  "contractName": "BitwiseOps",
  "abi": [
    {
      "constant": false,
      "inputs": [
        {
          "name": "_b",
          "type": "bytes1"
        }
      ],
      "name": "readBit",
      "outputs": [
        {
          "name": "",
          "type": "bool"
        }
      ],
      "payable": false,
      "stateMutability": "nonpayable",
      "type": "function"
    },
    {
      "constant": false,
      "inputs": [
        {
          "name": "_b",
          "type": "uint8"
        },
        {
          "name": "i",
          "type": "uint8"
        }
      ],
      "name": "readBitAt",
      "outputs": [
        {
          "name": "",
          "type": "bool"
        }
      ],
      "payable": false,
      "stateMutability": "nonpayable",
      "type": "function"
    },
    {
      "constant": false,
      "inputs": [
        {
          "name": "_b",
          "type": "uint8"
        },
        {
          "name": "i",
          "type": "uint8"
        }
      ],
      "name": "rightShift",
      "outputs": [
        {
          "name": "",
          "type": "uint8"
        }
      ],
      "payable": false,
      "stateMutability": "nonpayable",
      "type": "function"
    }
  ],
  "bytecode": "0x608060405234801561001057600080fd5b50610198806100206000396000f3006080604052600436106100565763ffffffff7c0100000000000000000000000000000000000000000000000000000000600035041663a75af91f811461005b578063b9cc75af14610092578063f4fb45ef146100e0575b600080fd5b34801561006757600080fd5b5061007c60ff60043581169060243516610101565b6040805160ff9092168252519081900360200190f35b34801561009e57600080fd5b506100cc7fff000000000000000000000000000000000000000000000000000000000000006004351661010f565b604080519115158252519081900360200190f35b3480156100ec57600080fd5b506100cc60ff60043581169060243516610137565b60ff90811660020a91160490565b7f01000000000000000000000000000000000000000000000000000000000000009081161490565b60ff90811660020a9116047f0100000000000000000000000000000000000000000000000000000000000000908102811614905600a165627a7a723058204bd6251c89378680920428854be8a64339086686ddb712b4d8c2f304d3ec6a9c0029",
  "source": "pragma solidity ^0.4.24;\n\n// this is a test to see if bitwise ops are feasible in a merkle proof.\ncontract BitwiseOps {\n\n\tfunction readBit(byte _b) public returns (bool) {\n\t\tbyte masked = _b & byte(1);\n\t\treturn masked == byte(1);\n\t}\n\n\tfunction readBitAt(uint8 _b, uint8 i) public returns (bool) {\n\t\t_b = _b >> i;\n\t\tbyte masked = byte(_b) & byte(1);\n\t\treturn masked == byte(1);\n\t}\n\n\tfunction rightShift(uint8 _b, uint8 i) public returns (uint8) {\n\t\treturn _b >> i;\n\t}\n\n}",
  "sourcePath": "/Users/jaypersanchez/shyft_shyftcorecontracts/contracts/test/BitwiseOps.sol",
  "compiler": {
    "name": "solc",
    "version": "0.4.28+commit.2fcccea1.Emscripten.clang"
  },
  "schemaVersion": "2.0.3",
  "updatedAt": "2019-03-01T19:01:07.040Z"
}