{
  "contractName": "CuratedBinding",
  "abi": [
    {
      "constant": false,
      "inputs": [
        {
          "name": "_newAdministratorAddress",
          "type": "address"
        }
      ],
      "name": "setPrimaryAdministrator",
      "outputs": [
        {
          "name": "result",
          "type": "uint8"
        }
      ],
      "payable": false,
      "stateMutability": "nonpayable",
      "type": "function"
    },
    {
      "constant": true,
      "inputs": [
        {
          "name": "_administratorAddress",
          "type": "address"
        }
      ],
      "name": "isAdministrator",
      "outputs": [
        {
          "name": "result",
          "type": "bool"
        }
      ],
      "payable": false,
      "stateMutability": "view",
      "type": "function"
    },
    {
      "constant": false,
      "inputs": [
        {
          "name": "_revokeAdministratorAddress",
          "type": "address"
        }
      ],
      "name": "revokeAdministrator",
      "outputs": [
        {
          "name": "result",
          "type": "uint8"
        }
      ],
      "payable": false,
      "stateMutability": "nonpayable",
      "type": "function"
    },
    {
      "constant": true,
      "inputs": [],
      "name": "owner",
      "outputs": [
        {
          "name": "",
          "type": "address"
        }
      ],
      "payable": false,
      "stateMutability": "view",
      "type": "function"
    },
    {
      "constant": false,
      "inputs": [
        {
          "name": "_newAdministratorAddress",
          "type": "address"
        }
      ],
      "name": "setAdministrator",
      "outputs": [
        {
          "name": "result",
          "type": "uint8"
        }
      ],
      "payable": false,
      "stateMutability": "nonpayable",
      "type": "function"
    },
    {
      "inputs": [],
      "payable": false,
      "stateMutability": "nonpayable",
      "type": "constructor"
    },
    {
      "constant": false,
      "inputs": [
        {
          "name": "_merkleRoot",
          "type": "bytes32"
        },
        {
          "name": "_channelForm",
          "type": "uint256"
        }
      ],
      "name": "setHeader",
      "outputs": [
        {
          "name": "result",
          "type": "uint8"
        }
      ],
      "payable": false,
      "stateMutability": "nonpayable",
      "type": "function"
    },
    {
      "constant": false,
      "inputs": [
        {
          "name": "_headerKeccak",
          "type": "bytes32"
        }
      ],
      "name": "getMerkleRootFromHeader",
      "outputs": [
        {
          "name": "result",
          "type": "bytes32"
        }
      ],
      "payable": false,
      "stateMutability": "nonpayable",
      "type": "function"
    },
    {
      "constant": false,
      "inputs": [
        {
          "name": "_headerKeccak",
          "type": "bytes32"
        }
      ],
      "name": "getChannelFormFromHeader",
      "outputs": [
        {
          "name": "result",
          "type": "uint256"
        }
      ],
      "payable": false,
      "stateMutability": "nonpayable",
      "type": "function"
    },
    {
      "constant": false,
      "inputs": [
        {
          "name": "_headerKeccak",
          "type": "bytes32"
        }
      ],
      "name": "getTrustAnchorFromHeaderKeccak",
      "outputs": [
        {
          "name": "result",
          "type": "address"
        }
      ],
      "payable": false,
      "stateMutability": "nonpayable",
      "type": "function"
    }
  ],
  "bytecode": "0x6080604052600b8054600160a060020a031916905534801561002057600080fd5b5060008054600160a060020a03191633179055610a3a806100426000396000f3006080604052600436106100985763ffffffff7c0100000000000000000000000000000000000000000000000000000000600035041663064ad7c2811461009d5780630a2eb301146100e15780634402bba314610123578063597801f0146101515780636f17c08a1461017b5780638da5cb5b146101bc578063c7e777cf146101d1578063df8089ef146101ec578063f5d51b0d1461021a575b600080fd5b3480156100a957600080fd5b506100cb73ffffffffffffffffffffffffffffffffffffffff60043516610232565b6040805160ff9092168252519081900360200190f35b3480156100ed57600080fd5b5061010f73ffffffffffffffffffffffffffffffffffffffff60043516610301565b604080519115158252519081900360200190f35b34801561012f57600080fd5b506100cb73ffffffffffffffffffffffffffffffffffffffff60043516610349565b34801561015d57600080fd5b50610169600435610599565b60408051918252519081900360200190f35b34801561018757600080fd5b506101936004356105ab565b6040805173ffffffffffffffffffffffffffffffffffffffff9092168252519081900360200190f35b3480156101c857600080fd5b506101936105d3565b3480156101dd57600080fd5b506100cb6004356024356105ef565b3480156101f857600080fd5b506100cb73ffffffffffffffffffffffffffffffffffffffff600435166107e6565b34801561022657600080fd5b50610169600435610887565b6000805473ffffffffffffffffffffffffffffffffffffffff163314156102f85760035460ff1615156102f05773ffffffffffffffffffffffffffffffffffffffff821660009081526002602052604090208054600191907fffffffffffffffffffffffffffffffffffffffffffffffffffffffffffffff001682805b0217905550506003805460ff808216600101167fffffffffffffffffffffffffffffffffffffffffffffffffffffffffffffff0090911617905560026102fc565b5060016102fc565b5060005b919050565b6000600173ffffffffffffffffffffffffffffffffffffffff831660009081526002602081905260409091205460ff169081111561033b57fe5b14156102f8575060016102fc565b600080600080600061035a33610301565b1561058b57600173ffffffffffffffffffffffffffffffffffffffff871660009081526002602081905260409091205460ff169081111561039757fe5b141561058257604080517f61646d696e697374726174696f6e5265766f636174696f6e566f7465000000006020808301919091526c0100000000000000000000000073ffffffffffffffffffffffffffffffffffffffff8a1602603c83015282516030818403018152605090920192839052815191929182918401908083835b6020831061045457805182527fffffffffffffffffffffffffffffffffffffffffffffffffffffffffffffffe09092019160209182019101610417565b6001836020036101000a0380198251168184511680821785525050505050509050019150506040518091039020935061048c84610899565b9250600261ffff8416106104a357600191506104bf565b6104ac846108b1565b9050600261ffff8216106104bf57600191505b600182151514156105795773ffffffffffffffffffffffffffffffffffffffff8616600090815260026020819052604090912080547fffffffffffffffffffffffffffffffffffffffffffffffffffffffffffffff00166001830217905550600380547fffffffffffffffffffffffffffffffffffffffffffffffffffffffffffffff00811660ff9182167fffffffffffffffffffffffffffffffffffffffffffffffffffffffffffffffff019091161781559450610590565b60029450610590565b60019450610590565b600094505b50505050919050565b60009081526007602052604090205490565b6000908152600a602052604090205473ffffffffffffffffffffffffffffffffffffffff1690565b60005473ffffffffffffffffffffffffffffffffffffffff1681565b600b54604080517ff3fc05f4000000000000000000000000000000000000000000000000000000008152336004820152905160009273ffffffffffffffffffffffffffffffffffffffff16918391839163f3fc05f491602480830192602092919082900301818787803b15801561066557600080fd5b505af1158015610679573d6000803e3d6000fd5b505050506040513d602081101561068f57600080fd5b5051156107d957604080516c010000000000000000000000003302602080830191909152603480830189905283518084039091018152605490920192839052815191929182918401908083835b6020831061071957805182527fffffffffffffffffffffffffffffffffffffffffffffffffffffffffffffffe090920191602091820191016106dc565b51815160209384036101000a7fffffffffffffffffffffffffffffffffffffffffffffffffffffffffffffffff018019909216911617905260408051929094018290039091206000818152600783528481208c9055600883528481208b90553380825260098452858220805460018082018355918452858420018e9055838352600a90945294902080547fffffffffffffffffffffffff00000000000000000000000000000000000000001690941790935596509093506107de92505050565b600092505b505092915050565b60006107f133610301565b156102f857600173ffffffffffffffffffffffffffffffffffffffff831660009081526002602081905260409091205460ff169081111561082e57fe5b146102f05773ffffffffffffffffffffffffffffffffffffffff821660009081526002602052604090208054600191907fffffffffffffffffffffffffffffffffffffffffffffffffffffffffffffff001682806102af565b60009081526008602052604090205490565b60009081526004602052604090206002015460ff1690565b60006108bc33610301565b156102f857600082815260046020526040902060020154600760ff90911610801561093d5750600082815260046020908152604080832033845290915281205460ff16600381111561090a57fe5b148061093d57506003600083815260046020908152604080832033845290915290205460ff16600381111561093b57fe5b145b156109f35760008281526004602090815260408083206002810180547fffffffffffffffffffffffffffffffffffffffffffffffffffffffffffffff00808216600160ff9384168101909316179092553380875283865284872080549093168217909255918201805480840182559086528486200180547fffffffffffffffffffffffff000000000000000000000000000000000000000016821790558452600583529083208054918201815583529120018290555b5060008181526004602052604090206002015460ff166102fc5600a165627a7a72305820e889fe9dae5b45ab84f19529d28de2d1182e817c32f52b7e401090c8f24c88300029",
  "source": "pragma solidity ^0.4.19;\n\nimport \"./Administrable.sol\";\nimport \"./Interfaces/ITrustAnchorManager.sol\";\nimport \"./Interfaces/ICuratedBinding.sol\";\n\ncontract CuratedBinding is Administrable, ICuratedBinding {\n\n    string name;\n    mapping(bytes32 => bytes32) merkleRoots;\n    mapping(bytes32 => uint256) channelForms;\n\n    mapping(address => bytes32[]) trustAnchorMerkleRootsArray;\n\n    //reverse mapping to get the trust anchor that proposed the a merkle header.\n    mapping(bytes32 => address) headerKeccakToTrustAnchorSourceMapping;\n\n    address trustAnchorManagerAddress = address(0);\n\n    constructor() public {\n        owner = msg.sender;\n    }\n\n    //returns:\n    // false = not owner\n    // true = is owner\n\n    function isOwner() internal view returns (bool result) {\n        if (msg.sender == owner) {\n            //is owner\n            return true;\n        } else {\n            //not owner\n            return false;\n        }\n    }\n\n    //returns:\n    // 0 = trust anchor is not verified\n    // 1 = set header correctly\n\n    function setHeader(bytes32 _merkleRoot, uint256 _channelForm) public returns (uint8 result) {\n        ITrustAnchorManager trustAnchorManager = ITrustAnchorManager(trustAnchorManagerAddress);\n\n        if (trustAnchorManager.isTrustAnchorVerified(msg.sender)) {\n            bytes32 headerKeccak = keccak256(abi.encodePacked(msg.sender, _merkleRoot));\n\n            merkleRoots[headerKeccak] = _merkleRoot;\n            channelForms[headerKeccak] = _channelForm;\n\n            trustAnchorMerkleRootsArray[msg.sender].push(_merkleRoot);\n\n            headerKeccakToTrustAnchorSourceMapping[headerKeccak] = msg.sender;\n\n            //set header correctly\n            return 1;\n        } else {\n            //trust anchor is not verified\n            return 0;\n        }\n    }\n\n    //returns:\n    // n = merkle header for hash\n    function getMerkleRootFromHeader(bytes32 _headerKeccak) public returns (bytes32 result) {\n        return merkleRoots[_headerKeccak];\n    }\n\n    //returns:\n    // n = channel form for hash\n    function getChannelFormFromHeader(bytes32 _headerKeccak) public returns (uint256 result) {\n        return channelForms[_headerKeccak];\n    }\n\n    function getTrustAnchorFromHeaderKeccak(bytes32 _headerKeccak) public returns (address result) {\n        return headerKeccakToTrustAnchorSourceMapping[_headerKeccak];\n    }\n}\n",
  "sourcePath": "/Users/jaypersanchez/shyft_shyftcorecontracts/contracts/CuratedBinding.sol",
  "compiler": {
    "name": "solc",
    "version": "0.4.28+commit.2fcccea1.Emscripten.clang"
  },
  "schemaVersion": "2.0.3",
  "updatedAt": "2019-02-14T05:20:09.953Z"
}