{
  "contractName": "dappMain",
  "abi": [
    {
      "constant": false,
      "inputs": [
        {
          "name": "_newAdministratorAddress",
          "type": "address"
        }
      ],
      "name": "setPrimaryAdministrator",
      "outputs": [
        {
          "name": "result",
          "type": "uint8"
        }
      ],
      "payable": false,
      "stateMutability": "nonpayable",
      "type": "function"
    },
    {
      "constant": true,
      "inputs": [
        {
          "name": "_administratorAddress",
          "type": "address"
        }
      ],
      "name": "isAdministrator",
      "outputs": [
        {
          "name": "result",
          "type": "bool"
        }
      ],
      "payable": false,
      "stateMutability": "view",
      "type": "function"
    },
    {
      "constant": false,
      "inputs": [
        {
          "name": "_revokeAdministratorAddress",
          "type": "address"
        }
      ],
      "name": "revokeAdministrator",
      "outputs": [
        {
          "name": "result",
          "type": "uint8"
        }
      ],
      "payable": false,
      "stateMutability": "nonpayable",
      "type": "function"
    },
    {
      "constant": true,
      "inputs": [],
      "name": "owner",
      "outputs": [
        {
          "name": "",
          "type": "address"
        }
      ],
      "payable": false,
      "stateMutability": "view",
      "type": "function"
    },
    {
      "constant": false,
      "inputs": [
        {
          "name": "_newAdministratorAddress",
          "type": "address"
        }
      ],
      "name": "setAdministrator",
      "outputs": [
        {
          "name": "result",
          "type": "uint8"
        }
      ],
      "payable": false,
      "stateMutability": "nonpayable",
      "type": "function"
    },
    {
      "inputs": [],
      "payable": false,
      "stateMutability": "nonpayable",
      "type": "constructor"
    },
    {
      "constant": false,
      "inputs": [
        {
          "name": "_addressToVerify",
          "type": "address"
        }
      ],
      "name": "onBoardTA",
      "outputs": [],
      "payable": false,
      "stateMutability": "nonpayable",
      "type": "function"
    }
  ],
  "bytecode": "0x608060405261000c61005b565b604051809103906000f080158015610028573d6000803e3d6000fd5b5060068054600160a060020a031916600160a060020a039290921691909117905534801561005557600080fd5b5061006b565b604051611071806108b983390190565b61083f8061007a6000396000f3006080604052600436106100775763ffffffff7c0100000000000000000000000000000000000000000000000000000000600035041663064ad7c2811461007c5780630a2eb301146100c05780634402bba3146101025780637358b6a5146101305780638da5cb5b14610160578063df8089ef1461019e575b600080fd5b34801561008857600080fd5b506100aa73ffffffffffffffffffffffffffffffffffffffff600435166101cc565b6040805160ff9092168252519081900360200190f35b3480156100cc57600080fd5b506100ee73ffffffffffffffffffffffffffffffffffffffff6004351661029b565b604080519115158252519081900360200190f35b34801561010e57600080fd5b506100aa73ffffffffffffffffffffffffffffffffffffffff600435166102e3565b34801561013c57600080fd5b5061015e73ffffffffffffffffffffffffffffffffffffffff60043516610533565b005b34801561016c57600080fd5b506101756105e1565b6040805173ffffffffffffffffffffffffffffffffffffffff9092168252519081900360200190f35b3480156101aa57600080fd5b506100aa73ffffffffffffffffffffffffffffffffffffffff600435166105fd565b6000805473ffffffffffffffffffffffffffffffffffffffff163314156102925760035460ff16151561028a5773ffffffffffffffffffffffffffffffffffffffff821660009081526002602052604090208054600191907fffffffffffffffffffffffffffffffffffffffffffffffffffffffffffffff001682805b0217905550506003805460ff808216600101167fffffffffffffffffffffffffffffffffffffffffffffffffffffffffffffff009091161790556002610296565b506001610296565b5060005b919050565b6000600173ffffffffffffffffffffffffffffffffffffffff831660009081526002602081905260409091205460ff16908111156102d557fe5b141561029257506001610296565b60008060008060006102f43361029b565b1561052557600173ffffffffffffffffffffffffffffffffffffffff871660009081526002602081905260409091205460ff169081111561033157fe5b141561051c57604080517f61646d696e697374726174696f6e5265766f636174696f6e566f7465000000006020808301919091526c0100000000000000000000000073ffffffffffffffffffffffffffffffffffffffff8a1602603c83015282516030818403018152605090920192839052815191929182918401908083835b602083106103ee57805182527fffffffffffffffffffffffffffffffffffffffffffffffffffffffffffffffe090920191602091820191016103b1565b6001836020036101000a038019825116818451168082178552505050505050905001915050604051809103902093506104268461069e565b9250600261ffff84161061043d5760019150610459565b610446846106b6565b9050600261ffff82161061045957600191505b600182151514156105135773ffffffffffffffffffffffffffffffffffffffff8616600090815260026020819052604090912080547fffffffffffffffffffffffffffffffffffffffffffffffffffffffffffffff00166001830217905550600380547fffffffffffffffffffffffffffffffffffffffffffffffffffffffffffffff00811660ff9182167fffffffffffffffffffffffffffffffffffffffffffffffffffffffffffffffff01909116178155945061052a565b6002945061052a565b6001945061052a565b600094505b50505050919050565b600654604080517ff3fc05f400000000000000000000000000000000000000000000000000000000815273ffffffffffffffffffffffffffffffffffffffff84811660048301529151919092169163f3fc05f49160248083019260209291908290030181600087803b1580156105a857600080fd5b505af11580156105bc573d6000803e3d6000fd5b505050506040513d60208110156105d257600080fd5b5051156105de57600080fd5b50565b60005473ffffffffffffffffffffffffffffffffffffffff1681565b60006106083361029b565b1561029257600173ffffffffffffffffffffffffffffffffffffffff831660009081526002602081905260409091205460ff169081111561064557fe5b1461028a5773ffffffffffffffffffffffffffffffffffffffff821660009081526002602052604090208054600191907fffffffffffffffffffffffffffffffffffffffffffffffffffffffffffffff00168280610249565b60009081526004602052604090206002015460ff1690565b60006106c13361029b565b1561029257600082815260046020526040902060020154600760ff9091161080156107425750600082815260046020908152604080832033845290915281205460ff16600381111561070f57fe5b148061074257506003600083815260046020908152604080832033845290915290205460ff16600381111561074057fe5b145b156107f85760008281526004602090815260408083206002810180547fffffffffffffffffffffffffffffffffffffffffffffffffffffffffffffff00808216600160ff9384168101909316179092553380875283865284872080549093168217909255918201805480840182559086528486200180547fffffffffffffffffffffffff000000000000000000000000000000000000000016821790558452600583529083208054918201815583529120018290555b5060008181526004602052604090206002015460ff166102965600a165627a7a72305820b697f0c62e3b92867e414a8c6789c025db7f28703c1caf4cb58d8c5d4d38459200296080604052600b8054600160a060020a031916739db76b4bbaea76dfda4552b7b9d4e9d43abc55fd17905534801561003657600080fd5b5060008054600160a060020a03191633179055611019806100586000396000f3006080604052600436106100cf5763ffffffff7c0100000000000000000000000000000000000000000000000000000000600035041663064ad7c281146100d45780630a2eb3011461011857806325b953b31461015a5780634402bba31461019f57806350a91018146101cd578063512f3d65146101fb57806368878cde146102295780636efc25c8146102455780637899320f1461028c57806389e81ee7146102ba5780638da5cb5b146102e85780639528d27014610326578063df8089ef14610354578063f3fc05f414610382575b600080fd5b3480156100e057600080fd5b5061010273ffffffffffffffffffffffffffffffffffffffff600435166103b0565b6040805160ff9092168252519081900360200190f35b34801561012457600080fd5b5061014673ffffffffffffffffffffffffffffffffffffffff6004351661047f565b604080519115158252519081900360200190f35b34801561016657600080fd5b5061018873ffffffffffffffffffffffffffffffffffffffff600435166104c7565b6040805161ffff9092168252519081900360200190f35b3480156101ab57600080fd5b5061010273ffffffffffffffffffffffffffffffffffffffff6004351661055b565b3480156101d957600080fd5b5061010273ffffffffffffffffffffffffffffffffffffffff600435166107ab565b34801561020757600080fd5b5061014673ffffffffffffffffffffffffffffffffffffffff60043516610941565b34801561023557600080fd5b5061010261ffff60043516610a04565b34801561025157600080fd5b5061027373ffffffffffffffffffffffffffffffffffffffff60043516610af0565b6040805163ffffffff9092168252519081900360200190f35b34801561029857600080fd5b5061010273ffffffffffffffffffffffffffffffffffffffff60043516610b1e565b3480156102c657600080fd5b5061010273ffffffffffffffffffffffffffffffffffffffff60043516610c3b565b3480156102f457600080fd5b506102fd610ce5565b6040805173ffffffffffffffffffffffffffffffffffffffff9092168252519081900360200190f35b34801561033257600080fd5b5061010273ffffffffffffffffffffffffffffffffffffffff60043516610d01565b34801561036057600080fd5b5061010273ffffffffffffffffffffffffffffffffffffffff60043516610d9f565b34801561038e57600080fd5b5061014673ffffffffffffffffffffffffffffffffffffffff60043516610e40565b6000805473ffffffffffffffffffffffffffffffffffffffff163314156104765760035460ff16151561046e5773ffffffffffffffffffffffffffffffffffffffff821660009081526002602052604090208054600191907fffffffffffffffffffffffffffffffffffffffffffffffffffffffffffffff001682805b0217905550506003805460ff808216600101167fffffffffffffffffffffffffffffffffffffffffffffffffffffffffffffff00909116179055600261047a565b50600161047a565b5060005b919050565b6000600173ffffffffffffffffffffffffffffffffffffffff831660009081526002602081905260409091205460ff16908111156104b957fe5b14156104765750600161047a565b73ffffffffffffffffffffffffffffffffffffffff8116600081815260096020908152604080832054815161ffff909116815291820193909352825191927f6f09dfd97060366f89eddd6c6d9673457fed4f97f4da23994acbb845bdb32d5392918290030190a15073ffffffffffffffffffffffffffffffffffffffff1660009081526009602052604090205461ffff1690565b600080600080600061056c3361047f565b1561079d57600173ffffffffffffffffffffffffffffffffffffffff871660009081526002602081905260409091205460ff16908111156105a957fe5b141561079457604080517f61646d696e697374726174696f6e5265766f636174696f6e566f7465000000006020808301919091526c0100000000000000000000000073ffffffffffffffffffffffffffffffffffffffff8a1602603c83015282516030818403018152605090920192839052815191929182918401908083835b6020831061066657805182527fffffffffffffffffffffffffffffffffffffffffffffffffffffffffffffffe09092019160209182019101610629565b6001836020036101000a0380198251168184511680821785525050505050509050019150506040518091039020935061069e84610e78565b9250600261ffff8416106106b557600191506106d1565b6106be84610e90565b9050600261ffff8216106106d157600191505b6001821515141561078b5773ffffffffffffffffffffffffffffffffffffffff8616600090815260026020819052604090912080547fffffffffffffffffffffffffffffffffffffffffffffffffffffffffffffff00166001830217905550600380547fffffffffffffffffffffffffffffffffffffffffffffffffffffffffffffff00811660ff9182167fffffffffffffffffffffffffffffffffffffffffffffffffffffffffffffffff0190911617815594506107a2565b600294506107a2565b600194506107a2565b600094505b50505050919050565b60006107b63361047f565b1561047657600173ffffffffffffffffffffffffffffffffffffffff831660009081526006602052604090205460ff1660038111156107f157fe5b14806108305750600373ffffffffffffffffffffffffffffffffffffffff831660009081526006602052604090205460ff16600381111561082e57fe5b145b1561046e5773ffffffffffffffffffffffffffffffffffffffff8216600090815260066020908152604080832080547fffffffffffffffffffffffffffffffffffffffffffffffffffffffffffffff0016600217905560098252808320805461ffff7fffffffffffffffffffffffffffffffffffffffffffffffffffffffffffff0000909116179055600790915290205463ffffffff161515610939576008805473ffffffffffffffffffffffffffffffffffffffff8416600090815260076020526040902080547fffffffffffffffffffffffffffffffffffffffffffffffffffffffff0000000090811663ffffffff93841617909155825480831660010190921691161790555b50600261047a565b600b54604080517f512f3d6500000000000000000000000000000000000000000000000000000000815273ffffffffffffffffffffffffffffffffffffffff848116600483015291516000939290921691829163512f3d6591602480830192602092919082900301818887803b1580156109ba57600080fd5b505af11580156109ce573d6000803e3d6000fd5b505050506040513d60208110156109e457600080fd5b50511515600114156109f957600191506109fe565b600091505b50919050565b6000610a0f33610e40565b151560011415610476573360009081526009602052604090205461ffff9081161415610a78575033600090815260096020526040902080547fffffffffffffffffffffffffffffffffffffffffffffffffffffffffffff00001661ffff8316179055600261047a565b336000818152600a602090815260409182902080547fffffffffffffffffffffffffffffffffffffffffffffffffffffffffffff00001661ffff8716179055815192835290517f84548859412b54336f26dc5c85182cd2a4328a6203d88a9d259944c80f90328e9281900390910190a150600161047a565b73ffffffffffffffffffffffffffffffffffffffff1660009081526007602052604090205463ffffffff1690565b6000610b293361047f565b156104765773ffffffffffffffffffffffffffffffffffffffff821660009081526009602052604090205461ffff161561046e5773ffffffffffffffffffffffffffffffffffffffff82166000908152600a602052604090205461ffff1615801590610bcd575073ffffffffffffffffffffffffffffffffffffffff8216600090815260096020908152604080832054600a9092529091205461ffff908116911614155b15610939575073ffffffffffffffffffffffffffffffffffffffff81166000908152600a6020908152604080832054600990925290912080547fffffffffffffffffffffffffffffffffffffffffffffffffffffffffffff00001661ffff909216919091179055600361047a565b6000610c463361047f565b1561047657600273ffffffffffffffffffffffffffffffffffffffff831660009081526006602052604090205460ff166003811115610c8157fe5b1461046e5773ffffffffffffffffffffffffffffffffffffffff821660009081526006602052604090208054600391907fffffffffffffffffffffffffffffffffffffffffffffffffffffffffffffff00166001835b02179055506002905061047a565b60005473ffffffffffffffffffffffffffffffffffffffff1681565b6000610d0c3361047f565b156104765773ffffffffffffffffffffffffffffffffffffffff821660009081526006602052604081205460ff166003811115610d4557fe5b141561046e5773ffffffffffffffffffffffffffffffffffffffff821660009081526006602052604090208054600191907fffffffffffffffffffffffffffffffffffffffffffffffffffffffffffffff00168280610cd7565b6000610daa3361047f565b1561047657600173ffffffffffffffffffffffffffffffffffffffff831660009081526002602081905260409091205460ff1690811115610de757fe5b1461046e5773ffffffffffffffffffffffffffffffffffffffff821660009081526002602052604090208054600191907fffffffffffffffffffffffffffffffffffffffffffffffffffffffffffffff0016828061042d565b6000600273ffffffffffffffffffffffffffffffffffffffff831660009081526006602052604090205460ff1660038111156104b957fe5b60009081526004602052604090206002015460ff1690565b6000610e9b3361047f565b1561047657600082815260046020526040902060020154600760ff909116108015610f1c5750600082815260046020908152604080832033845290915281205460ff166003811115610ee957fe5b1480610f1c57506003600083815260046020908152604080832033845290915290205460ff166003811115610f1a57fe5b145b15610fd25760008281526004602090815260408083206002810180547fffffffffffffffffffffffffffffffffffffffffffffffffffffffffffffff00808216600160ff9384168101909316179092553380875283865284872080549093168217909255918201805480840182559086528486200180547fffffffffffffffffffffffff000000000000000000000000000000000000000016821790558452600583529083208054918201815583529120018290555b5060008181526004602052604090206002015460ff1661047a5600a165627a7a72305820e9225a161f795c5c3f2196950ab12d1166407ac3f9c31f31fe222e661f53d12a0029",
  "source": "pragma solidity ^0.4.19;\n\nimport \"../TrustAnchorManager.sol\";\nimport \"../TrustAnchorStorage.sol\";\nimport \"../TrustChannelManager.sol\";\n\ncontract dappMain is Administrable {\n\n    TrustAnchorManager trustAnchorManagerInstance = new TrustAnchorManager();\n\n    constructor () public {\n    }\n\n    /*\n    * The address of the TrustAnchorManager contract will come from console or from the DApp\n    * @_addressToVeriy - this is the wallet address that's to be on-boarded\n    */\n    function onBoardTA(address _addressToVerify) public {\n        //first verify if address is NOT already setup as TA\n        require( trustAnchorManagerInstance.isTrustAnchorVerified(_addressToVerify) == false);\n        //must have primary admin setup first\n\n        //must have at least one secondary admin setup first\n        //do actual on-board\n        //then verify\n\n    }\n\n\n}",
  "sourcePath": "/Users/jaypersanchez/shyft_shyftcorecontracts/contracts/DApp/dappMain.sol",
  "compiler": {
    "name": "solc",
    "version": "0.4.28+commit.2fcccea1.Emscripten.clang"
  },
  "schemaVersion": "2.0.3",
  "updatedAt": "2019-02-14T05:20:09.949Z"
}