{
  "contractName": "DebroujinBitUtils",
  "abi": [
    {
      "constant": false,
      "inputs": [],
      "name": "setupDebroujinTable",
      "outputs": [
        {
          "name": "result",
          "type": "bool"
        }
      ],
      "payable": false,
      "stateMutability": "nonpayable",
      "type": "function"
    },
    {
      "constant": true,
      "inputs": [
        {
          "name": "b",
          "type": "uint32"
        }
      ],
      "name": "rightmost_index",
      "outputs": [
        {
          "name": "result",
          "type": "uint32"
        }
      ],
      "payable": false,
      "stateMutability": "view",
      "type": "function"
    },
    {
      "constant": true,
      "inputs": [
        {
          "name": "n",
          "type": "uint32"
        }
      ],
      "name": "reverse_bits",
      "outputs": [
        {
          "name": "result",
          "type": "uint32"
        }
      ],
      "payable": false,
      "stateMutability": "pure",
      "type": "function"
    },
    {
      "constant": true,
      "inputs": [
        {
          "name": "i",
          "type": "uint32"
        }
      ],
      "name": "numberOfSetBits",
      "outputs": [
        {
          "name": "result",
          "type": "uint32"
        }
      ],
      "payable": false,
      "stateMutability": "pure",
      "type": "function"
    }
  ],
  "bytecode": "0x60806040526000805463ffffffff191663077cb53117905534801561002357600080fd5b506102b9806100336000396000f3006080604052600436106100615763ffffffff7c01000000000000000000000000000000000000000000000000000000006000350416630a36167881146100665780633b23d4231461009d57806345e0972c146100bb578063b459b9de146100e4575b600080fd5b34801561007257600080fd5b5061008463ffffffff60043516610102565b6040805163ffffffff9092168252519081900360200190f35b3480156100a957600080fd5b5061008463ffffffff6004351661014f565b3480156100c757600080fd5b506100d06101a0565b604080519115158252519081900360200190f35b3480156100f057600080fd5b5061008463ffffffff6004351661021a565b630100000060106004600263ffffffff858116919091046355555555169094038085169190910463333333339081169116018084169190910401630f0f0f0f166301010101029091160490565b60008054630800000083830390931663ffffffff918216028116929092049160019083166020811061017d57fe5b600891828204019190066004029054906101000a900463ffffffff169050919050565b6000805b60208160ff1610156102125760005460ff8216906001906308000000600284900a63ffffffff9283160282160416602081106101dc57fe5b600891828204019190066004026101000a81548163ffffffff021916908363ffffffff16021790555080806001019150506101a4565b600191505090565b630f0f0f0f63333333336355555555808416600290810263ffffffff9586169190910491909116178181166004908102918516049190911617818116601090810291841604919091161790630100000090821681810461010080830461ff009081169290921791851602179102179190505600a165627a7a72305820f8678ce9a6ac24e005d2add06c17a1f9184d3efb2993a7c8978b9010fabb8d400029",
  "source": "pragma solidity ^0.4.19;\n\n// 2018 Shyft Inc.\n// Author: Chris F.\n//\n//\n// This contract is solidity translated from I believe C, from a source on the internet\n// discovered whilst searching for bit hacks.\n// this clever Debroujin Sequence is something like \"for every three bit sliding window\n// the pattern does not equal the binary equivalent of another three bit sliding window\"\n// ...\n// the cool part is, this seemingly random string of logic strung together actually is a\n// completely valid mathematical marvel that allows us to create a lookup table of this\n// string of 1's and 0's, and with one AND, one multiply, one right shift, and 3 assignments\n// into memory, we can get the rightmost bit (lower endian systems).\n//\n// shifting is defined in solidity as:\n// \"case Token::SHL:\n//\t\tm_context << Instruction::SWAP1 << u256(2) << Instruction::EXP << Instruction::MUL;\"\n// (https://github.com/ethereum/solidity/pull/1487/commits/b8b4f5e9f9a89eac1218551b5da322b41c7813f4)\n// and EXP is defined in the evm gas cost manual as:\n// \"If exponent is 0, gas used is 10. If exponent is greater than 0, gas used is 10 plus 10\n//  times a factor related to how large the log of the exponent is.\"\n// (https://docs.google.com/spreadsheets/d/1n6mRqkBz3iWcOlRem_mO09GtSKEKrAsfO7Frgx18pNU/edit#gid=0)\n//\n// so the total cost is 3 + 5 + ( 10 + (0 ..> 4 * 10) ) for an average cost of 8 + 30 = 38 gas.\n// not bad!!\n// the general strategy afterwards is to AND the resultant bit with the field set to zero and\n// each of the other 31 bits set to 1, to reduce that bit out of the field. then this operation\n// can be ran again to find the next rightmost bit set.\n//\n// clever use of this allows for a very large field size, and when properly pre-calculated\n// (say for example in the Shyft KYC smart contract) sparse fields can be compared with very\n// little cost compared to direct array iteration.\n//\n//\n// To reverse a 32 bit string (sometimes necessary depending on other operations) we can do\n// 10 shifts, 8 ANDs, and 6 ors, with 3 assignments into memory.\n//\n// one more assignment can be used (which is not to allow for in-solidity debugging.\n\ncontract DebroujinBitUtils {\n    uint32 debruijn32 = 0x077CB531;\n    /* debruijn32 = 0000 0111 0111 1100 1011 0101 0011 0001 */\n    /* table to convert debruijn index to standard index */\n    uint32[32] index32;\n    /* routine to initialize index32 */\n\n    //returns:\n    // true\n\n    function setupDebroujinTable() public returns (bool result){\n        for (uint8 i = 0; i < 32; i++) {\n            index32[ (debruijn32 << i) >> 27 ] = i;\n        }\n\n        return true;\n    }\n    \n    /* compute index of rightmost 1 */\n    function rightmost_index(uint32 b) public view returns (uint32 result)\n    {\n        b &= -b;\n        b *= debruijn32;\n        b >>= 27;\n        // uint32 value = b;\n        return index32[b];\n    }\n    \n    function reverse_bits(uint32 n) public pure returns (uint32 result) {\n        // note: mutating formal parameter\n        n = ((n & uint32(0x55555555)) << 1) | ((n >> 1) & 0x55555555);\n        n = ((n & 0x33333333) << 2) | ((n >> 2) & 0x33333333);\n        n = ((n & 0x0F0F0F0F) << 4) | ((n >> 4) & 0x0F0F0F0F);\n\n//        uint32 value = (n >> 24) | ((n >> 8) & 0xFF00) | ((n & 0xFF00) << 8) | (n << 24);\n        return (n >> 24) | ((n >> 8) & 0xFF00) | ((n & 0xFF00) << 8) | (n << 24);\n    }\n\n    function numberOfSetBits(uint32 i) public pure returns (uint32 result) {\n        // note: mutating formal parameter\n        i = i - ((i >> 1) & 0x55555555);\n        i = (i & 0x33333333) + ((i >> 2) & 0x33333333);\n        return (((i + (i >> 4)) & 0x0F0F0F0F) * 0x01010101) >> 24;\n    }\n}\n",
  "sourcePath": "/Users/jaypersanchez/shyft_shyftcorecontracts/contracts/DebroujinBitUtils.sol",
  "compiler": {
    "name": "solc",
    "version": "0.4.28+commit.2fcccea1.Emscripten.clang"
  },
  "schemaVersion": "2.0.3",
  "updatedAt": "2019-03-26T16:26:58.690Z"
}