{
  "contractName": "HeaderTest",
  "abi": [
    {
      "anonymous": false,
      "inputs": [
        {
          "indexed": false,
          "name": "header",
          "type": "bytes32"
        }
      ],
      "name": "HeaderHashed",
      "type": "event"
    },
    {
      "constant": false,
      "inputs": [
        {
          "name": "prevHeader",
          "type": "bytes32"
        },
        {
          "name": "timestamp",
          "type": "uint256"
        },
        {
          "name": "blockNum",
          "type": "uint256"
        },
        {
          "name": "txRoot",
          "type": "bytes32"
        }
      ],
      "name": "hashHeader",
      "outputs": [
        {
          "name": "",
          "type": "bytes32"
        }
      ],
      "payable": false,
      "stateMutability": "nonpayable",
      "type": "function"
    }
  ],
  "bytecode": "0x608060405234801561001057600080fd5b506101aa806100206000396000f3006080604052600436106100405763ffffffff7c0100000000000000000000000000000000000000000000000000000000600035041663e6963c1a8114610045575b600080fd5b34801561005157600080fd5b50610066600435602435604435606435610078565b60408051918252519081900360200190f35b6040805160208082018790528183018690526060820185905260808083018590528351808403909101815260a0909201928390528151600093849392909182918401908083835b602083106100fc57805182527fffffffffffffffffffffffffffffffffffffffffffffffffffffffffffffffe090920191602091820191016100bf565b51815160209384036101000a7fffffffffffffffffffffffffffffffffffffffffffffffffffffffffffffffff01801990921691161790526040805192909401829003822080835293519396507ff7f9fac284e65096e9e3a0080240e307dd6953f252a985fe5042d661c4f9095c95509083900301925050a1959450505050505600a165627a7a72305820a8acd4b91433a6db826ab63034208516e1687d35ddb73140b9694baeaef8f8370029",
  "source": "pragma solidity ^0.4.24;\n\ncontract HeaderTest {\n\tevent HeaderHashed(bytes32 header);\n\n\tfunction hashHeader(bytes32 prevHeader, uint256 timestamp, uint256 blockNum, bytes32 txRoot) public returns (bytes32) {\n    \tbytes32 header = keccak256(abi.encodePacked(prevHeader, timestamp, blockNum, txRoot));\n    \temit HeaderHashed(header);\n    \treturn header;\n\t}\n}",
  "sourcePath": "/Users/jaypersanchez/shyft_shyftcorecontracts/contracts/test/HeaderTest.sol",
  "compiler": {
    "name": "solc",
    "version": "0.4.28+commit.2fcccea1.Emscripten.clang"
  },
  "schemaVersion": "2.0.3",
  "updatedAt": "2019-03-01T19:01:07.207Z"
}