{
  "contractName": "RelayerElection",
  "abi": [
    {
      "constant": false,
      "inputs": [
        {
          "name": "_newAdministratorAddress",
          "type": "address"
        }
      ],
      "name": "setPrimaryAdministrator",
      "outputs": [
        {
          "name": "result",
          "type": "uint8"
        }
      ],
      "payable": false,
      "stateMutability": "nonpayable",
      "type": "function"
    },
    {
      "constant": true,
      "inputs": [
        {
          "name": "_administratorAddress",
          "type": "address"
        }
      ],
      "name": "isAdministrator",
      "outputs": [
        {
          "name": "result",
          "type": "bool"
        }
      ],
      "payable": false,
      "stateMutability": "view",
      "type": "function"
    },
    {
      "constant": false,
      "inputs": [
        {
          "name": "_revokeAdministratorAddress",
          "type": "address"
        }
      ],
      "name": "revokeAdministrator",
      "outputs": [
        {
          "name": "result",
          "type": "uint8"
        }
      ],
      "payable": false,
      "stateMutability": "nonpayable",
      "type": "function"
    },
    {
      "constant": true,
      "inputs": [],
      "name": "owner",
      "outputs": [
        {
          "name": "",
          "type": "address"
        }
      ],
      "payable": false,
      "stateMutability": "view",
      "type": "function"
    },
    {
      "constant": false,
      "inputs": [
        {
          "name": "_newAdministratorAddress",
          "type": "address"
        }
      ],
      "name": "setAdministrator",
      "outputs": [
        {
          "name": "result",
          "type": "uint8"
        }
      ],
      "payable": false,
      "stateMutability": "nonpayable",
      "type": "function"
    },
    {
      "anonymous": false,
      "inputs": [
        {
          "indexed": false,
          "name": "_relayer",
          "type": "address"
        }
      ],
      "name": "RelayerAdded",
      "type": "event"
    },
    {
      "anonymous": false,
      "inputs": [
        {
          "indexed": false,
          "name": "_voter",
          "type": "address"
        },
        {
          "indexed": false,
          "name": "_commitment",
          "type": "bytes32"
        }
      ],
      "name": "SetVote",
      "type": "event"
    },
    {
      "anonymous": false,
      "inputs": [
        {
          "indexed": false,
          "name": "_voter",
          "type": "address"
        },
        {
          "indexed": false,
          "name": "_elected",
          "type": "address"
        }
      ],
      "name": "Reveal",
      "type": "event"
    },
    {
      "anonymous": false,
      "inputs": [],
      "name": "ResetElection",
      "type": "event"
    },
    {
      "anonymous": false,
      "inputs": [
        {
          "indexed": false,
          "name": "_admin",
          "type": "address"
        }
      ],
      "name": "PrimaryAdminAdded",
      "type": "event"
    },
    {
      "constant": false,
      "inputs": [
        {
          "name": "relayerToAdd",
          "type": "address"
        }
      ],
      "name": "addRelayer",
      "outputs": [
        {
          "name": "",
          "type": "bool"
        }
      ],
      "payable": false,
      "stateMutability": "nonpayable",
      "type": "function"
    },
    {
      "constant": false,
      "inputs": [
        {
          "name": "_addr",
          "type": "address"
        }
      ],
      "name": "removeRelayer",
      "outputs": [
        {
          "name": "",
          "type": "bool"
        }
      ],
      "payable": false,
      "stateMutability": "nonpayable",
      "type": "function"
    },
    {
      "constant": false,
      "inputs": [
        {
          "name": "commitment",
          "type": "bytes32"
        }
      ],
      "name": "setVote",
      "outputs": [
        {
          "name": "",
          "type": "bool"
        }
      ],
      "payable": false,
      "stateMutability": "nonpayable",
      "type": "function"
    },
    {
      "constant": false,
      "inputs": [
        {
          "name": "relayerToElect",
          "type": "address"
        }
      ],
      "name": "reveal",
      "outputs": [
        {
          "name": "",
          "type": "bool"
        }
      ],
      "payable": false,
      "stateMutability": "nonpayable",
      "type": "function"
    },
    {
      "constant": true,
      "inputs": [],
      "name": "getElectedRelayer",
      "outputs": [
        {
          "name": "",
          "type": "address"
        }
      ],
      "payable": false,
      "stateMutability": "view",
      "type": "function"
    },
    {
      "constant": true,
      "inputs": [
        {
          "name": "toCheck",
          "type": "address"
        }
      ],
      "name": "isInRelayerSet",
      "outputs": [
        {
          "name": "",
          "type": "bool"
        }
      ],
      "payable": false,
      "stateMutability": "view",
      "type": "function"
    },
    {
      "constant": true,
      "inputs": [],
      "name": "numRelayers",
      "outputs": [
        {
          "name": "",
          "type": "uint256"
        }
      ],
      "payable": false,
      "stateMutability": "view",
      "type": "function"
    },
    {
      "constant": true,
      "inputs": [
        {
          "name": "i",
          "type": "uint256"
        }
      ],
      "name": "getRelayerAt",
      "outputs": [
        {
          "name": "",
          "type": "address"
        }
      ],
      "payable": false,
      "stateMutability": "view",
      "type": "function"
    },
    {
      "constant": false,
      "inputs": [],
      "name": "resetElection",
      "outputs": [
        {
          "name": "",
          "type": "bool"
        }
      ],
      "payable": false,
      "stateMutability": "nonpayable",
      "type": "function"
    }
  ],
  "bytecode": "0x608060405234801561001057600080fd5b50611339806100206000396000f3006080604052600436106100cf5763ffffffff7c0100000000000000000000000000000000000000000000000000000000600035041663064ad7c281146100d45780630a2eb301146101185780630ca21c241461015a57806323f0aa60146101815780632f7850df146101af5780634402bba3146101f05780635bc028a31461021e57806360f0a5ac146102335780638da5cb5b14610261578063c392cf4114610276578063dd39f00d146102a4578063df8089ef146102d2578063e8f3052314610300578063f85008a214610315575b600080fd5b3480156100e057600080fd5b5061010273ffffffffffffffffffffffffffffffffffffffff6004351661032d565b6040805160ff9092168252519081900360200190f35b34801561012457600080fd5b5061014673ffffffffffffffffffffffffffffffffffffffff60043516610444565b604080519115158252519081900360200190f35b34801561016657600080fd5b5061016f61048c565b60408051918252519081900360200190f35b34801561018d57600080fd5b5061014673ffffffffffffffffffffffffffffffffffffffff60043516610492565b3480156101bb57600080fd5b506101c76004356104c6565b6040805173ffffffffffffffffffffffffffffffffffffffff9092168252519081900360200190f35b3480156101fc57600080fd5b5061010273ffffffffffffffffffffffffffffffffffffffff60043516610511565b34801561022a57600080fd5b506101c761067a565b34801561023f57600080fd5b5061014673ffffffffffffffffffffffffffffffffffffffff600435166106bc565b34801561026d57600080fd5b506101c7610829565b34801561028257600080fd5b5061014673ffffffffffffffffffffffffffffffffffffffff60043516610845565b3480156102b057600080fd5b5061014673ffffffffffffffffffffffffffffffffffffffff60043516610b8c565b3480156102de57600080fd5b5061010273ffffffffffffffffffffffffffffffffffffffff60043516610d85565b34801561030c57600080fd5b50610146610e62565b34801561032157600080fd5b50610146600435611058565b6000805473ffffffffffffffffffffffffffffffffffffffff1633141561043b5760035460ff1615156104335773ffffffffffffffffffffffffffffffffffffffff821660009081526002602052604090208054600191907fffffffffffffffffffffffffffffffffffffffffffffffffffffffffffffff0016828002179055506003805460ff808216600101167fffffffffffffffffffffffffffffffffffffffffffffffffffffffffffffff009091161790556040805173ffffffffffffffffffffffffffffffffffffffff8416815290517fd4e56686911406bad2a7ed5a2580b52d8a6b46c07c83233d1a3bdfcdbb43ade79181900360200190a150600261043f565b50600161043f565b5060005b919050565b6000600173ffffffffffffffffffffffffffffffffffffffff831660009081526002602081905260409091205460ff169081111561047e57fe5b141561043b5750600161043f565b60075490565b73ffffffffffffffffffffffffffffffffffffffff1660009081526006602052604090206002015462010000900460ff1690565b600060076104d261048c565b838115156104dc57fe5b068154811015156104e957fe5b60009182526020909120015473ffffffffffffffffffffffffffffffffffffffff1692915050565b600080600061051f33610444565b1561066e57600173ffffffffffffffffffffffffffffffffffffffff851660009081526002602081905260409091205460ff169081111561055c57fe5b141561066557604080517f61646d696e697374726174696f6e5265766f636174696f6e566f7465000000008152905190819003601c019020915061059f8261117b565b9050600161ffff82161061065c5773ffffffffffffffffffffffffffffffffffffffff8416600090815260026020819052604090912080547fffffffffffffffffffffffffffffffffffffffffffffffffffffffffffffff00166001830217905550600380547fffffffffffffffffffffffffffffffffffffffffffffffffffffffffffffff00811660ff9182167fffffffffffffffffffffffffffffffffffffffffffffffffffffffffffffffff019091161781559250610673565b60029250610673565b60019250610673565b600092505b5050919050565b6000805473ffffffffffffffffffffffffffffffffffffffff16331461069f57600080fd5b5060085473ffffffffffffffffffffffffffffffffffffffff1690565b60008054819073ffffffffffffffffffffffffffffffffffffffff1633146106e357600080fd5b6106ec83610492565b15156106f757600080fd5b5073ffffffffffffffffffffffffffffffffffffffff8216600090815260066020526040812080547fffffffffffffffffffffffff0000000000000000000000000000000000000000168155600181018290556002810180547fffffffffffffffffffffffffffffffffffffffffffffffffffffffffff0000001690556003018190555b61078361048c565b811015610820578273ffffffffffffffffffffffffffffffffffffffff166007828154811015156107b057fe5b60009182526020909120015473ffffffffffffffffffffffffffffffffffffffff1614156108185760078054829081106107e657fe5b600091825260209091200180547fffffffffffffffffffffffff00000000000000000000000000000000000000001690555b60010161077b565b50600192915050565b60005473ffffffffffffffffffffffffffffffffffffffff1681565b600080803373ffffffffffffffffffffffffffffffffffffffff8516141561086c57600080fd5b61087533610492565b151561088057600080fd5b61088984610492565b151561089457600080fd5b336000908152600660205260409020600281015490925060ff1615156108b957600080fd5b604080516c0100000000000000000000000073ffffffffffffffffffffffffffffffffffffffff871681026020808401919091523391909102603483015282516028818403018152604890920192839052815191929182918401908083835b6020831061095557805182527fffffffffffffffffffffffffffffffffffffffffffffffffffffffffffffffe09092019160209182019101610918565b5181516020939093036101000a7fffffffffffffffffffffffffffffffffffffffffffffffffffffffffffffffff0180199091169216919091179052604051920182900390912060018601541492506109b091505057600080fd5b6002820154610100900460ff16156109c757600080fd5b506002810180547fffffffffffffffffffffffffffffffffffffffffffffffffffffffffffff00001661010017905573ffffffffffffffffffffffffffffffffffffffff8316600090815260066020526040902060038101805460010190819055600b541015610b325780546008805473ffffffffffffffffffffffffffffffffffffffff9092167fffffffffffffffffffffffff00000000000000000000000000000000000000009092169190911790556001810154600955600281018054600a80547fffffffffffffffffffffffffffffffffffffffffffffffffffffffffffffff001660ff92831615151780825583547fffffffffffffffffffffffffffffffffffffffffffffffffffffffffffff00ff90911661010091829004841615159091021780825592547fffffffffffffffffffffffffffffffffffffffffffffffffffffffffff00ffff909316620100009384900490921615159092021790556003810154600b555b6040805133815273ffffffffffffffffffffffffffffffffffffffff8616602082015281517f1c000bbf6dd37ae2e40aad976c068a1e12352f887ea363538ec5536e8eb5ae10929181900390910190a15060019392505050565b6000610b966112d8565b60005473ffffffffffffffffffffffffffffffffffffffff163314610bba57600080fd5b610bc383610492565b15610bcd57600080fd5b73ffffffffffffffffffffffffffffffffffffffff8084168083527fc5d2460186f7233c927e7db2dcc703c0e500b653ca82273b7bfad8045d85a47060208085019182526000604080870182815260608801838152600160808a0181815260a08b01868152898752600688528587208c5181549c167fffffffffffffffffffffffff00000000000000000000000000000000000000009c8d16178155985189840155935160028901805494519251151562010000027fffffffffffffffffffffffffffffffffffffffffffffffffffffffffff00ffff931515610100027fffffffffffffffffffffffffffffffffffffffffffffffffffffffffffff00ff9315157fffffffffffffffffffffffffffffffffffffffffffffffffffffffffffffff00909716969096179290921694909417919091161790915590516003909501949094556007805494850181559091527fa66cc928b5edb82af9bd49922954155ab7b0942694bea4ce44661d9a8736c688909201805490941683179093558051918252517f03580ee9f53a62b7cb409a2cb56f9be87747dd15017afc5cef6eef321e4fb2c5929181900390910190a150600192915050565b6000610d9033610444565b1561043b57600173ffffffffffffffffffffffffffffffffffffffff831660009081526002602081905260409091205460ff1690811115610dcd57fe5b146104335773ffffffffffffffffffffffffffffffffffffffff821660009081526002602052604090208054600191907fffffffffffffffffffffffffffffffffffffffffffffffffffffffffffffff001682800217905550506003805460ff808216600101167fffffffffffffffffffffffffffffffffffffffffffffffffffffffffffffff00909116179055600261043f565b60008054819073ffffffffffffffffffffffffffffffffffffffff163314610e8957600080fd5b5060005b60075481101561102757600060066000600784815481101515610eac57fe5b600091825260208083209091015473ffffffffffffffffffffffffffffffffffffffff16835282019290925260400181206003019190915560078054600691839185908110610ef757fe5b600091825260208083209091015473ffffffffffffffffffffffffffffffffffffffff16835282019290925260400181206001019190915560078054600691839185908110610f4257fe5b60009182526020808320919091015473ffffffffffffffffffffffffffffffffffffffff168352820192909252604001812060020180547fffffffffffffffffffffffffffffffffffffffffffffffffffffffffffffff00169215159290921790915560078054600691839185908110610fb857fe5b600091825260208083209091015473ffffffffffffffffffffffffffffffffffffffff16835282019290925260400190206002018054911515610100027fffffffffffffffffffffffffffffffffffffffffffffffffffffffffffff00ff909216919091179055600101610e8d565b6040517f653f143b0f65caf97199c94ab208a5ff52424b7ee35dd6356adefb27aac9268590600090a1600191505090565b60008061106433610492565b151561106f57600080fd5b7fc5d2460186f7233c927e7db2dcc703c0e500b653ca82273b7bfad8045d85a47083141561109c57600080fd5b604080516c010000000000000000000000003302808252601482015290519081900360280190208314156110cf57600080fd5b503360008181526006602090815260409182902060018082018790556002820180547fffffffffffffffffffffffffffffffffffffffffffffffffffffffffffffff00169091177fffffffffffffffffffffffffffffffffffffffffffffffffffffffffffff00ff1690558251938452908301859052815190927f59ef77d27ab0cc97bad48290b138d686cd4f9a6276c529992d1b9cc659a6dca192908290030190a150600192915050565b600061118633610444565b1561043b57600082815260046020526040902060020154600760ff9091161080156112075750600082815260046020908152604080832033845290915281205460ff1660038111156111d457fe5b148061120757506003600083815260046020908152604080832033845290915290205460ff16600381111561120557fe5b145b156112bd5760008281526004602090815260408083206002810180547fffffffffffffffffffffffffffffffffffffffffffffffffffffffffffffff00808216600160ff9384168101909316179092553380875283865284872080549093168217909255918201805480840182559086528486200180547fffffffffffffffffffffffff000000000000000000000000000000000000000016821790558452600583529083208054918201815583529120018290555b5060008181526004602052604090206002015460ff1661043f565b6040805160c081018252600080825260208201819052918101829052606081018290526080810182905260a0810191909152905600a165627a7a7230582025ba06272b2379be49693798e237252c87b2ae3391752ed2a218a00b0d8167530029",
  "source": "pragma solidity ^0.4.19;\n\nimport \"./Administrable.sol\";\n\ncontract RelayerElection is Administrable {\n\n    struct Relayer {\n        address addr;\n        bytes32 voteCommitment;\n        bool voted;\n        bool revealed;\n        bool isInSet;\n        uint count;\n    }\n\n    mapping (address => Relayer) relayerSet;\n    address[] relayerAddrs;\n\n    Relayer nextRelayer;\n\n    event RelayerAdded(address _relayer);\n    event SetVote(address _voter, bytes32 _commitment);\n    event Reveal(address _voter, address _elected);\n    event ResetElection();\n\n    // @dev: Adds a relayer to this election. Can only be called by the address\n    // that deployed the contract\n    //\n    // @param: address relayerToAdd, address of the relayer to add to the election\n    function addRelayer(address relayerToAdd) public returns (bool){\n         require(msg.sender == owner);\n         require(!isInRelayerSet(relayerToAdd));\n\n         Relayer memory relayer;\n         relayer.addr = relayerToAdd;\n         relayer.voteCommitment = keccak256(\"\");\n         relayer.voted = false;\n         relayer.revealed = false;\n         relayer.isInSet = true;\n         relayer.count = 0;\n\n         relayerSet[relayerToAdd] = relayer;\n         relayerAddrs.push(relayerToAdd);\n         emit RelayerAdded(relayerToAdd);\n         return true;\n    }\n\n    function removeRelayer(address _addr) public returns (bool) {\n        require(msg.sender == owner);\n        require(isInRelayerSet(_addr));\n\n        delete relayerSet[_addr];\n        for(uint i = 0; i < numRelayers(); i++) {\n            if (relayerAddrs[i] == _addr) delete relayerAddrs[i];\n        }\n\n        return true;\n    }\n\n    // @dev: A relayer sets their vote for a particular relayer as a commitment.\n    //\n    // @param: bytes32 commitment, commitment to a particular relayer as their vote\n    function setVote(bytes32 commitment) public returns (bool) {\n         //require(isShyftBridge(msg.sender));\n         require(isInRelayerSet(msg.sender));\n         require(commitment != keccak256(\"\"));\n         require(commitment != keccak256(msg.sender,msg.sender));\n\n         Relayer storage r = relayerSet[msg.sender];\n         r.voteCommitment = commitment;\n         r.voted = true;\n         r.revealed = false;\n\n         emit SetVote(msg.sender, commitment);\n         return true;\n\n    }\n\n    // @dev: A relayer reveals their vote.\n    //\n    // @param: address relayerToElect, the address of their vote.\n    function reveal(address relayerToElect) public returns (bool) {\n        require(msg.sender != relayerToElect);\n        require(isInRelayerSet(msg.sender));\n        require(isInRelayerSet(relayerToElect));\n\n        Relayer storage revealer = relayerSet[msg.sender];\n        require(revealer.voted);\n        require(revealer.voteCommitment == keccak256(abi.encodePacked(relayerToElect,msg.sender)));\n        require(!revealer.revealed);\n\n        revealer.voted = false;\n        revealer.revealed = true;\n\n        Relayer storage toBeElected = relayerSet[relayerToElect];\n        toBeElected.count++;\n\n        if(toBeElected.count > nextRelayer.count) {\n            nextRelayer = toBeElected;\n        }\n\n        emit Reveal(msg.sender, relayerToElect);\n\n        return true;\n    }\n\n    //@dev: After a certain threshold of relayers have submitted their votes,\n    // get the validator for that epoch.\n    function getElectedRelayer() public view returns (address) {\n        require(msg.sender == owner);\n        return nextRelayer.addr;\n    }\n\n    function isInRelayerSet(address toCheck) public view returns (bool) {\n        return relayerSet[toCheck].isInSet;\n    }\n\n    function numRelayers() public view returns (uint256) {\n        return relayerAddrs.length;\n    }\n\n    function getRelayerAt(uint256 i) public view returns (address) {\n        return relayerAddrs[i % numRelayers()];\n    }\n\n    function resetElection() public returns (bool) {\n        require(msg.sender == owner);\n\n        for(uint i=0; i < relayerAddrs.length; i++) {\n            //delete relayerSet[relayerAddrs[i]];\n            relayerSet[relayerAddrs[i]].count = 0;\n            relayerSet[relayerAddrs[i]].voteCommitment = 0;\n            relayerSet[relayerAddrs[i]].voted = false;\n            relayerSet[relayerAddrs[i]].revealed = false;\n        }\n\n        //delete relayerAddrs;\n\n        emit ResetElection();\n\n        return true;\n    }\n\n}\n",
  "sourcePath": "/Users/jaypersanchez/shyft_shyftcorecontracts/contracts/relayerElection.sol",
  "compiler": {
    "name": "solc",
    "version": "0.4.28+commit.2fcccea1.Emscripten.clang"
  },
  "schemaVersion": "2.0.3",
  "updatedAt": "2019-03-01T19:01:11.798Z"
}