{
  "contractName": "ShyftKycContract",
  "abi": [
    {
      "constant": false,
      "inputs": [
        {
          "name": "_identifiedAddress",
          "type": "address"
        },
        {
          "name": "_proofHash",
          "type": "bytes32"
        },
        {
          "name": "_proof",
          "type": "bytes"
        },
        {
          "name": "_publicMetadata",
          "type": "bytes"
        },
        {
          "name": "_encryptedMetadata",
          "type": "bytes"
        },
        {
          "name": "_amount",
          "type": "uint256"
        },
        {
          "name": "_bip32X_type",
          "type": "uint32"
        }
      ],
      "name": "addProof",
      "outputs": [
        {
          "name": "result",
          "type": "uint16"
        }
      ],
      "payable": false,
      "stateMutability": "nonpayable",
      "type": "function"
    },
    {
      "constant": true,
      "inputs": [
        {
          "name": "i",
          "type": "uint32"
        }
      ],
      "name": "numberOfSetBits",
      "outputs": [
        {
          "name": "result",
          "type": "uint32"
        }
      ],
      "payable": false,
      "stateMutability": "pure",
      "type": "function"
    },
    {
      "constant": false,
      "inputs": [
        {
          "name": "_account",
          "type": "address"
        },
        {
          "name": "_bip32XType",
          "type": "uint32"
        },
        {
          "name": "_amount",
          "type": "uint256"
        }
      ],
      "name": "setSpendingLimitOnSkirts",
      "outputs": [
        {
          "name": "result",
          "type": "uint8"
        }
      ],
      "payable": false,
      "stateMutability": "nonpayable",
      "type": "function"
    },
    {
      "constant": false,
      "inputs": [
        {
          "name": "proof",
          "type": "bytes"
        }
      ],
      "name": "safeProofProver",
      "outputs": [
        {
          "name": "result",
          "type": "bool"
        }
      ],
      "payable": false,
      "stateMutability": "nonpayable",
      "type": "function"
    },
    {
      "constant": false,
      "inputs": [
        {
          "name": "_account",
          "type": "address"
        },
        {
          "name": "_bip32XChain",
          "type": "uint32"
        },
        {
          "name": "_withdrawalRulesContractAddress",
          "type": "address"
        }
      ],
      "name": "setBPChoice",
      "outputs": [
        {
          "name": "result",
          "type": "uint8"
        }
      ],
      "payable": false,
      "stateMutability": "nonpayable",
      "type": "function"
    },
    {
      "constant": false,
      "inputs": [
        {
          "name": "_amount",
          "type": "uint256"
        },
        {
          "name": "_bip32X_type",
          "type": "uint32"
        }
      ],
      "name": "preserveSafeBalanceForType",
      "outputs": [
        {
          "name": "holdIndex",
          "type": "uint256"
        }
      ],
      "payable": false,
      "stateMutability": "nonpayable",
      "type": "function"
    },
    {
      "constant": false,
      "inputs": [
        {
          "name": "_account",
          "type": "address"
        },
        {
          "name": "_profileManagementContractAddress",
          "type": "address"
        }
      ],
      "name": "setProfileManagament",
      "outputs": [
        {
          "name": "result",
          "type": "uint8"
        }
      ],
      "payable": false,
      "stateMutability": "nonpayable",
      "type": "function"
    },
    {
      "constant": true,
      "inputs": [
        {
          "name": "b",
          "type": "uint32"
        }
      ],
      "name": "rightmost_index",
      "outputs": [
        {
          "name": "result",
          "type": "uint32"
        }
      ],
      "payable": false,
      "stateMutability": "view",
      "type": "function"
    },
    {
      "constant": false,
      "inputs": [
        {
          "name": "_masterKey",
          "type": "address"
        }
      ],
      "name": "setMasterKey",
      "outputs": [
        {
          "name": "result",
          "type": "uint8"
        }
      ],
      "payable": false,
      "stateMutability": "nonpayable",
      "type": "function"
    },
    {
      "constant": false,
      "inputs": [],
      "name": "setupDebroujinTable",
      "outputs": [
        {
          "name": "result",
          "type": "bool"
        }
      ],
      "payable": false,
      "stateMutability": "nonpayable",
      "type": "function"
    },
    {
      "constant": false,
      "inputs": [
        {
          "name": "_holdIndex",
          "type": "uint32"
        }
      ],
      "name": "freeSafeHold",
      "outputs": [
        {
          "name": "result",
          "type": "uint8"
        }
      ],
      "payable": false,
      "stateMutability": "nonpayable",
      "type": "function"
    },
    {
      "constant": true,
      "inputs": [
        {
          "name": "_bip32X_type",
          "type": "uint32"
        }
      ],
      "name": "getPreservationValuation",
      "outputs": [
        {
          "name": "result",
          "type": "uint256"
        }
      ],
      "payable": false,
      "stateMutability": "view",
      "type": "function"
    },
    {
      "constant": false,
      "inputs": [
        {
          "name": "holdIndex",
          "type": "uint32"
        }
      ],
      "name": "preserveSafeHold",
      "outputs": [
        {
          "name": "result",
          "type": "uint8"
        }
      ],
      "payable": false,
      "stateMutability": "nonpayable",
      "type": "function"
    },
    {
      "constant": false,
      "inputs": [
        {
          "name": "_trustAnchorStorageAddress",
          "type": "address"
        }
      ],
      "name": "setTrustAnchorStorageAddress",
      "outputs": [
        {
          "name": "result",
          "type": "uint8"
        }
      ],
      "payable": false,
      "stateMutability": "nonpayable",
      "type": "function"
    },
    {
      "constant": false,
      "inputs": [
        {
          "name": "_account",
          "type": "address"
        }
      ],
      "name": "chillAccount",
      "outputs": [
        {
          "name": "result",
          "type": "uint8"
        }
      ],
      "payable": false,
      "stateMutability": "nonpayable",
      "type": "function"
    },
    {
      "constant": false,
      "inputs": [
        {
          "name": "_identifiedAddress",
          "type": "address"
        }
      ],
      "name": "updateSafe",
      "outputs": [
        {
          "name": "result",
          "type": "uint16"
        }
      ],
      "payable": false,
      "stateMutability": "nonpayable",
      "type": "function"
    },
    {
      "constant": true,
      "inputs": [
        {
          "name": "n",
          "type": "uint32"
        }
      ],
      "name": "reverse_bits",
      "outputs": [
        {
          "name": "result",
          "type": "uint32"
        }
      ],
      "payable": false,
      "stateMutability": "pure",
      "type": "function"
    },
    {
      "constant": false,
      "inputs": [
        {
          "name": "trustChannelBitField",
          "type": "uint256"
        }
      ],
      "name": "getTrustChannelSubIndexFromBitField",
      "outputs": [
        {
          "name": "result",
          "type": "uint8"
        }
      ],
      "payable": false,
      "stateMutability": "nonpayable",
      "type": "function"
    },
    {
      "constant": false,
      "inputs": [
        {
          "name": "_identifiedAddress",
          "type": "address"
        }
      ],
      "name": "reconstructCacheGraph",
      "outputs": [
        {
          "name": "result",
          "type": "uint8"
        }
      ],
      "payable": false,
      "stateMutability": "nonpayable",
      "type": "function"
    },
    {
      "constant": true,
      "inputs": [
        {
          "name": "_bip32X_type",
          "type": "uint32"
        }
      ],
      "name": "getHoldValuation",
      "outputs": [
        {
          "name": "result",
          "type": "uint256"
        }
      ],
      "payable": false,
      "stateMutability": "view",
      "type": "function"
    },
    {
      "constant": false,
      "inputs": [
        {
          "name": "_identifiedAddress",
          "type": "address"
        },
        {
          "name": "_idx",
          "type": "uint16"
        }
      ],
      "name": "compileCacheGraph",
      "outputs": [],
      "payable": false,
      "stateMutability": "nonpayable",
      "type": "function"
    },
    {
      "constant": true,
      "inputs": [],
      "name": "hasBeenUpdated",
      "outputs": [
        {
          "name": "",
          "type": "bool"
        }
      ],
      "payable": false,
      "stateMutability": "view",
      "type": "function"
    },
    {
      "constant": false,
      "inputs": [
        {
          "name": "_senderIdentifiedAddress",
          "type": "address"
        },
        {
          "name": "_receiverIdentifiedAddress",
          "type": "address"
        }
      ],
      "name": "getActiveTrustChannelBitFieldForPair",
      "outputs": [
        {
          "name": "result",
          "type": "uint32"
        }
      ],
      "payable": false,
      "stateMutability": "nonpayable",
      "type": "function"
    },
    {
      "constant": false,
      "inputs": [
        {
          "name": "_trustChannelManagerAddress",
          "type": "address"
        }
      ],
      "name": "setTrustChannelManagerAddress",
      "outputs": [
        {
          "name": "result",
          "type": "uint8"
        }
      ],
      "payable": false,
      "stateMutability": "nonpayable",
      "type": "function"
    },
    {
      "constant": true,
      "inputs": [],
      "name": "nextContract",
      "outputs": [
        {
          "name": "",
          "type": "address"
        }
      ],
      "payable": false,
      "stateMutability": "view",
      "type": "function"
    },
    {
      "constant": true,
      "inputs": [
        {
          "name": "_identifiedAddress",
          "type": "address"
        }
      ],
      "name": "getSafeBalance",
      "outputs": [
        {
          "name": "balance",
          "type": "uint256"
        }
      ],
      "payable": false,
      "stateMutability": "view",
      "type": "function"
    },
    {
      "constant": false,
      "inputs": [
        {
          "name": "_amount",
          "type": "uint256"
        },
        {
          "name": "_bip32X_type",
          "type": "uint32"
        },
        {
          "name": "_safeExpiryTime",
          "type": "uint256"
        }
      ],
      "name": "holdSafeBalanceForType",
      "outputs": [
        {
          "name": "holdIndex",
          "type": "uint256"
        }
      ],
      "payable": false,
      "stateMutability": "nonpayable",
      "type": "function"
    },
    {
      "constant": true,
      "inputs": [
        {
          "name": "_identifiedAddress",
          "type": "address"
        },
        {
          "name": "bip32X_type",
          "type": "uint32"
        }
      ],
      "name": "getSafeBalance",
      "outputs": [
        {
          "name": "balance",
          "type": "uint256"
        }
      ],
      "payable": false,
      "stateMutability": "view",
      "type": "function"
    },
    {
      "constant": true,
      "inputs": [],
      "name": "getShyftTokenType",
      "outputs": [
        {
          "name": "result",
          "type": "uint32"
        }
      ],
      "payable": false,
      "stateMutability": "view",
      "type": "function"
    },
    {
      "constant": false,
      "inputs": [
        {
          "name": "_amount",
          "type": "uint256"
        },
        {
          "name": "_bip32X_type",
          "type": "uint32"
        }
      ],
      "name": "freeSafePreservation",
      "outputs": [
        {
          "name": "result",
          "type": "uint8"
        }
      ],
      "payable": false,
      "stateMutability": "nonpayable",
      "type": "function"
    },
    {
      "inputs": [],
      "payable": false,
      "stateMutability": "nonpayable",
      "type": "constructor"
    },
    {
      "payable": true,
      "stateMutability": "payable",
      "type": "fallback"
    },
    {
      "anonymous": false,
      "inputs": [
        {
          "indexed": false,
          "name": "_identifiedAddress",
          "type": "address"
        },
        {
          "indexed": false,
          "name": "updateLength",
          "type": "uint16"
        },
        {
          "indexed": false,
          "name": "oldAttestationKeccakArrayLength",
          "type": "uint16"
        },
        {
          "indexed": false,
          "name": "attestationKeccakArrayLength",
          "type": "uint16"
        }
      ],
      "name": "EVT_UpdatingCacheGraph",
      "type": "event"
    },
    {
      "anonymous": false,
      "inputs": [
        {
          "indexed": false,
          "name": "_identifiedAddress",
          "type": "address"
        },
        {
          "indexed": false,
          "name": "i",
          "type": "uint32"
        },
        {
          "indexed": false,
          "name": "idx",
          "type": "uint16"
        }
      ],
      "name": "EVT_DoCompileCacheGraph",
      "type": "event"
    },
    {
      "anonymous": false,
      "inputs": [
        {
          "indexed": false,
          "name": "_identifiedAddress",
          "type": "address"
        },
        {
          "indexed": false,
          "name": "trustAnchorIndex",
          "type": "uint32"
        },
        {
          "indexed": false,
          "name": "keccakHash",
          "type": "bytes32"
        }
      ],
      "name": "EVT_DoConditionallyRemoveTrustChannelEXBitFields",
      "type": "event"
    },
    {
      "anonymous": false,
      "inputs": [
        {
          "indexed": false,
          "name": "_identifiedAddress",
          "type": "address"
        },
        {
          "indexed": false,
          "name": "attestationStatusApproved",
          "type": "bool"
        },
        {
          "indexed": false,
          "name": "didChangeApprovedStatus",
          "type": "bool"
        },
        {
          "indexed": false,
          "name": "attestationIndex",
          "type": "uint16"
        },
        {
          "indexed": false,
          "name": "attestationHasAlreadyBeenProcessed",
          "type": "bool"
        }
      ],
      "name": "EVT_GotAttestationStatus",
      "type": "event"
    },
    {
      "anonymous": false,
      "inputs": [
        {
          "indexed": false,
          "name": "_effectiveTime",
          "type": "uint256"
        },
        {
          "indexed": false,
          "name": "blockTimestamp",
          "type": "uint256"
        },
        {
          "indexed": false,
          "name": "_expiryTime",
          "type": "uint256"
        },
        {
          "indexed": false,
          "name": "isActive",
          "type": "bool"
        }
      ],
      "name": "EVT_CompareTime",
      "type": "event"
    },
    {
      "anonymous": false,
      "inputs": [
        {
          "indexed": false,
          "name": "_identifiedAddress",
          "type": "address"
        },
        {
          "indexed": false,
          "name": "keccakHash",
          "type": "bytes32"
        },
        {
          "indexed": false,
          "name": "consentAvailable",
          "type": "bool"
        }
      ],
      "name": "EVT_DoCompileCacheGraphTrustChannelEXBitFields",
      "type": "event"
    },
    {
      "anonymous": false,
      "inputs": [
        {
          "indexed": false,
          "name": "senderLowestSubmapNumber",
          "type": "uint24"
        },
        {
          "indexed": false,
          "name": "senderHighestSubmapNumber",
          "type": "uint24"
        },
        {
          "indexed": false,
          "name": "receiverLowestSubmapNumber",
          "type": "uint24"
        },
        {
          "indexed": false,
          "name": "receiverHighestSubmapNumber",
          "type": "uint24"
        },
        {
          "indexed": false,
          "name": "senderBitfield",
          "type": "uint256"
        },
        {
          "indexed": false,
          "name": "receiverBitfield",
          "type": "uint256"
        },
        {
          "indexed": false,
          "name": "andedBitField",
          "type": "uint256"
        }
      ],
      "name": "EVT_GetActiveTrustChannelEXBitFieldLength",
      "type": "event"
    },
    {
      "anonymous": false,
      "inputs": [
        {
          "indexed": false,
          "name": "trustAnchorAddress",
          "type": "address"
        },
        {
          "indexed": false,
          "name": "trustAnchorIndex",
          "type": "uint32"
        },
        {
          "indexed": false,
          "name": "bitField",
          "type": "uint256"
        }
      ],
      "name": "EVT_GotBitFieldFromTrustAnchor",
      "type": "event"
    },
    {
      "anonymous": false,
      "inputs": [
        {
          "indexed": false,
          "name": "bitFieldWords",
          "type": "uint32"
        }
      ],
      "name": "EVT_TrustChannelBitFieldWords",
      "type": "event"
    },
    {
      "anonymous": false,
      "inputs": [
        {
          "indexed": false,
          "name": "trustChannelIndex",
          "type": "uint24"
        }
      ],
      "name": "EVT_TrustChannelBitFieldIndex",
      "type": "event"
    },
    {
      "anonymous": false,
      "inputs": [
        {
          "indexed": false,
          "name": "index",
          "type": "uint32"
        },
        {
          "indexed": false,
          "name": "shifter",
          "type": "uint32"
        },
        {
          "indexed": false,
          "name": "trustChannelBitFieldWord",
          "type": "uint32"
        },
        {
          "indexed": false,
          "name": "trustChannelBitField",
          "type": "uint256"
        },
        {
          "indexed": false,
          "name": "trustChannelIndex",
          "type": "uint24"
        }
      ],
      "name": "EVT_TrustChannelBitFieldIndexEXT",
      "type": "event"
    },
    {
      "anonymous": false,
      "inputs": [
        {
          "indexed": false,
          "name": "senderHighestSubmapNumber",
          "type": "uint24"
        },
        {
          "indexed": false,
          "name": "receiverHighestSubmapNumber",
          "type": "uint24"
        }
      ],
      "name": "EVT_GotHighestSubmapNumbers",
      "type": "event"
    },
    {
      "anonymous": false,
      "inputs": [
        {
          "indexed": false,
          "name": "lowestTrustChannelSubmapNumber",
          "type": "uint24"
        },
        {
          "indexed": false,
          "name": "highestTrustChannelSubmapNumber",
          "type": "uint24"
        }
      ],
      "name": "EVT_GotLowestAndHighestTrustChannelSubmapNumber",
      "type": "event"
    },
    {
      "anonymous": false,
      "inputs": [
        {
          "indexed": false,
          "name": "trustChannelIndex",
          "type": "uint24"
        },
        {
          "indexed": false,
          "name": "_senderIdentifiedAddress",
          "type": "address"
        },
        {
          "indexed": false,
          "name": "_receiverIdentifiedAddress",
          "type": "address"
        }
      ],
      "name": "EVT_TrustChannelRouted",
      "type": "event"
    },
    {
      "anonymous": false,
      "inputs": [
        {
          "indexed": false,
          "name": "_from",
          "type": "address"
        },
        {
          "indexed": false,
          "name": "_to",
          "type": "address"
        },
        {
          "indexed": false,
          "name": "_value",
          "type": "uint256"
        }
      ],
      "name": "EVT_WithdrawToAddress",
      "type": "event"
    },
    {
      "anonymous": false,
      "inputs": [
        {
          "indexed": false,
          "name": "_from",
          "type": "address"
        },
        {
          "indexed": false,
          "name": "_value",
          "type": "uint256"
        },
        {
          "indexed": false,
          "name": "_data",
          "type": "bytes"
        }
      ],
      "name": "EVT_ERC223TokenFallback",
      "type": "event"
    },
    {
      "anonymous": false,
      "inputs": [
        {
          "indexed": true,
          "name": "from",
          "type": "address"
        },
        {
          "indexed": true,
          "name": "to",
          "type": "address"
        },
        {
          "indexed": false,
          "name": "value",
          "type": "uint256"
        },
        {
          "indexed": true,
          "name": "data",
          "type": "bytes"
        }
      ],
      "name": "Transfer",
      "type": "event"
    },
    {
      "anonymous": false,
      "inputs": [
        {
          "indexed": true,
          "name": "from",
          "type": "address"
        },
        {
          "indexed": true,
          "name": "to",
          "type": "address"
        },
        {
          "indexed": false,
          "name": "tokens",
          "type": "uint256"
        }
      ],
      "name": "Transfer",
      "type": "event"
    },
    {
      "anonymous": false,
      "inputs": [
        {
          "indexed": true,
          "name": "tokenOwner",
          "type": "address"
        },
        {
          "indexed": true,
          "name": "spender",
          "type": "address"
        },
        {
          "indexed": false,
          "name": "tokens",
          "type": "uint256"
        }
      ],
      "name": "Approval",
      "type": "event"
    },
    {
      "anonymous": false,
      "inputs": [
        {
          "indexed": false,
          "name": "trustChannelIndex",
          "type": "uint32"
        }
      ],
      "name": "EVT_TrustChannelBitFieldIndex",
      "type": "event"
    },
    {
      "anonymous": false,
      "inputs": [
        {
          "indexed": false,
          "name": "index",
          "type": "uint32"
        },
        {
          "indexed": false,
          "name": "shifter",
          "type": "uint32"
        },
        {
          "indexed": false,
          "name": "trustChannelBitFieldWord",
          "type": "uint32"
        },
        {
          "indexed": false,
          "name": "trustChannelBitField",
          "type": "uint256"
        },
        {
          "indexed": false,
          "name": "trustChannelIndex",
          "type": "uint32"
        }
      ],
      "name": "EVT_TrustChannelBitFieldIndexEXT",
      "type": "event"
    },
    {
      "anonymous": false,
      "inputs": [
        {
          "indexed": false,
          "name": "trustChannelIndex",
          "type": "uint32"
        },
        {
          "indexed": false,
          "name": "_senderIdentifiedAddress",
          "type": "address"
        },
        {
          "indexed": false,
          "name": "_receiverIdentifiedAddress",
          "type": "address"
        }
      ],
      "name": "EVT_TrustChannelRouted",
      "type": "event"
    },
    {
      "anonymous": false,
      "inputs": [
        {
          "indexed": false,
          "name": "amount",
          "type": "uint256"
        },
        {
          "indexed": false,
          "name": "bip32X_type",
          "type": "uint32"
        },
        {
          "indexed": false,
          "name": "safeExpiryTime",
          "type": "uint256"
        },
        {
          "indexed": false,
          "name": "holdIndex",
          "type": "uint256"
        }
      ],
      "name": "EVT_heldSafeBalanceForType",
      "type": "event"
    },
    {
      "anonymous": false,
      "inputs": [
        {
          "indexed": false,
          "name": "holdIndex",
          "type": "uint256"
        },
        {
          "indexed": false,
          "name": "numRemainingHolds",
          "type": "uint256"
        },
        {
          "indexed": false,
          "name": "holdStatus",
          "type": "uint8"
        },
        {
          "indexed": false,
          "name": "freedAmount",
          "type": "uint256"
        },
        {
          "indexed": false,
          "name": "freedBip32X_type",
          "type": "uint256"
        },
        {
          "indexed": false,
          "name": "currentBlockTime",
          "type": "uint256"
        },
        {
          "indexed": false,
          "name": "safeExpiryTime",
          "type": "uint256"
        }
      ],
      "name": "EVT_freedSafeHold",
      "type": "event"
    },
    {
      "anonymous": false,
      "inputs": [
        {
          "indexed": false,
          "name": "_amount",
          "type": "uint256"
        },
        {
          "indexed": false,
          "name": "_bip32X_type",
          "type": "uint32"
        },
        {
          "indexed": false,
          "name": "blockTimestamp",
          "type": "uint256"
        },
        {
          "indexed": false,
          "name": "holdSafeExpiryTime",
          "type": "uint256"
        }
      ],
      "name": "EVT_freedSafePreservation",
      "type": "event"
    },
    {
      "anonymous": false,
      "inputs": [
        {
          "indexed": false,
          "name": "holdIndex",
          "type": "uint256"
        },
        {
          "indexed": false,
          "name": "numRemainingHolds",
          "type": "uint256"
        },
        {
          "indexed": false,
          "name": "currentBlockTime",
          "type": "uint256"
        },
        {
          "indexed": false,
          "name": "safeExpiryTime",
          "type": "uint256"
        }
      ],
      "name": "EVT_safeHoldStillTimelocked",
      "type": "event"
    },
    {
      "anonymous": false,
      "inputs": [
        {
          "indexed": false,
          "name": "_amount",
          "type": "uint256"
        },
        {
          "indexed": false,
          "name": "_bip32X_type",
          "type": "uint32"
        },
        {
          "indexed": false,
          "name": "preservationValue",
          "type": "uint256"
        }
      ],
      "name": "EVT_preserveSafeBalanceForType",
      "type": "event"
    },
    {
      "constant": false,
      "inputs": [
        {
          "name": "_identifiedAddress",
          "type": "address"
        }
      ],
      "name": "getLocalKYCLevel",
      "outputs": [
        {
          "name": "result",
          "type": "int8"
        }
      ],
      "payable": false,
      "stateMutability": "nonpayable",
      "type": "function"
    },
    {
      "constant": false,
      "inputs": [
        {
          "name": "_amount",
          "type": "uint256"
        },
        {
          "name": "_senderIdentifiedAddress",
          "type": "address"
        },
        {
          "name": "_receiverIdentifiedAddress",
          "type": "address"
        },
        {
          "name": "_requiredConsentFromAllParties",
          "type": "bool"
        }
      ],
      "name": "getRelativeKYCLevelOnlyClean",
      "outputs": [
        {
          "name": "result",
          "type": "int16"
        }
      ],
      "payable": false,
      "stateMutability": "nonpayable",
      "type": "function"
    },
    {
      "constant": false,
      "inputs": [
        {
          "name": "_amount",
          "type": "uint256"
        },
        {
          "name": "_bip32X_type",
          "type": "uint32"
        },
        {
          "name": "_senderIdentifiedAddress",
          "type": "address"
        },
        {
          "name": "_receiverIdentifiedAddress",
          "type": "address"
        },
        {
          "name": "_payForDirty",
          "type": "bool"
        }
      ],
      "name": "getKycCanSend",
      "outputs": [
        {
          "name": "result",
          "type": "uint8"
        }
      ],
      "payable": false,
      "stateMutability": "nonpayable",
      "type": "function"
    },
    {
      "constant": false,
      "inputs": [
        {
          "name": "_addr",
          "type": "address"
        }
      ],
      "name": "update",
      "outputs": [
        {
          "name": "",
          "type": "bool"
        }
      ],
      "payable": false,
      "stateMutability": "nonpayable",
      "type": "function"
    },
    {
      "constant": false,
      "inputs": [
        {
          "name": "_addr",
          "type": "address"
        }
      ],
      "name": "setRegistry",
      "outputs": [
        {
          "name": "",
          "type": "bool"
        }
      ],
      "payable": false,
      "stateMutability": "nonpayable",
      "type": "function"
    },
    {
      "constant": false,
      "inputs": [],
      "name": "registryAddr",
      "outputs": [
        {
          "name": "",
          "type": "address"
        }
      ],
      "payable": false,
      "stateMutability": "nonpayable",
      "type": "function"
    },
    {
      "constant": false,
      "inputs": [],
      "name": "whoIsOrigin",
      "outputs": [
        {
          "name": "",
          "type": "address"
        }
      ],
      "payable": false,
      "stateMutability": "nonpayable",
      "type": "function"
    },
    {
      "constant": false,
      "inputs": [
        {
          "name": "_to",
          "type": "address"
        }
      ],
      "name": "withdrawAll",
      "outputs": [
        {
          "name": "",
          "type": "uint256"
        }
      ],
      "payable": false,
      "stateMutability": "nonpayable",
      "type": "function"
    },
    {
      "constant": true,
      "inputs": [
        {
          "name": "_identifiedAddress",
          "type": "address"
        },
        {
          "name": "_bip32X_type",
          "type": "uint32"
        }
      ],
      "name": "getBalanceBip32X",
      "outputs": [
        {
          "name": "balance",
          "type": "uint256"
        }
      ],
      "payable": false,
      "stateMutability": "view",
      "type": "function"
    },
    {
      "constant": false,
      "inputs": [
        {
          "name": "_amount",
          "type": "uint256"
        },
        {
          "name": "_bip32X_type",
          "type": "uint32"
        },
        {
          "name": "_identifiedAddress",
          "type": "address"
        },
        {
          "name": "_payForDirty",
          "type": "bool"
        }
      ],
      "name": "kycSend",
      "outputs": [
        {
          "name": "result",
          "type": "uint8"
        }
      ],
      "payable": false,
      "stateMutability": "nonpayable",
      "type": "function"
    },
    {
      "constant": false,
      "inputs": [
        {
          "name": "_to",
          "type": "address"
        },
        {
          "name": "_value",
          "type": "uint256"
        }
      ],
      "name": "withdraw",
      "outputs": [
        {
          "name": "ok",
          "type": "bool"
        }
      ],
      "payable": false,
      "stateMutability": "nonpayable",
      "type": "function"
    },
    {
      "constant": false,
      "inputs": [
        {
          "name": "_from",
          "type": "address"
        },
        {
          "name": "_value",
          "type": "uint256"
        },
        {
          "name": "_data",
          "type": "bytes"
        }
      ],
      "name": "tokenFallback",
      "outputs": [],
      "payable": false,
      "stateMutability": "nonpayable",
      "type": "function"
    },
    {
      "constant": true,
      "inputs": [
        {
          "name": "_who",
          "type": "address"
        }
      ],
      "name": "balanceOf",
      "outputs": [
        {
          "name": "",
          "type": "uint256"
        }
      ],
      "payable": false,
      "stateMutability": "view",
      "type": "function"
    },
    {
      "constant": true,
      "inputs": [],
      "name": "name",
      "outputs": [
        {
          "name": "_name",
          "type": "string"
        }
      ],
      "payable": false,
      "stateMutability": "view",
      "type": "function"
    },
    {
      "constant": true,
      "inputs": [],
      "name": "symbol",
      "outputs": [
        {
          "name": "_symbol",
          "type": "string"
        }
      ],
      "payable": false,
      "stateMutability": "view",
      "type": "function"
    },
    {
      "constant": true,
      "inputs": [],
      "name": "decimals",
      "outputs": [
        {
          "name": "_decimals",
          "type": "uint8"
        }
      ],
      "payable": false,
      "stateMutability": "view",
      "type": "function"
    },
    {
      "constant": true,
      "inputs": [],
      "name": "totalSupply",
      "outputs": [
        {
          "name": "_supply",
          "type": "uint256"
        }
      ],
      "payable": false,
      "stateMutability": "view",
      "type": "function"
    },
    {
      "constant": false,
      "inputs": [
        {
          "name": "_to",
          "type": "address"
        },
        {
          "name": "_value",
          "type": "uint256"
        }
      ],
      "name": "transfer",
      "outputs": [
        {
          "name": "ok",
          "type": "bool"
        }
      ],
      "payable": false,
      "stateMutability": "nonpayable",
      "type": "function"
    },
    {
      "constant": false,
      "inputs": [
        {
          "name": "_to",
          "type": "address"
        },
        {
          "name": "_value",
          "type": "uint256"
        },
        {
          "name": "data",
          "type": "bytes"
        }
      ],
      "name": "transfer",
      "outputs": [
        {
          "name": "ok",
          "type": "bool"
        }
      ],
      "payable": false,
      "stateMutability": "nonpayable",
      "type": "function"
    },
    {
      "constant": true,
      "inputs": [
        {
          "name": "_tokenOwner",
          "type": "address"
        },
        {
          "name": "_spender",
          "type": "address"
        }
      ],
      "name": "allowance",
      "outputs": [
        {
          "name": "remaining",
          "type": "uint256"
        }
      ],
      "payable": false,
      "stateMutability": "view",
      "type": "function"
    },
    {
      "constant": false,
      "inputs": [
        {
          "name": "_spender",
          "type": "address"
        },
        {
          "name": "_tokens",
          "type": "uint256"
        }
      ],
      "name": "approve",
      "outputs": [
        {
          "name": "success",
          "type": "bool"
        }
      ],
      "payable": false,
      "stateMutability": "nonpayable",
      "type": "function"
    },
    {
      "constant": false,
      "inputs": [
        {
          "name": "_from",
          "type": "address"
        },
        {
          "name": "_to",
          "type": "address"
        },
        {
          "name": "_tokens",
          "type": "uint256"
        }
      ],
      "name": "transferFrom",
      "outputs": [
        {
          "name": "success",
          "type": "bool"
        }
      ],
      "payable": false,
      "stateMutability": "nonpayable",
      "type": "function"
    }
  ],
  "bytecode": "0x6080604052600080556003805466ffffffff0000001916640309000000177fffffffffff0000000000000000000000000000000000000000ffffffffffffff1690556009805463077cb53163ffffffff19909116179055600e8054602061ffff199091161763ffff000019166208000017905560108054600160a060020a031990811690915560118054909116905534801561009a57600080fd5b5060128054600160a060020a03191633179055615b4780620000bd6000396000f3006080604052600436106102715763ffffffff7c010000000000000000000000000000000000000000000000000000000060003504166303305146811461035657806304d6a15f146103ab57806306fdde03146104c2578063095ea7b31461054c5780630a361678146105915780630c2f98ba146105c85780630e97d4c71461061857806318160ddd14610671578063194d6250146106985780631c1b8772146106d657806323b872dd146107045780632b95b2121461073b578063313ce5671461075c57806332a4fbba146107715780633b23d423146107a55780633b7b9e8f146107c357806340049b921461080a578063457dd8b31461084957806345e0972c14610877578063470413c81461088c5780634f9cf96f146108aa578063505ab893146108ef57806351da2eaa1461090d57806360f317d21461094b57806370a08231146109695780637145739714610997578063743acc09146109c557806381bde120146109f357806395d89b4114610a21578063a9059cbb14610a36578063a91ee0dc14610a67578063b459b9de14610a95578063b460b1a514610ab3578063b7b559d914610acb578063b8dc6bc014610af9578063be45fd6214610b17578063c0ee0b8a14610b8d578063c62d30dc14610c05578063c65454d314610c3a578063ca1a35cf14610c4f578063ca37959514610c64578063ce3b94d714610c9b578063d058df6614610ccf578063d8787fde14610cfd578063dd62ed3e14610d12578063df90225d14610d46578063e3a8559314610d74578063e8c5d84314610d98578063f3fef3a314610dcf578063f8c2e26f14610e00578063fa09e63014610e15578063fcb81ce214610e43575b601654600090610100900460ff16156102f057503260009081526014602090815260408083206003546301000000900463ffffffff1684529091528082208054908390556017549151909273ffffffffffffffffffffffffffffffffffffffff9092169162015f909134850191818181858888f1935050505050610353565b32600090815260146020908152604080832060035463ffffffff630100000090910481168552925290912054610328913490610e6416565b3260009081526014602090815260408083206003546301000000900463ffffffff1684529091529020555b50005b34801561036257600080fd5b5061039260043573ffffffffffffffffffffffffffffffffffffffff602435811690604435166064351515610e7a565b60408051600192830b90920b8252519081900360200190f35b3480156103b757600080fd5b50604080516020600460443581810135601f81018490048402850184019095528484526104ab94823573ffffffffffffffffffffffffffffffffffffffff1694602480359536959460649492019190819084018382808284375050604080516020601f89358b018035918201839004830284018301909452808352979a99988101979196509182019450925082915084018382808284375050604080516020601f89358b018035918201839004830284018301909452808352979a999881019791965091820194509250829150840183828082843750949750508435955050505060209091013563ffffffff169050610f84565b6040805161ffff9092168252519081900360200190f35b3480156104ce57600080fd5b506104d7611265565b6040805160208082528351818301528351919283929083019185019080838360005b838110156105115781810151838201526020016104f9565b50505050905090810190601f16801561053e5780820380516001836020036101000a031916815260200191505b509250505060405180910390f35b34801561055857600080fd5b5061057d73ffffffffffffffffffffffffffffffffffffffff6004351660243561129d565b604080519115158252519081900360200190f35b34801561059d57600080fd5b506105af63ffffffff60043516611328565b6040805163ffffffff9092168252519081900360200190f35b3480156105d457600080fd5b5061060273ffffffffffffffffffffffffffffffffffffffff6004351663ffffffff60243516604435611377565b6040805160ff9092168252519081900360200190f35b34801561062457600080fd5b506040805160206004803580820135601f810184900484028501840190955284845261057d9436949293602493928401919081908401838280828437509497506113f39650505050505050565b34801561067d57600080fd5b50610686611507565b60408051918252519081900360200190f35b3480156106a457600080fd5b5061060273ffffffffffffffffffffffffffffffffffffffff60043581169063ffffffff60243516906044351661150d565b3480156106e257600080fd5b5061057d73ffffffffffffffffffffffffffffffffffffffff600435166115d1565b34801561071057600080fd5b5061057d73ffffffffffffffffffffffffffffffffffffffff60043581169060243516604435611670565b34801561074757600080fd5b5061068660043563ffffffff602435166118d9565b34801561076857600080fd5b506106026119a1565b34801561077d57600080fd5b5061060273ffffffffffffffffffffffffffffffffffffffff600435811690602435166119a6565b3480156107b157600080fd5b506105af63ffffffff60043516611a3a565b3480156107cf57600080fd5b506107f173ffffffffffffffffffffffffffffffffffffffff60043516611a8a565b60408051600092830b90920b8252519081900360200190f35b34801561081657600080fd5b5061060260043563ffffffff6024351673ffffffffffffffffffffffffffffffffffffffff604435166064351515611ba8565b34801561085557600080fd5b5061060273ffffffffffffffffffffffffffffffffffffffff60043516611c0e565b34801561088357600080fd5b5061057d611c8f565b34801561089857600080fd5b5061060263ffffffff60043516611d0a565b3480156108b657600080fd5b5061060260043563ffffffff6024351673ffffffffffffffffffffffffffffffffffffffff604435811690606435166084351515611f41565b3480156108fb57600080fd5b5061068663ffffffff60043516612026565b34801561091957600080fd5b5061092261204f565b6040805173ffffffffffffffffffffffffffffffffffffffff9092168252519081900360200190f35b34801561095757600080fd5b5061060263ffffffff6004351661206b565b34801561097557600080fd5b5061068673ffffffffffffffffffffffffffffffffffffffff600435166120f3565b3480156109a357600080fd5b5061060273ffffffffffffffffffffffffffffffffffffffff60043516612135565b3480156109d157600080fd5b5061060273ffffffffffffffffffffffffffffffffffffffff600435166121ae565b3480156109ff57600080fd5b506104ab73ffffffffffffffffffffffffffffffffffffffff600435166121e7565b348015610a2d57600080fd5b506104d76124e7565b348015610a4257600080fd5b5061057d73ffffffffffffffffffffffffffffffffffffffff6004351660243561251e565b348015610a7357600080fd5b5061057d73ffffffffffffffffffffffffffffffffffffffff60043516612836565b348015610aa157600080fd5b506105af63ffffffff600435166128a7565b348015610abf57600080fd5b5061060260043561291a565b348015610ad757600080fd5b5061060273ffffffffffffffffffffffffffffffffffffffff60043516612a91565b348015610b0557600080fd5b5061068663ffffffff60043516612c0d565b348015610b2357600080fd5b50604080516020600460443581810135601f810184900484028501840190955284845261057d94823573ffffffffffffffffffffffffffffffffffffffff16946024803595369594606494920191908190840183828082843750949750612c369650505050505050565b348015610b9957600080fd5b50604080516020600460443581810135601f8101849004840285018401909552848452610c0394823573ffffffffffffffffffffffffffffffffffffffff16946024803595369594606494920191908190840183828082843750949750612f509650505050505050565b005b348015610c1157600080fd5b50610c0373ffffffffffffffffffffffffffffffffffffffff6004351661ffff6024351661302a565b348015610c4657600080fd5b5061057d613742565b348015610c5b57600080fd5b50610922613750565b348015610c7057600080fd5b5061068673ffffffffffffffffffffffffffffffffffffffff6004351663ffffffff60243516613754565b348015610ca757600080fd5b506105af73ffffffffffffffffffffffffffffffffffffffff60043581169060243516613791565b348015610cdb57600080fd5b5061060273ffffffffffffffffffffffffffffffffffffffff60043516613d3f565b348015610d0957600080fd5b50610922613db8565b348015610d1e57600080fd5b5061068673ffffffffffffffffffffffffffffffffffffffff60043581169060243516613dda565b348015610d5257600080fd5b5061068673ffffffffffffffffffffffffffffffffffffffff60043516613e29565b348015610d8057600080fd5b5061068660043563ffffffff60243516604435613e6b565b348015610da457600080fd5b5061068673ffffffffffffffffffffffffffffffffffffffff6004351663ffffffff60243516613f08565b348015610ddb57600080fd5b5061057d73ffffffffffffffffffffffffffffffffffffffff60043516602435613f45565b348015610e0c57600080fd5b506105af61432b565b348015610e2157600080fd5b5061068673ffffffffffffffffffffffffffffffffffffffff6004351661433e565b348015610e4f57600080fd5b5061060260043563ffffffff60243516614379565b600082820183811015610e7357fe5b9392505050565b600080808060018515151415610e9b57610e948787614462565b9150610ea8565b610ea58787613791565b91505b63ffffffff82811614610f785750601154604080517f2966497c000000000000000000000000000000000000000000000000000000008152600481018a905273ffffffffffffffffffffffffffffffffffffffff8981166024830152888116604483015263ffffffff85166064830152915191909216918291632966497c916084808201926020929091908290030181600087803b158015610f4957600080fd5b505af1158015610f5d573d6000803e3d6000fd5b505050506040513d6020811015610f7357600080fd5b505192505b50909695505050505050565b6000806000610f92336145ed565b80610fb257503373ffffffffffffffffffffffffffffffffffffffff8b16145b156112535773ffffffffffffffffffffffffffffffffffffffff8a16600090815260016020819052604090912081018054909101925063ffffffff831690610ffa90826158cb565b5073ffffffffffffffffffffffffffffffffffffffff8a16600090815260016020819052604090912001805463ffffffff7fffffffffffffffffffffffffffffffffffffffffffffffffffffffffffffffff85011690811061105857fe5b60009182526020918290206006909102018a81558951909250611083916001840191908b01906158fc565b50865161109990600283019060208a01906158fc565b5085516110af90600383019060208901906158fc565b50600481018590556005810180547fffffffffffffffffffffffffffffffffffffffffffffffffffffffff000000001663ffffffff8616179055600260035460ff1660028111156110fc57fe5b14156111db5760038054600191907fffffffffffffffffffffffffffffffffffffffffffffffffffffffffffffff00168280021790555073ffffffffffffffffffffffffffffffffffffffff8a16600090815260016020526040902060020180546401000000007fffffffffffffffffffffffffffffffffffffffffffffffffffffffff000000009091167fffffffffffffffffffffffffffffffffffffffffffffffffffffffffffffffff850163ffffffff16177fffffffffffffffffffffffffffffffffffffffffffffffff00000000ffffffff1617905561124a565b73ffffffffffffffffffffffffffffffffffffffff8a166000908152600160208190526040909120600201805463ffffffff6401000000008083048216909401169092027fffffffffffffffffffffffffffffffffffffffffffffffff00000000ffffffff9092169190911790555b60019250611258565b600092505b5050979650505050505050565b60408051808201909152600581527f536879667400000000000000000000000000000000000000000000000000000060208201525b90565b33600081815260156020908152604080832073ffffffffffffffffffffffffffffffffffffffff87168085529083528184206003546301000000900463ffffffff1685528352818420869055815186815291519394909390927f8c5be1e5ebec7d5bd14f71427d1e84f3dd0314c0f7b2291e5b200ac8c7c3b925928290030190a35060015b92915050565b6004600263ffffffff838116919091046355555555169092038083169190910463333333339081169116019063010000006010838316048301630f0f0f0f16630101010102909116045b919050565b73ffffffffffffffffffffffffffffffffffffffff8381166000908152600460205260408120549091163314156113e9575073ffffffffffffffffffffffffffffffffffffffff8316600090815260086020908152604080832063ffffffff8616845290915290208190556001610e73565b5060009392505050565b6003546040517f375bfa5d000000000000000000000000000000000000000000000000000000008152602060048201818152845160248401528451600094670100000000000000900473ffffffffffffffffffffffffffffffffffffffff1693849363375bfa5d93889390928392604490910191908501908083838c5b83811015611488578181015183820152602001611470565b50505050905090810190601f1680156114b55780820380516001836020036101000a031916815260200191505b5092505050602060405180830381600087803b1580156114d457600080fd5b505af11580156114e8573d6000803e3d6000fd5b505050506040513d60208110156114fe57600080fd5b50519392505050565b60185490565b73ffffffffffffffffffffffffffffffffffffffff8381166000908152600460205260408120549091163314156113e9575073ffffffffffffffffffffffffffffffffffffffff838116600090815260066020908152604080832080547fffffffffffffffffffffffffffffffffffffffffffffffffffffffff000000001663ffffffff88161790556007909152902080547fffffffffffffffffffffffff0000000000000000000000000000000000000000169183169190911790556001610e73565b60175460009073ffffffffffffffffffffffffffffffffffffffff1633146115f857600080fd5b506016805473ffffffffffffffffffffffffffffffffffffffff831662010000027fffffffffffffffffffff0000000000000000000000000000000000000000ffff7fffffffffffffffffffffffffffffffffffffffffffffffffffffffffffff00ff90921661010017919091161790556001919050565b73ffffffffffffffffffffffffffffffffffffffff838116600090815260156020908152604080832093861683529281528282206003546301000000900463ffffffff168352905290812054821180159061170a575073ffffffffffffffffffffffffffffffffffffffff841660009081526014602090815260408083206003546301000000900463ffffffff1684529091529020548211155b156113e95773ffffffffffffffffffffffffffffffffffffffff8085166000908152601560209081526040808320938716835292815282822060035463ffffffff63010000009091048116845291529190205461176991849061461c16565b73ffffffffffffffffffffffffffffffffffffffff808616600081815260156020908152604080832094891683529381528382206003805463ffffffff630100000091829004811686529284528685209790975593835260148252848320935495909504851682529190915220546117e391849061461c16565b73ffffffffffffffffffffffffffffffffffffffff80861660009081526014602081815260408084206003805463ffffffff6301000000918290048116885292855283872098909855958a16855292825280842094549590950482168352929092529190912054611856918490610e6416565b73ffffffffffffffffffffffffffffffffffffffff84811660008181526014602090815260408083206003546301000000900463ffffffff16845282529182902094909455805186815290519193928816927fddf252ad1be2c89b69c2b068fc378daa952ba7f163c4a11628f55a4df523b3ef92918290030190a3506001610e73565b6000806000806118e9868661462e565b9093509150600160ff84161415611993575033600090815260016020908152604080832063ffffffff80891685526008820190935292205461192d918890610e6416565b63ffffffff8616600081815260088401602090815260409182902084905581518a8152908101929092528181019290925290517f72d8fc9df4bef4d191244290e015c7663c85ff3c683a29faf8e83912b7e90e499181900360600190a160019350611998565b600080fd5b50505092915050565b601290565b73ffffffffffffffffffffffffffffffffffffffff828116600090815260046020526040812054909116331415611a32575073ffffffffffffffffffffffffffffffffffffffff828116600090815260056020526040902080547fffffffffffffffffffffffff0000000000000000000000000000000000000000169183169190911790556001611322565b506000611322565b600954630800000063ffffffff9182166000848103909416028216049190600a90831660208110611a6757fe5b600891828204019190066004029054906101000a900463ffffffff169050919050565b6000600173ffffffffffffffffffffffffffffffffffffffff83166000908152600f6020526040902060010154610100900460ff166003811115611aca57fe5b1415611b11575073ffffffffffffffffffffffffffffffffffffffff81166000908152600f60208190526040822001546c010000000000000000000000009004900b611372565b600273ffffffffffffffffffffffffffffffffffffffff83166000908152600f6020526040902060010154610100900460ff166003811115611b4f57fe5b1415611ba057611b5e82612a91565b505073ffffffffffffffffffffffffffffffffffffffff81166000908152600f60208190526040822001546c010000000000000000000000009004900b611372565b506000611372565b33600090815260146020908152604080832063ffffffff871684529091528120548190861161199357611bde8686338787611f41565b90508060ff1660031415611c0157611bf88686338761471d565b60039150611c05565b8091505b50949350505050565b3360009081526004602052604081205473ffffffffffffffffffffffffffffffffffffffff161515611ba0575033600090815260046020526040902080547fffffffffffffffffffffffff00000000000000000000000000000000000000001673ffffffffffffffffffffffffffffffffffffffff83161790556001611372565b6000805b60208160ff161015611d015760095460ff821690600a906308000000600284900a63ffffffff928316028216041660208110611ccb57fe5b600891828204019190066004026101000a81548163ffffffff021916908363ffffffff1602179055508080600101915050611c93565b600191505b5090565b33600090815260016020526040812060038101548290819063ffffffff8616108015611d61575060038301805463ffffffff8716908110611d4757fe5b600091825260209091206004909102015460ff1615156001145b15611f345760038301805463ffffffff8716908110611d7c57fe5b90600052602060002090600402019150428260030154111515611ed15760018201546002830154611db3919063ffffffff16614817565b90508060ff166001141561199357611dca856148da565b6001820154600283015463ffffffff9081166000908152600786016020526040902054611df992909161461c16565b6002808401805463ffffffff9081166000908152600788016020908152604091829020959095556006880154600a8901546001890154945460038a015484518e8716815261ffff9094169884018990527f9136ca7e005ca6190ef2af52a750e62b7db169b0f696a9fa59eedce71c58cbdc988e98909760ff9094169693959290931693429391929091908201908790811115611e9157fe5b60ff1681526020018581526020018463ffffffff16815260200183815260200182815260200197505050505050505060405180910390a160029350611f39565b600683015460038301546040805163ffffffff8916815261ffff909316602084015242838201526060830191909152517f96e92bea059454ffd6caf596fce58c01caa1e03d961b12ad17c093f58492a2429181900360800190a160019350611f39565b600093505b505050919050565b600080600273ffffffffffffffffffffffffffffffffffffffff86166000908152600f6020526040902060010154610100900460ff166003811115611f8257fe5b1480611fc95750600273ffffffffffffffffffffffffffffffffffffffff85166000908152600f6020526040902060010154610100900460ff166003811115611fc757fe5b145b15611fde57821515611fde576004915061201c565b611feb8786866001610e7a565b905060008160010b12156120175760018160010b131561200e576003915061201c565b6001915061201c565b600091505b5095945050505050565b33600090815260016020908152604080832063ffffffff85168452600801909152902054919050565b60175473ffffffffffffffffffffffffffffffffffffffff1690565b3360009081526001602052604081206003810154829063ffffffff85161080156120c0575060038201805463ffffffff86169081106120a657fe5b600091825260209091206004909102015460ff1615156001145b156120ec5760038201805463ffffffff86169081106120db57fe5b906000526020600020906004020190505b5050919050565b73ffffffffffffffffffffffffffffffffffffffff1660009081526014602090815260408083206003546301000000900463ffffffff16845290915290205490565b600061213f614b88565b15611ba05773ffffffffffffffffffffffffffffffffffffffff8216151561216657600080fd5b50601080547fffffffffffffffffffffffff00000000000000000000000000000000000000001673ffffffffffffffffffffffffffffffffffffffff83161790556001611372565b73ffffffffffffffffffffffffffffffffffffffff818116600090815260046020526040812054909116331415611ba057506001611372565b6000806000806000806121f9336145ed565b156124d857600260035460ff16600281111561221157fe5b146124cf5760035473ffffffffffffffffffffffffffffffffffffffff88811660009081526001602052604090206002810154670100000000000000840490921697509550640100000000900463ffffffff169250610100900461ffff168211156122895760035460019350610100900461ffff1691505b50600283015463ffffffff165b8163ffffffff168163ffffffff161015612455578473ffffffffffffffffffffffffffffffffffffffff1663375bfa5d856001018363ffffffff168154811015156122dd57fe5b90600052602060002090600602016001016040518263ffffffff167c010000000000000000000000000000000000000000000000000000000002815260040180806020018281038252838181546001816001161561010002031660029004815260200191508054600181600116156101000203166002900480156123a25780601f10612377576101008083540402835291602001916123a2565b820191906000526020600020905b81548152906001019060200180831161238557829003601f168201915b505092505050602060405180830381600087803b1580156123c257600080fd5b505af11580156123d6573d6000803e3d6000fd5b505050506040513d60208110156123ec57600080fd5b505160018501805463ffffffff841690811061240457fe5b600091825260209091206005600690920201018054911515640100000000027fffffffffffffffffffffffffffffffffffffffffffffffffffffff00ffffffff909216919091179055600101612296565b60028401805463ffffffff8082168501167fffffffffffffffffffffffffffffffffffffffffffffffffffffffff000000009091161790558215156124c657600380547fffffffffffffffffffffffffffffffffffffffffffffffffffffffffffffff0016600217815595506124dd565b600295506124dd565b600195506124dd565b600095505b5050505050919050565b60408051808201909152600481527f5348465400000000000000000000000000000000000000000000000000000000602082015290565b3360009081526014602090815260408083206003546301000000900463ffffffff16845290915281205481906060908290851161282d5733600090815260146020908152604080832060035463ffffffff630100000090910481168552925290912054873b945061259191879061461c16565b3360009081526014602081815260408084206003805463ffffffff630100000091829004811688529285528387209790975573ffffffffffffffffffffffffffffffffffffffff8d168652938352818520935495909504851684529190529020546125fe918790610e6416565b73ffffffffffffffffffffffffffffffffffffffff871660009081526014602090815260408083206003546301000000900463ffffffff16845290915281209190915583111561274457506040517fc0ee0b8a000000000000000000000000000000000000000000000000000000008152336004820181815260248301879052606060448401908152845160648501528451899473ffffffffffffffffffffffffffffffffffffffff86169463c0ee0b8a9490938b93899360840190602085019080838360005b838110156126dd5781810151838201526020016126c5565b50505050905090810190601f16801561270a5780820380516001836020036101000a031916815260200191505b50945050505050600060405180830381600087803b15801561272b57600080fd5b505af115801561273f573d6000803e3d6000fd5b505050505b816040518082805190602001908083835b6020831061279257805182527fffffffffffffffffffffffffffffffffffffffffffffffffffffffffffffffe09092019160209182019101612755565b51815160209384036101000a7fffffffffffffffffffffffffffffffffffffffffffffffffffffffffffffffff0180199092169116179052604080519290940182900382208b8352935193955073ffffffffffffffffffffffffffffffffffffffff8c16945033937fe19260aff97b920c7df27010903aeb9c8d2be5d310a2c67824cf3f15396e4c169350918290030190a460019350611998565b60009350611998565b60125460009073ffffffffffffffffffffffffffffffffffffffff16331461285d57600080fd5b506017805473ffffffffffffffffffffffffffffffffffffffff83167fffffffffffffffffffffffff00000000000000000000000000000000000000009091161790556001919050565b630f0f0f0f63333333336355555555808416600290810263ffffffff9586169190910491909116178181166004908102918516049190911617818116601090810291841604919091161790630100000090821681810461010080830461ff00908116929092179185160217910217919050565b6040805163ffffffff838116808352925160009391928492918391829182917f3ad02d4cc2da46ae2d04fec4fb9c292715bbdd9a8d76b6eb3bc5ba165d7efcd0919081900360200190a163ffffffff8416156129b85761297984611a3a565b6040805160ff8316815290519196507fd2b9662e76f66bcc5970a866051d4e87fc54d83d29ca786772e5cdf20dd718ef919081900360200190a1612a85565b5060065b600060ff821610612a8557600781900360200260ff811660020a8781028a16049350915063ffffffff831615612a5e578160ff166129f984611a3a565b6040805160ff8086168252808716602083015263ffffffff881682840152606082018d9052939092019283166080830152519196507f7da1a9ffbed2f72b97b5f596ff969a8f5b6d4da411183a6b7511455b83278f43919081900360a00190a1612a85565b7fffffffffffffffffffffffffffffffffffffffffffffffffffffffffffffffff016129bc565b50929695505050505050565b601054604080517f7fd463ca00000000000000000000000000000000000000000000000000000000815273ffffffffffffffffffffffffffffffffffffffff8481166004830152915160009392909216918391829182918291829182918891637fd463ca91602480830192602092919082900301818787803b158015612b1657600080fd5b505af1158015612b2a573d6000803e3d6000fd5b505050506040513d6020811015612b4057600080fd5b5051955061010061ffff87161115612b585761010095505b73ffffffffffffffffffffffffffffffffffffffff89166000908152600f6020526040902060020154945061ffff80861690871614612bfc57600e54858703935061ffff90811690841610612bb557600e546001945061ffff1692505b600091505b8261ffff168261ffff161015612be35750838101612bd8898261302a565b600190910190612bba565b831515612bf35760029750612c01565b60019750612c01565b600097505b50505050505050919050565b33600090815260016020908152604080832063ffffffff85168452600701909152902054919050565b3360009081526014602090815260408083206003546301000000900463ffffffff168452909152812054819081908511612f425733600090815260146020908152604080832060035463ffffffff630100000090910481168552925290912054873b9350612ca691879061461c16565b3360009081526014602081815260408084206003805463ffffffff630100000091829004811688529285528387209790975573ffffffffffffffffffffffffffffffffffffffff8d16865293835281852093549590950485168452919052902054612d13918790610e6416565b73ffffffffffffffffffffffffffffffffffffffff871660009081526014602090815260408083206003546301000000900463ffffffff168452909152812091909155821115612e5957506040517fc0ee0b8a000000000000000000000000000000000000000000000000000000008152336004820181815260248301879052606060448401908152865160648501528651899473ffffffffffffffffffffffffffffffffffffffff86169463c0ee0b8a9490938b938b9360840190602085019080838360005b83811015612df2578181015183820152602001612dda565b50505050905090810190601f168015612e1f5780820380516001836020036101000a031916815260200191505b50945050505050600060405180830381600087803b158015612e4057600080fd5b505af1158015612e54573d6000803e3d6000fd5b505050505b836040518082805190602001908083835b60208310612ea757805182527fffffffffffffffffffffffffffffffffffffffffffffffffffffffffffffffe09092019160209182019101612e6a565b51815160209384036101000a7fffffffffffffffffffffffffffffffffffffffffffffffffffffffffffffffff0180199092169116179052604080519290940182900382208b8352935193955073ffffffffffffffffffffffffffffffffffffffff8c16945033937fe19260aff97b920c7df27010903aeb9c8d2be5d310a2c67824cf3f15396e4c169350918290030190a460019250612f47565b600092505b50509392505050565b7f17d1907ed8f339e70e06b7080a2d10e828a9b8ce6ebceccd2231c37434c4082d838383604051808473ffffffffffffffffffffffffffffffffffffffff1673ffffffffffffffffffffffffffffffffffffffff16815260200183815260200180602001828103825283818151815260200191508051906020019080838360005b83811015612fe9578181015183820152602001612fd1565b50505050905090810190601f1680156130165780820380516001836020036101000a031916815260200191505b5094505050505060405180910390a1505050565b601054604080517f5890446300000000000000000000000000000000000000000000000000000000815273ffffffffffffffffffffffffffffffffffffffff858116600483015260ff85166024830152915191909216916000918291829182918291829182918991635890446391604480830192608092919082900301818787803b1580156130b857600080fd5b505af11580156130cc573d6000803e3d6000fd5b505050506040513d60808110156130e257600080fd5b8101908080519060200190929190805190602001909291908051906020019092919080519060200190929190505050809750819850829950839a5050505050600f60008b73ffffffffffffffffffffffffffffffffffffffff1673ffffffffffffffffffffffffffffffffffffffff16815260200190815260200160002060010192508260000160009054906101000a900460ff16151560001515141561320b5782547fffffffffffffffffffffffffffffffffffffffffffffffffffffffffffffff00166001178355600e830180547fffffffffffffffffffffffffffffffffffffffffffffff000000ffffffffffff7fffffffffffffffffffffffffffffffffffffffffffffffffffffffffff00000090911662ffffff171668ffffff0000000000001790555b61ffff89166000908152600a8401602052604090205460ff161515600114156133505761ffff89166000908152600b8401602052604090205460ff1615801561325657506001841515145b156132af5763ffffffff86166000908152600684016020526040902080547fffffffffffffffffffffffffffffffffffffffffffffffffffffffffffff00008116600161ffff928316810190921617909155915061334b565b61ffff89166000908152600b8401602052604090205460ff16151560011480156132d7575083155b1561334b5763ffffffff86166000908152600684016020526040902080547fffffffffffffffffffffffffffffffffffffffffffffffffffffffffffff0000811661ffff9182167fffffffffffffffffffffffffffffffffffffffffffffffffffffffffffffffff01909116179055600191505b613598565b63ffffffff8616600090815260068401602052604090205461ffff1615156133b55763ffffffff86166000908152600884016020526040902080547fffffffffffffffffffffffffffffffffffffffffffffffffffffffffff0000001662ffffff1790555b63ffffffff86166000908152600684016020908152604080832080547fffffffffffffffffffffffffffffffffffffffffffffffffffffffffffff00008116600161ffff928316810190921617909155600387019092529091205460ff161515141561342057613461565b63ffffffff86166000908152600384016020526040902080547fffffffffffffffffffffffffffffffffffffffffffffffffffffffffffffff001660011790555b600483015461ffff1615156134d35760048301805460017fffffffffffffffffffffffffffffffffffffffffffffffffffff00000000ffff9091166201000063ffffffff8a1602177fffffffffffffffffffffffffffffffffffffffffffffffffffffffffffff000016179055613528565b60048301546601000000000000900463ffffffff9081166000908152600285016020526040902080547fffffffffffffffffffffffffffffffffffffffffffffffffffffffff00000000169188169190911790555b6004830180547fffffffffffffffffffffffffffffffffffffffffffffffffffffffffffff00008116600161ffff9283168101909216177fffffffffffffffffffffffffffffffffffffffffffff00000000ffffffffffff16660100000000000063ffffffff8a16021790915591505b600182151514156136f25783156136c557604080517f2192ca1200000000000000000000000000000000000000000000000000000000815273ffffffffffffffffffffffffffffffffffffffff8c8116600483015260ff8c1660248301529151918a1691632192ca12916044808201926020929091908290030181600087803b15801561362457600080fd5b505af1158015613638573d6000803e3d6000fd5b505050506040513d602081101561364e57600080fd5b505161ffff8a166000908152600a85016020526040902054600260ff9283161492501615156136c05761ffff89166000908152600a84016020526040902080547fffffffffffffffffffffffffffffffffffffffffffffffffffffffffffffff001660011790556136c08a8883614bbb565b6136f2565b61ffff89166000908152600a8401602052604090205460ff161515600114156136f2576136c08a87615216565b505061ffff969096166000908152600b909601602052604090952080547fffffffffffffffffffffffffffffffffffffffffffffffffffffffffffffff0016951515959095179094555050505050565b601654610100900460ff1681565b3290565b73ffffffffffffffffffffffffffffffffffffffff8216600090815260146020908152604080832063ffffffff8516845290915290205492915050565b73ffffffffffffffffffffffffffffffffffffffff8281166000908152600f6020818152604080842094861684528084208584015493810154825162ffffff6301000000808804821680845290840482169683018790528551989960019081019995019782169690959190931693899283928392839283927f07f6275d7dad831e42f6e758316b90cee393648ec62ae7ef9f56ab3ae15d240492918290030190a162ffffff88161580613847575062ffffff8616155b15613a6a578a600c0160008062ffffff16815260200190815260200160002054945089600c0160008062ffffff16815260200190815260200160002054851694507ffb2dc8d9c038dd0cda789c32872529ac904dcbcf76974751196f06574d5acde78b600e0160009054906101000a900462ffffff168c600e0160039054906101000a900462ffffff168c600e0160009054906101000a900462ffffff168d600e0160039054906101000a900462ffffff168f600c0160008062ffffff168152602001908152602001600020548f600c0160008062ffffff168152602001908152602001600020548b604051808862ffffff1662ffffff1681526020018762ffffff1662ffffff1681526020018662ffffff1662ffffff1681526020018562ffffff1662ffffff16815260200184815260200183815260200182815260200197505050505050505060405180910390a18415613a5e576139a68561291a565b60ff1693507fd8bb054501cc3c8cc10a1f81a4238e6cbd2a627b470772755b256bf4626cddd6848f8f604051808463ffffffff1663ffffffff1681526020018373ffffffffffffffffffffffffffffffffffffffff1673ffffffffffffffffffffffffffffffffffffffff1681526020018273ffffffffffffffffffffffffffffffffffffffff1673ffffffffffffffffffffffffffffffffffffffff168152602001935050505060405180910390a1839b50613d2e565b63ffffffff9b50613d2e565b8892508791508262ffffff168762ffffff161015613a86578692505b8162ffffff168662ffffff161115613a9c578591505b6040805162ffffff80861682528416602082015281517f8dae684b55df29d392637831aa4c43de04e31a51e4cdbaf80f6c9bc5e4824a9a929181900390910190a150815b8160010162ffffff168162ffffff161015613a5e578a600c0160008262ffffff1662ffffff16815260200190815260200160002054945089600c0160008262ffffff1662ffffff16815260200190815260200160002054851694507ffb2dc8d9c038dd0cda789c32872529ac904dcbcf76974751196f06574d5acde78b600e0160009054906101000a900462ffffff168c600e0160039054906101000a900462ffffff168c600e0160009054906101000a900462ffffff168d600e0160039054906101000a900462ffffff168f600c0160008762ffffff1662ffffff168152602001908152602001600020548f600c0160008862ffffff1662ffffff168152602001908152602001600020548b604051808862ffffff1662ffffff1681526020018762ffffff1662ffffff1681526020018662ffffff1662ffffff1681526020018562ffffff1662ffffff16815260200184815260200183815260200182815260200197505050505050505060405180910390a18415613d26578061010002613c688661291a565b60ff160162ffffff1693507fd8bb054501cc3c8cc10a1f81a4238e6cbd2a627b470772755b256bf4626cddd6848f8f604051808463ffffffff1663ffffffff1681526020018373ffffffffffffffffffffffffffffffffffffffff1673ffffffffffffffffffffffffffffffffffffffff1681526020018273ffffffffffffffffffffffffffffffffffffffff1673ffffffffffffffffffffffffffffffffffffffff168152602001935050505060405180910390a1839b50613d2e565b600101613ae0565b505050505050505050505092915050565b6000613d49614b88565b15611ba05773ffffffffffffffffffffffffffffffffffffffff82161515613d7057600080fd5b50601180547fffffffffffffffffffffffff00000000000000000000000000000000000000001673ffffffffffffffffffffffffffffffffffffffff83161790556001611372565b60165462010000900473ffffffffffffffffffffffffffffffffffffffff1681565b73ffffffffffffffffffffffffffffffffffffffff91821660009081526015602090815260408083209390941682529182528281206003546301000000900463ffffffff168252909152205490565b73ffffffffffffffffffffffffffffffffffffffff1660009081526002602090815260408083206003546301000000900463ffffffff16845290915290205490565b600080600080613e7b878761462e565b9093509150600160ff8416141561199357613e97878787615552565b5033600090815260016020908152604091829020600381015483518a815263ffffffff8a1693810193909352828401889052606083015291517f1980675a7e914b5789d3d0060483518134b5ea7a0f484a4a2e9e0a2f7065273c9181900360800190a1600301549695505050505050565b73ffffffffffffffffffffffffffffffffffffffff8216600090815260026020908152604080832063ffffffff8516845290915290205492915050565b6016546000908190606090829060ff1615613f5f57600080fd5b601680547fffffffffffffffffffffffffffffffffffffffffffffffffffffffffffffff0016600117905532600090815260146020908152604080832060035463ffffffff630100000090910416845290915290205485116142f557601654610100900460ff1615613fd057600193505b32600090815260146020908152604080832060035463ffffffff630100000090910481168552925290912054873b945061400c91879061461c16565b3260009081526014602081815260408084206003805463ffffffff630100000091829004811688529285528387209790975573ffffffffffffffffffffffffffffffffffffffff8d16865293835281852093549590950485168452919052902054614079918790610e6416565b73ffffffffffffffffffffffffffffffffffffffff871660009081526014602090815260408083206003546301000000900463ffffffff1684529091528120919091558311156141fd57506040517fc0ee0b8a000000000000000000000000000000000000000000000000000000008152326004820181815260248301879052606060448401908152845160648501528451899473ffffffffffffffffffffffffffffffffffffffff86169463c0ee0b8a9490938b93899360840190602085019080838360005b83811015614158578181015183820152602001614140565b50505050905090810190601f1680156141855780820380516001836020036101000a031916815260200191505b50945050505050600060405180830381600087803b1580156141a657600080fd5b505af11580156141ba573d6000803e3d6000fd5b505060405173ffffffffffffffffffffffffffffffffffffffff89169250614e20915087906000818181858888f1935050505015156141f857600080fd5b614297565b60405173ffffffffffffffffffffffffffffffffffffffff87169086156108fc029087906000818181858888f19350505050158015614240573d6000803e3d6000fd5b506040805132815273ffffffffffffffffffffffffffffffffffffffff8816602082015280820187905290517f442f59271decdd708646c141272baa09d03c6f831aa19363239743105ecaf8d49181900360600190a15b6040805132815273ffffffffffffffffffffffffffffffffffffffff8816602082015280820187905290517f442f59271decdd708646c141272baa09d03c6f831aa19363239743105ecaf8d49181900360600190a1600193506142fa565b600093505b5050601680547fffffffffffffffffffffffffffffffffffffffffffffffffffffffffffffff001690555092915050565b6003546301000000900463ffffffff1690565b3260009081526014602090815260408083206003546301000000900463ffffffff1684529091528120546143728382613f45565b5092915050565b33600090815260016020908152604080832063ffffffff851684526008810190925282205482908190861161282d576143b28686614817565b91508160ff166001141561199357506202a30042016143d2868683615552565b63ffffffff80861660009081526008850160205260409020546143f791889061461c16565b63ffffffff8616600081815260088601602090815260409182902093909355805189815292830191909152428282015260608201839052517f97a9c9756a905f307172b0c5f52aed2d867aab026fbabe3bcadf4cca0ac67cdb9181900360800190a160019350611998565b73ffffffffffffffffffffffffffffffffffffffff8083166000908152600f60208190526040808320938516835282208382015491810154929360019081019391019162ffffff66010000000000008083048216936901000000000000000000938490048316939181048316929190041686808080808715806144e8575062ffffff8616155b1561451e576000808052600d808d016020908152604080842054928e01909152909120541694508415613a5e576139a68561291a565b8892508791508262ffffff168762ffffff16101561453a578692505b8162ffffff168662ffffff161115614550578591505b6040805162ffffff80861682528416602082015281517f8dae684b55df29d392637831aa4c43de04e31a51e4cdbaf80f6c9bc5e4824a9a929181900390910190a150815b8160010162ffffff168162ffffff161015613a5e5762ffffff81166000908152600d808d016020908152604080842054928e019091529091205416945084156145e5578061010002613c688661291a565b600101614594565b600354670100000000000000900473ffffffffffffffffffffffffffffffffffffffff90811690821614919050565b60008282111561462857fe5b50900390565b32600090815260146020908152604080832063ffffffff851684529091528120548190841161470f5732600090815260146020908152604080832063ffffffff808816855292529091205461468591869061461c16565b32600081815260146020908152604080832063ffffffff808a16808652918452828520969096559383526002825280832093835292905220546146ca918690610e6416565b32600081815260026020908152604080832063ffffffff8916808552908352818420959095559282526014815282822093825292909252902054600192509050614716565b5060009050805b9250929050565b60035463ffffffff84811663010000009092041614156148115773ffffffffffffffffffffffffffffffffffffffff8216600090815260146020908152604080832063ffffffff808816855292529091205461477b91869061461c16565b73ffffffffffffffffffffffffffffffffffffffff808416600090815260146020818152604080842063ffffffff808b168087529184528286209790975594871684529181528183209383529290925220546147d9918690610e6416565b73ffffffffffffffffffffffffffffffffffffffff8216600090815260146020908152604080832063ffffffff881684529091529020555b50505050565b32600090815260026020908152604080832063ffffffff851684529091528120548311611a325732600090815260146020908152604080832063ffffffff808716855292529091205461486c918590610e6416565b32600081815260146020908152604080832063ffffffff808916808652918452828520969096559383526002825280832093835292905220546148b191859061461c16565b32600090815260026020908152604080832063ffffffff87168452909152902055506001611322565b3360009081526001602052604081206003810180549192918291829163ffffffff871690811061490657fe5b6000918252602082206006870180547fffffffffffffffffffffffffffffffffffffffffffffffffffffffffffff0000811661ffff9182167fffffffffffffffffffffffffffffffffffffffffffffffffffffffffffffffff0190911617905560038701805460049390930290910195509063ffffffff881690811061498857fe5b6000918252602090912060049091020180547fffffffffffffffffffffffffffffffffffffffffffffffffffffffffffffff0016911515919091179055600684015462010000900463ffffffff9081169086161415614a5857600684015463ffffffff8681166601000000000000909204161415614a0557614a53565b63ffffffff85811660009081526004860160205260409020546006860180547fffffffffffffffffffffffffffffffffffffffffffffffffffff00000000ffff169190921662010000021790555b614b44565b600684015463ffffffff8681166601000000000000909204161415614acd5763ffffffff85811660009081526005860160205260409020546006860180547fffffffffffffffffffffffffffffffffffffffffffff00000000ffffffffffff1691909216660100000000000002179055614b44565b505063ffffffff8381166000908152600584016020818152604080842054600488018084528286205487168087529484528286208054929097167fffffffffffffffffffffffffffffffffffffffffffffffffffffffff000000009283168117909755868652909252909220805490921681179091555b600684015461ffff161515614b8157600a840180547fffffffffffffffffffffffffffffffffffffffffffffffffffffffffffffff001660021790555b5050505050565b60125460009073ffffffffffffffffffffffffffffffffffffffff16331415614bb35750600161129a565b50600061129a565b601054601154604080517fb7500ac300000000000000000000000000000000000000000000000000000000815260048101869052905173ffffffffffffffffffffffffffffffffffffffff93841693909216916000918291829182918291829182918a9163b7500ac39160248082019260209290919082900301818787803b158015614c4657600080fd5b505af1158015614c5a573d6000803e3d6000fd5b505050506040513d6020811015614c7057600080fd5b5051604080517f3816d032000000000000000000000000000000000000000000000000000000008152600481018e9052905191985073ffffffffffffffffffffffffffffffffffffffff8b1691633816d032916024808201926020929091908290030181600087803b158015614ce557600080fd5b505af1158015614cf9573d6000803e3d6000fd5b505050506040513d6020811015614d0f57600080fd5b5051604080517f35544bcd00000000000000000000000000000000000000000000000000000000815263ffffffff83166004820152905191975073ffffffffffffffffffffffffffffffffffffffff8a16916335544bcd916024808201926020929091908290030181600087803b158015614d8957600080fd5b505af1158015614d9d573d6000803e3d6000fd5b505050506040513d6020811015614db357600080fd5b5051604080517fd086c0ae00000000000000000000000000000000000000000000000000000000815263ffffffff89166004820152905191965073ffffffffffffffffffffffffffffffffffffffff8a169163d086c0ae916024808201926020929091908290030181600087803b158015614e2d57600080fd5b505af1158015614e41573d6000803e3d6000fd5b505050506040513d6020811015614e5757600080fd5b505173ffffffffffffffffffffffffffffffffffffffff8d166000908152600f60205260409020600e54919550600101935062010000900461ffff1685850362ffffff161115614eb357600e5462010000900461ffff16850193505b50835b8360010162ffffff168162ffffff16101561520857604080517fdbdd977200000000000000000000000000000000000000000000000000000000815263ffffffff8816600482015262ffffff83166024820152905173ffffffffffffffffffffffffffffffffffffffff8a169163dbdd97729160448083019260209291908290030181600087803b158015614f4a57600080fd5b505af1158015614f5e573d6000803e3d6000fd5b505050506040513d6020811015614f7457600080fd5b5051915081156152005763ffffffff8616600090815260088401602052604090205462ffffff80831691161115614fea5763ffffffff86166000908152600884016020526040902080547fffffffffffffffffffffffffffffffffffffffffffffffffffffffffff0000001662ffffff83161790555b63ffffffff8616600090815260098401602052604090205462ffffff808316911611156150565763ffffffff86166000908152600984016020526040902080547fffffffffffffffffffffffffffffffffffffffffffffffffffffffffff0000001662ffffff83161790555b63ffffffff86166000908152600784016020908152604080832062ffffff8086168552908352818420869055600c8701909252909120805484179055600e840154868216911611156150d457600e830180547fffffffffffffffffffffffffffffffffffffffffffffffffffffffffff0000001662ffffff87161790555b600e83015462ffffff808616630100000090920416101561512757600e830180547fffffffffffffffffffffffffffffffffffffffffffffffffffff000000ffffff16630100000062ffffff8716021790555b89156152005762ffffff8082166000908152600d850160205260409020805484179055600e840154868216660100000000000090910490911611156151a157600e830180547fffffffffffffffffffffffffffffffffffffffffffffff000000ffffffffffff16660100000000000062ffffff8816021790555b600e83015462ffffff808616690100000000000000000090920416101561520057600e830180547fffffffffffffffffffffffffffffffffffffffff000000ffffffffffffffffff16690100000000000000000062ffffff8716021790555b600101614eb6565b505050505050505050505050565b73ffffffffffffffffffffffffffffffffffffffff82166000908152600f6020908152604080832063ffffffff85168452600781019092528220546001909101919081908190819081908190819061ffff1615156155465763ffffffff8916600090815260088901602052604090205462ffffff1692505b8315156155465763ffffffff89166000908152600789016020908152604080832062ffffff8716845290915290205496508615156152cb5761550e565b5050600486015462010000900463ffffffff1660005b600488015461ffff90811690821610156154745763ffffffff828116908a161461546c5763ffffffff808316600081815260078b016020908152604080832062ffffff8916845282528083205493835260028d019091529020549717968116908a16141561544e5760048801547fffffffffffffffffffffffffffffffffffffffffffffffffffffffffffffffff820161ffff908116911614156153bf576004880180547fffffffffffffffffffffffffffffffffffffffffffff00000000ffffffffffff16660100000000000063ffffffff85160217905561540c565b63ffffffff808a16600090815260028a016020526040808220548584168352912080547fffffffffffffffffffffffffffffffffffffffffffffffffffffffff0000000016919092161790555b63ffffffff898116600090815260028a016020526040902080547fffffffffffffffffffffffffffffffffffffffffffffffffffffffff000000001690911790555b63ffffffff9182166000908152600289016020526040902054909116905b6001016152e1565b6004880180547fffffffffffffffffffffffffffffffffffffffffffffffffffffffffffff0000811661ffff9182167fffffffffffffffffffffffffffffffffffffffffffffffffffffffffffffffff0190911617905586861687181994508415156154df5761550e565b62ffffff83166000908152600c890160209081526040808320805489169055600d8b0190915290208054861690555b63ffffffff8916600090815260098901602052604090205460019093019262ffffff908116908416111561554157600193505b61528e565b50505050505050505050565b61555a615976565b604080820185905263ffffffff80851660608401819052608084018590526001808552336000908152602091825284812092815260078301909152928320549092916155a991908890610e6416565b63ffffffff80871660009081526007850160205260409020919091556003830180546001019250908216906155de90826159a4565b5082826003016001830363ffffffff168154811015156155fa57fe5b600091825260209182902083516004909202018054928401511515610100027fffffffffffffffffffffffffffffffffffffffffffffffffffffffffffff00ff9215157fffffffffffffffffffffffffffffffffffffffffffffffffffffffffffffff0090941693909317919091169190911781556040820151600180830191909155606083015160028301805463ffffffff9092167fffffffffffffffffffffffffffffffffffffffffffffffffffffffff00000000909216919091179055608090920151600390910155600a83015460ff1660028111156156d957fe5b146157ca57600a82018054600191907fffffffffffffffffffffffffffffffffffffffffffffffffffffffffffffff00168280021790555060068201805460017fffffffffffffffffffffffffffffffffffffffffffffffffffff00000000ffff909116620100007fffffffffffffffffffffffffffffffffffffffffffffffffffffffffffffffff850163ffffffff16908102919091177fffffffffffffffffffffffffffffffffffffffffffff00000000ffffffffffff16660100000000000091909102177fffffffffffffffffffffffffffffffffffffffffffffffffffffffffffff0000161790556158c3565b6006820180547fffffffffffffffffffffffffffffffffffffffffffffffffffffffffffffffff830163ffffffff9081166000818152600587016020908152604080832080547fffffffffffffffffffffffffffffffffffffffffffffffffffffffff000000009081166601000000000000988990048816179091558754879004909516835260048901909152902080549092168117909155825461ffff929091027fffffffffffffffffffffffffffffffffffffffffffff00000000ffffffffffff909116178181166001019091167fffffffffffffffffffffffffffffffffffffffffffffffffffffffffffff0000919091161790555b505050505050565b8154818355818111156158f7576006028160060283600052602060002091820191016158f791906159d0565b505050565b828054600181600116156101000203166002900490600052602060002090601f016020900481019282601f1061593d57805160ff191683800117855561596a565b8280016001018555821561596a579182015b8281111561596a57825182559160200191906001019061594f565b50611d06929150615a46565b6040805160a08101825260008082526020820181905291810182905260608101829052608081019190915290565b8154818355818111156158f7576004028160040283600052602060002091820191016158f79190615a60565b61129a91905b80821115611d065760008082556159f06001830182615ad4565b6159fe600283016000615ad4565b615a0c600383016000615ad4565b50600060048201556005810180547fffffffffffffffffffffffffffffffffffffffffffffffffffffff00000000001690556006016159d6565b61129a91905b80821115611d065760008155600101615a4c565b61129a91905b80821115611d065780547fffffffffffffffffffffffffffffffffffffffffffffffffffffffffffff00001681556000600182018190556002820180547fffffffffffffffffffffffffffffffffffffffffffffffffffffffff000000001690556003820155600401615a66565b50805460018160011615610100020316600290046000825580601f10615afa5750615b18565b601f016020900490600052602060002090810190615b189190615a46565b505600a165627a7a723058200ea63e71277eecd336316e21946387f405047f604d1eabb4b7ad56c16cd3521e0029",
  "source": "// pragma experimental ABIEncoderV2;\n\npragma solidity ^0.4.19;\n\nimport './Libraries/SafeMath.sol';\n\nimport \"./Interfaces/IShyftKycContract.sol\";\n\nimport \"./ShyftCacheGraph.sol\";\nimport \"./ShyftSafe.sol\";\n\nimport \"./ShyftKycContractRegistry.sol\";\n\n// the size of the bloom filters below will determine the probability of any particular attestation bitmap to\n// be present in the filter at that location.\n\n// the attestations are mapped by the keccak hash of the totality of the attestation (thus there are only ever\n// one or zero elements set at the keccak hash'd map).\n// this is creating a correspondence between the attestation itself and another independant variable (the\n// keccak hash of the attestation) with a much lower cost of deletion (described below). This cost can even be\n// mitigated by keeping a uint8 as the result space of type of this mapping. hence enum {unknown, enabled, disabled}\n// can be used to change the remove the kyc record.\n\n//https://ethereum.stackexchange.com/questions/594/what-are-the-limits-to-gas-refunds\n\n// this lowered cost is found within the context of the attestation creation continuum. as the cost to add\n// an attestation with all of the resultant lookups (CAL) is much higher than the cost to removed a kyc record\n// from this lookup procedure (RAKL), the total expense is always RAKL - CAL. (R)\n// this R \"value store\" can be used to assist in the half-expense of creating new kyc records.\n// by deleting members en-mass (through a routing scheme within an enumerated listing for \"disabled\" records,\n// externally from the smart contract), the initial store can be performed with the deletion of other members,\n// the number of which deletions corresponding to the maximum gas refund that can be obtained from the creation\n// contract.\n\n// this can be handled in the trust anchor machinery itself, correlating to a \"smart\" update strategy\n// similarly this strategy can be applied to the Shyft Bridge, enabling cheaper bridging with other blockchains\n// that follow the same evm/evm cost specification.\n// similarly this strategy can applied to the cross blockchain attestation formats that Shyft may want to apply\n// to say, PolyMath tokens on the Ethereum blockchain.\n\n\n// common questions:\n// q: \"why do you use weird return orders what is your ocd miss\"\n// a: \"in order to produce the most legible return orders within the code, everything is documented and cross referenced.\n//    tldr; \"deal w/ it\"\n\n// it should be noted that all payable functions should utilize revert, as they are dealing with assets.\n\n\ncontract ShyftKycContract is DMTrustAnchorAttestation, ShyftSafe, ShyftCacheGraph, IShyftKycContract {\n    //@note: due to https://github.com/trufflesuite/truffle-contract/issues/8\n    // events will not log from called contracts (in the attestation revocation call for instance).\n    // this allows for debugging internally.\n\n    event EVT_UpdatingCacheGraph(address _identifiedAddress,\n        uint16 updateLength,\n        uint16 oldAttestationKeccakArrayLength,\n        uint16 attestationKeccakArrayLength);\n    event EVT_DoCompileCacheGraph(address _identifiedAddress,\n        uint32 i,\n        uint16 idx);\n    event EVT_DoConditionallyRemoveTrustChannelEXBitFields(address _identifiedAddress,\n        uint32 trustAnchorIndex,\n        bytes32 keccakHash);\n    event EVT_GotAttestationStatus(address _identifiedAddress,\n        bool attestationStatusApproved,\n        bool didChangeApprovedStatus,\n        uint16 attestationIndex,\n        bool attestationHasAlreadyBeenProcessed);\n    event EVT_CompareTime(uint256 _effectiveTime,\n        uint256 blockTimestamp,\n        uint256 _expiryTime,\n        bool isActive);\n    event EVT_DoCompileCacheGraphTrustChannelEXBitFields(address _identifiedAddress,\n        bytes32 keccakHash,\n        bool consentAvailable);\n    event EVT_GetActiveTrustChannelEXBitFieldLength(\n        uint24 senderLowestSubmapNumber,\n        uint24 senderHighestSubmapNumber,\n        uint24 receiverLowestSubmapNumber,\n        uint24 receiverHighestSubmapNumber,\n        uint256 senderBitfield,\n        uint256 receiverBitfield,\n        uint256 andedBitField);\n    event EVT_GotBitFieldFromTrustAnchor(address trustAnchorAddress,\n        uint32 trustAnchorIndex,\n        uint256 bitField);\n\n    event EVT_TrustChannelBitFieldWords(uint32 bitFieldWords);\n    event EVT_TrustChannelBitFieldIndex(uint24 trustChannelIndex);\n    event EVT_TrustChannelBitFieldIndexEXT(uint32 index,\n        uint32 shifter,\n        uint32 trustChannelBitFieldWord,\n        uint256 trustChannelBitField,\n        uint24 trustChannelIndex);\n\n    event EVT_GotHighestSubmapNumbers(uint24 senderHighestSubmapNumber,\n        uint24 receiverHighestSubmapNumber);\n\n    event EVT_GotLowestAndHighestTrustChannelSubmapNumber(uint24 lowestTrustChannelSubmapNumber,\n        uint24 highestTrustChannelSubmapNumber);\n\n    event EVT_TrustChannelRouted(uint24 trustChannelIndex,\n        address _senderIdentifiedAddress,\n        address _receiverIdentifiedAddress);\n\n\n    //@note:@todo:@next: define \"user attested identity\" into specs\n    // it would be good to research the use of dynamic forward contracts.. another contract that has specifications\n    // internal to itself (via an interface for example) and could run arbitrary code based on a user supplying the\n    // address with the function call. might need to have 1 2 3 4 variable overloads on it for a variety of purposes\n    // this could be useful on the front end as another database could have the function names as strings and a\n    // web3 interface could inject that into the dynamic call structure.\n    //\n    // the rationale behind this is that other forms of attestation may rely on things like merkle tree proof\n    // equivalents of other blockchains, and custom code might need to be ran in order to compactify the available\n    // data into the users cache graph.\n    //\n    // #hassomethingtodowithshyftbridge\n\n    using SafeMath for uint256;\n\n    event EVT_WithdrawToAddress(address _from, address _to, uint256 _value);\n\n    /* ERC223 events */\n    event EVT_ERC223TokenFallback(address _from, uint256 _value, bytes _data);\n\n    // function remove(uint[] array, uint index) internal returns(uint[] value) {\n    //     if (index >= array.length) return;\n\n    //     uint[] memory arrayNew = new uint[](array.length-1);\n    //     for (uint i = 0; i<arrayNew.length; i++){\n    //         if(i != index && i<index){\n    //             arrayNew[i] = array[i];\n    //         } else {\n    //             arrayNew[i] = array[i+1];\n    //         }\n    //     }\n    //     delete array;\n    //     return arrayNew;\n    // }\n\n    //@note:@here:@todo: this is erc20/223 compatible balances\n    // system should be backwards compatible, basic table:\n    // 0 = Bitcoin\n    //  ..\n    //  ..\n    // ShyftTokenType = SHYFT\n\n    mapping(address => mapping(uint32 => uint256)) balances;\n    mapping(address => mapping(address => mapping(uint32 => uint256))) allowed;\n\n    constructor() public {\n        owner = msg.sender;\n    }\n\n    /**************** Cache Graph Utilization ****************/\n\n    //return:\n    // 0 : no kyc'd address found\n    // -1 : no kyc level determined\n    // 1 -> 128: local kyc level found\n\n    //@note: assumes \"active\" attestations\n    // also assumes that \"dirty\" graphs will be rectified in-situ.\n    function getLocalKYCLevel(address _identifiedAddress) public returns (int8 result) {\n        if (identifiedAddress_to_kycIdentity[_identifiedAddress].cacheGraph.graphStatus == CacheGraphStatus.Enabled) {\n            //local kyc level found\n            return identifiedAddress_to_kycIdentity[_identifiedAddress].cacheGraph.constructedLocalKycLevel;\n        } else if (identifiedAddress_to_kycIdentity[_identifiedAddress].cacheGraph.graphStatus == CacheGraphStatus.Dirty) {\n            reconstructCacheGraph(_identifiedAddress);\n\n            //@note:@todo:@next: return the proper data\n            return identifiedAddress_to_kycIdentity[_identifiedAddress].cacheGraph.constructedLocalKycLevel;\n        } else {\n            //     //no kyc'd address found\n            return 0;\n        }\n\n        // //@note: here's the bloom filter in action, acting as a global aggregate of the whole. checks for\n        // // zero value mean absolutely zero active attestations, without needing to check any external\n        // // arrays.\n\n        // if (documentActiveAggregateBloomFilter > 0) {\n        //     //no bits set in \"active\" bloom filter, hence no valid KYC level.\n        //     return 0;\n        // } else {\n\n        // }\n    }\n\n    //returns:\n    //@note:@todo:@next: update.\n    // 0 : no kyc'd address found\n    // -1 : no kyc level determined\n    // 1-128: relative kyc level found\n\n    //@note: assumes \"active\" and \"active+consented\", trust channel routes\n    // also assumes that \"dirty\" graphs will not be passed in.\n    function getRelativeKYCLevelOnlyClean(uint256 _amount,\n    //                                    uint256 _senderSafeAmount,\n                                          address _senderIdentifiedAddress,\n                                          address _receiverIdentifiedAddress,\n    //                                    bool _requireMinimumAssets,\n    //                                    bool _requireBiometrics,\n    //                                    uint256 _senderSafeAmount,\n                                          bool _requiredConsentFromAllParties) public returns (int16 result) {\n        //we avoid this check due to the \"only clean\" status, which is two compares and two storage reads\n        // if (identifiedAddress_to_kycIdentity[_senderIdentifiedAddress].cacheGraph.graphStatus == CacheGraphStatus.Enabled\n        // && identifiedAddress_to_kycIdentity[_receiverIdentifiedAddress].cacheGraph.graphStatus == CacheGraphStatus.Enabled) {\n\n        int16 relativeKycLevel;\n\n        uint32 trustChannelIndex;\n\n        if (_requiredConsentFromAllParties == true) {\n            trustChannelIndex = getActiveConsentedTrustChannelBitFieldForPair(_senderIdentifiedAddress, _receiverIdentifiedAddress);\n        } else {\n            trustChannelIndex = getActiveTrustChannelBitFieldForPair(_senderIdentifiedAddress, _receiverIdentifiedAddress);\n        }\n\n        if (trustChannelIndex != NoTrustChannel) {\n            ITrustChannelManager trustChannelManager = ITrustChannelManager(trustChannelManagerAddress);\n\n            relativeKycLevel = trustChannelManager.route(_amount, _senderIdentifiedAddress, _receiverIdentifiedAddress, trustChannelIndex);\n        }\n\n//        ITrustAnchorStorage trustAnchorStorage = ITrustAnchorStorage(trustAnchorStorageAddress);\n\n        return relativeKycLevel;//identifiedAddress_to_kycIdentity[_identifiedAddress].cacheGraph.constructedLocalKycLevel;\n\n        // //@note: here's the bloom filter in action, acting as a global aggregate of the whole. checks for\n        // // zero value mean absolutely zero active attestations, without needing to check any external\n        // // arrays.\n\n        // if (documentActiveAggregateBloomFilter > 0) {\n        //     //no bits set in \"active\" bloom filter, hence no valid KYC level.\n        //     return 0;\n        // } else {\n\n        // }\n    }\n\n    //results:\n    // 0 = zero kyc detected or error with kyc level\n    // 1 = not enough kyc to transfer\n    // 2 = not enough balance\n    // 3 = can transfer successfully\n    // 4 = won't pay for dirty cache cleaning\n\n    function getKycCanSend(uint256 _amount, uint32 _bip32X_type, address _senderIdentifiedAddress, address _receiverIdentifiedAddress, bool _payForDirty) public returns (uint8 result) {\n        if (identifiedAddress_to_kycIdentity[_senderIdentifiedAddress].cacheGraph.graphStatus == CacheGraphStatus.Dirty ||\n        identifiedAddress_to_kycIdentity[_receiverIdentifiedAddress].cacheGraph.graphStatus == CacheGraphStatus.Dirty) {\n            if (!_payForDirty) {\n                //won't pay for dirty cache cleaning\n                return 4;\n            }\n\n            //@note:@todo:@next: add cleaning step.. this could be prohibitively expensive, and so should be watched for. similarly, work could be done\n            // to only check attestations from certain jurisdictions. the dirty flags could be made to be easier to process using floating indexes\n            // with dirty elements. passing compacted trust channels across with dirty flags would be able to be AND'd effectively.\n        }\n\n        //@note: @todo:\n        // add favourable jurisdiction checks here ([@phase3: trust channel optimizations])\n        // add IEV checks here.. relative KYC level must be above _X_?\n\n        //this is used to check for minimum reserves when transacting across blockchains. This can create a de-facto \"accredited investor\" status if there\n        // is enough crypto and/or crypto assets held in the Safe balance of the sender.\n\n        //other sources of confirmation: external data from the blockchain\n        //                               immediate biometric signature\n        //                               other user behaviours (local ai)\n        //                               conservator concierge (cloud ai)\n\n        int16 relativeKYCLevel = getRelativeKYCLevelOnlyClean(_amount, _senderIdentifiedAddress, _receiverIdentifiedAddress, true);\n        // int8 kycSenderAddressLevel = getKYCLevel(_senderIdentifiedAddress);\n        // int8 kycReceiverAddressLevel = getKYCLevel(_receiverIdentifiedAddress);\n\n//        uint256 safeBalanceSender = getSafeBalance(_senderIdentifiedAddress, _bip32X_type);\n\n        //@note:@todo:@next: updated and fix return codes.\n        if (relativeKYCLevel < 0) {\n            if (relativeKYCLevel > 1) {\n//                if (safeBalanceSender != 0 && safeBalanceSender > _amount) {\n\n                    //can transfer successfully\n                return 3;\n//                } else {\n//                    //not enough balance\n//                    return 2;\n//                }\n            } else {\n                //not enough kyc to transfer\n                return 1;\n            }\n        } else {\n            //error with kyc level\n            return 0;\n        }\n    }\n\n    /**************** Shyft Safe ****************/\n\n    //@note:@todo:@next: check whether tx.origin is actually the best way to do this...\n\n    //@note:@here: this is from ShyftSafe.sol inheritance\n    // basic rules are: if you have it, and you're asked to hold it, remove it from your supply and place it into safe's.\n\n    //returns\n    // 0 = could not hold : 0\n    // 1 = held : balance of this contract\n    function child_overload_doHoldSafe(uint256 amount, uint32 bip32X_type) internal returns (uint8 result, uint256 balanceResult) {\n        //@note: using tx.origin here.. might be an issue in serenity.\n        if (balances[tx.origin][bip32X_type] >= amount) {\n            balances[tx.origin][bip32X_type] = balances[tx.origin][bip32X_type].sub(amount);\n            safeBalances[tx.origin][bip32X_type] = safeBalances[tx.origin][bip32X_type].add(amount);\n            //held : balance of this contract\n            return (1, balances[tx.origin][bip32X_type]);\n        } else {\n            //could not hold : 0\n            return (0, 0);\n        }\n    }\n\n    //@note:@here: this is from ShyftSafe.sol inheritance\n    // basic rules are: if you have it, and you're asked to hold it, remove it from your safe and place it into free supply.\n\n    //returns:\n    // 0 = could not free\n    // 1 = freed\n    function child_overload_doFreeSafe(uint256 amount, uint32 bip32X_type) internal returns (uint8 result) {\n        //@note: using tx.origin here.. might be an issue in serenity.\n        if (safeBalances[tx.origin][bip32X_type] >= amount) {\n            balances[tx.origin][bip32X_type] = balances[tx.origin][bip32X_type].add(amount);\n            safeBalances[tx.origin][bip32X_type] = safeBalances[tx.origin][bip32X_type].sub(amount);\n            //freed\n            return 1;\n        } else {\n            //could not free\n            return 0;\n        }\n    }\n\n    /**************** Shyft KYC balances, fallback, send, receive, and withdrawal ****************/\n    \n    // mutex lock, prevent recursion in functions that use external function calls\n    bool locked;\n    // new variables needed for upgradability\n    bool public hasBeenUpdated;\n    address public nextContract;\n    address public registryAddr;\n\n    modifier mutex {\n        if (locked) revert();\n        locked = true;\n        _;\n        locked = false;\n    }\n\n    modifier onlyOwner {\n        require(msg.sender == owner);\n        _;\n    }\n\n    modifier onlyRegistry {\n        require(msg.sender == registryAddr);\n        _;\n    }\n\n    // @note: in token related functions, we need to update which contract the user's tokens are in\n    // by calling registry contract and update tokenLocation[msg.sender]\n    // not sure if we need to implement in /every/ token function\n    // I think we would need to if tokens somehow end up being directly sent to this contract\n    // despite there being an updated one\n    // if all withdraws go through the registry, it should keep track of where the tokens are ok\n\n\n    // new function needed for upgradability\n    function update(address _addr) onlyRegistry public returns (bool) {\n        hasBeenUpdated = true;\n        nextContract = _addr;\n        return true;\n    }\n    \n    // new function needed for upgradability\n    function setRegistry (address _addr) onlyOwner public returns (bool) {\n        registryAddr = _addr;\n        return true;\n    }\n\n    function registryAddr() public returns (address){\n        return registryAddr;\n    }\n\n    // delete after testing\n    function whoIsOrigin() public returns (address){\n        return tx.origin;\n    }\n\n    function withdrawAll(address _to) public returns (uint) {\n        uint _bal = balances[tx.origin][ShyftTokenType];\n        withdraw(_to, _bal);\n        return _bal;\n    }\n    \n    //gets balance for Shyft KYC token type & synthetics\n    function getBalanceBip32X(address _identifiedAddress, uint32 _bip32X_type) public view returns (uint256 balance)  {\n        return balances[_identifiedAddress][_bip32X_type];\n    }\n\n    //fallback function applies value to Shyft KYC token type\n\n    // fallback runs out of gas when called by a contract\n    // limited to 2300 gas\n    // idk if this is implementation is sketchy due to the external call, \n    // but we need to move the tokens if the contract is updated\n\n    function () public payable {\n        if (hasBeenUpdated) {\n            // burn tokens in this contract\n            uint _bal = balances[tx.origin][ShyftTokenType];\n\n            //@note:@here:@todo:@next:@critical:\n            // tx.origin: possible security issue?\n            balances[tx.origin][ShyftTokenType] = 0;\n            // call registry so that tokens are forwarded and token location within registry is updated\n            registryAddr.call.value(_bal + msg.value).gas(90000)(); \n        } else {\n            balances[tx.origin][ShyftTokenType] = balances[tx.origin][ShyftTokenType].add(msg.value);\n        }\n    }\n\n    //returns\n    // 3 = successful transfer (from getKycCanSend)\n    // kycCanSendResult = transfer cannot be processed due to incorrect kyc levels or insufficient balance. (from getKycCanSend)\n\n    function kycSend(uint _amount, uint32 _bip32X_type, address _identifiedAddress, bool _payForDirty) public returns (uint8 result) {\n        if (balances[msg.sender][_bip32X_type] >= _amount) {\n            uint8 kycCanSendResult = getKycCanSend(_amount, _bip32X_type, msg.sender, _identifiedAddress, _payForDirty);\n\n            //getKycCanSend return 3 = can transfer successfully\n            if (kycCanSendResult == 3) {\n                transferFunds(_amount, _bip32X_type, msg.sender, _identifiedAddress);\n                //successful transfer (from getKycCanSend)\n                return 3;\n            }\n\n            //transfer cannot be processed due to incorrect kyc levels or insufficient balance. (from getKycCanSend)\n            return kycCanSendResult;\n        } else {\n            //must revert here because of the transactional nature of this function.\n            revert();\n        }\n    }\n\n    function transferFunds(uint _amount, uint32 _bip32X_type, address _from, address _to) internal {\n        if (_bip32X_type == ShyftTokenType) {\n            balances[_from][_bip32X_type] = balances[_from][_bip32X_type].sub(_amount);\n            balances[_to][_bip32X_type] = balances[_to][_bip32X_type].add(_amount);\n        }\n    }\n\n\n    //@note: this function withdraws the native fuel (Shyft fuel, Ether, et al) to an address.\n    // because of the transactional nature, this contract may \"revert\".\n\n    //returns:\n    // true = success\n\n    // @note: changed msg.sender to tx.origin\n    function withdraw(address _to, uint256 _value) mutex public returns (bool ok) {\n        if (balances[tx.origin][ShyftTokenType] >= _value) {\n            uint codeLength;\n            bytes memory empty;\n\n            if (hasBeenUpdated) {\n                    registryAddr.call.value(_value).gas(20000);\n                    ok = true; // instead of explicitly returning, assign return value to variable \n                                // allows the code after the _; in the mutex modifier to be run\n            }\n\n            //retrieve the size of the code on target address, this needs assembly\n            assembly {\n                codeLength := extcodesize(_to)\n            }\n\n            balances[tx.origin][ShyftTokenType] = balances[tx.origin][ShyftTokenType].sub(_value);\n            balances[_to][ShyftTokenType] = balances[_to][ShyftTokenType].add(_value); // let me know if this shouldn't be here\n\n            if (codeLength > 0) {\n\n                //@note:@research:\n                //@note:@todo:@next: what I'd like to do here is have a check for a built-in registry maintained\n                // by Shyft et all, with the ability to trigger the fallback of that function.\n                //\n                // this fallback function would check for this contract's (or others that Shyft's KYC Contract\n                // are updated to support) address, and allow for the tokens in this contract to burnt\n                // (synthetics only), and throwing in the event that this is not supported, and adding those\n                // synthetics to the receiving contract.\n                //\n                // this would allow for users to upgrade their *tokens*, not the contract itself; this should\n                // work well since the protocol base address structures are never going to encounter this,\n                // and withdrawing to an account will function indefinitely (allowing sending those native fuel\n                // tokens to new Shyft KYC Contract addresses.)\n\n                IERC223ReceivingContract receiver = IERC223ReceivingContract(_to);\n                receiver.tokenFallback(tx.origin, _value, empty);\n\n                //@note: @here: @todo: this will need to be updated. currently auto-sending the fuel itself to\n                // the destination contract address to support contracts like the Shyft Conduit.\n\n                //@note: this line may throw a revert error if _to is a contract address\n                // since fallback function is limited to 2300 gas, only enough to emit an event\n                //_to.transfer(_value); doesn't work\n\n                //alternative _to.transfer()\n                //we need this much gas to execute the fallback of ShyftKycContract\n                //could leave gas empty to forward as much gas as needed\n                //this will fail when sending to contracts with fallback functions that consume more than 20000 gas\n                if( !_to.call.value(_value).gas(20000)() ) {\n                    revert();\n                }\n\n                // there is a possible security issue with external function calls sending ether, \n                // especially when sending extra gas\n                // possible re-entrancy attack\n                // probably won't happen since we decrement balance before this line, but recursion still possible.\n            } else {\n                //@note: this is going to a regular account. the existing balance has already been reduced,\n                // and as such the only thing to do is to send the actual Shyft fuel (or Ether, etc) to the\n                // target address.\n\n                _to.transfer(_value);\n\n                //event... this is not named EVT_xyz because of the inheritance requirement.\n                emit EVT_WithdrawToAddress(tx.origin, _to, _value);\n            }\n\n            //event... this is not named EVT_xyz because of the inheritance requirement.\n            emit EVT_WithdrawToAddress(tx.origin, _to, _value);\n            // want to make sure contract hasn't been tricked into transferring out more fuel than it should\n            // assert(this.balance >= totalSupply); // we never set totalSupply so idk if this is useful\n            ok = true;\n        } else {\n            ok = false;\n        }\n    }\n\n    /**************** ERC 223 reciever ****************/\n\n    function tokenFallback(address _from, uint _value, bytes _data){\n        //@note:@research:\n        //@note:@todo:@next: what I'd like to do here is have a check for a built-in registry maintained\n        // by Shyft et all, with the ability to trigger the fallback of that function.\n        //\n        // this fallback function would check for this contract's (or others that Shyft's KYC Contract\n        // are updated to support) address, and allow for the tokens in this contract to burnt\n        // (synthetics only), and throwing in the event that this is not supported, and adding those\n        // synthetics to the receiving contract.\n        //\n        // this would allow for users to upgrade their *tokens*, not the contract itself; this should\n        // work well since the protocol base address structures are never going to encounter this,\n        // and withdrawing to an account will function indefinitely (allowing sending those native fuel\n        // tokens to new Shyft KYC Contract addresses.)\n\n        emit EVT_ERC223TokenFallback(_from, _value, _data);\n    }\n\n    /**************** ERC 223/20 ****************/\n\n    uint public totalSupply;\n\n    //gets balance for Shyft KYC token type\n    function balanceOf(address _who) public view returns (uint) {\n        return balances[_who][ShyftTokenType];\n    }\n\n    function name() public view returns (string _name) {\n        return \"Shyft\";\n    }\n\n    function symbol() public view returns (string _symbol) {\n        //@note: \"SFT\" is the 3 letter variant\n        return \"SHFT\";\n    }\n\n    function decimals() public view returns (uint8 _decimals) {\n        return 18;\n    }\n\n    function totalSupply() public view returns (uint256 _supply) {\n        return totalSupply;\n    }\n\n    //for the following, we assume the transfer is only for [ShyftTokenType] tokens.\n    function transfer(address _to, uint256 _value) public returns (bool ok) {\n        if (balances[msg.sender][ShyftTokenType] >= _value) {\n            uint codeLength;\n            bytes memory empty;\n\n            //retrieve the size of the code on target address, this needs assembly\n            assembly {\n                codeLength := extcodesize(_to)\n            }\n\n            balances[msg.sender][ShyftTokenType] = balances[msg.sender][ShyftTokenType].sub(_value);\n\n            balances[_to][ShyftTokenType] = balances[_to][ShyftTokenType].add(_value);\n\n\n            if (codeLength > 0) {\n\n                //a vm error will occur if this index is accessed without setting the length first.\n                //@note:@todo:@next: explicit check for contract format?\n                IERC223ReceivingContract receiver = IERC223ReceivingContract(_to);\n                receiver.tokenFallback(msg.sender, _value, empty);\n            }\n\n            //event... this is not named EVT_xyz because of the inheritance requirement.\n            emit Transfer(msg.sender, _to, _value, empty);\n\n            return true;\n        } else {\n            return false;\n        }\n    }\n    \n    function transfer(address _to, uint _value, bytes data) public returns (bool ok) {\n        if (balances[msg.sender][ShyftTokenType] >= _value) {\n            uint codeLength;\n\n            //retrieve the size of the code on target address, this needs assembly\n            assembly {\n                codeLength := extcodesize(_to)\n            }\n\n            balances[msg.sender][ShyftTokenType] = balances[msg.sender][ShyftTokenType].sub(_value);\n\n            balances[_to][ShyftTokenType] = balances[_to][ShyftTokenType].add(_value);\n\n\n            if (codeLength > 0) {\n\n                //a vm error will occur if this index is accessed without setting the length first.\n                //@note:@todo:@next: explicit check for contract format?\n                IERC223ReceivingContract receiver = IERC223ReceivingContract(_to);\n                receiver.tokenFallback(msg.sender, _value, data);\n            }\n\n            //event... this is not named EVT_xyz because of the inheritance requirement.\n            emit Transfer(msg.sender, _to, _value, data);\n\n            return true;\n        } else {\n            return false;\n        }\n    }\n\n    function allowance(address _tokenOwner, address _spender) public constant returns (uint remaining) {\n       return allowed[_tokenOwner][_spender][ShyftTokenType];\n    }\n\n    //@note:@warning: this function is broken.\n    function approve(address _spender, uint _tokens) public returns (bool success) {\n        allowed[msg.sender][_spender][ShyftTokenType] = _tokens;\n\n        //user a has 20 tokens allowed from zero :: no incentive to frontrun\n\n        //user a has +2 tokens allowed from 20 :: frontrunning would deplete 20 and add 2 :: incentive there.\n\n        emit Approval(msg.sender, _spender, _tokens);\n\n        return true;\n    }\n\n    function transferFrom(address _from, address _to, uint _tokens) public returns (bool success) {\n        if (allowed[_from][_to][ShyftTokenType] >= _tokens && balances[_from][ShyftTokenType] >= _tokens) {\n            allowed[_from][_to][ShyftTokenType] = allowed[_from][_to][ShyftTokenType].sub(_tokens);\n\n            balances[_from][ShyftTokenType] = balances[_from][ShyftTokenType].sub(_tokens);\n            balances[_to][ShyftTokenType] = balances[_to][ShyftTokenType].add(_tokens);\n\n            emit Transfer(_from, _to, _tokens);\n\n            return true;\n        } else {\n            return false;\n        }\n    }\n\n}\n",
  "sourcePath": "/Users/jaypersanchez/shyft_shyftcorecontracts/contracts/ShyftKycContract.sol",
  "compiler": {
    "name": "solc",
    "version": "0.4.28+commit.2fcccea1.Emscripten.clang"
  },
  "schemaVersion": "2.0.3",
  "updatedAt": "2019-03-26T16:26:58.778Z"
}