{
  "contractName": "ShyftKycContractRegistry",
  "abi": [
    {
      "constant": true,
      "inputs": [],
      "name": "currVersion",
      "outputs": [
        {
          "name": "",
          "type": "uint256"
        }
      ],
      "payable": false,
      "stateMutability": "view",
      "type": "function"
    },
    {
      "constant": true,
      "inputs": [],
      "name": "shyftKycContract",
      "outputs": [
        {
          "name": "",
          "type": "address"
        }
      ],
      "payable": false,
      "stateMutability": "view",
      "type": "function"
    },
    {
      "constant": true,
      "inputs": [
        {
          "name": "",
          "type": "uint256"
        }
      ],
      "name": "contracts",
      "outputs": [
        {
          "name": "",
          "type": "address"
        }
      ],
      "payable": false,
      "stateMutability": "view",
      "type": "function"
    },
    {
      "constant": true,
      "inputs": [
        {
          "name": "",
          "type": "address"
        }
      ],
      "name": "tokenLocation",
      "outputs": [
        {
          "name": "",
          "type": "uint256"
        }
      ],
      "payable": false,
      "stateMutability": "view",
      "type": "function"
    },
    {
      "inputs": [],
      "payable": false,
      "stateMutability": "nonpayable",
      "type": "constructor"
    },
    {
      "payable": true,
      "stateMutability": "payable",
      "type": "fallback"
    },
    {
      "anonymous": false,
      "inputs": [
        {
          "indexed": false,
          "name": "_from",
          "type": "address"
        },
        {
          "indexed": false,
          "name": "_value",
          "type": "uint256"
        },
        {
          "indexed": false,
          "name": "_data",
          "type": "bytes"
        }
      ],
      "name": "EVT_ERC223TokenFallback",
      "type": "event"
    },
    {
      "constant": false,
      "inputs": [
        {
          "name": "_addr",
          "type": "address"
        }
      ],
      "name": "init",
      "outputs": [
        {
          "name": "",
          "type": "address"
        }
      ],
      "payable": false,
      "stateMutability": "nonpayable",
      "type": "function"
    },
    {
      "constant": false,
      "inputs": [
        {
          "name": "_addr",
          "type": "address"
        }
      ],
      "name": "upgrade",
      "outputs": [
        {
          "name": "",
          "type": "bool"
        }
      ],
      "payable": false,
      "stateMutability": "nonpayable",
      "type": "function"
    },
    {
      "constant": false,
      "inputs": [],
      "name": "getCurrentContractAddress",
      "outputs": [
        {
          "name": "",
          "type": "address"
        }
      ],
      "payable": false,
      "stateMutability": "nonpayable",
      "type": "function"
    },
    {
      "constant": false,
      "inputs": [
        {
          "name": "_v",
          "type": "uint256"
        }
      ],
      "name": "getContractAddressOfVersion",
      "outputs": [
        {
          "name": "",
          "type": "address"
        }
      ],
      "payable": false,
      "stateMutability": "nonpayable",
      "type": "function"
    },
    {
      "constant": false,
      "inputs": [
        {
          "name": "_a",
          "type": "address"
        }
      ],
      "name": "getTokenLocation",
      "outputs": [
        {
          "name": "",
          "type": "uint256"
        }
      ],
      "payable": false,
      "stateMutability": "nonpayable",
      "type": "function"
    },
    {
      "constant": false,
      "inputs": [],
      "name": "whereAreMyTokens",
      "outputs": [
        {
          "name": "",
          "type": "uint256"
        }
      ],
      "payable": false,
      "stateMutability": "nonpayable",
      "type": "function"
    },
    {
      "constant": false,
      "inputs": [
        {
          "name": "_from",
          "type": "address"
        },
        {
          "name": "_value",
          "type": "uint256"
        },
        {
          "name": "_data",
          "type": "bytes"
        }
      ],
      "name": "tokenFallback",
      "outputs": [
        {
          "name": "",
          "type": "bool"
        }
      ],
      "payable": false,
      "stateMutability": "nonpayable",
      "type": "function"
    },
    {
      "constant": false,
      "inputs": [
        {
          "name": "_to",
          "type": "address"
        },
        {
          "name": "_value",
          "type": "uint256"
        }
      ],
      "name": "withdraw",
      "outputs": [
        {
          "name": "",
          "type": "bool"
        }
      ],
      "payable": false,
      "stateMutability": "nonpayable",
      "type": "function"
    }
  ],
  "bytecode": "0x608060405234801561001057600080fd5b5060038054600160a060020a03191633179055610e6e806100326000396000f3006080604052600436106100b95763ffffffff7c01000000000000000000000000000000000000000000000000000000006000350416630900f01081146101145780630d0c95891461015657806319ab453c146101965780633538e288146101ed5780633eedac4514610202578063401b076314610217578063474da79a1461022c57806378d57ef914610244578063a75d7a3414610272578063c0ee0b8a1461028a578063c6fd102014610300578063f3fef3a314610315575b60006100c3610346565b5060026004548154811015156100d557fe5b600091825260208220015460405173ffffffffffffffffffffffffffffffffffffffff90911692508291614e20913491818181858888f1505050505050005b34801561012057600080fd5b5061014273ffffffffffffffffffffffffffffffffffffffff6004351661040f565b604080519115158252519081900360200190f35b34801561016257600080fd5b5061018473ffffffffffffffffffffffffffffffffffffffff6004351661065d565b60408051918252519081900360200190f35b3480156101a257600080fd5b506101c473ffffffffffffffffffffffffffffffffffffffff60043516610689565b6040805173ffffffffffffffffffffffffffffffffffffffff9092168252519081900360200190f35b3480156101f957600080fd5b50610184610751565b34801561020e57600080fd5b50610184610764565b34801561022357600080fd5b506101c461076a565b34801561023857600080fd5b506101c4600435610786565b34801561025057600080fd5b5061018473ffffffffffffffffffffffffffffffffffffffff600435166107bb565b34801561027e57600080fd5b506101c46004356107cd565b34801561029657600080fd5b50604080516020600460443581810135601f810184900484028501840190955284845261014294823573ffffffffffffffffffffffffffffffffffffffff169460248035953695946064949201919081908401838280828437509497506108119650505050505050565b34801561030c57600080fd5b506101c4610b14565b34801561032157600080fd5b5061014273ffffffffffffffffffffffffffffffffffffffff60043516602435610b4e565b60045432600090815260016020526040812054909182918291141561036e576000925061040a565b3260009081526001602052604090205460028054909190811061038d57fe5b6000918252602090912001546004546002805473ffffffffffffffffffffffffffffffffffffffff90931694509181106103c357fe5b6000918252602080832090910154600454328452600190925260409092205573ffffffffffffffffffffffffffffffffffffffff1690506104048183610cb5565b50600192505b505090565b6003546000908190819073ffffffffffffffffffffffffffffffffffffffff16331461043a57600080fd5b600280546001818101835560008381527f405787fa12a823e0f2b7631cc41b3ba8828b3321ca811111fa75cd3aa3bb5ace909201805473ffffffffffffffffffffffffffffffffffffffff89167fffffffffffffffffffffffff0000000000000000000000000000000000000000918216811790925560048054938401905583541617909155815481106104ca57fe5b60009182526020918290200154604080517f7570646174652861646472657373290000000000000000000000000000000000818501528151808203600f018152602f90910191829052805173ffffffffffffffffffffffffffffffffffffffff909316955092909182918401908083835b6020831061057857805182527fffffffffffffffffffffffffffffffffffffffffffffffffffffffffffffffe0909201916020918201910161053b565b6001836020036101000a038019825116818451168082178552505050505050905001915050604051809103902090508173ffffffffffffffffffffffffffffffffffffffff16817c01000000000000000000000000000000000000000000000000000000009004856040518263ffffffff167c0100000000000000000000000000000000000000000000000000000000028152600401808273ffffffffffffffffffffffffffffffffffffffff1673ffffffffffffffffffffffffffffffffffffffff1681526020019150506000604051808303816000875af1979650505050505050565b73ffffffffffffffffffffffffffffffffffffffff81166000908152600160205260409020545b919050565b60035460009073ffffffffffffffffffffffffffffffffffffffff1633146106b057600080fd5b6002541515610733576002805460018101825560009182527f405787fa12a823e0f2b7631cc41b3ba8828b3321ca811111fa75cd3aa3bb5ace01805473ffffffffffffffffffffffffffffffffffffffff85167fffffffffffffffffffffffff000000000000000000000000000000000000000091821681179092558254161790555b505060005473ffffffffffffffffffffffffffffffffffffffff1690565b3260009081526001602052604090205490565b60045481565b60005473ffffffffffffffffffffffffffffffffffffffff1681565b600280548290811061079457fe5b60009182526020909120015473ffffffffffffffffffffffffffffffffffffffff16905081565b60016020526000908152604090205481565b6002546000908210156106845760028054839081106107e857fe5b60009182526020909120015473ffffffffffffffffffffffffffffffffffffffff169050610684565b60008060008060405160200180807f746f6b656e46616c6c6261636b28616464726573732c75696e742c627974657381526020017f290000000000000000000000000000000000000000000000000000000000000081525060210190506040516020818303038152906040526040518082805190602001908083835b602083106108ca57805182527fffffffffffffffffffffffffffffffffffffffffffffffffffffffffffffffe0909201916020918201910161088d565b6001836020036101000a038019825116818451168082178552505050505050905001915050604051809103902092506000809054906101000a900473ffffffffffffffffffffffffffffffffffffffff1691508173ffffffffffffffffffffffffffffffffffffffff16837c010000000000000000000000000000000000000000000000000000000090048888886040518463ffffffff167c0100000000000000000000000000000000000000000000000000000000028152600401808473ffffffffffffffffffffffffffffffffffffffff1673ffffffffffffffffffffffffffffffffffffffff168152602001838152602001828051906020019080838360005b838110156109e55781810151838201526020016109cd565b50505050905090810190601f168015610a125780820380516001836020036101000a031916815260200191505b5093505050506000604051808303816000875af1925050509050610a34610346565b507f17d1907ed8f339e70e06b7080a2d10e828a9b8ce6ebceccd2231c37434c4082d878787604051808473ffffffffffffffffffffffffffffffffffffffff1673ffffffffffffffffffffffffffffffffffffffff16815260200183815260200180602001828103825283818151815260200191508051906020019080838360005b83811015610ace578181015183820152602001610ab6565b50505050905090810190601f168015610afb5780820380516001836020036101000a031916815260200191505b5094505050505060405180910390a19695505050505050565b60006002600454815481101515610b2757fe5b60009182526020909120015473ffffffffffffffffffffffffffffffffffffffff16905090565b6000806000610b5b610346565b5060405160200180807f776974686472617728616464726573732c75696e74323536290000000000000081525060190190506040516020818303038152906040526040518082805190602001908083835b60208310610be957805182527fffffffffffffffffffffffffffffffffffffffffffffffffffffffffffffffe09092019160209182019101610bac565b5181516020939093036101000a7fffffffffffffffffffffffffffffffffffffffffffffffffffffffffffffffff018019909116921691909117905260408051919093018190038120600080547c010000000000000000000000000000000000000000000000000000000080840463ffffffff8116909102855273ffffffffffffffffffffffffffffffffffffffff8e81166004870152602486018e90529651939a509516975087965093945060448083019493509091829003018183875af198975050505050505050565b60008060008060405160200180807f7769746864726177416c6c28616464726573732900000000000000000000000081525060140190506040516020818303038152906040526040518082805190602001908083835b60208310610d4857805182527fffffffffffffffffffffffffffffffffffffffffffffffffffffffffffffffe09092019160209182019101610d0b565b6001836020036101000a0380198251168184511680821785525050505050509050019150506040518091039020925060009050843b91506000821115610e39578473ffffffffffffffffffffffffffffffffffffffff16837c01000000000000000000000000000000000000000000000000000000009004876040518263ffffffff167c0100000000000000000000000000000000000000000000000000000000028152600401808273ffffffffffffffffffffffffffffffffffffffff1673ffffffffffffffffffffffffffffffffffffffff1681526020019150506000604051808303816000875af193505050505b959450505050505600a165627a7a72305820643795178275c47db029615802f86d5a388c9464bfc19a5d3c94954e2fc332bf0029",
  "source": "pragma solidity ^0.4.17;\n\nimport \"./ShyftKycContract.sol\";\n\n\n//this contract acts as a registry between past and current versions of the ShyftKycContract\n\n\n// problem with registry\n// need to call contractA.withdraw preserving msg.sender - can only be done with\n// tx.origin (not secure) or delegatecall, which only modifies storage of caller contract\n// possible fix: keep token info inside registry contract?\n\n\n// the functions inside the registry act as an \"interface\" of sorts\n// point the caller to the function, but first check if the contract has been upgraded\n// if it has, the user's tokens get moved to the new contract, then the upgraded function in the\n// new contract gets called\n\n\n// do we need to add every ERC223 function into the registry, or just fallback and withdraw?\n// do we need to transfer tokens for any other functions?\n\ncontract ShyftKycContractRegistry {\n    ShyftKycContract public shyftKycContract;\n    mapping (address => uint) public tokenLocation; // maps user address to contract version\n    address[] public contracts;\n    address owner;\n    uint public currVersion;\n\n    event EVT_ERC223TokenFallback(address _from, uint256 _value, bytes _data);\n\n    constructor() {\n        owner = msg.sender;\n    }\n\n    modifier onlyOwner{\n        require(msg.sender == owner);\n        _;\n    }\n\n    // this will need to be called when the ShyftKycContract is deployed for the first time\n    function init(address _addr) onlyOwner public returns (address)  {\n        if (contracts.length == 0){\n            contracts.push(_addr); // set original contract w/ version 0\n            shyftKycContract = ShyftKycContract(_addr);\n        }\n        return address(shyftKycContract);\n    }\n    \n    // this will need to be called after an updated contract is deployed\n    function upgrade(address _addr) onlyOwner public returns (bool) {\n        contracts.push(_addr);\n        currVersion++;\n        shyftKycContract = ShyftKycContract(_addr);\n        address _contract = contracts[currVersion-1];\n        bytes4 sig = bytes4(keccak256(abi.encodePacked(\"update(address)\")));\n        return _contract.call(sig, _addr);\n    }\n\n    function getCurrentContractAddress() public returns (address) {\n        return contracts[currVersion];\n    }\n\n    function getContractAddressOfVersion(uint _v) public returns (address) {\n        if(_v < contracts.length) return contracts[_v];\n    }\n    \n    function getTokenLocation(address _a) public returns (uint){\n        return tokenLocation[_a];\n    }\n\n    function whereAreMyTokens() public returns (uint) {\n        return tokenLocation[tx.origin];\n    }\n\n    // move tokens to new contract if needed\n    // call fallback of current contract\n    function () public payable {\n        // try to call current contract fallback\n        moveTokens();\n        address _contract = contracts[currVersion];\n        _contract.call.value(msg.value).gas(20000)();\n    }\n\n    // ERC223 token fallback function\n    // return true if tokenFallback of ShyftKycContract called; otherwise false\n    function tokenFallback(address _from, uint256 _value, bytes _data) public returns (bool) {\n        // pay fallback of current contract\n        bytes4 sig = bytes4(keccak256(abi.encodePacked(\"tokenFallback(address,uint,bytes)\")));\n        address _contract = address(shyftKycContract); //contracts[currVersion];\n        bool res = _contract.call(sig, _from, _value, _data);\n        \n        // if tokens not in current contract, move them\n        moveTokens();\n    \n        emit EVT_ERC223TokenFallback(_from, _value, _data);\n        return res;\n    }\n    \n    // forwards tokens to new contract version if needed, then calls withdraw of the current contract \n    // same parameters\n    // returns true if withdraw in ShyftKycContract was called; otherwise false\n    function withdraw(address _to, uint _value) public returns (bool) {\n        moveTokens();        \n        // call withdraw of current contract\n        bytes4 sig = bytes4(keccak256(abi.encodePacked(\"withdraw(address,uint256)\"))); // function signature\n        address _contract = address(shyftKycContract);\n        return _contract.call(sig, _to, _value);\n    }\n\n    // _contractTo could be a user address, doesn't have to be a contract address\n    // however in this context we'll only be using a contract address\n\n    // return true if tokens were withdrawn to a contract, false otherwise\n    function withdrawAll(address _contractTo, address _contractFrom) internal returns (bool) {\n        bytes4 sig = bytes4(keccak256(abi.encodePacked(\"withdrawAll(address)\"))); // function signature\n        uint codeLength;\n        bool res = false;\n\n        assembly {\n            codeLength := extcodesize(_contractFrom)\n        }\n\n        // make sure we're withdrawing from a contract\n        if(codeLength > 0){\n            res = _contractFrom.call(sig, _contractTo);\n        }\n\n        return res;\n    }\n    \n    \n    // move msg.sender's tokens from contract where their tokens were to current contract\n    // return true if tokens are moved (ie. contract was upgraded); otherwise false\n    function moveTokens () internal returns (bool) {\n        if (tokenLocation[tx.origin] == currVersion){\n            return false;\n        }\n\n        else {\n            address _contractFrom = contracts[tokenLocation[tx.origin]]; \n            address _contractTo = contracts[currVersion]; \n            tokenLocation[tx.origin] = currVersion;\n            withdrawAll(_contractTo, _contractFrom);\n            \n            return true;\n        }        \n    }\n}",
  "sourcePath": "/Users/jaypersanchez/shyft_shyftcorecontracts/contracts/ShyftKycContractRegistry.sol",
  "compiler": {
    "name": "solc",
    "version": "0.4.28+commit.2fcccea1.Emscripten.clang"
  },
  "schemaVersion": "2.0.3",
  "updatedAt": "2019-03-26T16:26:58.757Z"
}