{
  "contractName": "ShyftBridge",
  "abi": [
    {
      "constant": false,
      "inputs": [
        {
          "name": "_newAdministratorAddress",
          "type": "address"
        }
      ],
      "name": "setPrimaryAdministrator",
      "outputs": [
        {
          "name": "result",
          "type": "uint8"
        }
      ],
      "payable": false,
      "stateMutability": "nonpayable",
      "type": "function"
    },
    {
      "constant": true,
      "inputs": [
        {
          "name": "_administratorAddress",
          "type": "address"
        }
      ],
      "name": "isAdministrator",
      "outputs": [
        {
          "name": "result",
          "type": "bool"
        }
      ],
      "payable": false,
      "stateMutability": "view",
      "type": "function"
    },
    {
      "constant": false,
      "inputs": [
        {
          "name": "_revokeAdministratorAddress",
          "type": "address"
        }
      ],
      "name": "revokeAdministrator",
      "outputs": [
        {
          "name": "result",
          "type": "uint8"
        }
      ],
      "payable": false,
      "stateMutability": "nonpayable",
      "type": "function"
    },
    {
      "constant": true,
      "inputs": [],
      "name": "getUserDefinedMaxAdministrator",
      "outputs": [
        {
          "name": "",
          "type": "uint8"
        }
      ],
      "payable": false,
      "stateMutability": "view",
      "type": "function"
    },
    {
      "constant": true,
      "inputs": [],
      "name": "getMsgSender",
      "outputs": [
        {
          "name": "",
          "type": "address"
        }
      ],
      "payable": false,
      "stateMutability": "view",
      "type": "function"
    },
    {
      "constant": true,
      "inputs": [],
      "name": "owner",
      "outputs": [
        {
          "name": "",
          "type": "address"
        }
      ],
      "payable": false,
      "stateMutability": "view",
      "type": "function"
    },
    {
      "constant": false,
      "inputs": [
        {
          "name": "_administratorAddress",
          "type": "address"
        }
      ],
      "name": "getAdminAccessValue",
      "outputs": [
        {
          "name": "_access",
          "type": "uint256"
        }
      ],
      "payable": false,
      "stateMutability": "nonpayable",
      "type": "function"
    },
    {
      "constant": true,
      "inputs": [],
      "name": "getUserDefinedMaxThreshold",
      "outputs": [
        {
          "name": "",
          "type": "uint8"
        }
      ],
      "payable": false,
      "stateMutability": "view",
      "type": "function"
    },
    {
      "constant": false,
      "inputs": [
        {
          "name": "_newAdministratorAddress",
          "type": "address"
        }
      ],
      "name": "setAdministrator",
      "outputs": [
        {
          "name": "result",
          "type": "uint8"
        }
      ],
      "payable": false,
      "stateMutability": "nonpayable",
      "type": "function"
    },
    {
      "constant": false,
      "inputs": [
        {
          "name": "_valueThreshold",
          "type": "uint8"
        }
      ],
      "name": "changeCurrentThreshold",
      "outputs": [
        {
          "name": "result",
          "type": "uint8"
        }
      ],
      "payable": false,
      "stateMutability": "nonpayable",
      "type": "function"
    },
    {
      "constant": true,
      "inputs": [],
      "name": "shyftSafeAddress",
      "outputs": [
        {
          "name": "",
          "type": "address"
        }
      ],
      "payable": false,
      "stateMutability": "view",
      "type": "function"
    },
    {
      "constant": true,
      "inputs": [
        {
          "name": "",
          "type": "address"
        }
      ],
      "name": "pendingWithdrawals",
      "outputs": [
        {
          "name": "bip32X_type",
          "type": "uint32"
        },
        {
          "name": "fromChain",
          "type": "address"
        },
        {
          "name": "safeAddress",
          "type": "address"
        },
        {
          "name": "amount",
          "type": "uint256"
        },
        {
          "name": "txRoot",
          "type": "bytes32"
        }
      ],
      "payable": false,
      "stateMutability": "view",
      "type": "function"
    },
    {
      "constant": false,
      "inputs": [
        {
          "name": "_valueThreshold",
          "type": "uint8"
        }
      ],
      "name": "changeCurrentAdminThreshold",
      "outputs": [
        {
          "name": "result",
          "type": "uint8"
        }
      ],
      "payable": false,
      "stateMutability": "nonpayable",
      "type": "function"
    },
    {
      "inputs": [],
      "payable": false,
      "stateMutability": "nonpayable",
      "type": "constructor"
    },
    {
      "anonymous": false,
      "inputs": [
        {
          "indexed": true,
          "name": "chain",
          "type": "address"
        },
        {
          "indexed": true,
          "name": "start",
          "type": "uint256"
        },
        {
          "indexed": true,
          "name": "end",
          "type": "uint256"
        },
        {
          "indexed": false,
          "name": "headerRoot",
          "type": "bytes32"
        }
      ],
      "name": "EVT_RootStorage",
      "type": "event"
    },
    {
      "anonymous": false,
      "inputs": [
        {
          "indexed": true,
          "name": "shyftSafe",
          "type": "address"
        },
        {
          "indexed": true,
          "name": "toChain",
          "type": "address"
        },
        {
          "indexed": true,
          "name": "bip32X_type",
          "type": "uint32"
        },
        {
          "indexed": false,
          "name": "amount",
          "type": "uint256"
        },
        {
          "indexed": false,
          "name": "tokenAddr",
          "type": "address"
        },
        {
          "indexed": false,
          "name": "fromChain",
          "type": "address"
        }
      ],
      "name": "EVT_TransitAsset",
      "type": "event"
    },
    {
      "anonymous": false,
      "inputs": [
        {
          "indexed": true,
          "name": "shyftSafe",
          "type": "address"
        },
        {
          "indexed": true,
          "name": "fromChain",
          "type": "address"
        },
        {
          "indexed": true,
          "name": "bip32X_type",
          "type": "uint32"
        },
        {
          "indexed": false,
          "name": "amount",
          "type": "uint256"
        },
        {
          "indexed": false,
          "name": "tokenAddr",
          "type": "address"
        }
      ],
      "name": "EVT_WithdrawAsset",
      "type": "event"
    },
    {
      "anonymous": false,
      "inputs": [
        {
          "indexed": true,
          "name": "fromChain",
          "type": "address"
        },
        {
          "indexed": true,
          "name": "bip32X_type_orig",
          "type": "uint32"
        },
        {
          "indexed": true,
          "name": "bip32X_type_new",
          "type": "uint32"
        }
      ],
      "name": "EVT_TokenAdded",
      "type": "event"
    },
    {
      "anonymous": false,
      "inputs": [
        {
          "indexed": true,
          "name": "toChain",
          "type": "address"
        },
        {
          "indexed": true,
          "name": "bip32X_type_from",
          "type": "uint32"
        },
        {
          "indexed": true,
          "name": "bip32X_type_to",
          "type": "uint32"
        }
      ],
      "name": "EVT_TokenAssociated",
      "type": "event"
    },
    {
      "anonymous": false,
      "inputs": [
        {
          "indexed": false,
          "name": "addr",
          "type": "address"
        }
      ],
      "name": "EVT_Initialized",
      "type": "event"
    },
    {
      "constant": false,
      "inputs": [
        {
          "name": "_addr",
          "type": "address"
        }
      ],
      "name": "init",
      "outputs": [
        {
          "name": "",
          "type": "uint256"
        }
      ],
      "payable": false,
      "stateMutability": "nonpayable",
      "type": "function"
    },
    {
      "constant": false,
      "inputs": [
        {
          "name": "_addr",
          "type": "address"
        }
      ],
      "name": "validateSafe",
      "outputs": [],
      "payable": false,
      "stateMutability": "nonpayable",
      "type": "function"
    },
    {
      "constant": false,
      "inputs": [
        {
          "name": "_root",
          "type": "bytes32"
        },
        {
          "name": "_chainId",
          "type": "address"
        },
        {
          "name": "_end",
          "type": "uint256"
        }
      ],
      "name": "addRoot",
      "outputs": [
        {
          "name": "",
          "type": "bool"
        }
      ],
      "payable": false,
      "stateMutability": "nonpayable",
      "type": "function"
    },
    {
      "constant": false,
      "inputs": [
        {
          "name": "_newToken",
          "type": "uint32"
        },
        {
          "name": "_origToken",
          "type": "uint32"
        },
        {
          "name": "_fromChain",
          "type": "address"
        }
      ],
      "name": "addToken",
      "outputs": [
        {
          "name": "",
          "type": "bool"
        }
      ],
      "payable": true,
      "stateMutability": "payable",
      "type": "function"
    },
    {
      "constant": false,
      "inputs": [
        {
          "name": "_newToken",
          "type": "uint32"
        },
        {
          "name": "_origToken",
          "type": "uint32"
        },
        {
          "name": "_toChain",
          "type": "address"
        }
      ],
      "name": "associateToken",
      "outputs": [
        {
          "name": "",
          "type": "bool"
        }
      ],
      "payable": false,
      "stateMutability": "nonpayable",
      "type": "function"
    },
    {
      "constant": false,
      "inputs": [
        {
          "name": "_shyftSafeAddress",
          "type": "address"
        }
      ],
      "name": "setShyftSafeAddress",
      "outputs": [
        {
          "name": "result",
          "type": "uint8"
        }
      ],
      "payable": false,
      "stateMutability": "nonpayable",
      "type": "function"
    },
    {
      "constant": false,
      "inputs": [
        {
          "name": "_bip32X_type",
          "type": "uint32"
        },
        {
          "name": "_value",
          "type": "uint256"
        },
        {
          "name": "_holdIndex",
          "type": "uint32"
        },
        {
          "name": "_logsBloom",
          "type": "bytes"
        },
        {
          "name": "_toChainId",
          "type": "address"
        }
      ],
      "name": "transitAsset",
      "outputs": [
        {
          "name": "result",
          "type": "uint8"
        }
      ],
      "payable": false,
      "stateMutability": "nonpayable",
      "type": "function"
    },
    {
      "constant": true,
      "inputs": [
        {
          "name": "_logsBloom",
          "type": "bytes"
        },
        {
          "name": "_amount",
          "type": "uint256"
        },
        {
          "name": "_bip32X_type",
          "type": "uint32"
        },
        {
          "name": "_holdIndex",
          "type": "uint32"
        }
      ],
      "name": "proveSafeBalanceForType",
      "outputs": [
        {
          "name": "",
          "type": "bool"
        }
      ],
      "payable": false,
      "stateMutability": "view",
      "type": "function"
    },
    {
      "constant": false,
      "inputs": [
        {
          "name": "_str",
          "type": "string"
        }
      ],
      "name": "stringToBytes",
      "outputs": [
        {
          "name": "res",
          "type": "bytes"
        }
      ],
      "payable": false,
      "stateMutability": "nonpayable",
      "type": "function"
    },
    {
      "constant": false,
      "inputs": [
        {
          "name": "_bip32X_type",
          "type": "uint32"
        },
        {
          "name": "_value",
          "type": "uint256"
        },
        {
          "name": "_fromChain",
          "type": "address"
        },
        {
          "name": "_txRoot",
          "type": "bytes32"
        },
        {
          "name": "_path",
          "type": "bytes"
        },
        {
          "name": "_parentNodes",
          "type": "bytes"
        },
        {
          "name": "_rlpDepositTx",
          "type": "bytes"
        }
      ],
      "name": "prepareWithdrawalOfAsset",
      "outputs": [
        {
          "name": "",
          "type": "bool"
        }
      ],
      "payable": false,
      "stateMutability": "nonpayable",
      "type": "function"
    },
    {
      "constant": false,
      "inputs": [
        {
          "name": "_proof",
          "type": "bytes"
        },
        {
          "name": "_blockNum",
          "type": "uint256"
        },
        {
          "name": "_timestamp",
          "type": "uint256"
        },
        {
          "name": "_previousHeader",
          "type": "bytes32"
        },
        {
          "name": "_rootIndex",
          "type": "uint256"
        }
      ],
      "name": "withdrawAsset",
      "outputs": [
        {
          "name": "",
          "type": "bool"
        }
      ],
      "payable": false,
      "stateMutability": "nonpayable",
      "type": "function"
    },
    {
      "constant": true,
      "inputs": [
        {
          "name": "_proof",
          "type": "bytes"
        },
        {
          "name": "_leaf",
          "type": "bytes32"
        },
        {
          "name": "_root",
          "type": "bytes32"
        }
      ],
      "name": "prove",
      "outputs": [
        {
          "name": "proven",
          "type": "bool"
        }
      ],
      "payable": false,
      "stateMutability": "pure",
      "type": "function"
    }
  ],
  "bytecode": "0x608060405260008054600760ff199091161761ff00191661020017905560068054600160a060020a03191690553480156200003957600080fd5b50600080546201000060b060020a03191633620100008102919091179091556200006c90640100000000620000a6810204565b506040805133815290517f545c6c6735fa00ba4652c342592783d885b7f34ed4b282909814e60e7ccae2459181900360200190a162000128565b60008054620100009004600160a060020a03163314156200011f5760035460ff1615156200011657600160a060020a038216600090815260026020526040902080546001919060ff191682800217905550506003805460ff8082166001011660ff19909116179055600262000123565b50600162000123565b5060005b919050565b613bde80620001386000396000f3006080604052600436106101485763ffffffff7c0100000000000000000000000000000000000000000000000000000000600035041663064ad7c2811461014d5780630a2eb3011461019157806319ab453c146101d35780631dd0ed10146102135780632815d33f146102985780632ea7b908146102c85780634402bba3146103cb578063545917d0146103f9578063621cb8e41461045b578063676920ea1461048f57806374534fb2146104bd57806378f3ee77146104d25780637a6ce2e11461050f5780638da5cb5b1461054d578063c7b5e2a614610562578063d2631b45146105d0578063d511c463146105fe578063df8089ef14610613578063e106fb4b14610641578063e35332a01461070f578063e484a38d1461073f578063f0374edc1461075a578063f3f437031461076f578063fba7fd78146107e8578063ffb7ffca14610803575b600080fd5b34801561015957600080fd5b5061017b73ffffffffffffffffffffffffffffffffffffffff6004351661086e565b6040805160ff9092168252519081900360200190f35b34801561019d57600080fd5b506101bf73ffffffffffffffffffffffffffffffffffffffff60043516610948565b604080519115158252519081900360200190f35b3480156101df57600080fd5b5061020173ffffffffffffffffffffffffffffffffffffffff60043516610990565b60408051918252519081900360200190f35b34801561021f57600080fd5b50604080516020601f60643560048181013592830184900484028501840190955281845261017b9463ffffffff8135811695602480359660443590931695369560849492019181908401838280828437509497505050923573ffffffffffffffffffffffffffffffffffffffff1693506109fb92505050565b6101bf63ffffffff6004358116906024351673ffffffffffffffffffffffffffffffffffffffff60443516610c47565b3480156102d457600080fd5b50604080516020601f6084356004818101359283018490048402850184019095528184526101bf9463ffffffff81351694602480359573ffffffffffffffffffffffffffffffffffffffff60443516956064359536959460a494909391019190819084018382808284375050604080516020601f89358b018035918201839004830284018301909452808352979a99988101979196509182019450925082915084018382808284375050604080516020601f89358b018035918201839004830284018301909452808352979a999881019791965091820194509250829150840183828082843750949750610efe9650505050505050565b3480156103d757600080fd5b5061017b73ffffffffffffffffffffffffffffffffffffffff60043516611023565b34801561040557600080fd5b506040805160206004803580820135601f81018490048402850184019095528484526101bf94369492936024939284019190819084018382808284375094975050843595505050602090920135915061121e9050565b34801561046757600080fd5b506101bf60043573ffffffffffffffffffffffffffffffffffffffff60243516604435611460565b34801561049b57600080fd5b5061017b73ffffffffffffffffffffffffffffffffffffffff6004351661153f565b3480156104c957600080fd5b5061017b611720565b3480156104de57600080fd5b506101bf63ffffffff6004358116906024351673ffffffffffffffffffffffffffffffffffffffff6044351661172a565b34801561051b57600080fd5b506105246117f4565b6040805173ffffffffffffffffffffffffffffffffffffffff9092168252519081900360200190f35b34801561055957600080fd5b506105246117f8565b34801561056e57600080fd5b506040805160206004803580820135601f81018490048402850184019095528484526101bf94369492936024939284019190819084018382808284375094975050843595505063ffffffff60208501358116946040013516925061181a915050565b3480156105dc57600080fd5b5061020173ffffffffffffffffffffffffffffffffffffffff60043516611fa6565b34801561060a57600080fd5b5061017b611fe1565b34801561061f57600080fd5b5061017b73ffffffffffffffffffffffffffffffffffffffff60043516611fef565b34801561064d57600080fd5b506040805160206004803580820135601f810184900484028501840190955284845261069a9436949293602493928401919081908401838280828437509497506120909650505050505050565b6040805160208082528351818301528351919283929083019185019080838360005b838110156106d45781810151838201526020016106bc565b50505050905090810190601f1680156107015780820380516001836020036101000a031916815260200191505b509250505060405180910390f35b34801561071b57600080fd5b5061073d73ffffffffffffffffffffffffffffffffffffffff60043516612096565b005b34801561074b57600080fd5b5061017b60ff6004351661218c565b34801561076657600080fd5b506105246121f0565b34801561077b57600080fd5b5061079d73ffffffffffffffffffffffffffffffffffffffff6004351661220c565b6040805163ffffffff909616865273ffffffffffffffffffffffffffffffffffffffff9485166020870152929093168483015260608401526080830191909152519081900360a00190f35b3480156107f457600080fd5b5061017b60ff6004351661225d565b34801561080f57600080fd5b506040805160206004803580820135601f81018490048402850184019095528484526101bf94369492936024939284019190819084018382808284375094975050843595505050602083013592604081013592506060013590506122f8565b6000805462010000900473ffffffffffffffffffffffffffffffffffffffff1633141561093f5760035460ff1615156109325773ffffffffffffffffffffffffffffffffffffffff821660009081526002602052604090208054600191907fffffffffffffffffffffffffffffffffffffffffffffffffffffffffffffff001682805b0217905550506003805460ff808216600101167fffffffffffffffffffffffffffffffffffffffffffffffffffffffffffffff009091161790556002610943565b506001610943565b610943565b5060005b919050565b6000600173ffffffffffffffffffffffffffffffffffffffff831660009081526002602081905260409091205460ff169081111561098257fe5b141561093f57506001610943565b60008061099c8361153f565b6006805473ffffffffffffffffffffffffffffffffffffffff86167fffffffffffffffffffffffff0000000000000000000000000000000000000000918216811790925560078054909116909117905560ff1691508190505b50919050565b600080600080610a0d86898b8a61181a565b92508215610c3657600754604080517f470413c800000000000000000000000000000000000000000000000000000000815263ffffffff8a166004820152905173ffffffffffffffffffffffffffffffffffffffff9092169163470413c8916024808201926020929091908290030181600087803b158015610a8e57600080fd5b505af1158015610aa2573d6000803e3d6000fd5b505050506040513d6020811015610ab857600080fd5b50519150600160ff83161415610c10575063ffffffff88166000908152600b602090815260408083205460065482517f23b872dd00000000000000000000000000000000000000000000000000000000815273ffffffffffffffffffffffffffffffffffffffff9182166004820152306024820152604481018d9052925191169384936323b872dd936064808201949293918390030190829087803b158015610b6057600080fd5b505af1158015610b74573d6000803e3d6000fd5b505050506040513d6020811015610b8a57600080fd5b505060065463ffffffff8a166000818152600b60209081526040918290205482518d815273ffffffffffffffffffffffffffffffffffffffff91821692810192909252308284015291519293828a16939216917f577c9d2f97f69dabf0f3bff1d2e583babb679ad9daf7dfbb587f6f0cf60b65349181900360600190a460019350610c3b565b60ff82161515610c1c57fe5b8160ff1660021415610c2d57600080fd5b60039350610c3b565b600093505b50505095945050505050565b600080610c5333610948565b1515610c5e57600080fd5b63ffffffff85166000908152600b602052604090205473ffffffffffffffffffffffffffffffffffffffff16600114610ea25763ffffffff85166000908152600b602052604090205473ffffffffffffffffffffffffffffffffffffffff161515610cc557fe5b5063ffffffff84166000908152600b602090815260408083205481517f18160ddd000000000000000000000000000000000000000000000000000000008152915173ffffffffffffffffffffffffffffffffffffffff9091169384936323b872dd933393309387936318160ddd936004808201949293918390030190829087803b158015610d5257600080fd5b505af1158015610d66573d6000803e3d6000fd5b505050506040513d6020811015610d7c57600080fd5b5051604080517c010000000000000000000000000000000000000000000000000000000063ffffffff871602815273ffffffffffffffffffffffffffffffffffffffff94851660048201529290931660248301526044820152905160648083019260209291908290030181600087803b158015610df857600080fd5b505af1158015610e0c573d6000803e3d6000fd5b505050506040513d6020811015610e2257600080fd5b505063ffffffff8086166000908152600b602081815260408084205473ffffffffffffffffffffffffffffffffffffffff8981168652600c8452828620968b16865293835281852054841685529490915290912080547fffffffffffffffffffffffff000000000000000000000000000000000000000016919092161790555b8463ffffffff168463ffffffff168473ffffffffffffffffffffffffffffffffffffffff167f8f27679d4573edca951049e2dc8e0b1907627ab02f5215ccec1699c3c6920a2e60405160405180910390a4506001949350505050565b6000610f08613b0a565b610f1483868689612673565b1515600114610f2257600080fd5b63ffffffff988916815273ffffffffffffffffffffffffffffffffffffffff968716602080830191825260065489166040808501828152606086019c8d52608086019a8b526000928352600890935290209251835492517fffffffffffffffffffffffffffffffffffffffffffffffffffffffff000000009093169b169a909a177fffffffffffffffff0000000000000000000000000000000000000000ffffffff166401000000009189169190910217815597516001808a0180547fffffffffffffffffffffffff000000000000000000000000000000000000000016929098169190911790965550509351600286015550516003909301929092555090565b600080600061103133610948565b1561121257600173ffffffffffffffffffffffffffffffffffffffff851660009081526002602081905260409091205460ff169081111561106e57fe5b14156112095760405160200180807f61646d696e697374726174696f6e5265766f636174696f6e566f746500000000815250601c0190506040516020818303038152906040526040518082805190602001908083835b6020831061110157805182527fffffffffffffffffffffffffffffffffffffffffffffffffffffffffffffffe090920191602091820191016110c4565b6001836020036101000a0380198251168184511680821785525050505050509050019150506040518091039020915061113982612c30565b600054909150610100900460ff1661ffff8216106112005773ffffffffffffffffffffffffffffffffffffffff8416600090815260026020819052604090912080547fffffffffffffffffffffffffffffffffffffffffffffffffffffffffffffff00166001830217905550600380547fffffffffffffffffffffffffffffffffffffffffffffffffffffffffffffff00811660ff9182167fffffffffffffffffffffffffffffffffffffffffffffffffffffffffffffffff019091161781559250611217565b60029250611217565b60019250611217565b600092505b5050919050565b6000806000806020875181151561123157fe5b061561123c57600080fd5b60408051602080820189905282518083038201815291830192839052815191929182918401908083835b602083106112a357805182527fffffffffffffffffffffffffffffffffffffffffffffffffffffffffffffffe09092019160209182019101611266565b51815160209384036101000a7fffffffffffffffffffffffffffffffffffffffffffffffffffffffffffffffff01801990921691161790526040519190930181900390209196509094505050505b86518311611453575085820151808210156113a957604080516020808201859052818301849052825180830384018152606090920192839052815191929182918401908083835b6020831061137557805182527fffffffffffffffffffffffffffffffffffffffffffffffffffffffffffffffe09092019160209182019101611338565b6001836020036101000a03801982511681845116808217855250505050505090500191505060405180910390209150611448565b604080516020808201849052818301859052825180830384018152606090920192839052815191929182918401908083835b6020831061141857805182527fffffffffffffffffffffffffffffffffffffffffffffffffffffffffffffffe090920191602091820191016113db565b6001836020036101000a038019825116818451168082178552505050505050905001915050604051809103902091505b6020830192506112f1565b5092909214949350505050565b73ffffffffffffffffffffffffffffffffffffffff82166000908152600a6020526040812054600101821161149157fe5b73ffffffffffffffffffffffffffffffffffffffff8316600081815260096020908152604080832080546001818101835591855283852001899055848452600a83529281902054815189815291518795919094019390927f099295512e4b087ef08d26ce8d3f182ce1b3b412e53ad6aa398315e00580117f928290030190a45073ffffffffffffffffffffffffffffffffffffffff919091166000908152600a602052604090205550600190565b60008080808073ffffffffffffffffffffffffffffffffffffffff8616151561156757600080fd5b61157033610948565b1561171257604080517f73687966745361666541646472657373000000000000000000000000000000006020808301919091526c0100000000000000000000000073ffffffffffffffffffffffffffffffffffffffff8a1602603083015282516024818403018152604490920192839052815191929182918401908083835b6020831061162c57805182527fffffffffffffffffffffffffffffffffffffffffffffffffffffffffffffffe090920191602091820191016115ef565b6001836020036101000a0380198251168184511680821785525050505050509050019150506040518091039020935061166484612c30565b600054909350610100900460ff1661ffff84161061168557600191506116ab565b61168e84612c30565b600054909150610100900460ff1661ffff8216106116ab57600191505b6001821515141561170957600680547fffffffffffffffffffffffff00000000000000000000000000000000000000001673ffffffffffffffffffffffffffffffffffffffff88161790556116ff84612d90565b5060029450611717565b60019450611717565b600094505b50505050919050565b60005460ff165b90565b600061173533610948565b151561174057600080fd5b63ffffffff8084166000818152600b602081815260408084205473ffffffffffffffffffffffffffffffffffffffff898116808752600c8552838720988d1680885295855283872054821687529790935281852080547fffffffffffffffffffffffff0000000000000000000000000000000000000000169390911692909217909155519093917ff6123bbdca0c6fd27fbd8c7042dd47750981f89974e19783a447e32e386360b691a45060019392505050565b3390565b60005462010000900473ffffffffffffffffffffffffffffffffffffffff1681565b60008060008060008060008060008060405160200180807f4556545f68656c645361666542616c616e6365466f72547970652875696e743281526020017f35362c2075696e7433322c2075696e743235362c2075696e7432353629000000815250603d0190506040516020818303038152906040526040518082805190602001908083835b602083106118dc57805182527fffffffffffffffffffffffffffffffffffffffffffffffffffffffffffffffe0909201916020918201910161189f565b51815160209384036101000a7fffffffffffffffffffffffffffffffffffffffffffffffffffffffffffffffff018019909216911617905260408051929094018290038220828201528351808303820181529184019384905281519195509293508392850191508083835b6020831061198457805182527fffffffffffffffffffffffffffffffffffffffffffffffffffffffffffffffe09092019160209182019101611947565b51815160209384036101000a7fffffffffffffffffffffffffffffffffffffffffffffffffffffffffffffffff01801990921691161790526040805192909401829003822060065473ffffffffffffffffffffffffffffffffffffffff166c010000000000000000000000000283830152845160148185030181526034909301948590528251909f509195509293508392850191508083835b60208310611a5a57805182527fffffffffffffffffffffffffffffffffffffffffffffffffffffffffffffffe09092019160209182019101611a1d565b6001836020036101000a038019825116818451168082178552505050505050905001915050604051809103902097508c604051602001808281526020019150506040516020818303038152906040526040518082805190602001908083835b60208310611af657805182527fffffffffffffffffffffffffffffffffffffffffffffffffffffffffffffffe09092019160209182019101611ab9565b51815160209384036101000a7fffffffffffffffffffffffffffffffffffffffffffffffffffffffffffffffff018019909216911617905260408051929094018290038220828201528351808303820181529184019384905281519195509293508392850191508083835b60208310611b9e57805182527fffffffffffffffffffffffffffffffffffffffffffffffffffffffffffffffe09092019160209182019101611b61565b6001836020036101000a038019825116818451168082178552505050505050905001915050604051809103902096508b604051602001808263ffffffff1663ffffffff167c01000000000000000000000000000000000000000000000000000000000281526004019150506040516020818303038152906040526040518082805190602001908083835b60208310611c6557805182527fffffffffffffffffffffffffffffffffffffffffffffffffffffffffffffffe09092019160209182019101611c28565b51815160209384036101000a7fffffffffffffffffffffffffffffffffffffffffffffffffffffffffffffffff018019909216911617905260408051929094018290038220828201528351808303820181529184019384905281519195509293508392850191508083835b60208310611d0d57805182527fffffffffffffffffffffffffffffffffffffffffffffffffffffffffffffffe09092019160209182019101611cd0565b6001836020036101000a038019825116818451168082178552505050505050905001915050604051809103902095508a604051602001808263ffffffff1663ffffffff167c01000000000000000000000000000000000000000000000000000000000281526004019150506040516020818303038152906040526040518082805190602001908083835b60208310611dd457805182527fffffffffffffffffffffffffffffffffffffffffffffffffffffffffffffffe09092019160209182019101611d97565b51815160209384036101000a7fffffffffffffffffffffffffffffffffffffffffffffffffffffffffffffffff018019909216911617905260408051929094018290038220828201528351808303820181529184019384905281519195509293508392850191508083835b60208310611e7c57805182527fffffffffffffffffffffffffffffffffffffffffffffffffffffffffffffffe09092019160209182019101611e3f565b6001836020036101000a0380198251168184511680821785525050505050509050019150506040518091039020945060019350600092505b6008831015611f91575060009050805b6006811015611f5c5782600889831a061415611ee85787816001011a60020a821791505b8260088a831a061415611f035788816001011a60020a821791505b82600888831a061415611f1e5786816001011a60020a821791505b82600887831a061415611f395785816001011a60020a821791505b82600886831a061415611f545784816001011a60020a821791505b600201611ec4565b6000821115611f865760206008849003028e0151821680831480611f835760089450600095505b50505b600190920191611eb4565b8399505b505050505050505050949350505050565b73ffffffffffffffffffffffffffffffffffffffff8116600090815260026020819052604082205460ff1690811115611fdb57fe5b92915050565b600054610100900460ff1690565b6000611ffa33610948565b1561093f57600173ffffffffffffffffffffffffffffffffffffffff831660009081526002602081905260409091205460ff169081111561203757fe5b146109325773ffffffffffffffffffffffffffffffffffffffff821660009081526002602052604090208054600191907fffffffffffffffffffffffffffffffffffffffffffffffffffffffffffffff001682806108f1565b50606090565b604080517f73687966745361666541646472657373000000000000000000000000000000006020808301919091526c0100000000000000000000000073ffffffffffffffffffffffffffffffffffffffff8516026030830152825160248184030181526044909201928390528151600093918291908401908083835b6020831061214f57805182527fffffffffffffffffffffffffffffffffffffffffffffffffffffffffffffffe09092019160209182019101612112565b6001836020036101000a0380198251168184511680821785525050505050509050019150506040518091039020905061218781612c30565b505050565b600061219733610948565b1561093f5760013360009081526002602081905260409091205460ff16908111156121be57fe5b146121c857600080fd5b600260ff83161080156121e3575060005460ff908116908316115b1561093257506002610943565b60065473ffffffffffffffffffffffffffffffffffffffff1681565b600860205260009081526040902080546001820154600283015460039093015463ffffffff83169364010000000090930473ffffffffffffffffffffffffffffffffffffffff908116939216919085565b600061226833610948565b1561093f5760013360009081526002602081905260409091205460ff169081111561228f57fe5b1461229957600080fd5b600760ff831611156122da5750600080547fffffffffffffffffffffffffffffffffffffffffffffffffffffffffffffff001660ff83161790556002610943565b60005460ff6101009091048116908316101561093a57506001610943565b6000612302613b0a565b5060065473ffffffffffffffffffffffffffffffffffffffff9081166000908152600860209081526040808320815160a08181018452825463ffffffff8116835264010000000090048716828601526001830154909616818401526002820154606080830191909152600390920154608080830182905284518087018c90528086018d90529384018d905283810191909152835180840390910181529190950191829052805184939192918291908401908083835b602083106123f457805182527fffffffffffffffffffffffffffffffffffffffffffffffffffffffffffffffe090920191602091820191016123b7565b51815160209384036101000a7fffffffffffffffffffffffffffffffffffffffffffffffffffffffffffffffff018019909216911617905260408051929094018290039091208882015173ffffffffffffffffffffffffffffffffffffffff1660009081526009909252929020805492965061248d94508d935086929091508990811061247d57fe5b906000526020600020015461121e565b151560011461249857fe5b50815163ffffffff166000908152600b6020908152604080832054600654606087015183517fa9059cbb00000000000000000000000000000000000000000000000000000000815273ffffffffffffffffffffffffffffffffffffffff928316600482015260248101919091529251911693849363a9059cbb936044808201949293918390030190829087803b15801561253157600080fd5b505af1158015612545573d6000803e3d6000fd5b505050506040513d602081101561255b57600080fd5b50508251602080850151600654606087015163ffffffff9094166000818152600b855260409081902054815196875273ffffffffffffffffffffffffffffffffffffffff908116958701959095528051919593851694909216927fdf721579a91e46d11643d5ce8fbe03f7d822da28d70ae2374381b76db9d8df1d92908290030190a4505060065473ffffffffffffffffffffffffffffffffffffffff16600090815260086020526040812080547fffffffffffffffff000000000000000000000000000000000000000000000000168155600180820180547fffffffffffffffffffffffff000000000000000000000000000000000000000016905560028201839055600390910191909155979650505050505050565b600061267d613b38565b606080606060008060606000806126938c612ed9565b985061269e89612f21565b97508a9450600093506126b08d612fd6565b92508251600014156126c55760009950611f95565b600091505b8751821015611f955782518411156126e55760009950611f95565b61270588838151811015156126f657fe5b90602001906020020151613173565b9650866040516020018082805190602001908083835b6020831061275857805182527fffffffffffffffffffffffffffffffffffffffffffffffffffffffffffffffe0909201916020918201910161271b565b6001836020036101000a0380198251168184511680821785525050505050509050019150506040516020818303038152906040526040518082805190602001908083835b602083106127d957805182527fffffffffffffffffffffffffffffffffffffffffffffffffffffffffffffffe0909201916020918201910161279c565b5181516020939093036101000a7fffffffffffffffffffffffffffffffffffffffffffffffffffffffffffffffff01801990911692169190911790526040519201829003909120881492506128349150505760009950611f95565b612854888381518110151561284557fe5b90602001906020020151612f21565b9550855160111415612a96578251841415612a14578d6040516020018082805190602001908083835b602083106128ba57805182527fffffffffffffffffffffffffffffffffffffffffffffffffffffffffffffffe0909201916020918201910161287d565b6001836020036101000a0380198251168184511680821785525050505050509050019150506040516020818303038152906040526040518082805190602001908083835b6020831061293b57805182527fffffffffffffffffffffffffffffffffffffffffffffffffffffffffffffffe090920191602091820191016128fe565b6001836020036101000a03801982511681845116808217855250505050505090500191505060405180910390206000191661297e8760108151811015156126f657fe5b6040518082805190602001908083835b602083106129cb57805182527fffffffffffffffffffffffffffffffffffffffffffffffffffffffffffffffe0909201916020918201910161298e565b6001836020036101000a0380198251168184511680821785525050505050509050019150506040518091039020600019161415612a0b5760019950611f95565b60009950611f95565b8284815181101515612a2257fe5b01602001517f0100000000000000000000000000000000000000000000000000000000000000908190048102049050601060ff82161115612a665760009950611f95565b612a89868260ff16815181101515612a7a57fe5b906020019060200201516131c7565b9450600184019350612c25565b855160021415612a0b57612acb612ac4876000815181101515612ab557fe5b906020019060200201516131d2565b8486613253565b8351940193841415612bec578d6040516020018082805190602001908083835b60208310612b2857805182527fffffffffffffffffffffffffffffffffffffffffffffffffffffffffffffffe09092019160209182019101612aeb565b6001836020036101000a0380198251168184511680821785525050505050509050019150506040516020818303038152906040526040518082805190602001908083835b60208310612ba957805182527fffffffffffffffffffffffffffffffffffffffffffffffffffffffffffffffe09092019160209182019101612b6c565b6001836020036101000a03801982511681845116808217855250505050505090500191505060405180910390206000191661297e876001815181101515612ab557fe5b612c01612ac4876000815181101515612ab557fe5b1515612c105760009950611f95565b612c22866001815181101515612a7a57fe5b94505b6001909101906126ca565b6000612c3b33610948565b1561093f5760008054838252600460205260409091206002015460ff9182169116108015612cbf5750600082815260046020908152604080832033845290915281205460ff166003811115612c8c57fe5b1480612cbf57506003600083815260046020908152604080832033845290915290205460ff166003811115612cbd57fe5b145b15612d755760008281526004602090815260408083206002810180547fffffffffffffffffffffffffffffffffffffffffffffffffffffffffffffff00808216600160ff9384168101909316179092553380875283865284872080549093168217909255918201805480840182559086528486200180547fffffffffffffffffffffffff000000000000000000000000000000000000000016821790558452600583529083208054918201815583529120018290555b5060008181526004602052604090206002015460ff16610943565b600080612d9c33610948565b15612ed05760008381526004602052604090206002015460ff1615612ec7575060005b600083815260046020526040902060010154811015612e6b576000838152600460205260408120600181018054600393919085908110612dfb57fe5b600091825260208083209091015473ffffffffffffffffffffffffffffffffffffffff168352820192909252604001902080547fffffffffffffffffffffffffffffffffffffffffffffffffffffffffffffff00166001836003811115612e5e57fe5b0217905550600101612dbf565b6000838152600460205260408120612e869060010182613b4f565b506000838152600460205260409020600290810180547fffffffffffffffffffffffffffffffffffffffffffffffffffffffffffffff0016905591506109f5565b600191506109f5565b600091506109f5565b612ee1613b38565b81516000811515612f075760408051808201909152600080825260208201529250611217565b506040805180820190915260209384018152928301525090565b60606000612f2d613b73565b6000612f388561358b565b1515612f4357600080fd5b612f4c856135b5565b925082604051908082528060200260200182016040528015612f8857816020015b612f75613b38565b815260200190600190039081612f6d5790505b509350612f9485613621565b91505b612fa08261365a565b15612fce57612fae82613679565b8482815181101515612fbc57fe5b60209081029091010152600101612f97565b505050919050565b60608060008060008060008751111561316557612ff46000886136bb565b7f0100000000000000000000000000000000000000000000000000000000000000900492508260ff166001148061302e57508260ff166003145b156130c15760018751600202036040519080825280601f01601f191660200182016040528015613068578160200160208202803883390190505b5094506130766001886136bb565b91508185600081518110151561308857fe5b9060200101907effffffffffffffffffffffffffffffffffffffffffffffffffffffffffffff1916908160001a905350600193506130fe565b60028751600202036040519080825280601f01601f1916602001820160405280156130f6578160200160208202803883390190505b509450600093505b5060ff83165b84518110156131655761311f8460ff168203600201886136bb565b858281518110151561312d57fe5b9060200101907effffffffffffffffffffffffffffffffffffffffffffffffffffffffffffff1916908160001a905350600101613104565b8495505b5050505050919050565b6020810151606090801515613187576109f5565b806040519080825280601f01601f1916602001820160405280156131b5578160200160208202803883390190505b5091506109f583600001518383613811565b6000611fdb82613851565b60606000806131e0846138a3565b15156131eb57600080fd5b6131f4846138cc565b604080518281527fffffffffffffffffffffffffffffffffffffffffffffffffffffffffffffffe0601f84011681016020019091529193509150818015613245578160200160208202803883390190505b509250611217828483613811565b60008060608060008061326589612fd6565b935083516040519080825280601f01601f191660200182016040528015613296578160200160208202803883390190505b5092508691505b8351870182101561334f5787828151811015156132b657fe5b9060200101517f010000000000000000000000000000000000000000000000000000000000000090047f0100000000000000000000000000000000000000000000000000000000000000029050808388840381518110151561331457fe5b9060200101907effffffffffffffffffffffffffffffffffffffffffffffffffffffffffffff1916908160001a90535060019091019061329d565b826040516020018082805190602001908083835b602083106133a057805182527fffffffffffffffffffffffffffffffffffffffffffffffffffffffffffffffe09092019160209182019101613363565b6001836020036101000a0380198251168184511680821785525050505050509050019150506040516020818303038152906040526040518082805190602001908083835b6020831061342157805182527fffffffffffffffffffffffffffffffffffffffffffffffffffffffffffffffe090920191602091820191016133e4565b51815160209384036101000a7fffffffffffffffffffffffffffffffffffffffffffffffffffffffffffffffff01801990921691161790526040519190930181900381208951909550899450908301928392508401908083835b602083106134b857805182527fffffffffffffffffffffffffffffffffffffffffffffffffffffffffffffffe0909201916020918201910161347b565b6001836020036101000a0380198251168184511680821785525050505050509050019150506040516020818303038152906040526040518082805190602001908083835b6020831061353957805182527fffffffffffffffffffffffffffffffffffffffffffffffffffffffffffffffe090920191602091820191016134fc565b6001836020036101000a0380198251168184511680821785525050505050509050019150506040518091039020600019161415613579578351945061357e565b600094505b5092979650505050505050565b6000808260200151600014156135a457600091506109f5565b5050515160c060009190911a101590565b6000806000806000806135c78761358b565b15156135d65760009550613169565b8651805160001a955093506135ea87613949565b840192506001876020015185010391505b8183116136175761360b83613a05565b909201916001016135fb565b9695505050505050565b613629613b73565b60006136348361358b565b151561363f57600080fd5b61364883613949565b83519383529092016020820152919050565b6000613664613b38565b50508051602080820151915192015191011190565b613681613b38565b60008061368d8461365a565b1561014857836020015191506136a282613a05565b8284526020808501829052838201908601529050611217565b6000600283061561375957601082600285048151811015156136d957fe5b9060200101517f010000000000000000000000000000000000000000000000000000000000000090047f0100000000000000000000000000000000000000000000000000000000000000027f0100000000000000000000000000000000000000000000000000000000000000900460ff1681151561375357fe5b066137e8565b6010826002850481518110151561376c57fe5b9060200101517f010000000000000000000000000000000000000000000000000000000000000090047f0100000000000000000000000000000000000000000000000000000000000000027f0100000000000000000000000000000000000000000000000000000000000000900460ff168115156137e657fe5b045b7f0100000000000000000000000000000000000000000000000000000000000000029392505050565b60006020601f83010484602085015b82841461383e57602084028281015190820152600190930192613820565b6000865160200187015250505050505050565b600080600061385f846138a3565b151561386a57600080fd5b613873846138cc565b90925090506020811180613885575080155b1561388f57600080fd5b806020036101000a82510492505050919050565b6000808260200151600014156138bc57600091506109f5565b5050515160c060009190911a1090565b60008060008060006138dd866138a3565b15156138e857600080fd5b8551805160001a9350915060808310156139085781945060019350613941565b60b88310156139265760018660200151039350816001019450613941565b60b78303905080600187602001510303935080820160010194505b505050915091565b60008060008360200151600014156139645760009250611217565b50508151805160001a9060808210156139805760009250611217565b60b882108061399b575060c0821015801561399b575060f882105b156139a95760019250611217565b60c08210156139dc577fffffffffffffffffffffffffffffffffffffffffffffffffffffffffffffff4a82019250611217565b507fffffffffffffffffffffffffffffffffffffffffffffffffffffffffffffff0a0192915050565b8051600090811a6080811015613a1e57600191506109f5565b60b8811015613a51577fffffffffffffffffffffffffffffffffffffffffffffffffffffffffffffff81810191506109f5565b60c0811015613a9857600183015160b76020839003016101000a900481017fffffffffffffffffffffffffffffffffffffffffffffffffffffffffffffff4a0191506109f5565b60f8811015613acb577fffffffffffffffffffffffffffffffffffffffffffffffffffffffffffffff41810191506109f5565b6001929092015160f76020849003016101000a90049091017fffffffffffffffffffffffffffffffffffffffffffffffffffffffffffffff0a01919050565b6040805160a08101825260008082526020820181905291810182905260608101829052608081019190915290565b604080518082019091526000808252602082015290565b81548183558181111561218757600083815260209020612187918101908301613b94565b606060405190810160405280613b87613b38565b8152602001600081525090565b61172791905b80821115613bae5760008155600101613b9a565b50905600a165627a7a72305820943b7366eb03d43438f2a8b775d19a1392ab4ef484296d7c7e6323b56dda53f20029",
  "source": "pragma solidity ^0.4.19;\n\nimport \"./Interfaces/IShyftBridgeUtilsProver.sol\";\n\nimport \"./Libraries/MerklePatriciaProof.sol\";\n\nimport \"./Administrable.sol\";\n\nimport \"./EIP20.sol\";\n\nimport \"./ShyftSafe.sol\";\n\ncontract ShyftBridge is Administrable {\n\n    address public shyftSafeAddress = address(0);\n\n    ShyftSafe shyftSafe;\n\n    event EVT_RootStorage(address indexed chain, uint256 indexed start,\n        uint256 indexed end, bytes32 headerRoot);\n\n    event EVT_TransitAsset(address indexed shyftSafe, address indexed toChain,\n        uint32 indexed bip32X_type, uint256 amount, address tokenAddr,\n        address fromChain);\n\n    event EVT_WithdrawAsset(address indexed shyftSafe, address indexed fromChain,\n        uint32 indexed bip32X_type, uint256 amount, address tokenAddr);\n\n    event EVT_TokenAdded(address indexed fromChain, uint32 indexed bip32X_type_orig,\n        uint32 indexed bip32X_type_new);\n\n    event EVT_TokenAssociated(address indexed toChain, uint32 indexed bip32X_type_from,\n        uint32 indexed bip32X_type_to);\n\n    event EVT_Initialized(address addr);\n\n    // The user prepares a withdrawal with Safe data and then releases it with a withdraw.\n    struct Withdrawal {\n        uint32 bip32X_type;\n        address fromChain;\n        address safeAddress;\n        uint256 amount;\n        bytes32 txRoot;\n    }\n    mapping(address => Withdrawal) public pendingWithdrawals; // remove public when done testing.\n\n    mapping(address => bytes32[]) roots;\n\n    // Tracking the last block for each bridge network\n    mapping(address => uint256) lastBlock;\n\n    // Tokens need to be associated between chains.\n    // This should work for EVM-compatible tokens but not other BIP32 Tokens\n    // bip32_type => tokenAddress\n    // fromChainAddress => (oldTokenAddress => newTokenAddress)\n    //\n    mapping (uint32 => address) bip32_tokens;\n    mapping(address => mapping(address => address)) tokens;\n\n    constructor() public {\n        owner = msg.sender;\n        setPrimaryAdministrator(msg.sender);\n\n        emit EVT_Initialized(msg.sender);\n        // we need to pass in shyftSafeAddress; this always reverts.\n        /*shyftSafeAddress = _addr;\n        uint256 result = setShyftSafeAddress(shyftSafeAddress);\n\n        if(result == 2) {\n          shyftSafe = ShyftSafe(shyftSafeAddress);\n        }\n        else {\n          //revert();\n        }*/\n    }\n\n    //@note:@here:@next: is this still needed?\n    // sketchy function for testing\n    function init(address _addr) public returns (uint) {\n        uint256 result = setShyftSafeAddress(_addr);\n\n        //if(result == 2) {\n        shyftSafeAddress = _addr;\n        shyftSafe = ShyftSafe(_addr);\n        //}\n\n        return result;\n    }\n\n    function validateSafe(address _addr) public {\n        bytes32 keyKeccak = keccak256(abi.encodePacked(\"shyftSafeAddress\", _addr));\n        adminApplyAndGetPermissionsForMultisignKey(keyKeccak);\n    }\n\n    // @dev: Since we are assuming Shyft is honest, there's no need to propose a root.\n    // Thus, we can simply set an appropriate root.\n    //\n    // @dev: This function saves a hash to an append-only array of block header hashes\n    // associated with the given origin chain address-id.\n    //\n    // @param _root , the root we want to add\n    // @param _chainId, the bridged network from which the header root comes from\n    // @param _end, index to ensure that we are indeed adding blocks\n    function addRoot(bytes32 _root, address _chainId, uint256 _end) public returns (bool){\n        // Make sure we are adding blocks\n        assert(_end > lastBlock[_chainId] + 1);\n\n        // Add the header roots\n        roots[_chainId].push(_root);\n\n        // Log that Shyft has added a root\n        emit EVT_RootStorage(_chainId, lastBlock[_chainId] + 1, _end, _root);\n        lastBlock[_chainId] = _end;\n        return true;\n    }\n\n    // @dev: Create a token and map it to an existing one on the origin chains\n    //\n    // @param _newToken, index of the new token we want to add\n    // @param _origToken, index of the token we want to associate with the new token\n    // @param _fromChain, address of the chain that we are currently on\n    //\n    // TODO: May need to create a modifier so that only the Safe/Administrator calls this function\n    function addToken(uint32 _newToken, uint32 _origToken, address _fromChain) public payable returns (bool){\n        require(isAdministrator(msg.sender));\n        // Ether is represented as address(1). We don't need to map the entire supply\n        // because actors need ether to do anything on this chain. We'll assume\n        // the accounting is managed off-chain.\n        if(bip32_tokens[_newToken] != address(1)){\n            assert(bip32_tokens[_newToken] != address(0));\n            EIP20 t = EIP20(bip32_tokens[_newToken]);\n            t.transferFrom(msg.sender, address(this), t.totalSupply());\n            tokens[_fromChain][bip32_tokens[_origToken]] = bip32_tokens[_newToken];\n\n        }\n        emit EVT_TokenAdded(_fromChain, _origToken, _newToken);\n        return true;\n\n    }\n\n    // @dev: Forward association. Map an existing token to a token on the destination chain.\n    //\n    // @param _newToken, address of the token we want to exchange on the _toChain\n    // @param _origToken, address of the token we are currently using on this chain\n    // @param _toChain, address of the chain we want to transfer tokens to\n    //\n    // TODO: May need to create a modifier so that only the Safe/Administrator calls this function\n    function associateToken(uint32 _newToken, uint32 _origToken, address _toChain) public returns (bool){\n        require(isAdministrator(msg.sender));\n        tokens[_toChain][bip32_tokens[_newToken]] = bip32_tokens[_origToken];\n        emit EVT_TokenAssociated(_toChain, _origToken, _newToken);\n        return true;\n    }\n\n    //returns:\n    // 0 = not an administrator\n    // 1 = only one administrator has permissioned change\n    // 2 = shyft safe set\n\n    function setShyftSafeAddress(address _shyftSafeAddress) public returns (uint8 result) {\n        require(_shyftSafeAddress != address(0));\n\n        if (isAdministrator(msg.sender)) {\n            bytes32 keyKeccak = keccak256(abi.encodePacked(\"shyftSafeAddress\", _shyftSafeAddress));\n\n            uint16 numPermissions = adminApplyAndGetPermissionsForMultisignKey(keyKeccak);\n\n            bool permittedToModify;\n\n            if (numPermissions >= maxThreshold) {\n                permittedToModify = true;\n            } else {\n                uint16 numConfirmedPermissions = adminApplyAndGetPermissionsForMultisignKey(keyKeccak);\n\n                if (numConfirmedPermissions >= maxThreshold) {\n                    permittedToModify = true;\n                }\n            }\n\n            if (permittedToModify == true) {\n                shyftSafeAddress = _shyftSafeAddress;\n\n                adminResetPermissionsForMultisignKey(keyKeccak);\n\n                // shyft safe set\n                return 2;\n\n            } else {\n                // not enough administrators have permissioned change\n                return 1;\n            }\n        } else {\n            // not an administrator\n            return 0;\n        }\n    }\n\n    // @note: a (wallet) user calls this function to begin the process of \"transiting\" (moving) their assets across\n    // blockchains.\n    //\n    // the user needs to have assets currently within their Safe hold(s). as long as the asset is with their Safe hold(s)\n    // it is guaranteed to be a balance they can transit. in order to induce a proper locking mechanism, the asset has a\n    // minimum block confirmation of 6 blocks\n    // returns:\n\n    function transitAsset(\n        uint32 _bip32X_type,\n        uint256 _value,\n        uint32 _holdIndex,\n        bytes _logsBloom,\n        address _toChainId) public returns (uint8 result) {\n        // Prove that the asset is in the user's safe hold\n        bool assetIsInSafe = proveSafeBalanceForType(_logsBloom, _value, _bip32X_type, _holdIndex);\n\n        // Check if the safe is freed or if the safe is still timelocked\n        if(assetIsInSafe){\n            uint8 freeSafeHoldRes = shyftSafe.freeSafeHold(_holdIndex);\n            if(freeSafeHoldRes == 1) {\n                // Safe is still timelocked, so make a deposit bound for a particular chain\n                EIP20 t = EIP20(bip32_tokens[_bip32X_type]);\n                t.transferFrom(shyftSafeAddress, address(this), _value);\n                emit EVT_TransitAsset(shyftSafeAddress, _toChainId, _bip32X_type, _value, bip32_tokens[_bip32X_type], address(this));\n                return 1;\n            } else {\n                // The keep's hold array shouldn't be less than the given _holdIndex\n                assert(freeSafeHoldRes != 0);\n\n                // Either the safe hold couldn't be freed or the safe hold could be freed\n                if(freeSafeHoldRes == 2){\n                    revert();\n\n                    return 2;\n\n                } else {\n                    // Hold array was freed\n                    return 3;\n                }\n\n            }\n\n        } else {\n            // Asset not in safe\n            return 0;\n        }\n\n    }\n    // @dev: This function proves that the event EVT_heldSafeBalanceForType has occurred.\n    // Source: https://github.com/figs999/Ethereum/blob/master/EventStorage.sol\n    //\n    // @param _logsBloom, bloom filter for the block in which the event occurred\n    // @param _amount, the amount of a particular asset that was added to the safe\n    // @param _bip32X_type, the asset that was added to the safe\n    // @param _holdIndex, the index of the holdArray in which the asset was deposited in the safe\n    function proveSafeBalanceForType(\n        bytes _logsBloom,\n        uint256 _amount,\n        uint32 _bip32X_type,\n        uint32 _holdIndex) public view returns (bool) { //change back to internal after testing\n\n        bytes32 eventTopic = keccak256(abi.encodePacked(keccak256(abi.encodePacked(\"EVT_heldSafeBalanceForType(uint256, uint32, uint256, uint256)\"))));\n        bytes32 topicShyftAddress = keccak256(abi.encodePacked(shyftSafeAddress));\n        bytes32 topicAmount = keccak256(abi.encodePacked(keccak256(abi.encodePacked(_amount))));\n        bytes32 topicBIP32Token = keccak256(abi.encodePacked(keccak256(abi.encodePacked(_bip32X_type))));\n        bytes32 topicHoldIndex = keccak256(abi.encodePacked(keccak256(abi.encodePacked(_holdIndex))));\n\n        bool foundInLogs = true;\n\n        for(uint b = 0; b < 8; b++) {\n            bytes32 bloom = 0;\n            for(uint i = 0; i < 6; i += 2){\n                assembly {\n                    if eq(mod(byte(i, topicShyftAddress), 8), b) {\n                        bloom := or(bloom, exp(2, byte(add(1,i), topicShyftAddress)))\n                    }\n\n                    if eq(mod(byte(i, eventTopic), 8), b) {\n                        bloom := or(bloom, exp(2, byte(add(1, i), eventTopic)))\n                    }\n\n                    if eq(mod(byte(i, topicAmount), 8), b) {\n                        bloom := or(bloom, exp(2, byte(add(1,i), topicAmount)))\n                    }\n\n                    if eq(mod(byte(i, topicBIP32Token), 8), b) {\n                        bloom := or(bloom, exp(2, byte(add(1, i), topicBIP32Token)))\n                    }\n\n                    if eq(mod(byte(i, topicHoldIndex), 8), b) {\n                        bloom := or(bloom, exp(2, byte(add(1,i), topicHoldIndex)))\n                    }\n                }\n            }\n\n            assembly {\n                if gt(bloom, 0) {\n                    let bloomAnd := and(mload(add(_logsBloom, mul(0x20, sub(8,b)))), bloom)\n                    let equal := eq(bloomAnd, bloom)\n\n                    if eq(equal, 0) {\n                        b := 8\n                        foundInLogs := 0\n                    }\n                }\n            }\n        }\n\n        return foundInLogs;\n    }\n\n    function stringToBytes(string _str) returns (bytes res) {\n        assembly {\n            let res := 0\n            let s := mload(_str)\n        }\n    }\n    /*\n    function proveFreedSafeHold(\n      bytes _rlpFreeSafeHoldTx,\n      bytes _path,\n      bytes _parentNodes,\n      bytes _logsBloom,\n      bytes _holdIndex,\n\n      ) internal returns (bool) {\n\n        return false;\n\n    }\n\n    function proveSafeHoldTimeLocked() internal returns (bool) {\n\n      return false;\n    }*/\n\n    // @dev: Prepares the withdrawal of an asset in a destination chain\n    //\n    // @params _bip32X_type, asset user wants to withdraw\n    // @param _value, amount of the asset user wants to withdraw\n    // @param _fromChain, the chain on which user deposited the asset\n    // @param _txRoot, the transaction root of the block in the \"from\" chain in which the deposit was made\n    // @param _path, path in which the deposited transaction block resides in. It is generated off-chain.\n    // @param _parentNodes, list of parent nodes in the deposit transaction\n    // @param _rlpDepositTx, rlp-encoded Deposit transaction data\n\n    function prepareWithdrawalOfAsset(\n        uint32 _bip32X_type,\n        uint256 _value,\n        address _fromChain,\n        bytes32 _txRoot,\n        bytes _path,\n        bytes _parentNodes,\n        bytes _rlpDepositTx)\n    public returns (bool){\n\n        // Prove the transaction root\n        // If on an EVM-compatile chain, use MerklePatriciaProof\n        // Otherwise, it should be sufficient to use prove\n        require(MerklePatriciaProof.verify(_rlpDepositTx, _path, _parentNodes, _txRoot) == true);\n\n        Withdrawal memory w;\n        w.bip32X_type = _bip32X_type;\n        w.fromChain = _fromChain;\n        w.safeAddress = shyftSafeAddress;\n        w.amount = _value;\n        w.txRoot = _txRoot;\n\n        pendingWithdrawals[shyftSafeAddress] = w;\n\n        return true;\n\n    }\n\n    // @dev: This function let's the user withdraw their assets into their ShyftSafe on the new chain\n    // @param _proof, Merkle proof\n    // @param _blockNum, block number of the block containing the deposit on the bridged chain\n    // @param _timestamp, timestamp of the block containing the deposit on the bridged chain\n    // @param _previousHeader, modified header of the block containing the deposit\n    // @param _rootIndex, index of the header root on the origin chain\n    function withdrawAsset(bytes _proof,\n        uint256 _blockNum,\n        uint256 _timestamp,\n        bytes32 _previousHeader,\n        uint _rootIndex)\n    public returns (bool){\n\n        Withdrawal memory w = pendingWithdrawals[shyftSafeAddress];\n\n        // Prove that the user has the correct header\n        bytes32 leaf = keccak256(abi.encodePacked(_previousHeader, _timestamp, _blockNum, w.txRoot));\n        assert(prove(_proof, leaf, roots[w.fromChain][_rootIndex]) == true);\n\n        // Withdraw Tokens\n        EIP20 t = EIP20(bip32_tokens[w.bip32X_type]);\n        t.transfer(shyftSafeAddress, w.amount);\n\n\n        // Event for withdrawal\n        emit EVT_WithdrawAsset(shyftSafeAddress, w.fromChain, w.bip32X_type, w.amount, bip32_tokens[w.bip32X_type]);\n        delete pendingWithdrawals[shyftSafeAddress];\n\n        return true;\n    }\n\n    // @dev: Checks if a given address is a ShyftSafe address\n    // returns:\n    // true = is shyftSafe\n    // false = not shyftSafe\n    function isShyftSafe(address _potentialShyftSafeAddress) internal view returns (bool result) {\n        return (shyftSafeAddress == _potentialShyftSafeAddress);\n    }\n\n\n    // @dev: Verifies a Merkle proof proving the existence of a leaf in a merkle tree.\n    //\n    // @param _proof Merkle proof containing sibling hashed on the branch from the leaf to the root\n    // @param _root Merkle root\n    // @param _leaf Leaf of Merkle tree\n    function prove(bytes _proof, bytes32 _leaf, bytes32 _root) public pure returns (bool proven) {\n        require(_proof.length % 32 == 0);\n\n        uint i;\n        bytes32 computedHash;\n        bytes32 proofElement;\n\n        computedHash = keccak256(abi.encodePacked(_leaf));\n        for(i = 32; i <= _proof.length; i += 32){\n            assembly {\n                proofElement := mload(add(_proof, i))\n            }\n\n            if (computedHash < proofElement) {\n                computedHash = keccak256(abi.encodePacked(computedHash, proofElement));\n            } else {\n                computedHash = keccak256(abi.encodePacked(proofElement, computedHash));\n            }\n        }\n\n        return computedHash == _root;\n    }\n}\n",
  "sourcePath": "/Users/jaypersanchez/shyft_shyftcorecontracts/contracts/ShyftBridge.sol",
  "compiler": {
    "name": "solc",
    "version": "0.4.28+commit.2fcccea1.Emscripten.clang"
  },
  "schemaVersion": "2.0.3",
  "updatedAt": "2019-03-26T16:26:53.600Z"
}