{
  "contractName": "ShyftKycContractTester",
  "abi": [
    {
      "constant": true,
      "inputs": [],
      "name": "contractAddr",
      "outputs": [
        {
          "name": "",
          "type": "address"
        }
      ],
      "payable": false,
      "stateMutability": "view",
      "type": "function"
    },
    {
      "constant": true,
      "inputs": [],
      "name": "shyftKycContract",
      "outputs": [
        {
          "name": "",
          "type": "address"
        }
      ],
      "payable": false,
      "stateMutability": "view",
      "type": "function"
    },
    {
      "payable": true,
      "stateMutability": "payable",
      "type": "fallback"
    },
    {
      "constant": false,
      "inputs": [
        {
          "name": "_addr",
          "type": "address"
        }
      ],
      "name": "init",
      "outputs": [
        {
          "name": "",
          "type": "address"
        }
      ],
      "payable": false,
      "stateMutability": "nonpayable",
      "type": "function"
    },
    {
      "constant": false,
      "inputs": [
        {
          "name": "_val",
          "type": "uint256"
        }
      ],
      "name": "callWithdraw",
      "outputs": [],
      "payable": false,
      "stateMutability": "nonpayable",
      "type": "function"
    }
  ],
  "bytecode": "0x608060405234801561001057600080fd5b50610454806100206000396000f3006080604052600436106100615763ffffffff7c010000000000000000000000000000000000000000000000000000000060003504166315a5d9d881146101b057806319ab453c146101ee578063401b07631461021c578063bc389b6d14610231575b600060405160200180807f776974686472617728616464726573732c75696e74323536290000000000000081525060190190506040516020818303038152906040526040518082805190602001908083835b602083106100f057805182527fffffffffffffffffffffffffffffffffffffffffffffffffffffffffffffffe090920191602091820191016100b3565b5181517fffffffffffffffffffffffffffffffffffffffffffffffffffffffffffffffff6020949094036101000a939093019283169219169190911790526040805193909101839003832060015463ffffffff7c0100000000000000000000000000000000000000000000000000000000808404918216028652306004870152346024870152925191975073ffffffffffffffffffffffffffffffffffffffff16955090935060448084019360009350829003018183875af15050505050005b3480156101bc57600080fd5b506101c561024b565b6040805173ffffffffffffffffffffffffffffffffffffffff9092168252519081900360200190f35b3480156101fa57600080fd5b506101c573ffffffffffffffffffffffffffffffffffffffff60043516610267565b34801561022857600080fd5b506101c56102bb565b34801561023d57600080fd5b506102496004356102d7565b005b60015473ffffffffffffffffffffffffffffffffffffffff1681565b6000805473ffffffffffffffffffffffffffffffffffffffff9283167fffffffffffffffffffffffff0000000000000000000000000000000000000000918216811792839055600180549092161790551690565b60005473ffffffffffffffffffffffffffffffffffffffff1681565b600060405160200180807f776974686472617728616464726573732c75696e74323536290000000000000081525060190190506040516020818303038152906040526040518082805190602001908083835b6020831061036657805182527fffffffffffffffffffffffffffffffffffffffffffffffffffffffffffffffe09092019160209182019101610329565b5181517fffffffffffffffffffffffffffffffffffffffffffffffffffffffffffffffff6020949094036101000a939093019283169219169190911790526040805193909101839003832060015463ffffffff7c0100000000000000000000000000000000000000000000000000000000808404918216028652306004870152602486018a9052925191975073ffffffffffffffffffffffffffffffffffffffff16955090935060448084019360009350829003018183875af15050505050505600a165627a7a72305820c319c38b95a589b3e42569353440b48c51b4b71e3548e5b66f17e45375568be30029",
  "source": "pragma solidity ^0.4.17;\n\nimport \"./ShyftKycContract.sol\";\n\ncontract ShyftKycContractTester {\n\tShyftKycContract public shyftKycContract;\n\taddress public contractAddr;\n\n    function init(address _addr) public returns (address) {\n        shyftKycContract = ShyftKycContract(_addr);\n        contractAddr = _addr;\n        return address(shyftKycContract);\n    }\n\n    function callWithdraw(uint _val) public {\n    \tbytes4 sig = bytes4(keccak256(abi.encodePacked(\"withdraw(address,uint256)\")));\n    \tcontractAddr.call(sig, address(this), _val);\n    }\n\n    // test for recursion\n    function() payable {\n    \tbytes4 sig = bytes4(keccak256(abi.encodePacked(\"withdraw(address,uint256)\")));\n    \tcontractAddr.call(sig, address(this), msg.value);\n    }\n\n}",
  "sourcePath": "/Users/jaypersanchez/shyft_shyftcorecontracts/contracts/ShyftKycContractTester.sol",
  "compiler": {
    "name": "solc",
    "version": "0.4.28+commit.2fcccea1.Emscripten.clang"
  },
  "schemaVersion": "2.0.3",
  "updatedAt": "2019-03-26T16:26:58.754Z"
}