{
  "contractName": "ShyftSafe",
  "abi": [
    {
      "anonymous": false,
      "inputs": [
        {
          "indexed": false,
          "name": "amount",
          "type": "uint256"
        },
        {
          "indexed": false,
          "name": "bip32X_type",
          "type": "uint32"
        },
        {
          "indexed": false,
          "name": "safeExpiryTime",
          "type": "uint256"
        },
        {
          "indexed": false,
          "name": "holdIndex",
          "type": "uint256"
        }
      ],
      "name": "EVT_heldSafeBalanceForType",
      "type": "event"
    },
    {
      "anonymous": false,
      "inputs": [
        {
          "indexed": false,
          "name": "holdIndex",
          "type": "uint256"
        },
        {
          "indexed": false,
          "name": "numRemainingHolds",
          "type": "uint256"
        },
        {
          "indexed": false,
          "name": "holdStatus",
          "type": "uint8"
        },
        {
          "indexed": false,
          "name": "freedAmount",
          "type": "uint256"
        },
        {
          "indexed": false,
          "name": "freedBip32X_type",
          "type": "uint256"
        },
        {
          "indexed": false,
          "name": "currentBlockTime",
          "type": "uint256"
        },
        {
          "indexed": false,
          "name": "safeExpiryTime",
          "type": "uint256"
        }
      ],
      "name": "EVT_freedSafeHold",
      "type": "event"
    },
    {
      "anonymous": false,
      "inputs": [
        {
          "indexed": false,
          "name": "_amount",
          "type": "uint256"
        },
        {
          "indexed": false,
          "name": "_bip32X_type",
          "type": "uint32"
        },
        {
          "indexed": false,
          "name": "blockTimestamp",
          "type": "uint256"
        },
        {
          "indexed": false,
          "name": "holdSafeExpiryTime",
          "type": "uint256"
        }
      ],
      "name": "EVT_freedSafePreservation",
      "type": "event"
    },
    {
      "anonymous": false,
      "inputs": [
        {
          "indexed": false,
          "name": "holdIndex",
          "type": "uint256"
        },
        {
          "indexed": false,
          "name": "numRemainingHolds",
          "type": "uint256"
        },
        {
          "indexed": false,
          "name": "currentBlockTime",
          "type": "uint256"
        },
        {
          "indexed": false,
          "name": "safeExpiryTime",
          "type": "uint256"
        }
      ],
      "name": "EVT_safeHoldStillTimelocked",
      "type": "event"
    },
    {
      "anonymous": false,
      "inputs": [
        {
          "indexed": false,
          "name": "_amount",
          "type": "uint256"
        },
        {
          "indexed": false,
          "name": "_bip32X_type",
          "type": "uint32"
        },
        {
          "indexed": false,
          "name": "preservationValue",
          "type": "uint256"
        }
      ],
      "name": "EVT_preserveSafeBalanceForType",
      "type": "event"
    },
    {
      "constant": true,
      "inputs": [],
      "name": "getShyftTokenType",
      "outputs": [
        {
          "name": "result",
          "type": "uint32"
        }
      ],
      "payable": false,
      "stateMutability": "view",
      "type": "function"
    },
    {
      "constant": true,
      "inputs": [
        {
          "name": "_identifiedAddress",
          "type": "address"
        }
      ],
      "name": "getSafeBalance",
      "outputs": [
        {
          "name": "balance",
          "type": "uint256"
        }
      ],
      "payable": false,
      "stateMutability": "view",
      "type": "function"
    },
    {
      "constant": true,
      "inputs": [
        {
          "name": "_identifiedAddress",
          "type": "address"
        },
        {
          "name": "bip32X_type",
          "type": "uint32"
        }
      ],
      "name": "getSafeBalance",
      "outputs": [
        {
          "name": "balance",
          "type": "uint256"
        }
      ],
      "payable": false,
      "stateMutability": "view",
      "type": "function"
    },
    {
      "constant": false,
      "inputs": [
        {
          "name": "_masterKey",
          "type": "address"
        }
      ],
      "name": "setMasterKey",
      "outputs": [
        {
          "name": "result",
          "type": "uint8"
        }
      ],
      "payable": false,
      "stateMutability": "nonpayable",
      "type": "function"
    },
    {
      "constant": false,
      "inputs": [
        {
          "name": "_account",
          "type": "address"
        },
        {
          "name": "_profileManagementContractAddress",
          "type": "address"
        }
      ],
      "name": "setProfileManagament",
      "outputs": [
        {
          "name": "result",
          "type": "uint8"
        }
      ],
      "payable": false,
      "stateMutability": "nonpayable",
      "type": "function"
    },
    {
      "constant": false,
      "inputs": [
        {
          "name": "_account",
          "type": "address"
        },
        {
          "name": "_bip32XChain",
          "type": "uint32"
        },
        {
          "name": "_withdrawalRulesContractAddress",
          "type": "address"
        }
      ],
      "name": "setBPChoice",
      "outputs": [
        {
          "name": "result",
          "type": "uint8"
        }
      ],
      "payable": false,
      "stateMutability": "nonpayable",
      "type": "function"
    },
    {
      "constant": false,
      "inputs": [
        {
          "name": "_account",
          "type": "address"
        }
      ],
      "name": "chillAccount",
      "outputs": [
        {
          "name": "result",
          "type": "uint8"
        }
      ],
      "payable": false,
      "stateMutability": "nonpayable",
      "type": "function"
    },
    {
      "constant": false,
      "inputs": [
        {
          "name": "_account",
          "type": "address"
        },
        {
          "name": "_bip32XType",
          "type": "uint32"
        },
        {
          "name": "_amount",
          "type": "uint256"
        }
      ],
      "name": "setSpendingLimitOnSkirts",
      "outputs": [
        {
          "name": "result",
          "type": "uint8"
        }
      ],
      "payable": false,
      "stateMutability": "nonpayable",
      "type": "function"
    },
    {
      "constant": false,
      "inputs": [
        {
          "name": "_amount",
          "type": "uint256"
        },
        {
          "name": "_bip32X_type",
          "type": "uint32"
        }
      ],
      "name": "preserveSafeBalanceForType",
      "outputs": [
        {
          "name": "holdIndex",
          "type": "uint256"
        }
      ],
      "payable": false,
      "stateMutability": "nonpayable",
      "type": "function"
    },
    {
      "constant": false,
      "inputs": [
        {
          "name": "_amount",
          "type": "uint256"
        },
        {
          "name": "_bip32X_type",
          "type": "uint32"
        }
      ],
      "name": "freeSafePreservation",
      "outputs": [
        {
          "name": "result",
          "type": "uint8"
        }
      ],
      "payable": false,
      "stateMutability": "nonpayable",
      "type": "function"
    },
    {
      "constant": false,
      "inputs": [
        {
          "name": "_amount",
          "type": "uint256"
        },
        {
          "name": "_bip32X_type",
          "type": "uint32"
        },
        {
          "name": "_safeExpiryTime",
          "type": "uint256"
        }
      ],
      "name": "holdSafeBalanceForType",
      "outputs": [
        {
          "name": "holdIndex",
          "type": "uint256"
        }
      ],
      "payable": false,
      "stateMutability": "nonpayable",
      "type": "function"
    },
    {
      "constant": false,
      "inputs": [
        {
          "name": "holdIndex",
          "type": "uint32"
        }
      ],
      "name": "preserveSafeHold",
      "outputs": [
        {
          "name": "result",
          "type": "uint8"
        }
      ],
      "payable": false,
      "stateMutability": "nonpayable",
      "type": "function"
    },
    {
      "constant": false,
      "inputs": [
        {
          "name": "_holdIndex",
          "type": "uint32"
        }
      ],
      "name": "freeSafeHold",
      "outputs": [
        {
          "name": "result",
          "type": "uint8"
        }
      ],
      "payable": false,
      "stateMutability": "nonpayable",
      "type": "function"
    },
    {
      "constant": true,
      "inputs": [
        {
          "name": "_bip32X_type",
          "type": "uint32"
        }
      ],
      "name": "getHoldValuation",
      "outputs": [
        {
          "name": "result",
          "type": "uint256"
        }
      ],
      "payable": false,
      "stateMutability": "view",
      "type": "function"
    },
    {
      "constant": true,
      "inputs": [
        {
          "name": "_bip32X_type",
          "type": "uint32"
        }
      ],
      "name": "getPreservationValuation",
      "outputs": [
        {
          "name": "result",
          "type": "uint256"
        }
      ],
      "payable": false,
      "stateMutability": "view",
      "type": "function"
    },
    {
      "constant": false,
      "inputs": [
        {
          "name": "_identifiedAddress",
          "type": "address"
        },
        {
          "name": "_proofHash",
          "type": "bytes32"
        },
        {
          "name": "_proof",
          "type": "bytes"
        },
        {
          "name": "_publicMetadata",
          "type": "bytes"
        },
        {
          "name": "_encryptedMetadata",
          "type": "bytes"
        },
        {
          "name": "_amount",
          "type": "uint256"
        },
        {
          "name": "_bip32X_type",
          "type": "uint32"
        }
      ],
      "name": "addProof",
      "outputs": [
        {
          "name": "result",
          "type": "uint16"
        }
      ],
      "payable": false,
      "stateMutability": "nonpayable",
      "type": "function"
    },
    {
      "constant": false,
      "inputs": [
        {
          "name": "_identifiedAddress",
          "type": "address"
        }
      ],
      "name": "updateSafe",
      "outputs": [
        {
          "name": "result",
          "type": "uint16"
        }
      ],
      "payable": false,
      "stateMutability": "nonpayable",
      "type": "function"
    },
    {
      "constant": false,
      "inputs": [
        {
          "name": "proof",
          "type": "bytes"
        }
      ],
      "name": "safeProofProver",
      "outputs": [
        {
          "name": "result",
          "type": "bool"
        }
      ],
      "payable": false,
      "stateMutability": "nonpayable",
      "type": "function"
    }
  ],
  "bytecode": "0x6080604052600080556003805466ffffffff0000001916640309000000177fffffffffff0000000000000000000000000000000000000000ffffffffffffff16905534801561004d57600080fd5b50611ddc8061005d6000396000f3006080604052600436106100fb5763ffffffff7c010000000000000000000000000000000000000000000000000000000060003504166304d6a15f81146101005780630c2f98ba146102175780630e97d4c714610267578063194d6250146102d45780632b95b2121461031257806332a4fbba14610345578063457dd8b314610379578063470413c8146103a7578063505ab893146103c557806360f317d2146103e3578063743acc091461040157806381bde1201461042f578063b8dc6bc01461045d578063df90225d1461047b578063e3a85593146104a9578063e8c5d843146104cd578063f8c2e26f14610504578063fcb81ce214610532575b600080fd5b34801561010c57600080fd5b50604080516020600460443581810135601f810184900484028501840190955284845261020094823573ffffffffffffffffffffffffffffffffffffffff1694602480359536959460649492019190819084018382808284375050604080516020601f89358b018035918201839004830284018301909452808352979a99988101979196509182019450925082915084018382808284375050604080516020601f89358b018035918201839004830284018301909452808352979a999881019791965091820194509250829150840183828082843750949750508435955050505060209091013563ffffffff169050610553565b6040805161ffff9092168252519081900360200190f35b34801561022357600080fd5b5061025173ffffffffffffffffffffffffffffffffffffffff6004351663ffffffff60243516604435610834565b6040805160ff9092168252519081900360200190f35b34801561027357600080fd5b506040805160206004803580820135601f81018490048402850184019095528484526102c09436949293602493928401919081908401838280828437509497506108b19650505050505050565b604080519115158252519081900360200190f35b3480156102e057600080fd5b5061025173ffffffffffffffffffffffffffffffffffffffff60043581169063ffffffff6024351690604435166109c5565b34801561031e57600080fd5b5061033360043563ffffffff60243516610a89565b60408051918252519081900360200190f35b34801561035157600080fd5b5061025173ffffffffffffffffffffffffffffffffffffffff60043581169060243516610b48565b34801561038557600080fd5b5061025173ffffffffffffffffffffffffffffffffffffffff60043516610bde565b3480156103b357600080fd5b5061025163ffffffff60043516610c68565b3480156103d157600080fd5b5061033363ffffffff60043516610e9f565b3480156103ef57600080fd5b5061025163ffffffff60043516610ec8565b34801561040d57600080fd5b5061025173ffffffffffffffffffffffffffffffffffffffff60043516610f50565b34801561043b57600080fd5b5061020073ffffffffffffffffffffffffffffffffffffffff60043516610f89565b34801561046957600080fd5b5061033363ffffffff60043516611289565b34801561048757600080fd5b5061033373ffffffffffffffffffffffffffffffffffffffff600435166112b2565b3480156104b557600080fd5b5061033360043563ffffffff602435166044356112f4565b3480156104d957600080fd5b5061033373ffffffffffffffffffffffffffffffffffffffff6004351663ffffffff60243516611391565b34801561051057600080fd5b506105196113ce565b6040805163ffffffff9092168252519081900360200190f35b34801561053e57600080fd5b5061025160043563ffffffff602435166113e2565b6000806000610561336114d4565b8061058157503373ffffffffffffffffffffffffffffffffffffffff8b16145b156108225773ffffffffffffffffffffffffffffffffffffffff8a16600090815260016020819052604090912081018054909101925063ffffffff8316906105c99082611b5c565b5073ffffffffffffffffffffffffffffffffffffffff8a16600090815260016020819052604090912001805463ffffffff7fffffffffffffffffffffffffffffffffffffffffffffffffffffffffffffffff85011690811061062757fe5b60009182526020918290206006909102018a81558951909250610652916001840191908b0190611b8d565b50865161066890600283019060208a0190611b8d565b50855161067e9060038301906020890190611b8d565b50600481018590556005810180547fffffffffffffffffffffffffffffffffffffffffffffffffffffffff000000001663ffffffff8616179055600260035460ff1660028111156106cb57fe5b14156107aa5760038054600191907fffffffffffffffffffffffffffffffffffffffffffffffffffffffffffffff00168280021790555073ffffffffffffffffffffffffffffffffffffffff8a16600090815260016020526040902060020180546401000000007fffffffffffffffffffffffffffffffffffffffffffffffffffffffff000000009091167fffffffffffffffffffffffffffffffffffffffffffffffffffffffffffffffff850163ffffffff16177fffffffffffffffffffffffffffffffffffffffffffffffff00000000ffffffff16179055610819565b73ffffffffffffffffffffffffffffffffffffffff8a166000908152600160208190526040909120600201805463ffffffff6401000000008083048216909401169092027fffffffffffffffffffffffffffffffffffffffffffffffff00000000ffffffff9092169190911790555b60019250610827565b600092505b5050979650505050505050565b73ffffffffffffffffffffffffffffffffffffffff8381166000908152600460205260408120549091163314156108a6575073ffffffffffffffffffffffffffffffffffffffff8316600090815260086020908152604080832063ffffffff86168452909152902081905560016108aa565b5060005b9392505050565b6003546040517f375bfa5d000000000000000000000000000000000000000000000000000000008152602060048201818152845160248401528451600094670100000000000000900473ffffffffffffffffffffffffffffffffffffffff1693849363375bfa5d93889390928392604490910191908501908083838c5b8381101561094657818101518382015260200161092e565b50505050905090810190601f1680156109735780820380516001836020036101000a031916815260200191505b5092505050602060405180830381600087803b15801561099257600080fd5b505af11580156109a6573d6000803e3d6000fd5b505050506040513d60208110156109bc57600080fd5b50519392505050565b73ffffffffffffffffffffffffffffffffffffffff8381166000908152600460205260408120549091163314156108a6575073ffffffffffffffffffffffffffffffffffffffff838116600090815260066020908152604080832080547fffffffffffffffffffffffffffffffffffffffffffffffffffffffff000000001663ffffffff88161790556007909152902080547fffffffffffffffffffffffff00000000000000000000000000000000000000001691831691909117905560016108aa565b600080600080610a998686611503565b9093509150600160ff841614156100fb575033600090815260016020908152604080832063ffffffff808916855260088201909352922054610add91889061150c16565b63ffffffff8616600081815260088401602090815260409182902084905581518a8152908101929092528181019290925290517f72d8fc9df4bef4d191244290e015c7663c85ff3c683a29faf8e83912b7e90e499181900360600190a1600193505b50505092915050565b73ffffffffffffffffffffffffffffffffffffffff828116600090815260046020526040812054909116331415610bd4575073ffffffffffffffffffffffffffffffffffffffff828116600090815260056020526040902080547fffffffffffffffffffffffff0000000000000000000000000000000000000000169183169190911790556001610bd8565b5060005b92915050565b3360009081526004602052604081205473ffffffffffffffffffffffffffffffffffffffff161515610c5f575033600090815260046020526040902080547fffffffffffffffffffffffff00000000000000000000000000000000000000001673ffffffffffffffffffffffffffffffffffffffff83161790556001610c63565b5060005b919050565b33600090815260016020526040812060038101548290819063ffffffff8616108015610cbf575060038301805463ffffffff8716908110610ca557fe5b600091825260209091206004909102015460ff1615156001145b15610e925760038301805463ffffffff8716908110610cda57fe5b90600052602060002090600402019150428260030154111515610e2f5760018201546002830154610d11919063ffffffff1661151b565b90508060ff16600114156100fb57610d2885611523565b6001820154600283015463ffffffff9081166000908152600786016020526040902054610d579290916117d116565b6002808401805463ffffffff9081166000908152600788016020908152604091829020959095556006880154600a8901546001890154945460038a015484518e8716815261ffff9094169884018990527f9136ca7e005ca6190ef2af52a750e62b7db169b0f696a9fa59eedce71c58cbdc988e98909760ff9094169693959290931693429391929091908201908790811115610def57fe5b60ff1681526020018581526020018463ffffffff16815260200183815260200182815260200197505050505050505060405180910390a160029350610e97565b600683015460038301546040805163ffffffff8916815261ffff909316602084015242838201526060830191909152517f96e92bea059454ffd6caf596fce58c01caa1e03d961b12ad17c093f58492a2429181900360800190a160019350610e97565b600093505b505050919050565b33600090815260016020908152604080832063ffffffff85168452600801909152902054919050565b3360009081526001602052604081206003810154829063ffffffff8516108015610f1d575060038201805463ffffffff8616908110610f0357fe5b600091825260209091206004909102015460ff1615156001145b15610f495760038201805463ffffffff8616908110610f3857fe5b906000526020600020906004020190505b5050919050565b73ffffffffffffffffffffffffffffffffffffffff818116600090815260046020526040812054909116331415610c5f57506001610c63565b600080600080600080610f9b336114d4565b1561127a57600260035460ff166002811115610fb357fe5b146112715760035473ffffffffffffffffffffffffffffffffffffffff88811660009081526001602052604090206002810154670100000000000000840490921697509550640100000000900463ffffffff169250610100900461ffff1682111561102b5760035460019350610100900461ffff1691505b50600283015463ffffffff165b8163ffffffff168163ffffffff1610156111f7578473ffffffffffffffffffffffffffffffffffffffff1663375bfa5d856001018363ffffffff1681548110151561107f57fe5b90600052602060002090600602016001016040518263ffffffff167c010000000000000000000000000000000000000000000000000000000002815260040180806020018281038252838181546001816001161561010002031660029004815260200191508054600181600116156101000203166002900480156111445780601f1061111957610100808354040283529160200191611144565b820191906000526020600020905b81548152906001019060200180831161112757829003601f168201915b505092505050602060405180830381600087803b15801561116457600080fd5b505af1158015611178573d6000803e3d6000fd5b505050506040513d602081101561118e57600080fd5b505160018501805463ffffffff84169081106111a657fe5b600091825260209091206005600690920201018054911515640100000000027fffffffffffffffffffffffffffffffffffffffffffffffffffffff00ffffffff909216919091179055600101611038565b60028401805463ffffffff8082168501167fffffffffffffffffffffffffffffffffffffffffffffffffffffffff0000000090911617905582151561126857600380547fffffffffffffffffffffffffffffffffffffffffffffffffffffffffffffff00166002178155955061127f565b6002955061127f565b6001955061127f565b600095505b5050505050919050565b33600090815260016020908152604080832063ffffffff85168452600701909152902054919050565b73ffffffffffffffffffffffffffffffffffffffff1660009081526002602090815260408083206003546301000000900463ffffffff16845290915290205490565b6000806000806113048787611503565b9093509150600160ff841614156100fb576113208787876117e3565b5033600090815260016020908152604091829020600381015483518a815263ffffffff8a1693810193909352828401889052606083015291517f1980675a7e914b5789d3d0060483518134b5ea7a0f484a4a2e9e0a2f7065273c9181900360800190a1600301549695505050505050565b73ffffffffffffffffffffffffffffffffffffffff8216600090815260026020908152604080832063ffffffff8516845290915290205492915050565b6003546301000000900463ffffffff165b90565b33600090815260016020908152604080832063ffffffff85168452600881019092528220548290819086116114cb5761141b868661151b565b91508160ff16600114156100fb57506202a300420161143b8686836117e3565b63ffffffff80861660009081526008850160205260409020546114609188906117d116565b63ffffffff8616600081815260088601602090815260409182902093909355805189815292830191909152428282015260608201839052517f97a9c9756a905f307172b0c5f52aed2d867aab026fbabe3bcadf4cca0ac67cdb9181900360800190a160019350610b3f565b60009350610b3f565b600354670100000000000000900473ffffffffffffffffffffffffffffffffffffffff90811690821614919050565b50600091829150565b6000828201838110156108aa57fe5b600092915050565b3360009081526001602052604081206003810180549192918291829163ffffffff871690811061154f57fe5b6000918252602082206006870180547fffffffffffffffffffffffffffffffffffffffffffffffffffffffffffff0000811661ffff9182167fffffffffffffffffffffffffffffffffffffffffffffffffffffffffffffffff0190911617905560038701805460049390930290910195509063ffffffff88169081106115d157fe5b6000918252602090912060049091020180547fffffffffffffffffffffffffffffffffffffffffffffffffffffffffffffff0016911515919091179055600684015462010000900463ffffffff90811690861614156116a157600684015463ffffffff868116660100000000000090920416141561164e5761169c565b63ffffffff85811660009081526004860160205260409020546006860180547fffffffffffffffffffffffffffffffffffffffffffffffffffff00000000ffff169190921662010000021790555b61178d565b600684015463ffffffff86811666010000000000009092041614156117165763ffffffff85811660009081526005860160205260409020546006860180547fffffffffffffffffffffffffffffffffffffffffffff00000000ffffffffffff169190921666010000000000000217905561178d565b505063ffffffff8381166000908152600584016020818152604080842054600488018084528286205487168087529484528286208054929097167fffffffffffffffffffffffffffffffffffffffffffffffffffffffff000000009283168117909755868652909252909220805490921681179091555b600684015461ffff1615156117ca57600a840180547fffffffffffffffffffffffffffffffffffffffffffffffffffffffffffffff001660021790555b5050505050565b6000828211156117dd57fe5b50900390565b6117eb611c0b565b604080820185905263ffffffff808516606084018190526080840185905260018085523360009081526020918252848120928152600783019091529283205490929161183a9190889061150c16565b63ffffffff808716600090815260078501602052604090209190915560038301805460010192509082169061186f9082611c39565b5082826003016001830363ffffffff1681548110151561188b57fe5b600091825260209182902083516004909202018054928401511515610100027fffffffffffffffffffffffffffffffffffffffffffffffffffffffffffff00ff9215157fffffffffffffffffffffffffffffffffffffffffffffffffffffffffffffff0090941693909317919091169190911781556040820151600180830191909155606083015160028301805463ffffffff9092167fffffffffffffffffffffffffffffffffffffffffffffffffffffffff00000000909216919091179055608090920151600390910155600a83015460ff16600281111561196a57fe5b14611a5b57600a82018054600191907fffffffffffffffffffffffffffffffffffffffffffffffffffffffffffffff00168280021790555060068201805460017fffffffffffffffffffffffffffffffffffffffffffffffffffff00000000ffff909116620100007fffffffffffffffffffffffffffffffffffffffffffffffffffffffffffffffff850163ffffffff16908102919091177fffffffffffffffffffffffffffffffffffffffffffff00000000ffffffffffff16660100000000000091909102177fffffffffffffffffffffffffffffffffffffffffffffffffffffffffffff000016179055611b54565b6006820180547fffffffffffffffffffffffffffffffffffffffffffffffffffffffffffffffff830163ffffffff9081166000818152600587016020908152604080832080547fffffffffffffffffffffffffffffffffffffffffffffffffffffffff000000009081166601000000000000988990048816179091558754879004909516835260048901909152902080549092168117909155825461ffff929091027fffffffffffffffffffffffffffffffffffffffffffff00000000ffffffffffff909116178181166001019091167fffffffffffffffffffffffffffffffffffffffffffffffffffffffffffff0000919091161790555b505050505050565b815481835581811115611b8857600602816006028360005260206000209182019101611b889190611c65565b505050565b828054600181600116156101000203166002900490600052602060002090601f016020900481019282601f10611bce57805160ff1916838001178555611bfb565b82800160010185558215611bfb579182015b82811115611bfb578251825591602001919060010190611be0565b50611c07929150611cdb565b5090565b6040805160a08101825260008082526020820181905291810182905260608101829052608081019190915290565b815481835581811115611b8857600402816004028360005260206000209182019101611b889190611cf5565b6113df91905b80821115611c07576000808255611c856001830182611d69565b611c93600283016000611d69565b611ca1600383016000611d69565b50600060048201556005810180547fffffffffffffffffffffffffffffffffffffffffffffffffffffff0000000000169055600601611c6b565b6113df91905b80821115611c075760008155600101611ce1565b6113df91905b80821115611c075780547fffffffffffffffffffffffffffffffffffffffffffffffffffffffffffff00001681556000600182018190556002820180547fffffffffffffffffffffffffffffffffffffffffffffffffffffffff000000001690556003820155600401611cfb565b50805460018160011615610100020316600290046000825580601f10611d8f5750611dad565b601f016020900490600052602060002090810190611dad9190611cdb565b505600a165627a7a723058201250d8baf4dccf72d36e9d20d8f93d3ac0e3cfc3a81cb5148d57629ffe5c69da0029",
  "source": "pragma solidity ^0.4.19;\nimport \"./Interfaces/IShyftBridgeUtilsProver.sol\";\nimport \"./Libraries/SafeMath.sol\";\n\n// Shyft Safe is the contract & interface definition to add \"Safe-able\" asset classes to a user's portfolio.\n// This is a data management layer that collates enough data on-chain for the Bridge to prove transferability.\n// All transfers and justification for withdrawal can be proven on-chain.\n//\n// The general condition is that there is a list of unproven proofs, including those that the bridge collates via\n// observation of other blockchains. All cross-blockchain requests are queued in the user's \"safe keeping\" structure\n// and the bridge has the responsibility to process them and approve. All proofs can be proven on the Shyft blockchain's\n// evm architecture.\n\n// the general order of things is that when a block is confirmed by consensus, the bridge will forward a merkle-trie\n// proof block to the ring which is composed of transactions occurring on other blockchains that pertains to Shyft.\n// these are cleared transactions, currently waiting in Shyft escrow systems.\n\n// these transactions are processed in every block, with block times set to enable this behaviour potentially filling\n// up empty space within a block with these transactions at a rate dependant on the user (so users could still \"rush\"\n// a Shyft Safe synchronization block.\n\n// maintenance of the trust channels should be equivalent\n\n//@note:@todo: finish definition\n\ncontract ShyftSafe {\n    event EVT_heldSafeBalanceForType(uint256 amount, uint32 bip32X_type, uint256 safeExpiryTime, uint256 holdIndex);\n    event EVT_freedSafeHold(uint256 holdIndex, uint256 numRemainingHolds, HoldStatus holdStatus, uint256 freedAmount, uint256 freedBip32X_type, uint256 currentBlockTime, uint256 safeExpiryTime);\n    event EVT_freedSafePreservation(uint256 _amount, uint32 _bip32X_type, uint256 blockTimestamp, uint256 holdSafeExpiryTime);\n    event EVT_safeHoldStillTimelocked(uint256 holdIndex, uint256 numRemainingHolds, uint256 currentBlockTime, uint256 safeExpiryTime);\n    event EVT_preserveSafeBalanceForType(uint256 _amount, uint32 _bip32X_type, uint256 preservationValue);\n\n    using SafeMath for uint256;\n\n    enum ProofStatus { Unknown, Dirty, Clean }\n    enum HoldStatus { Unknown, Holding, NoneHeld }\n\n    struct safeProofMap {\n        //hash of RLP\n        bytes32 proofHash;\n\n        //RLP of proof\n        bytes proof;\n\n        bytes publicMetadata;\n        bytes encryptedMetadata;\n\n        uint256 amount;\n        uint32 bip32X_type;\n\n        bool proven;\n    }\n\n    struct safeKeyMap {\n        //key name, key class, key field. RLP encoded.\n        bytes publicMetaData;\n\n    }\n\n    uint256 preservedSafeTime = 0;//(2 ** 256) - 1;\n\n    struct safeHold {\n        bool active;\n        bool preserved;\n\n        uint256 amount;\n        uint32 bip32X_type;\n\n        uint256 safeExpiryTime;\n    }\n\n    struct safeKeep {\n        //hash of the public key value pair within the Safe engine, for incoming addresses in the proofs.\n        mapping(bytes32 => safeKeyMap) keyStorageMap;\n\n        //array of all proofs.\n        safeProofMap[] allProofs;\n\n        uint32 indexOfFirstDirtyProof;\n        uint32 numDirtyProofs;\n\n        //@note:@here:@todo:@next:@wallet:\n        //this hold array will grow and be managed by the wallet in terms of releasing funds back into the\n        //main shyft safe pool.\n        //speaking of transiting, the general strategy should be to assign held tokens into transit buckets\n        //on a hold bucket->transit bucket basis. otherwise other sorting and compilation will be needed.\n        safeHold[] holdArray;\n\n        //using a doubly linked list for this, in order to access the previous and next indexes in the linked list.\n        mapping(uint32 => uint32) holdNextLinkMapping;\n        mapping(uint32 => uint32) holdPrevLinkMapping;\n\n        //mapping for checks of whether the trust anchor previously existing for this identifiedAddress.\n//        mapping(uint32 => bool) allTrustAnchorIndexExistsMapping;\n\n        //@note: I'm using underscores because I want to have easily readability when the camel case variable names get\n        // this long.\n\n        uint16 currentHoldLinkedList_length;\n        uint32 currentHoldLinkedList_zeldaIndex;\n        uint32 currentHoldLinkedList_finalIndex;\n\n\n\n        mapping(uint32 => uint256) holdValuationMap;\n        mapping(uint32 => uint256) preservationValuationMap;\n\n        uint256 nextHoldExpiry;\n//        uint32 holdArrayNumHolds;\n\n        HoldStatus holdStatus;\n    }\n\n    mapping(address => safeKeep) safeKeeping;\n\n    //@note:@here:@todo: this is erc20/223 stuff\n    // system should be backwards compatible, basic table:\n    //\n    // (all bip32 token types follow)\n    // 0 = Bitcoin\n    // ...\n    // ShyftTokenType = SHYFT\n    // RMTTokenType = RMT\n    // BUAGTokenType = BUAG\n    // ...\n\n    mapping(address => mapping(uint32 => uint256)) safeBalances;\n\n    ProofStatus proofStatus;\n\n    uint16 maxBridgeProcessingLimit;\n\n    uint32 ShyftTokenType = 777;\n\n    //@note:@deploy:\n    //make sure to set this to use the shyft bridge and ring on whatever platform deployed to. might need to\n    //create multiple versions of this file and deploy w/ a script.\n\n    //this is the address of the Shyft bridge on this blockchain. this must be hard-coded.\n    address bridgeAddress = address(0);\n\n    //master key management.\n    mapping(address => address) userMasterKey;\n    mapping(address => address) keyManagementContractAddress;\n\n    //backup planner management.\n    mapping(address => uint32) userBPChoice;\n    mapping(address => address) userWithdrawalRulesContractAddress;\n\n    //'skirts (bridged blockchains) management.\n    mapping(address => mapping(uint32 => uint256)) userSkirtsSpendingLimit;\n\n    //returns\n    // true = is bridge\n    // false = not bridge\n    function isBridge(address _addressToCheck) internal returns (bool result) {\n        return (bridgeAddress == _addressToCheck);\n    }\n\n    function getShyftTokenType() public view returns (uint32 result) {\n        return ShyftTokenType;\n    }\n\n    function getSafeBalance(address _identifiedAddress) public view returns (uint256 balance)  {\n        return safeBalances[_identifiedAddress][ShyftTokenType];\n    }\n\n    function getSafeBalance(address _identifiedAddress, uint32 bip32X_type) public view returns (uint256 balance)  {\n        return safeBalances[_identifiedAddress][bip32X_type];\n    }\n\n    //@note: sets master key for account. can only be done once!\n\n    //returns:\n    // 0 = master key already set\n    // 1 = successfully set master key\n\n    function setMasterKey(address _masterKey) public returns (uint8 result) {\n        if (userMasterKey[msg.sender] == 0) {\n            userMasterKey[msg.sender] = _masterKey;\n\n            //successfully set master key\n            return 1;\n        } else {\n\n            //master key already set\n            return 0;\n        }\n    }\n\n    /**************** Shyft Safe Master Key ****************/\n\n    //@note: this can be used for a variety of (non-PII) user settings they'd like to persist.\n    //results:\n    // 0 = user does not own account\n    // 1 = successfully set profile management\n\n    function setProfileManagament(address _account, address _profileManagementContractAddress) returns (uint8 result) {\n        if (userMasterKey[_account] == msg.sender) {\n            keyManagementContractAddress[_account] = _profileManagementContractAddress;\n\n            //successfully set profile management\n            return 1;\n        } else {\n            //user does not own account\n            return 0;\n        }\n    }\n\n    //@note: sets a user's backup planner choices.\n    // _bip32XChain is the chain that can be withdrawn from.\n    // _withdrawalRulesContractAddress is the rules that need to pass to be withdrawn. default implementation of\n    // this smart contract should be to only allowed to start from the preservation's rules (48 hrs block on transfer,\n    // an action revokeable by the user's master key).\n\n    //results:\n    // 0 = user does not own account\n    // 1 = successfully set BP choice\n\n    function setBPChoice(address _account, uint32 _bip32XChain, address _withdrawalRulesContractAddress) public returns (uint8 result) {\n        if (userMasterKey[_account] == msg.sender) {\n            userBPChoice[_account] = _bip32XChain;\n            userWithdrawalRulesContractAddress[_account] = _withdrawalRulesContractAddress;\n\n            //successfully set BP choice\n            return 1;\n        } else {\n            //user does not own account\n            return 0;\n        }\n    }\n\n    //@note: places all assets into the Shyft Safe preservation.\n\n    //results:\n    // 0 = user does not own account\n    // 1 = successfully chilled account\n\n    function chillAccount(address _account) public returns (uint8 result) {\n        if (userMasterKey[_account] == msg.sender) {\n            // loop through linked list of holds. send them to the pool.\n            //\n\n            //successfully chilled account\n            return 1;\n        } else {\n            //user does not own account\n            return 0;\n        }\n    }\n\n    //@note: sets the spending limits on the various 'skirts that Shyft bridges to.\n\n    //results:\n    // 0 = user does not own account\n    // 1 = successfully set spending limit\n\n    function setSpendingLimitOnSkirts(address _account, uint32 _bip32XType, uint256 _amount) public returns (uint8 result) {\n        if (userMasterKey[_account] == msg.sender) {\n            // set spending limit\n            userSkirtsSpendingLimit[_account][_bip32XType] = _amount;\n\n            //successfully set spending limit\n            return 1;\n        } else {\n            //user does not own account\n            return 0;\n        }\n    }\n\n    /**************** Shyft Safe preserves & holds management ****************/\n\n    //@note:@here:@todo:@next:@critical: I think there might need to be a secondary layer here for a pool of Safe'd assets\n    // that can be sent a message to release the timelock in 24hours, with a kill switch from the same address to block the\n    // transfer.\n    //\n    // optimal process would be:\n    // 1) user stores [total - minimum allowance] funds in Safe pool ( wallet doing this by default )\n    // 2) user triggers message that allows funds to be unlocked after 1 day to the blockchain.\n    // 3) if user notices that someone else is about to unlock their funds (pvt key theft), they can send a message\n    //      to the blockchain that prevents the funds from being released.\n    // 4) with the funds in Safe, they can be sent to other blockchains even without being released.\n    //\n    // in the future some way of sending Safe'd funds to arbitration (or at least a contract that can lock down with\n    // an Administrable interface with multiple signatures.)\n\n    //@note:@here: the following two functions utilize doubly-linked lists in order to avoid needing to reorder an array.\n\n    //@note:@todo:@next: need to write complete tests for these two functions too see how the doubly-linked list responds\n    // in all cases (1, 2. 3 entries, what happens when first, middle, or last entry are removed from holds.)\n\n    //returns:\n    // 1 == preserved asset\n\n    function preserveSafeBalanceForType(uint256 _amount, uint32 _bip32X_type) public returns (uint256 holdIndex) {\n        //@note: this works because functional inheritance overriding works in solidity. thus this will call the\n        // function of the contract that overrides overload_doHoldSafe after inheriting ShyftSafe.\n        uint8 canHoldSafeResult;\n        uint256 remainingBalance;\n        (canHoldSafeResult, remainingBalance) = child_overload_doHoldSafe(_amount, _bip32X_type);\n\n        //@note:@here:@todo: checks for payments pending, allowances, and the like.\n        //if (remainingBalance > )\n\n        //@note: in this context, the inheriting contract overriding function is going to return a 1 for success\n        // and zero for failure.\n        if (canHoldSafeResult == 1) {\n            safeKeep storage keep = safeKeeping[msg.sender];\n\n            keep.preservationValuationMap[_bip32X_type] = keep.preservationValuationMap[_bip32X_type].add(_amount);\n\n            emit EVT_preserveSafeBalanceForType(_amount, _bip32X_type, keep.preservationValuationMap[_bip32X_type]);\n\n            //preserved asset.\n            return 1;\n        } else {\n            //must revert here, since values were modified downstream in the inherited contracts\n            revert();\n        }\n    }\n\n    //results:\n    // 0 = preservation valuation less than amount\n    // 1 = freed preserve properly\n\n    // @note: could not free preserve reverts, since transactional event has occurred\n\n    function freeSafePreservation(uint256 _amount, uint32 _bip32X_type) public returns (uint8 result) {\n        safeKeep storage keep = safeKeeping[msg.sender];\n\n        if (keep.preservationValuationMap[_bip32X_type] >= _amount) {\n            uint8 freeSafeResult = child_overload_doFreeSafe(_amount, _bip32X_type);\n\n            if (freeSafeResult == 1) {\n                //@note: blocktime cannot be cheated by miners by more than 900 seconds.\n                // https://github.com/ethereum/wiki/blob/c02254611f218f43cbb07517ca8e5d00fd6d6d75/Block-Protocol-2.0.md\n                uint256 newHoldTime = block.timestamp + (2 * 24 * 60 * 60);\n\n                placeSafeHold(_amount, _bip32X_type, newHoldTime);\n\n                keep.preservationValuationMap[_bip32X_type] = keep.preservationValuationMap[_bip32X_type].sub(_amount);\n\n                emit EVT_freedSafePreservation(_amount, _bip32X_type, block.timestamp, newHoldTime);\n\n                //freed preserve properly\n                return 1;\n            } else {\n                //could not free preserve\n                //@note: reverts, since transactional event has occurred\n                revert();\n            }\n        } else {\n            //preservation map less than amount\n            return 0;\n        }\n    }\n\n    //@note: places a hold on a specific asset type.\n\n    function placeSafeHold(uint256 _amount, uint32 _bip32X_type, uint256 _safeExpiryTime) internal {\n        safeHold memory newHold;\n        newHold.amount = _amount;\n        newHold.bip32X_type = _bip32X_type;\n        newHold.safeExpiryTime = _safeExpiryTime;\n        newHold.active = true;\n\n        safeKeep storage keep = safeKeeping[msg.sender];\n        keep.holdValuationMap[_bip32X_type] = keep.holdValuationMap[_bip32X_type].add(_amount);\n\n        uint32 holdArrayLength = uint32(keep.holdArray.length + 1);\n        keep.holdArray.length = holdArrayLength;\n\n        keep.holdArray[holdArrayLength - 1] = newHold;\n\n        //set up the linked list to allow for array accessibility without needing to rearrange or delete old\n        // members of the array.\n        if (keep.holdStatus != HoldStatus.Holding) {\n            keep.holdStatus = HoldStatus.Holding;\n\n            //set up the zelda address of the doubly-linked list (the first entry into the doubly-linked list).\n            keep.currentHoldLinkedList_zeldaIndex = holdArrayLength - 1;\n            //and set the final index to this as well for further additions.\n            keep.currentHoldLinkedList_finalIndex = holdArrayLength - 1;\n\n            keep.currentHoldLinkedList_length = 1;\n        } else {\n            //update the prev index of this index in the doubly-linked list to point to this (previously final) index.\n            keep.holdPrevLinkMapping[holdArrayLength - 1] = keep.currentHoldLinkedList_finalIndex;\n            //update the final index in the doubly-linked list to point to this index.\n            keep.holdNextLinkMapping[keep.currentHoldLinkedList_finalIndex] = holdArrayLength - 1;\n            //and set the final index to this as well for further additions.\n            keep.currentHoldLinkedList_finalIndex = holdArrayLength - 1;\n\n            keep.currentHoldLinkedList_length++;\n        }\n    }\n\n    //@note: removes a hold on a specific hold\n\n    function removeSafeHold(uint32 _holdIndex) internal{\n        safeKeep storage keep = safeKeeping[msg.sender];\n\n        safeHold storage hold = keep.holdArray[_holdIndex];\n\n        //in both subsequent cases, the total size of the doubly-linked list decreased by one.\n        keep.currentHoldLinkedList_length--;\n\n        //and similarly, in both cases this hold is marked inactive.\n        keep.holdArray[_holdIndex].active = false;\n\n        //check if this hold is the zelda (first) index within the doubly-linked list.\n        if (_holdIndex == keep.currentHoldLinkedList_zeldaIndex) {\n            //check if this hold is also the final index within the doubly-linked list.\n            if (_holdIndex == keep.currentHoldLinkedList_finalIndex) {\n                //in this case, no remapping is necessary.\n            } else {\n                //otherwise, set the zelda index to be the next index in the doubly-linked list.\n                keep.currentHoldLinkedList_zeldaIndex = keep.holdNextLinkMapping[_holdIndex];\n            }\n        } else {\n            //check if this hold is the final index within the doubly-linked list.\n            if (_holdIndex == keep.currentHoldLinkedList_finalIndex) {\n                //if so, set final link in the doubly-linked list to be the the previous link of this index.\n                keep.currentHoldLinkedList_finalIndex = keep.holdPrevLinkMapping[_holdIndex];\n            } else {\n                //if not, this link is in between the zelda and final index within the doubly-linked list.\n                // in this case, set the previous link to have its next link to be the next link of the\n                // current hold. the final index of this doubly-linked list does not change.\n\n                uint32 prevLink = keep.holdPrevLinkMapping[_holdIndex];\n                uint32 nextLink = keep.holdNextLinkMapping[_holdIndex];\n\n                keep.holdPrevLinkMapping[nextLink] = prevLink;\n                keep.holdNextLinkMapping[prevLink] = nextLink;\n            }\n        }\n\n        //if there's zero entries left within the doubly-linked list, the keep status is set to NoneHeld.\n        if (keep.currentHoldLinkedList_length == 0) {\n            keep.holdStatus = HoldStatus.NoneHeld;\n        }\n    }\n\n    //returns:\n    // n = holdIndex\n\n    function holdSafeBalanceForType(uint256 _amount, uint32 _bip32X_type, uint256 _safeExpiryTime) public returns (uint256 holdIndex) {\n        //@note: this works because functional inheritance overriding works in solidity. thus this will call the\n        // function of the contract that overrides overload_doHoldSafe after inheriting ShyftSafe.\n        uint8 canHoldSafeResult;\n        uint256 remainingBalance;\n        (canHoldSafeResult, remainingBalance) = child_overload_doHoldSafe(_amount, _bip32X_type);\n\n        //@note:@here:@todo: checks for payments pending, allowances, and the like.\n        //if (remainingBalance > )\n\n        //@note: in this context, the inheriting contract overriding function is going to return a 1 for success,\n        // and zero for failure.\n        if (canHoldSafeResult == 1) {\n            placeSafeHold(_amount, _bip32X_type, _safeExpiryTime);\n\n            safeKeep storage keep = safeKeeping[msg.sender];\n\n            emit EVT_heldSafeBalanceForType(_amount, _bip32X_type, _safeExpiryTime, keep.holdArray.length);\n\n            //hold index\n            return keep.holdArray.length;\n        } else {\n            //must revert here, since values were modified downstream in the inherited contracts.\n            revert();\n        }\n    }\n\n    //@note:@todo:@here:@next: is there something that needs to be written to place all Safe preserved assets into a Hold?\n    function preserveSafeHold(uint32 holdIndex) public returns (uint8 result) {\n        safeKeep storage keep = safeKeeping[msg.sender];\n\n        //make sure that the holdIndex is within the range of 0->(holdArray.length - 1), and that this hold is active.\n        if (keep.holdArray.length > holdIndex && keep.holdArray[holdIndex].active == true) {\n            safeHold storage hold = keep.holdArray[holdIndex];\n\n\n        }\n    }\n\n    //returns:\n    // 0 = keep's holds array less than holdIndex\n    // 1 = hold expiry time higher than current block timestamp\n    // 2 = freed hold properly\n\n    // @note: could not free hold reverts, since transactional event has occurred\n\n    function freeSafeHold(uint32 _holdIndex) public returns (uint8 result) {\n        safeKeep storage keep = safeKeeping[msg.sender];\n\n        //make sure that the holdIndex is within the range of 0->(holdArray.length - 1), and that this hold is active.\n        if (keep.holdArray.length > _holdIndex && keep.holdArray[_holdIndex].active == true) {\n            safeHold storage hold = keep.holdArray[_holdIndex];\n\n            if (hold.safeExpiryTime <= block.timestamp) {\n                uint8 freeSafeResult = child_overload_doFreeSafe(hold.amount, hold.bip32X_type);\n\n                if (freeSafeResult == 1) {\n                    removeSafeHold(_holdIndex);\n\n                    keep.holdValuationMap[hold.bip32X_type] = keep.holdValuationMap[hold.bip32X_type].sub(hold.amount);\n\n                    emit EVT_freedSafeHold(_holdIndex, keep.currentHoldLinkedList_length, keep.holdStatus, hold.amount, hold.bip32X_type, block.timestamp, hold.safeExpiryTime);\n                    //freed hold properly\n                    return 2;\n                } else {\n                    //could not free hold\n                    //@note: reverts, since transactional event has occurred\n                    revert();\n                }\n\n            } else {\n                emit EVT_safeHoldStillTimelocked(_holdIndex, keep.currentHoldLinkedList_length, block.timestamp, hold.safeExpiryTime);\n\n                //hold expiry time higher than current block timestamp\n                return 1;\n            }\n        } else {\n            //keep's holds array less than holdIndex\n            return 0;\n        }\n    }\n\n    //@note: returns balance of the total valuation within all holds of a bip32X asset type\n    function getHoldValuation(uint32 _bip32X_type) public view returns (uint256 result) {\n        return safeKeeping[msg.sender].holdValuationMap[_bip32X_type];\n    }\n\n    //@note: returns balance of the total valuation within the total preservation of a bip32X asset type\n    function getPreservationValuation(uint32 _bip32X_type) public view returns (uint256 result) {\n        return safeKeeping[msg.sender].preservationValuationMap[_bip32X_type];\n    }\n\n    //@note:@here: the following two functions are stub functions for contracts inheriting this contract (shyft kyc\n    // contract for example.\n\n    //returns:\n    // 0 = failure\n    // 1 = success\n    function child_overload_doHoldSafe(uint256 amount, uint32 bip32X_type) internal returns (uint8 result, uint256 remainingBalance) {\n        return (0, 0);\n    }\n    //returns:\n    // 0 = could not free\n    // 1 = freed\n    function child_overload_doFreeSafe(uint256 amount, uint32 bip32X_type) internal returns (uint8 result) {\n        return 0;\n    }\n\n    //returns:\n    // 0 = not bridge nor proper owner\n    // 1 = proof set\n    // This function is not used in the bridge smart contract. What is the purpose of it?\n    function addProof(address _identifiedAddress, bytes32 _proofHash, bytes _proof, bytes _publicMetadata, bytes _encryptedMetadata, uint256 _amount, uint32 _bip32X_type) public returns (uint16 result) {\n        if (isBridge(msg.sender) || msg.sender == _identifiedAddress) {\n            uint32 numProofs = uint32(safeKeeping[_identifiedAddress].allProofs.length + 1);\n\n            safeKeeping[_identifiedAddress].allProofs.length = numProofs;\n            safeProofMap storage proofMap = safeKeeping[_identifiedAddress].allProofs[numProofs - 1];\n\n            proofMap.proofHash = _proofHash;\n            proofMap.proof = _proof;\n            proofMap.publicMetadata = _publicMetadata;\n            proofMap.encryptedMetadata = _encryptedMetadata;\n            proofMap.amount = _amount;\n            proofMap.bip32X_type = _bip32X_type;\n\n            if (proofStatus == ProofStatus.Clean) {\n                proofStatus = ProofStatus.Dirty;\n                safeKeeping[_identifiedAddress].indexOfFirstDirtyProof = numProofs - 1;\n                safeKeeping[_identifiedAddress].numDirtyProofs = 1;\n            } else {\n                safeKeeping[_identifiedAddress].numDirtyProofs++;\n            }\n\n            return 1;\n        } else {\n            //not bridge nor proper owner\n            return 0;\n        }\n    }\n\n    //returns:\n    // 0 = not bridge\n    // 1 = proofs not dirty\n    // 2 = some proven, needs to process further\n    // 3 = all proofs are now proven\n    // The bridge smart contract doesn't make use of this function. Instead, in the bridge smart contract, there are variables \n    // that keep track of updates in the Safe. Also, if you checkout mikerah_chainsafe/shyft_bridge, you will see that I added\n    // functions to be overloaded in the safe that aid in keeping track of updates in the safe.\n    function updateSafe(address _identifiedAddress) public returns (uint16 result) {\n        if (isBridge(msg.sender)) {\n            if (proofStatus != ProofStatus.Clean) {\n                IShyftBridgeUtilsProver prover = IShyftBridgeUtilsProver(bridgeAddress);\n\n                safeKeep storage keep = safeKeeping[_identifiedAddress];\n\n                bool needsToProcessFurther;\n\n                uint32 numToProcess = keep.numDirtyProofs;\n                if (numToProcess > maxBridgeProcessingLimit) {\n                    numToProcess = maxBridgeProcessingLimit;\n                    needsToProcessFurther = true;\n                }\n\n                for (uint32 i = keep.indexOfFirstDirtyProof; i < numToProcess; i++) {\n                    keep.allProofs[i].proven = prover.prove(keep.allProofs[i].proof);\n                }\n\n                keep.indexOfFirstDirtyProof += numToProcess;\n\n                if (!needsToProcessFurther) {\n                    proofStatus = ProofStatus.Clean;\n\n                    //@note: @here: this should be here except for an issue in the ganache-cli vm which\n                    //prevents resets to zero due to some sort of gas estimation issue.\n                    //keep.numDirtyProofs = 0;\n\n                    //all proofs are now proven\n                    return 3;\n                } else {\n                    //some proven, needs to process further\n                    return 2;\n                }\n            } else {\n                //proofs not dirty\n                return 1;\n            }\n        } else {\n            //not bridge\n            return 0;\n        }\n    }\n\n    //returns\n    // true = proof successful\n    // false = proof unsuccessful\n    // The API for the prove function is different. You may need to omit this function all together.\n    function safeProofProver(bytes proof) public returns (bool result) {\n        IShyftBridgeUtilsProver prover = IShyftBridgeUtilsProver(bridgeAddress);\n\n        return prover.prove(proof);\n    }\n}\n",
  "sourcePath": "/Users/jaypersanchez/shyft_shyftcorecontracts/contracts/ShyftSafe.sol",
  "compiler": {
    "name": "solc",
    "version": "0.4.28+commit.2fcccea1.Emscripten.clang"
  },
  "schemaVersion": "2.0.3",
  "updatedAt": "2019-03-26T16:26:58.743Z"
}