{
  "contractName": "ShyftBridgeSafeUtils",
  "abi": [
    {
      "constant": false,
      "inputs": [],
      "name": "shyftSafeProofProve",
      "outputs": [],
      "payable": false,
      "stateMutability": "nonpayable",
      "type": "function"
    }
  ],
  "bytecode": "0x6080604052348015600f57600080fd5b5060858061001e6000396000f300608060405260043610603e5763ffffffff7c0100000000000000000000000000000000000000000000000000000000600035041663571de87b81146043575b600080fd5b348015604e57600080fd5b5060556057565b005b5600a165627a7a72305820a56c869c892f40e1e1dc391fed2b75858a553e155f3034856b915363b257ef230029",
  "source": "pragma solidity ^0.4.19;\n\ncontract ShyftBridgeSafeUtils {\n\n//    function ShyftBridgeSafeUtils(){\n//\n//    }\n\n    function shyftSafeProofProve() public {\n\n    }\n}\n",
  "sourcePath": "/Users/jaypersanchez/shyft_shyftcorecontracts/contracts/ShyftBridgeSafeUtils.sol",
  "compiler": {
    "name": "solc",
    "version": "0.4.28+commit.2fcccea1.Emscripten.clang"
  },
  "schemaVersion": "2.0.3",
  "updatedAt": "2019-03-26T16:26:53.592Z"
}