{
  "contractName": "ShyftConduit",
  "abi": [
    {
      "constant": false,
      "inputs": [
        {
          "name": "_newAdministratorAddress",
          "type": "address"
        }
      ],
      "name": "setPrimaryAdministrator",
      "outputs": [
        {
          "name": "result",
          "type": "uint8"
        }
      ],
      "payable": false,
      "stateMutability": "nonpayable",
      "type": "function"
    },
    {
      "constant": true,
      "inputs": [
        {
          "name": "_administratorAddress",
          "type": "address"
        }
      ],
      "name": "isAdministrator",
      "outputs": [
        {
          "name": "result",
          "type": "bool"
        }
      ],
      "payable": false,
      "stateMutability": "view",
      "type": "function"
    },
    {
      "constant": false,
      "inputs": [
        {
          "name": "_revokeAdministratorAddress",
          "type": "address"
        }
      ],
      "name": "revokeAdministrator",
      "outputs": [
        {
          "name": "result",
          "type": "uint8"
        }
      ],
      "payable": false,
      "stateMutability": "nonpayable",
      "type": "function"
    },
    {
      "constant": true,
      "inputs": [],
      "name": "getUserDefinedMaxAdministrator",
      "outputs": [
        {
          "name": "",
          "type": "uint8"
        }
      ],
      "payable": false,
      "stateMutability": "view",
      "type": "function"
    },
    {
      "constant": true,
      "inputs": [],
      "name": "getMsgSender",
      "outputs": [
        {
          "name": "",
          "type": "address"
        }
      ],
      "payable": false,
      "stateMutability": "view",
      "type": "function"
    },
    {
      "constant": true,
      "inputs": [],
      "name": "owner",
      "outputs": [
        {
          "name": "",
          "type": "address"
        }
      ],
      "payable": false,
      "stateMutability": "view",
      "type": "function"
    },
    {
      "constant": false,
      "inputs": [
        {
          "name": "_administratorAddress",
          "type": "address"
        }
      ],
      "name": "getAdminAccessValue",
      "outputs": [
        {
          "name": "_access",
          "type": "uint256"
        }
      ],
      "payable": false,
      "stateMutability": "nonpayable",
      "type": "function"
    },
    {
      "constant": true,
      "inputs": [],
      "name": "getUserDefinedMaxThreshold",
      "outputs": [
        {
          "name": "",
          "type": "uint8"
        }
      ],
      "payable": false,
      "stateMutability": "view",
      "type": "function"
    },
    {
      "constant": false,
      "inputs": [
        {
          "name": "_newAdministratorAddress",
          "type": "address"
        }
      ],
      "name": "setAdministrator",
      "outputs": [
        {
          "name": "result",
          "type": "uint8"
        }
      ],
      "payable": false,
      "stateMutability": "nonpayable",
      "type": "function"
    },
    {
      "constant": false,
      "inputs": [
        {
          "name": "_valueThreshold",
          "type": "uint8"
        }
      ],
      "name": "changeCurrentThreshold",
      "outputs": [
        {
          "name": "result",
          "type": "uint8"
        }
      ],
      "payable": false,
      "stateMutability": "nonpayable",
      "type": "function"
    },
    {
      "constant": false,
      "inputs": [
        {
          "name": "_valueThreshold",
          "type": "uint8"
        }
      ],
      "name": "changeCurrentAdminThreshold",
      "outputs": [
        {
          "name": "result",
          "type": "uint8"
        }
      ],
      "payable": false,
      "stateMutability": "nonpayable",
      "type": "function"
    },
    {
      "inputs": [],
      "payable": false,
      "stateMutability": "nonpayable",
      "type": "constructor"
    },
    {
      "constant": false,
      "inputs": [
        {
          "name": "_contermiousAddresses",
          "type": "address[]"
        },
        {
          "name": "_contermiousDistributionPercentages_leftShifted24Bits",
          "type": "uint256[]"
        },
        {
          "name": "_distributionKeyKeccak",
          "type": "bytes32"
        }
      ],
      "name": "setContermiousDistributionAmounts",
      "outputs": [
        {
          "name": "result",
          "type": "uint8"
        }
      ],
      "payable": false,
      "stateMutability": "nonpayable",
      "type": "function"
    },
    {
      "constant": false,
      "inputs": [
        {
          "name": "_contermiousAddress",
          "type": "address"
        }
      ],
      "name": "integrateIndividualContermiousDistribution",
      "outputs": [
        {
          "name": "result",
          "type": "uint256"
        }
      ],
      "payable": false,
      "stateMutability": "nonpayable",
      "type": "function"
    },
    {
      "constant": false,
      "inputs": [
        {
          "name": "_value",
          "type": "uint256"
        }
      ],
      "name": "withdrawIndividualContermiousDistribution",
      "outputs": [],
      "payable": false,
      "stateMutability": "nonpayable",
      "type": "function"
    },
    {
      "constant": true,
      "inputs": [],
      "name": "checkSelfBalance",
      "outputs": [
        {
          "name": "value",
          "type": "uint256"
        }
      ],
      "payable": false,
      "stateMutability": "view",
      "type": "function"
    },
    {
      "constant": true,
      "inputs": [
        {
          "name": "_address",
          "type": "address"
        }
      ],
      "name": "checkContermiusWhiteShyftedBalance",
      "outputs": [
        {
          "name": "balance",
          "type": "uint256"
        }
      ],
      "payable": false,
      "stateMutability": "view",
      "type": "function"
    },
    {
      "constant": true,
      "inputs": [
        {
          "name": "_contermiousAddress",
          "type": "address"
        }
      ],
      "name": "isValidContermiousAddress",
      "outputs": [
        {
          "name": "result",
          "type": "bool"
        }
      ],
      "payable": false,
      "stateMutability": "view",
      "type": "function"
    },
    {
      "constant": false,
      "inputs": [
        {
          "name": "_primeRevocationManagerAddress",
          "type": "address"
        }
      ],
      "name": "setPrimeRevocationManagerAddress",
      "outputs": [
        {
          "name": "result",
          "type": "uint8"
        }
      ],
      "payable": false,
      "stateMutability": "nonpayable",
      "type": "function"
    },
    {
      "constant": false,
      "inputs": [
        {
          "name": "_primeRevocationManagerAddress",
          "type": "address"
        }
      ],
      "name": "isPrimeRevocationManager",
      "outputs": [
        {
          "name": "result",
          "type": "bool"
        }
      ],
      "payable": false,
      "stateMutability": "nonpayable",
      "type": "function"
    }
  ],
  "bytecode": "0x608060405260008054600760ff19909116811761ff001916610200179091558054600160b060020a031916905560098054600160a060020a031916905534801561004857600080fd5b50600080546201000033026201000060b060020a0319909116179055611499806100736000396000f3006080604052600436106101065763ffffffff7c0100000000000000000000000000000000000000000000000000000000600035041663064ad7c2811461010b578063097bf53c1461014f5780630a2eb3011461017657806318fb57a3146101b8578063349d060c146101d25780634402bba314610200578063512f3d651461022e57806374534fb21461025c5780637a6ce2e1146102715780638da5cb5b146102af5780639bcf08cd146102c4578063d2631b45146102f2578063d511c46314610320578063d976b9c714610335578063df8089ef14610363578063e484a38d14610391578063e7980872146103ac578063eb679f071461043c578063fba7fd781461046a575b600080fd5b34801561011757600080fd5b5061013973ffffffffffffffffffffffffffffffffffffffff60043516610485565b6040805160ff9092168252519081900360200190f35b34801561015b57600080fd5b5061016461055f565b60408051918252519081900360200190f35b34801561018257600080fd5b506101a473ffffffffffffffffffffffffffffffffffffffff60043516610565565b604080519115158252519081900360200190f35b3480156101c457600080fd5b506101d06004356105ad565b005b3480156101de57600080fd5b5061013973ffffffffffffffffffffffffffffffffffffffff6004351661062b565b34801561020c57600080fd5b5061013973ffffffffffffffffffffffffffffffffffffffff6004351661080c565b34801561023a57600080fd5b506101a473ffffffffffffffffffffffffffffffffffffffff60043516610a07565b34801561026857600080fd5b50610139610a35565b34801561027d57600080fd5b50610286610a3e565b6040805173ffffffffffffffffffffffffffffffffffffffff9092168252519081900360200190f35b3480156102bb57600080fd5b50610286610a42565b3480156102d057600080fd5b506101a473ffffffffffffffffffffffffffffffffffffffff60043516610a64565b3480156102fe57600080fd5b5061016473ffffffffffffffffffffffffffffffffffffffff60043516610a8f565b34801561032c57600080fd5b50610139610aca565b34801561034157600080fd5b5061016473ffffffffffffffffffffffffffffffffffffffff60043516610ad8565b34801561036f57600080fd5b5061013973ffffffffffffffffffffffffffffffffffffffff60043516610b03565b34801561039d57600080fd5b5061013960ff60043516610ba4565b3480156103b857600080fd5b506040805160206004803580820135838102808601850190965280855261013995369593946024949385019291829185019084908082843750506040805187358901803560208181028481018201909552818452989b9a9989019892975090820195509350839250850190849080828437509497505093359450610c089350505050565b34801561044857600080fd5b5061016473ffffffffffffffffffffffffffffffffffffffff60043516610efa565b34801561047657600080fd5b5061013960ff60043516610f84565b6000805462010000900473ffffffffffffffffffffffffffffffffffffffff163314156105565760035460ff1615156105495773ffffffffffffffffffffffffffffffffffffffff821660009081526002602052604090208054600191907fffffffffffffffffffffffffffffffffffffffffffffffffffffffffffffff001682805b0217905550506003805460ff808216600101167fffffffffffffffffffffffffffffffffffffffffffffffffffffffffffffff00909116179055600261055a565b50600161055a565b61055a565b5060005b919050565b30315b90565b6000600173ffffffffffffffffffffffffffffffffffffffff831660009081526002602081905260409091205460ff169081111561059f57fe5b14156105565750600161055a565b806105b661055f565b10156105c157600080fd5b806105cb33610ad8565b10156105d657600080fd5b336000908152600660205260409020600201546105f9908263ffffffff61101f16565b50604051339082156108fc029083906000818181858888f19350505050158015610627573d6000803e3d6000fd5b5050565b60008080808073ffffffffffffffffffffffffffffffffffffffff8616151561065357600080fd5b61065c33610565565b156107fe57604080517f7072696d655265766f636174696f6e4d616e61676572416464726573730000006020808301919091526c0100000000000000000000000073ffffffffffffffffffffffffffffffffffffffff8a1602603d83015282516031818403018152605190920192839052815191929182918401908083835b6020831061071857805182527fffffffffffffffffffffffffffffffffffffffffffffffffffffffffffffffe090920191602091820191016106db565b6001836020036101000a0380198251168184511680821785525050505050509050019150506040518091039020935061075084611031565b600054909350610100900460ff1661ffff8416106107715760019150610797565b61077a84611049565b600054909150610100900460ff1661ffff82161061079757600191505b600182151514156107f557600980547fffffffffffffffffffffffff00000000000000000000000000000000000000001673ffffffffffffffffffffffffffffffffffffffff88161790556107eb846111a9565b5060029450610803565b60019450610803565b600094505b50505050919050565b600080600061081a33610565565b156109fb57600173ffffffffffffffffffffffffffffffffffffffff851660009081526002602081905260409091205460ff169081111561085757fe5b14156109f25760405160200180807f61646d696e697374726174696f6e5265766f636174696f6e566f746500000000815250601c0190506040516020818303038152906040526040518082805190602001908083835b602083106108ea57805182527fffffffffffffffffffffffffffffffffffffffffffffffffffffffffffffffe090920191602091820191016108ad565b6001836020036101000a0380198251168184511680821785525050505050509050019150506040518091039020915061092282611049565b600054909150610100900460ff1661ffff8216106109e95773ffffffffffffffffffffffffffffffffffffffff8416600090815260026020819052604090912080547fffffffffffffffffffffffffffffffffffffffffffffffffffffffffffffff00166001830217905550600380547fffffffffffffffffffffffffffffffffffffffffffffffffffffffffffffff00811660ff9182167fffffffffffffffffffffffffffffffffffffffffffffffffffffffffffffffff019091161781559250610a00565b60029250610a00565b60019250610a00565b600092505b5050919050565b60095460009073ffffffffffffffffffffffffffffffffffffffff838116911614156105565750600161055a565b60005460ff1690565b3390565b60005462010000900473ffffffffffffffffffffffffffffffffffffffff1681565b73ffffffffffffffffffffffffffffffffffffffff1660009081526006602052604090205460ff1690565b73ffffffffffffffffffffffffffffffffffffffff8116600090815260026020819052604082205460ff1690811115610ac457fe5b92915050565b600054610100900460ff1690565b73ffffffffffffffffffffffffffffffffffffffff1660009081526006602052604090206002015490565b6000610b0e33610565565b1561055657600173ffffffffffffffffffffffffffffffffffffffff831660009081526002602081905260409091205460ff1690811115610b4b57fe5b146105495773ffffffffffffffffffffffffffffffffffffffff821660009081526002602052604090208054600191907fffffffffffffffffffffffffffffffffffffffffffffffffffffffffffffff00168280610508565b6000610baf33610565565b156105565760013360009081526002602081905260409091205460ff1690811115610bd657fe5b14610be057600080fd5b600260ff8316108015610bfb575060005460ff908116908316115b156105495750600261055a565b600080600080600085600060019054906101000a900460ff1660ff16610c2d82611031565b61ffff161015610c3c57600080fd5b888880518251141515610c4e57600080fd5b610c566112f4565b600095505b8a518661ffff161015610ca157610c948a8761ffff16815181101515610c7d57fe5b60209081029091010151889063ffffffff61141016565b9650600190950194610c5b565b60646301000000880411610ee757600094505b8a518561ffff161015610e3957600660008c8761ffff16815181101515610cd757fe5b9060200190602002015173ffffffffffffffffffffffffffffffffffffffff1673ffffffffffffffffffffffffffffffffffffffff1681526020019081526020016000209350898561ffff16815181101515610d2f57fe5b6020908102909101015160018086019190915584547fffffffffffffffffffffffffffffffffffffffffffffffffffffffffffffff00161784558a517fffffffffffffffffffffffffffffffffffffffffffffffffffffffffffffffff0161ffff86161015610e03578a8560010161ffff16815181101515610dad57fe5b60209081029190910101516004850180547fffffffffffffffffffffffff00000000000000000000000000000000000000001673ffffffffffffffffffffffffffffffffffffffff909216919091179055610e2e565b6004840180547fffffffffffffffffffffffff00000000000000000000000000000000000000001690555b600190940193610cb4565b8a51600780547fffffffffffffffffffffffffffffffffffffffffffffffffffffffffffff00001661ffff83161790558b906000908110610e7657fe5b602090810290910101516007805473ffffffffffffffffffffffffffffffffffffffff90921662010000027fffffffffffffffffffff0000000000000000000000000000000000000000ffff909216919091179055600880546001019055610edd896111a9565b5060019750610eec565b600097505b505050505050509392505050565b73ffffffffffffffffffffffffffffffffffffffff811660009081526006602052604081206003810154600182015443919091039083108015610f3d5750600081115b156109fb576001820154610f759060649063010000009084026722b1c8c1227a000002045b600285015491900463ffffffff61141016565b50436003830155915081610a00565b6000610f8f33610565565b156105565760013360009081526002602081905260409091205460ff1690811115610fb657fe5b14610fc057600080fd5b600760ff831611156110015750600080547fffffffffffffffffffffffffffffffffffffffffffffffffffffffffffffff001660ff8316179055600261055a565b60005460ff610100909104811690831610156105515750600161055a565b60008282111561102b57fe5b50900390565b60009081526004602052604090206002015460ff1690565b600061105433610565565b156105565760008054838252600460205260409091206002015460ff91821691161080156110d85750600082815260046020908152604080832033845290915281205460ff1660038111156110a557fe5b14806110d857506003600083815260046020908152604080832033845290915290205460ff1660038111156110d657fe5b145b1561118e5760008281526004602090815260408083206002810180547fffffffffffffffffffffffffffffffffffffffffffffffffffffffffffffff00808216600160ff9384168101909316179092553380875283865284872080549093168217909255918201805480840182559086528486200180547fffffffffffffffffffffffff000000000000000000000000000000000000000016821790558452600583529083208054918201815583529120018290555b5060008181526004602052604090206002015460ff1661055a565b6000806111b533610565565b156112e95760008381526004602052604090206002015460ff16156112e0575060005b60008381526004602052604090206001015481101561128457600083815260046020526040812060018101805460039391908590811061121457fe5b600091825260208083209091015473ffffffffffffffffffffffffffffffffffffffff168352820192909252604001902080547fffffffffffffffffffffffffffffffffffffffffffffffffffffffffffffff0016600183600381111561127757fe5b02179055506001016111d8565b600083815260046020526040812061129f9060010182611426565b506000838152600460205260409020600290810180547fffffffffffffffffffffffffffffffffffffffffffffffffffffffffffffff0016905591506112ee565b600191506112ee565b600091505b50919050565b60075462010000900473ffffffffffffffffffffffffffffffffffffffff16600080805b60075461ffff908116908416101561140a57505073ffffffffffffffffffffffffffffffffffffffff821660009081526006602052604081206003810154909143919091039081111561138b5760018201546113899060649063010000009084026722b1c8c1227a00000204610f62565b505b600060018084019190915582547fffffffffffffffffffffffffffffffffffffffffffffffffffffffffffffff001683556004830180547fffffffffffffffffffffffff0000000000000000000000000000000000000000811690915573ffffffffffffffffffffffffffffffffffffffff1694509290920191611318565b50505050565b60008282018381101561141f57fe5b9392505050565b81548183558181111561144a5760008381526020902061144a91810190830161144f565b505050565b61056291905b808211156114695760008155600101611455565b50905600a165627a7a7230582048b167a23856f3b41b88b5e39d8d9b7d1cebc248765e849a7930a9b272539cef0029",
  "source": "pragma solidity ^0.4.19;\n\nimport \"./Libraries/SafeMath.sol\";\n\nimport \"./Administrable.sol\";\n\n// Shyft Conduit\n// con·duit\n// /känˌd(y)o͞oət/\n// 1. a channel for conveying water or other fluid.\n\n// con·ter·mi·nous\n// /känˈtərmənəs/\n// 1. sharing a common boundary.\n\n// This contract manages the Shyft inflation organization and delegation to an Administrable distribution by value.\n// Because the block reward never changes (only the difficulty parameter), there is no really complex math involved.\n\n// We use linked lists for the Contermious linkages because in the case of a new array, the list can be easily\n// associated with the basic mappings without creating extra storage copies.\n\ncontract ShyftConduit is Administrable {\n    using SafeMath for uint256;\n\n    uint256 constant shyftBlockReward = 2500000000000000000;\n\n    //@note:\n    // this is set up such that the distribution amounts (per block) can be set up with a (whitelisted) address.\n\n\n    struct ContermiousInfo {\n        bool whiteListed;\n\n        uint256 whiteShyftedDistributionPercent_leftShifted24Bits;\n        uint256 whiteShyftedBalance;\n\n        uint256 lastBlockProcessed;\n\n        //@note: forward linked list.\n        address nextLink;\n    }\n\n    modifier checkAddressAndValuesArrayLengthsAreEqual(address[] _addresses, uint256[] _values) {\n        require(_addresses.length == _values.length);\n        _;\n    }\n\n    modifier checkIsAdmin() {\n        require(isAdministrator(msg.sender));\n        _;\n    }\n\n    modifier checkForAdminMultisigPermissionsAtOrAboveThreshold(bytes32 _keyKeccak) {\n        require(getPermissionsForMultisignKey(_keyKeccak) >= maxThreshold);\n        _;\n    }\n\n    mapping(address => ContermiousInfo) allContermiousInfo;\n\n    uint16 contermiousCount = 0;\n\n    //@note: contermious address for first of the forward linked list.\n    address contermiousZeldaAddress = address(0);\n    //@note: nonce for the \"setContermiousDistributionAmounts\" \"_distributionKeyKeccak\" input.\n    uint256 contermiousGeneration;\n\n    address primeRevocationManagerAddress = address(0);\n\n    constructor() public {\n        owner = msg.sender;\n    }\n\n    //@note: this function takes in values (n/100%) that are shifted to the left by 24. (2 ^ 24 - 1) = 16777215.\n    // this is to apply granularity to the distribution values of 1 in (2 ^ 24) wei equivalents.\n    // http://x86asm.net/articles/fixed-point-arithmetic-and-tricks/\n\n    //@note: in the ui that would manage this component, the _distributionKeyKeccak should be the keccak256 of all of\n    // the addresses and distribution percentages, along with the current \"contermiousGeneration\", acting as a nonce.\n\n    //returns:\n    // 0 = all distribution percentages added together are over 100%\n    // 1 = set contermious distribution amounts\n\n    function setContermiousDistributionAmounts(address[] _contermiousAddresses,\n                                               uint256[] _contermiousDistributionPercentages_leftShifted24Bits,\n                                               bytes32 _distributionKeyKeccak) public checkForAdminMultisigPermissionsAtOrAboveThreshold(_distributionKeyKeccak)\n                                                                                      checkAddressAndValuesArrayLengthsAreEqual(_contermiousAddresses, _contermiousDistributionPercentages_leftShifted24Bits)\n                                                                                      returns (uint8 result) {\n        integrateAllContermiousDistributionsAndDeWhitelist();\n\n        uint256 totalPercentage_leftShifted24Bits;\n\n        for (uint16 i = 0; i < _contermiousAddresses.length; i++) {\n            totalPercentage_leftShifted24Bits = totalPercentage_leftShifted24Bits.add(_contermiousDistributionPercentages_leftShifted24Bits[i]);\n        }\n\n        if ((totalPercentage_leftShifted24Bits >> 24) <= 100) {\n            for (uint16 j = 0; j < _contermiousAddresses.length; j++) {\n                ContermiousInfo storage contermiousInfo = allContermiousInfo[_contermiousAddresses[j]];\n\n                contermiousInfo.whiteShyftedDistributionPercent_leftShifted24Bits = _contermiousDistributionPercentages_leftShifted24Bits[j];\n                contermiousInfo.whiteListed = true;\n\n                //@note: create a linked list of all the contermious linkages.\n                if (j < _contermiousAddresses.length - 1) {\n                    contermiousInfo.nextLink = _contermiousAddresses[j + 1];\n                } else {\n                    contermiousInfo.nextLink = address(0);\n                }\n            }\n\n            contermiousCount = uint16(_contermiousAddresses.length);\n            //@note: set first address for forward linked list.\n            contermiousZeldaAddress = _contermiousAddresses[0];\n\n            contermiousGeneration++;\n\n            adminResetPermissionsForMultisignKey(_distributionKeyKeccak);\n\n            // set contermious distribution amounts\n            return 1;\n        } else {\n            // all distribution percentages added together are over 100%\n            return 0;\n        }\n    }\n\n    // @note: helper function for \"setContermiousDistributionAmounts\".\n\n    function integrateAllContermiousDistributionsAndDeWhitelist() internal {\n        address contermiusAddress = contermiousZeldaAddress;\n\n        for (uint16 i = 0; i < contermiousCount; i++) {\n            ContermiousInfo storage contermiousInfo = allContermiousInfo[contermiusAddress];\n\n            uint256 numBlocksToProcess = block.number - contermiousInfo.lastBlockProcessed;\n\n            if (numBlocksToProcess > 0) {\n                contermiousInfo.whiteShyftedBalance.add(((contermiousInfo.whiteShyftedDistributionPercent_leftShifted24Bits * numBlocksToProcess * shyftBlockReward) >> 24) / 100);\n            }\n\n            contermiousInfo.whiteShyftedDistributionPercent_leftShifted24Bits = 0;\n\n            contermiousInfo.whiteListed = false;\n\n            contermiusAddress = contermiousInfo.nextLink;\n\n            contermiousInfo.nextLink = 0;\n        }\n    }\n\n    // @note: it's in everyone's best interest to run this function (or the \"integrateIndividual\" one) every block.\n\n    //returns:\n    // 0 = nothing to process\n    // 1 -> n = n blocks processed\n\n    function integrateAllContermiousDistributions() internal returns (uint256 result) {\n        uint256 highestNumberOfBlocksProcessed = 0;\n\n        address contermiusAddress = contermiousZeldaAddress;\n\n        for (uint16 i = 0; i < contermiousCount; i++) {\n            ContermiousInfo storage contermiousInfo = allContermiousInfo[contermiusAddress];\n\n            uint256 numBlocksToProcess = block.number - contermiousInfo.lastBlockProcessed;\n\n            if (numBlocksToProcess > 0) {\n                contermiousInfo.whiteShyftedBalance.add(((contermiousInfo.whiteShyftedDistributionPercent_leftShifted24Bits * numBlocksToProcess * shyftBlockReward) >> 24) / 100);\n\n                contermiousInfo.lastBlockProcessed = block.number;\n\n                if (contermiousInfo.lastBlockProcessed > highestNumberOfBlocksProcessed) {\n                    highestNumberOfBlocksProcessed = contermiousInfo.lastBlockProcessed;\n                }\n            }\n\n            contermiusAddress = contermiousInfo.nextLink;\n        }\n\n        return highestNumberOfBlocksProcessed;\n    }\n\n    //returns:\n    // 0 = nothing to process\n    // 1 -> n = n blocks processed\n\n    function integrateIndividualContermiousDistribution(address _contermiousAddress) public returns (uint256 result) {\n        ContermiousInfo storage contermiousInfo = allContermiousInfo[_contermiousAddress];\n        uint256 numBlocksToProcess = block.number - contermiousInfo.lastBlockProcessed;\n\n        if (contermiousInfo.whiteShyftedDistributionPercent_leftShifted24Bits > 0 && numBlocksToProcess > 0) {\n            contermiousInfo.whiteShyftedBalance.add(((contermiousInfo.whiteShyftedDistributionPercent_leftShifted24Bits * numBlocksToProcess * shyftBlockReward) >> 24) / 100);\n            contermiousInfo.lastBlockProcessed = block.number;\n\n            // n blocks processed\n            return numBlocksToProcess;\n        } else {\n            // nothing to process\n            return 0;\n        }\n    }\n\n    function withdrawIndividualContermiousDistribution(uint256 _value) public {\n        require(checkSelfBalance() >= _value);\n        require(checkContermiusWhiteShyftedBalance(msg.sender) >= _value);\n\n        allContermiousInfo[msg.sender].whiteShyftedBalance.sub(_value);\n\n        msg.sender.transfer(_value);\n    }\n\n    //returns:\n    // 0 -> n = this contract's balance\n\n    function checkSelfBalance() public view returns (uint256 value) {\n        // this contract's balance\n        return address(this).balance;\n    }\n\n    //returns:\n    // 0 = no shyft kyc contract set\n    // or\n    // 0 -> n = balance in shyft kyc contract for address\n\n    function checkContermiusWhiteShyftedBalance(address _address) public view returns (uint256 balance) {\n        return allContermiousInfo[_address].whiteShyftedBalance;\n    }\n\n    //returns:\n    // true/false = is whitelisted or not\n\n    function isValidContermiousAddress(address _contermiousAddress) public view returns (bool result) {\n        //is whitelisted or not\n        return allContermiousInfo[_contermiousAddress].whiteListed;\n    }\n\n    // ** prime revocation manager address management & retrieval ** //\n\n    //returns:\n    // 0 = not an administrator\n    // 1 = only one administrator has permissioned change\n    // 2 = prime revocation manager set\n\n    function setPrimeRevocationManagerAddress(address _primeRevocationManagerAddress) public returns (uint8 result) {\n        require(_primeRevocationManagerAddress != address(0));\n\n        if (isAdministrator(msg.sender)) {\n            bytes32 keyKeccak = keccak256(abi.encodePacked(\"primeRevocationManagerAddress\", _primeRevocationManagerAddress));\n\n            uint16 numPermissions = getPermissionsForMultisignKey(keyKeccak);\n\n            bool permittedToModify;\n\n            if (numPermissions >= maxThreshold) {\n                permittedToModify = true;\n            } else {\n                uint16 numConfirmedPermissions = adminApplyAndGetPermissionsForMultisignKey(keyKeccak);\n\n                if (numConfirmedPermissions >= maxThreshold) {\n                    permittedToModify = true;\n                }\n            }\n\n            if (permittedToModify == true) {\n                primeRevocationManagerAddress = _primeRevocationManagerAddress;\n\n                adminResetPermissionsForMultisignKey(keyKeccak);\n\n                // prime revocation manager set\n                return 2;\n\n            } else {\n                // not enough administrators have permissioned change\n                return 1;\n            }\n        } else {\n            // not an administrator\n            return 0;\n        }\n    }\n\n    //returns:\n    // false = is not prime revocation manager address\n    // true = is prime revocation manager address\n\n    function isPrimeRevocationManager(address _primeRevocationManagerAddress) public returns (bool result) {\n        if (primeRevocationManagerAddress == _primeRevocationManagerAddress) {\n            //is prime revocation manager address\n            return true;\n        } else {\n            //is not prime revocation manager address\n            return false;\n        }\n    }\n}",
  "sourcePath": "/Users/jaypersanchez/shyft_shyftcorecontracts/contracts/ShyftConduit.sol",
  "compiler": {
    "name": "solc",
    "version": "0.4.28+commit.2fcccea1.Emscripten.clang"
  },
  "schemaVersion": "2.0.3",
  "updatedAt": "2019-03-26T16:26:58.810Z"
}