{
  "contractName": "TrustAnchorManager",
  "abi": [
    {
      "constant": false,
      "inputs": [
        {
          "name": "_newAdministratorAddress",
          "type": "address"
        }
      ],
      "name": "setPrimaryAdministrator",
      "outputs": [
        {
          "name": "result",
          "type": "uint8"
        }
      ],
      "payable": false,
      "stateMutability": "nonpayable",
      "type": "function"
    },
    {
      "constant": true,
      "inputs": [
        {
          "name": "_administratorAddress",
          "type": "address"
        }
      ],
      "name": "isAdministrator",
      "outputs": [
        {
          "name": "result",
          "type": "bool"
        }
      ],
      "payable": false,
      "stateMutability": "view",
      "type": "function"
    },
    {
      "constant": false,
      "inputs": [
        {
          "name": "_revokeAdministratorAddress",
          "type": "address"
        }
      ],
      "name": "revokeAdministrator",
      "outputs": [
        {
          "name": "result",
          "type": "uint8"
        }
      ],
      "payable": false,
      "stateMutability": "nonpayable",
      "type": "function"
    },
    {
      "constant": true,
      "inputs": [],
      "name": "getUserDefinedMaxAdministrator",
      "outputs": [
        {
          "name": "",
          "type": "uint8"
        }
      ],
      "payable": false,
      "stateMutability": "view",
      "type": "function"
    },
    {
      "constant": true,
      "inputs": [],
      "name": "getMsgSender",
      "outputs": [
        {
          "name": "",
          "type": "address"
        }
      ],
      "payable": false,
      "stateMutability": "view",
      "type": "function"
    },
    {
      "constant": true,
      "inputs": [],
      "name": "owner",
      "outputs": [
        {
          "name": "",
          "type": "address"
        }
      ],
      "payable": false,
      "stateMutability": "view",
      "type": "function"
    },
    {
      "constant": false,
      "inputs": [
        {
          "name": "_administratorAddress",
          "type": "address"
        }
      ],
      "name": "getAdminAccessValue",
      "outputs": [
        {
          "name": "_access",
          "type": "uint256"
        }
      ],
      "payable": false,
      "stateMutability": "nonpayable",
      "type": "function"
    },
    {
      "constant": true,
      "inputs": [],
      "name": "getUserDefinedMaxThreshold",
      "outputs": [
        {
          "name": "",
          "type": "uint8"
        }
      ],
      "payable": false,
      "stateMutability": "view",
      "type": "function"
    },
    {
      "constant": false,
      "inputs": [
        {
          "name": "_newAdministratorAddress",
          "type": "address"
        }
      ],
      "name": "setAdministrator",
      "outputs": [
        {
          "name": "result",
          "type": "uint8"
        }
      ],
      "payable": false,
      "stateMutability": "nonpayable",
      "type": "function"
    },
    {
      "constant": false,
      "inputs": [
        {
          "name": "_valueThreshold",
          "type": "uint8"
        }
      ],
      "name": "changeCurrentThreshold",
      "outputs": [
        {
          "name": "result",
          "type": "uint8"
        }
      ],
      "payable": false,
      "stateMutability": "nonpayable",
      "type": "function"
    },
    {
      "constant": false,
      "inputs": [
        {
          "name": "_valueThreshold",
          "type": "uint8"
        }
      ],
      "name": "changeCurrentAdminThreshold",
      "outputs": [
        {
          "name": "result",
          "type": "uint8"
        }
      ],
      "payable": false,
      "stateMutability": "nonpayable",
      "type": "function"
    },
    {
      "inputs": [],
      "payable": false,
      "stateMutability": "nonpayable",
      "type": "constructor"
    },
    {
      "anonymous": false,
      "inputs": [
        {
          "indexed": false,
          "name": "trustAnchorAddress",
          "type": "address"
        }
      ],
      "name": "EVT_JurisdictionDoesRequireChange",
      "type": "event"
    },
    {
      "anonymous": false,
      "inputs": [
        {
          "indexed": false,
          "name": "jurisdiction",
          "type": "uint16"
        },
        {
          "indexed": false,
          "name": "trustAnchorAddress",
          "type": "address"
        }
      ],
      "name": "EVT_GettingJurisdictionFromTrustAnchor",
      "type": "event"
    },
    {
      "constant": false,
      "inputs": [
        {
          "name": "_trustAnchorAddress",
          "type": "address"
        }
      ],
      "name": "onboardTrustAnchor",
      "outputs": [
        {
          "name": "result",
          "type": "uint8"
        }
      ],
      "payable": false,
      "stateMutability": "nonpayable",
      "type": "function"
    },
    {
      "constant": false,
      "inputs": [
        {
          "name": "_trustAnchorAddress",
          "type": "address"
        }
      ],
      "name": "verifyTrustAnchor",
      "outputs": [
        {
          "name": "result",
          "type": "uint8"
        }
      ],
      "payable": false,
      "stateMutability": "nonpayable",
      "type": "function"
    },
    {
      "constant": false,
      "inputs": [
        {
          "name": "_trustAnchorAddress",
          "type": "address"
        }
      ],
      "name": "demoteTrustAnchor",
      "outputs": [
        {
          "name": "result",
          "type": "uint8"
        }
      ],
      "payable": false,
      "stateMutability": "nonpayable",
      "type": "function"
    },
    {
      "constant": true,
      "inputs": [
        {
          "name": "_trustAnchorAddress",
          "type": "address"
        }
      ],
      "name": "isTrustAnchorVerified",
      "outputs": [
        {
          "name": "result",
          "type": "bool"
        }
      ],
      "payable": false,
      "stateMutability": "view",
      "type": "function"
    },
    {
      "constant": true,
      "inputs": [
        {
          "name": "_trustAnchorAddress",
          "type": "address"
        }
      ],
      "name": "getTrustAnchorIndex",
      "outputs": [
        {
          "name": "result",
          "type": "uint32"
        }
      ],
      "payable": false,
      "stateMutability": "view",
      "type": "function"
    },
    {
      "constant": false,
      "inputs": [
        {
          "name": "_newJurisdiction",
          "type": "uint16"
        }
      ],
      "name": "setupTrustAnchorJurisdiction",
      "outputs": [
        {
          "name": "result",
          "type": "uint8"
        }
      ],
      "payable": false,
      "stateMutability": "nonpayable",
      "type": "function"
    },
    {
      "constant": false,
      "inputs": [
        {
          "name": "_trustAnchorAddress",
          "type": "address"
        }
      ],
      "name": "approveChange",
      "outputs": [
        {
          "name": "result",
          "type": "uint8"
        }
      ],
      "payable": false,
      "stateMutability": "nonpayable",
      "type": "function"
    },
    {
      "constant": false,
      "inputs": [
        {
          "name": "_trustAnchorAddress",
          "type": "address"
        }
      ],
      "name": "getTrustAnchorJurisdiction",
      "outputs": [
        {
          "name": "result",
          "type": "uint16"
        }
      ],
      "payable": false,
      "stateMutability": "nonpayable",
      "type": "function"
    },
    {
      "constant": false,
      "inputs": [
        {
          "name": "_primeRevocationManagerAddress",
          "type": "address"
        }
      ],
      "name": "isPrimeRevocationManager",
      "outputs": [
        {
          "name": "result",
          "type": "bool"
        }
      ],
      "payable": false,
      "stateMutability": "nonpayable",
      "type": "function"
    }
  ],
  "bytecode": "0x608060405260008054600760ff199091161761ff001916610200179055600b8054739db76b4bbaea76dfda4552b7b9d4e9d43abc55fd600160a060020a031990911617905534801561005057600080fd5b50600080546201000033026201000060b060020a031990911617905561120c8061007b6000396000f3006080604052600436106101115763ffffffff7c0100000000000000000000000000000000000000000000000000000000600035041663064ad7c281146101165780630a2eb3011461015a57806325b953b31461019c5780634402bba3146101e157806350a910181461020f578063512f3d651461023d57806368878cde1461026b5780636efc25c81461028757806374534fb2146102ce5780637899320f146102e35780637a6ce2e11461031157806389e81ee71461034f5780638da5cb5b1461037d5780639528d27014610392578063d2631b45146103c0578063d511c46314610400578063df8089ef14610415578063e484a38d14610443578063f3fc05f41461045e578063fba7fd781461048c575b600080fd5b34801561012257600080fd5b5061014473ffffffffffffffffffffffffffffffffffffffff600435166104a7565b6040805160ff9092168252519081900360200190f35b34801561016657600080fd5b5061018873ffffffffffffffffffffffffffffffffffffffff60043516610581565b604080519115158252519081900360200190f35b3480156101a857600080fd5b506101ca73ffffffffffffffffffffffffffffffffffffffff600435166105c9565b6040805161ffff9092168252519081900360200190f35b3480156101ed57600080fd5b5061014473ffffffffffffffffffffffffffffffffffffffff6004351661065d565b34801561021b57600080fd5b5061014473ffffffffffffffffffffffffffffffffffffffff60043516610858565b34801561024957600080fd5b5061018873ffffffffffffffffffffffffffffffffffffffff600435166109ee565b34801561027757600080fd5b5061014461ffff60043516610ab1565b34801561029357600080fd5b506102b573ffffffffffffffffffffffffffffffffffffffff60043516610b9d565b6040805163ffffffff9092168252519081900360200190f35b3480156102da57600080fd5b50610144610bcb565b3480156102ef57600080fd5b5061014473ffffffffffffffffffffffffffffffffffffffff60043516610bd4565b34801561031d57600080fd5b50610326610cf1565b6040805173ffffffffffffffffffffffffffffffffffffffff9092168252519081900360200190f35b34801561035b57600080fd5b5061014473ffffffffffffffffffffffffffffffffffffffff60043516610cf5565b34801561038957600080fd5b50610326610d9f565b34801561039e57600080fd5b5061014473ffffffffffffffffffffffffffffffffffffffff60043516610dc1565b3480156103cc57600080fd5b506103ee73ffffffffffffffffffffffffffffffffffffffff60043516610e5f565b60408051918252519081900360200190f35b34801561040c57600080fd5b50610144610e9a565b34801561042157600080fd5b5061014473ffffffffffffffffffffffffffffffffffffffff60043516610ea8565b34801561044f57600080fd5b5061014460ff60043516610f49565b34801561046a57600080fd5b5061018873ffffffffffffffffffffffffffffffffffffffff60043516610fad565b34801561049857600080fd5b5061014460ff60043516610fe5565b6000805462010000900473ffffffffffffffffffffffffffffffffffffffff163314156105785760035460ff16151561056b5773ffffffffffffffffffffffffffffffffffffffff821660009081526002602052604090208054600191907fffffffffffffffffffffffffffffffffffffffffffffffffffffffffffffff001682805b0217905550506003805460ff808216600101167fffffffffffffffffffffffffffffffffffffffffffffffffffffffffffffff00909116179055600261057c565b50600161057c565b61057c565b5060005b919050565b6000600173ffffffffffffffffffffffffffffffffffffffff831660009081526002602081905260409091205460ff16908111156105bb57fe5b14156105785750600161057c565b73ffffffffffffffffffffffffffffffffffffffff8116600081815260096020908152604080832054815161ffff909116815291820193909352825191927f6f09dfd97060366f89eddd6c6d9673457fed4f97f4da23994acbb845bdb32d5392918290030190a15073ffffffffffffffffffffffffffffffffffffffff1660009081526009602052604090205461ffff1690565b600080600061066b33610581565b1561084c57600173ffffffffffffffffffffffffffffffffffffffff851660009081526002602081905260409091205460ff16908111156106a857fe5b14156108435760405160200180807f61646d696e697374726174696f6e5265766f636174696f6e566f746500000000815250601c0190506040516020818303038152906040526040518082805190602001908083835b6020831061073b57805182527fffffffffffffffffffffffffffffffffffffffffffffffffffffffffffffffe090920191602091820191016106fe565b6001836020036101000a0380198251168184511680821785525050505050509050019150506040518091039020915061077382611080565b600054909150610100900460ff1661ffff82161061083a5773ffffffffffffffffffffffffffffffffffffffff8416600090815260026020819052604090912080547fffffffffffffffffffffffffffffffffffffffffffffffffffffffffffffff00166001830217905550600380547fffffffffffffffffffffffffffffffffffffffffffffffffffffffffffffff00811660ff9182167fffffffffffffffffffffffffffffffffffffffffffffffffffffffffffffffff019091161781559250610851565b60029250610851565b60019250610851565b600092505b5050919050565b600061086333610581565b1561057857600173ffffffffffffffffffffffffffffffffffffffff831660009081526006602052604090205460ff16600381111561089e57fe5b14806108dd5750600373ffffffffffffffffffffffffffffffffffffffff831660009081526006602052604090205460ff1660038111156108db57fe5b145b1561056b5773ffffffffffffffffffffffffffffffffffffffff8216600090815260066020908152604080832080547fffffffffffffffffffffffffffffffffffffffffffffffffffffffffffffff0016600217905560098252808320805461ffff7fffffffffffffffffffffffffffffffffffffffffffffffffffffffffffff0000909116179055600790915290205463ffffffff1615156109e6576008805473ffffffffffffffffffffffffffffffffffffffff8416600090815260076020526040902080547fffffffffffffffffffffffffffffffffffffffffffffffffffffffff0000000090811663ffffffff93841617909155825480831660010190921691161790555b50600261057c565b600b54604080517f512f3d6500000000000000000000000000000000000000000000000000000000815273ffffffffffffffffffffffffffffffffffffffff848116600483015291516000939290921691829163512f3d6591602480830192602092919082900301818887803b158015610a6757600080fd5b505af1158015610a7b573d6000803e3d6000fd5b505050506040513d6020811015610a9157600080fd5b5051151560011415610aa65760019150610aab565b600091505b50919050565b6000610abc33610fad565b151560011415610578573360009081526009602052604090205461ffff9081161415610b25575033600090815260096020526040902080547fffffffffffffffffffffffffffffffffffffffffffffffffffffffffffff00001661ffff8316179055600261057c565b336000818152600a602090815260409182902080547fffffffffffffffffffffffffffffffffffffffffffffffffffffffffffff00001661ffff8716179055815192835290517f84548859412b54336f26dc5c85182cd2a4328a6203d88a9d259944c80f90328e9281900390910190a150600161057c565b73ffffffffffffffffffffffffffffffffffffffff1660009081526007602052604090205463ffffffff1690565b60005460ff1690565b6000610bdf33610581565b156105785773ffffffffffffffffffffffffffffffffffffffff821660009081526009602052604090205461ffff161561056b5773ffffffffffffffffffffffffffffffffffffffff82166000908152600a602052604090205461ffff1615801590610c83575073ffffffffffffffffffffffffffffffffffffffff8216600090815260096020908152604080832054600a9092529091205461ffff908116911614155b156109e6575073ffffffffffffffffffffffffffffffffffffffff81166000908152600a6020908152604080832054600990925290912080547fffffffffffffffffffffffffffffffffffffffffffffffffffffffffffff00001661ffff909216919091179055600361057c565b3390565b6000610d0033610581565b1561057857600273ffffffffffffffffffffffffffffffffffffffff831660009081526006602052604090205460ff166003811115610d3b57fe5b1461056b5773ffffffffffffffffffffffffffffffffffffffff821660009081526006602052604090208054600391907fffffffffffffffffffffffffffffffffffffffffffffffffffffffffffffff00166001835b02179055506002905061057c565b60005462010000900473ffffffffffffffffffffffffffffffffffffffff1681565b6000610dcc33610581565b156105785773ffffffffffffffffffffffffffffffffffffffff821660009081526006602052604081205460ff166003811115610e0557fe5b141561056b5773ffffffffffffffffffffffffffffffffffffffff821660009081526006602052604090208054600191907fffffffffffffffffffffffffffffffffffffffffffffffffffffffffffffff00168280610d91565b73ffffffffffffffffffffffffffffffffffffffff8116600090815260026020819052604082205460ff1690811115610e9457fe5b92915050565b600054610100900460ff1690565b6000610eb333610581565b1561057857600173ffffffffffffffffffffffffffffffffffffffff831660009081526002602081905260409091205460ff1690811115610ef057fe5b1461056b5773ffffffffffffffffffffffffffffffffffffffff821660009081526002602052604090208054600191907fffffffffffffffffffffffffffffffffffffffffffffffffffffffffffffff0016828061052a565b6000610f5433610581565b156105785760013360009081526002602081905260409091205460ff1690811115610f7b57fe5b14610f8557600080fd5b600260ff8316108015610fa0575060005460ff908116908316115b1561056b5750600261057c565b6000600273ffffffffffffffffffffffffffffffffffffffff831660009081526006602052604090205460ff1660038111156105bb57fe5b6000610ff033610581565b156105785760013360009081526002602081905260409091205460ff169081111561101757fe5b1461102157600080fd5b600760ff831611156110625750600080547fffffffffffffffffffffffffffffffffffffffffffffffffffffffffffffff001660ff8316179055600261057c565b60005460ff610100909104811690831610156105735750600161057c565b600061108b33610581565b156105785760008054838252600460205260409091206002015460ff918216911610801561110f5750600082815260046020908152604080832033845290915281205460ff1660038111156110dc57fe5b148061110f57506003600083815260046020908152604080832033845290915290205460ff16600381111561110d57fe5b145b156111c55760008281526004602090815260408083206002810180547fffffffffffffffffffffffffffffffffffffffffffffffffffffffffffffff00808216600160ff9384168101909316179092553380875283865284872080549093168217909255918201805480840182559086528486200180547fffffffffffffffffffffffff000000000000000000000000000000000000000016821790558452600583529083208054918201815583529120018290555b5060008181526004602052604090206002015460ff1661057c5600a165627a7a72305820681d820f18dfa8341c1f233c09544948fa62b3b85f1007149147315c8c7f4fe80029",
  "source": "// pragma experimental ABIEncoderV2;\n\npragma solidity ^0.4.19;\n\nimport \"./Interfaces/ITrustAnchorManager.sol\";\nimport \"./Interfaces/IShyftConduit.sol\";\n\nimport \"./ECRecovery.sol\";\nimport \"./Administrable.sol\";\n\n// ** TrustAnchorReference.sol ** //\n// 2018 Shyft. all rights reserved.\n// Author Chris Forrester\n\n// context:\n// TrustAnchorReference is the basic building block for the trust anchor referencing in the logical kyc caching within the Shyft blockchain.\n// This generally relates to a series of map reductions and lists, however in this case we're doing an O(n) lookup within a technically massive\n// address space. So to return the proper data we simply do a series of hash comparisons, one per lookup field, and see if a value within this\n// space is nonzero, thus indicating a membership class. Further requirements for queries can utilize this format for lookups.\n\n// Admins of this contract are able to be set in order to allow for better management practices.\n// Bounties are set on http://www.shyft.network/bounties/TrustAnchorReference.sol for any glitches. Please do literally all the work and send a\n// pull request with your divine salvation. #<3s\n\n\n// patterns used:\n// owner pattern.\n// administrator pattern.\n\n// irregular usages:\n//\n// (1) structure:\n// hash table based mirrored data accessors for maximum read with a bit of write overhead.\n// (1) rationale:\n// most contracts depend on this and keeping two hash tables in memory constantly when > 90% of transactions should eventually be using the kyc\n// database to at least trigger friendly events re: reputation token is a useful thing.\n\n// compatibility:\n// fully ethereum EVM compliant.\n\n// future work:\n// research into cost/benefit of upgradability.\n// further caching and improvement of read performance/cost.\n\n//@note:@todo:@next: add multisig to the onboard/approve/demotions?\n\ncontract TrustAnchorManager is Administrable, ITrustAnchorManager {\n    //Events for Trust Anchor-specific metadata updates. This does not necessarily affect the active status or the jurisdiction fields in the\n    //Trust Anchors' attestations.\n    event EVT_JurisdictionDoesRequireChange( address trustAnchorAddress );\n    event EVT_GettingJurisdictionFromTrustAnchor( uint16 jurisdiction, address trustAnchorAddress );\n\n    enum TrustAnchorAccess { Unknown, Onboarded, Verified, Demoted }\n\n    //trust anchors\n    mapping (address => TrustAnchorAccess) trustAnchorAccess;\n    mapping (address => uint32) trustAnchorIndexes;\n\n    uint32 numTrustAnchors;\n\n    //jurisdictions\n    mapping (address => uint16) jurisdictions;\n    mapping (address => uint16) jurisdictionsRequiringChange;\n\n    uint16 constant NoJurisdiction = 2 ** 16 - 1;\n\n    //@note:@here:@genesis: this address is hardcoded based on the shyft conduit address which can be\n    // pre-generated when a known genesis block and/or creator address of a shyft conduit is known.\n\n    address shyftConduitAddress = address(0x9DB76b4BbAEa76dfdA4552B7B9d4e9D43aBC55FD);\n\n    constructor() public {\n        owner = msg.sender;\n    }\n    \n    // ** trust anchor primary management ** //\n\n    //result:\n    // 0 = not administrator\n    // 1 = trust anchor not unknown state\n    // 2 = trust anchor onboarded\n\n    function onboardTrustAnchor(address _trustAnchorAddress) public returns (uint8 result) {\n        if (isAdministrator(msg.sender)) {\n            if (trustAnchorAccess[_trustAnchorAddress] == TrustAnchorAccess.Unknown) {\n                trustAnchorAccess[_trustAnchorAddress] = TrustAnchorAccess.Onboarded;\n                //trust anchor onboarded\n                return 2;\n            } else {\n                //trust anchor not unknown state\n                return 1;\n            }\n        } else {\n            //not administrator\n            return 0;\n        }\n    }\n    \n    //result:\n    // 0 = not administrator\n    // 1 = trust anchor not onboarded\n    // 2 = trust anchor verified\n\n    function verifyTrustAnchor(address _trustAnchorAddress) public returns (uint8 result) {\n        if (isAdministrator(msg.sender)) {\n            if (trustAnchorAccess[_trustAnchorAddress] == TrustAnchorAccess.Onboarded ||\n                trustAnchorAccess[_trustAnchorAddress] == TrustAnchorAccess.Demoted) {\n                trustAnchorAccess[_trustAnchorAddress] = TrustAnchorAccess.Verified;\n                jurisdictions[_trustAnchorAddress] = NoJurisdiction;\n\n                if (trustAnchorIndexes[_trustAnchorAddress] == 0) {\n                    trustAnchorIndexes[_trustAnchorAddress] = numTrustAnchors;\n                    numTrustAnchors++;\n                }\n\n                //trust anchor verified\n                return 2;\n            } else {\n                //trust anchor not onboarded;\n                return 1;\n            }\n        } else {\n            //not administrator\n            return 0;\n        }\n    }\n    \n    //other magic\n    \n    //result:\n    // 0 = not administrator\n    // 1 = trust anchor not verified status\n    // 2 = trust anchor successfully demoted\n\n    function demoteTrustAnchor(address _trustAnchorAddress) public returns (uint8 result) {\n        if (isAdministrator(msg.sender)) {\n            if (trustAnchorAccess[_trustAnchorAddress] != TrustAnchorAccess.Verified) {\n                trustAnchorAccess[_trustAnchorAddress] = TrustAnchorAccess.Demoted;\n\n                //trust anchor successfully demoted\n                return 2;\n            } else {\n                //trust anchor not verified status\n                return 1;\n            }\n        } else {\n            //not administrator\n            return 0;\n        }\n\n    }\n\n    //result:\n    // false = not verified\n    // true = is verified\n\n    function isTrustAnchorVerified(address _trustAnchorAddress) public view returns (bool result) {\n        if (trustAnchorAccess[_trustAnchorAddress] == TrustAnchorAccess.Verified) {\n            //is verified\n            return true;\n        } else {\n            //not verified\n            return false;\n        }\n    }\n\n    //result:\n    // 0 -> 2^32-1 = index of trust anchor\n    function getTrustAnchorIndex(address _trustAnchorAddress) public view returns (uint32 result) {\n        return trustAnchorIndexes[_trustAnchorAddress];\n    }\n\n\n    // ** jurisdictions management ** //\n\n    // @note: by default, jurisdictions can be set once by the Trust Anchor using\n    // their private key, then subsequent attempts to change require\n    // verification from the contract administrators.\n\n    //result:\n    // 0 = not verified\n    // 1 = jurisdiction already set, now waiting for approval\n    // 2 = trust anchor jurisdiction has been set up first time\n\n    function setupTrustAnchorJurisdiction(uint16 _newJurisdiction) public returns (uint8 result) {\n        if (isTrustAnchorVerified(msg.sender) == true) {\n            if (jurisdictions[msg.sender] == NoJurisdiction) {\n                jurisdictions[msg.sender] = _newJurisdiction;\n\n                //trust anchor jurisdiction has been set up first time\n                return 2;\n            } else {\n                jurisdictionsRequiringChange[msg.sender] = _newJurisdiction;\n                emit EVT_JurisdictionDoesRequireChange(msg.sender);\n\n                //jurisdiction already set, now waiting for approval\n                return 1;\n            }\n        } else {\n            //not verified\n            return 0;\n        }\n    }\n\n    //result:\n    // 0 = not administrator\n    // 1 = no trust anchor found\n    // 2 = no jurisdiction change necessary\n    // 3 = jurisdiction change occurred\n\n    function approveChange(address _trustAnchorAddress) public returns (uint8 result) {\n        if (isAdministrator(msg.sender)) {\n            //@note:@here:@next:@todo: set up a multi-signature requirement for approval?\n            if (jurisdictions[_trustAnchorAddress] != 0) {\n                if (jurisdictionsRequiringChange[_trustAnchorAddress] != 0 &&\n                    jurisdictionsRequiringChange[_trustAnchorAddress] != jurisdictions[_trustAnchorAddress]) {\n                    jurisdictions[_trustAnchorAddress] = jurisdictionsRequiringChange[_trustAnchorAddress];\n                    //@note: @here: this would cause this call to fail with a \"Error: base fee exceeds gas limit\" error.\n                    //not sure why.\n                    //delete jurisdictionsRequiringChange[_trustAnchor];\n\n                    //jurisdiction change occurred\n                    return 3;\n                } else {\n                    //no jurisdiction change necessary\n                    return 2;\n                }\n            } else {\n                //no trust anchor found\n                return 1;\n            }\n        } else {\n            //not administrator\n            return 0;\n        }\n    }\n\n    //@note: only for valid trust anchors, this will return 0 for invalid trust anchors due to the storage\n    // characteristics of the ethereum virtual machine.\n\n    //result:\n    // 0 -> 2 ** 16 - 2 = jurisdiction found\n    // 2 ** 16 - 1 = no jurisdiction found\n\n    function getTrustAnchorJurisdiction(address _trustAnchorAddress) public returns (uint16 result) {\n        //jurisdiction found, or 2 ** 31 - 1 is no jurisdiction set\n\n        emit EVT_GettingJurisdictionFromTrustAnchor(jurisdictions[_trustAnchorAddress], _trustAnchorAddress);\n\n        return jurisdictions[_trustAnchorAddress];\n    }\n\n    // ** prime revocation manager address retrieval ** //\n\n    function isPrimeRevocationManager(address _primeRevocationManagerAddress) public returns (bool result) {\n        IShyftConduit shyftConduit = IShyftConduit(shyftConduitAddress);\n\n        if (shyftConduit.isPrimeRevocationManager(_primeRevocationManagerAddress) == true) {\n            return true;\n        } else {\n            return false;\n        }\n    }\n}\n",
  "sourcePath": "/Users/jaypersanchez/shyft_shyftcorecontracts/contracts/TrustAnchorManager.sol",
  "compiler": {
    "name": "solc",
    "version": "0.4.28+commit.2fcccea1.Emscripten.clang"
  },
  "schemaVersion": "2.0.3",
  "updatedAt": "2019-03-26T16:26:58.695Z"
}