{
  "contractName": "TrustAnchor_Generic",
  "abi": [
    {
      "inputs": [
        {
          "name": "_minimumRequiredStake",
          "type": "uint256"
        }
      ],
      "payable": false,
      "stateMutability": "nonpayable",
      "type": "constructor"
    },
    {
      "constant": false,
      "inputs": [
        {
          "name": "_trustAnchorStorageAddress",
          "type": "address"
        }
      ],
      "name": "setTrustAnchorStorageAddress",
      "outputs": [
        {
          "name": "result",
          "type": "uint8"
        }
      ],
      "payable": false,
      "stateMutability": "nonpayable",
      "type": "function"
    },
    {
      "constant": false,
      "inputs": [
        {
          "name": "_curatedBindingAddress",
          "type": "address"
        }
      ],
      "name": "setCuratedBindingAddress",
      "outputs": [
        {
          "name": "result",
          "type": "uint8"
        }
      ],
      "payable": false,
      "stateMutability": "nonpayable",
      "type": "function"
    },
    {
      "constant": false,
      "inputs": [
        {
          "name": "_consentTransactionCost",
          "type": "uint256"
        }
      ],
      "name": "setConsentTransactionCost",
      "outputs": [],
      "payable": false,
      "stateMutability": "nonpayable",
      "type": "function"
    },
    {
      "constant": false,
      "inputs": [
        {
          "name": "_availabilityAddressEncrypted",
          "type": "bytes32"
        }
      ],
      "name": "setAvailabilityAddressEncrypted",
      "outputs": [],
      "payable": false,
      "stateMutability": "nonpayable",
      "type": "function"
    },
    {
      "constant": false,
      "inputs": [
        {
          "name": "bindingKeccak",
          "type": "bytes32"
        }
      ],
      "name": "getProofExists",
      "outputs": [
        {
          "name": "result",
          "type": "uint8"
        }
      ],
      "payable": false,
      "stateMutability": "nonpayable",
      "type": "function"
    },
    {
      "constant": false,
      "inputs": [
        {
          "name": "_value",
          "type": "bytes"
        },
        {
          "name": "_encodedPath",
          "type": "bytes"
        },
        {
          "name": "_rlpParentNodes",
          "type": "bytes"
        },
        {
          "name": "_headerKeccak",
          "type": "bytes32"
        }
      ],
      "name": "getProofPassesExternal",
      "outputs": [
        {
          "name": "result",
          "type": "uint8"
        }
      ],
      "payable": false,
      "stateMutability": "nonpayable",
      "type": "function"
    },
    {
      "constant": false,
      "inputs": [
        {
          "name": "_identifiedAddress",
          "type": "address"
        },
        {
          "name": "_value",
          "type": "bytes"
        },
        {
          "name": "_encodedPath",
          "type": "bytes"
        },
        {
          "name": "_rlpParentNodes",
          "type": "bytes"
        },
        {
          "name": "_headerKeccak",
          "type": "bytes32"
        }
      ],
      "name": "proveForIdentifiedAddress",
      "outputs": [
        {
          "name": "result",
          "type": "uint8"
        }
      ],
      "payable": false,
      "stateMutability": "nonpayable",
      "type": "function"
    },
    {
      "constant": false,
      "inputs": [],
      "name": "revokeProof",
      "outputs": [
        {
          "name": "result",
          "type": "uint8"
        }
      ],
      "payable": false,
      "stateMutability": "nonpayable",
      "type": "function"
    }
  ],
  "bytecode": "0x60806040526000805462ff00001961ffff199091166180001790811682556003805461ffff9283166001019092167401000000000000000000000000000000000000000002600160b060020a031990921691909117905560068054600160a060020a0319169055600781905560085534801561007a57600080fd5b50604051602080612127833981016040525160038054600160a060020a031916331790556000805462ff0000191662010000179055600255612066806100c16000396000f30060806040526004361061008d5763ffffffff7c010000000000000000000000000000000000000000000000000000000060003504166359553d9e8114610092578063610a6267146100bd57806371457397146100d75780637ea84271146101055780638bf204cf146101f7578063b89b6a5714610225578063c68b1f901461023d578063f83c852114610255575b600080fd5b34801561009e57600080fd5b506100a761032c565b6040805160ff9092168252519081900360200190f35b3480156100c957600080fd5b506100d5600435610332565b005b3480156100e357600080fd5b506100a773ffffffffffffffffffffffffffffffffffffffff60043516610348565b34801561011157600080fd5b5060408051602060046024803582810135601f81018590048502860185019096528585526100a795833573ffffffffffffffffffffffffffffffffffffffff1695369560449491939091019190819084018382808284375050604080516020601f89358b018035918201839004830284018301909452808352979a99988101979196509182019450925082915084018382808284375050604080516020601f89358b018035918201839004830284018301909452808352979a99988101979196509182019450925082915084018382808284375094975050933594506103ca9350505050565b34801561020357600080fd5b506100a773ffffffffffffffffffffffffffffffffffffffff600435166109d4565b34801561023157600080fd5b506100a7600435610a4d565b34801561024957600080fd5b506100d5600435610a7f565b34801561026157600080fd5b506040805160206004803580820135601f81018490048402850184019095528484526100a794369492936024939284019190819084018382808284375050604080516020601f89358b018035918201839004830284018301909452808352979a99988101979196509182019450925082915084018382808284375050604080516020601f89358b018035918201839004830284018301909452808352979a9998810197919650918201945092508291508401838280828437509497505093359450610a919350505050565b60005b90565b61033a610d06565b156103455760088190555b50565b6000610352610d06565b156103c15773ffffffffffffffffffffffffffffffffffffffff8216151561037957600080fd5b50600580547fffffffffffffffffffffffff00000000000000000000000000000000000000001673ffffffffffffffffffffffffffffffffffffffff831617905560016103c5565b5060005b919050565b600554600090819081908190819081906060908190839073ffffffffffffffffffffffffffffffffffffffff16156109be576104088d8d8d8d610a91565b60ff16600214156109b5576005546006546040518f5173ffffffffffffffffffffffffffffffffffffffff9384169b509290911698508e918c9160209081019182918501908083835b6020831061048e57805182527fffffffffffffffffffffffffffffffffffffffffffffffffffffffffffffffe09092019160209182019101610451565b51815160209384036101000a7fffffffffffffffffffffffffffffffffffffffffffffffffffffffffffffffff018019909216911617905292019384525060408051808503815293820190819052835193945092839250908401908083835b6020831061052a57805182527fffffffffffffffffffffffffffffffffffffffffffffffffffffffffffffffe090920191602091820191016104ed565b51815160209384036101000a7fffffffffffffffffffffffffffffffffffffffffffffffffffffffffffffffff0180199092169116179052604080519290940182900390912060008181526004909252929020549199505073ffffffffffffffffffffffffffffffffffffffff16151591506109ac905057604080517f597801f0000000000000000000000000000000000000000000000000000000008152600481018c9052905173ffffffffffffffffffffffffffffffffffffffff89169163597801f09160248083019260209291908290030181600087803b15801561061157600080fd5b505af1158015610625573d6000803e3d6000fd5b505050506040513d602081101561063b57600080fd5b5051604080517ff5d51b0d000000000000000000000000000000000000000000000000000000008152600481018d9052905191965073ffffffffffffffffffffffffffffffffffffffff89169163f5d51b0d916024808201926020929091908290030181600087803b1580156106b057600080fd5b505af11580156106c4573d6000803e3d6000fd5b505050506040513d60208110156106da57600080fd5b810190808051906020019092919050505093506040805190810160405280600181526020017fff0000000000000000000000000000000000000000000000000000000000000081525092506040805190810160405280600181526020017fff00000000000000000000000000000000000000000000000000000000000000815250915060075490508773ffffffffffffffffffffffffffffffffffffffff1663762435738f600360149054906101000a900461ffff16600067ffffffffffffffff88888860006040518963ffffffff167c0100000000000000000000000000000000000000000000000000000000028152600401808973ffffffffffffffffffffffffffffffffffffffff1673ffffffffffffffffffffffffffffffffffffffff1681526020018861ffff1661ffff1681526020018767ffffffffffffffff1681526020018667ffffffffffffffff1681526020018060200180602001856000191660001916815260200184151515158152602001838103835287818151815260200191508051906020019080838360005b8381101561088457818101518382015260200161086c565b50505050905090810190601f1680156108b15780820380516001836020036101000a031916815260200191505b50838103825286518152865160209182019188019080838360005b838110156108e45781810151838201526020016108cc565b50505050905090810190601f1680156109115780820380516001836020036101000a031916815260200191505b509a50505050505050505050506040805180830381600087803b15801561093757600080fd5b505af115801561094b573d6000803e3d6000fd5b505050506040513d604081101561096157600080fd5b5050600086815260046020526040902080547fffffffffffffffffffffffff000000000000000000000000000000000000000016331790556109a28e610d39565b50600398506109c3565b600298506109c3565b600198506109c3565b600098505b505050505050505095945050505050565b60006109de610d06565b156103c15773ffffffffffffffffffffffffffffffffffffffff82161515610a0557600080fd5b50600680547fffffffffffffffffffffffff00000000000000000000000000000000000000001673ffffffffffffffffffffffffffffffffffffffff831617905560016103c5565b60008181526004602052604081205473ffffffffffffffffffffffffffffffffffffffff16156103c1575060016103c5565b610a87610d06565b1561034557600755565b60055460009081908190819073ffffffffffffffffffffffffffffffffffffffff1615801590610ad8575060065473ffffffffffffffffffffffffffffffffffffffff1615155b15610cf657600654604051895173ffffffffffffffffffffffffffffffffffffffff90921694508991879160209081019182918501908083835b60208310610b4f57805182527fffffffffffffffffffffffffffffffffffffffffffffffffffffffffffffffe09092019160209182019101610b12565b51815160209384036101000a7fffffffffffffffffffffffffffffffffffffffffffffffffffffffffffffffff018019909216911617905292019384525060408051808503815293820190819052835193945092839250908401908083835b60208310610beb57805182527fffffffffffffffffffffffffffffffffffffffffffffffffffffffffffffffe09092019160209182019101610bae565b51815160209384036101000a7fffffffffffffffffffffffffffffffffffffffffffffffffffffffffffffffff0180199092169116179052604080519290940182900382207f597801f0000000000000000000000000000000000000000000000000000000008352600483018c9052935193975073ffffffffffffffffffffffffffffffffffffffff8916955063597801f0945060248083019491935090918290030181600087803b158015610ca057600080fd5b505af1158015610cb4573d6000803e3d6000fd5b505050506040513d6020811015610cca57600080fd5b50519050610cda88888884610dcb565b151560011415610ced5760029350610cfb565b60019350610cfb565b600093505b505050949350505050565b60035460009073ffffffffffffffffffffffffffffffffffffffff16331415610d315750600161032f565b50600061032f565b600854600090600381029082901580610d685750818473ffffffffffffffffffffffffffffffffffffffff1631105b15610dbf575060405173ffffffffffffffffffffffffffffffffffffffff8416803183039182156108fc029083906000818181858888f19350505050158015610db5573d6000803e3d6000fd5b5060019250610dc4565b600092505b5050919050565b6000610dd985858585610df7565b151560011415610deb57506001610def565b5060005b949350505050565b6000610e01612002565b60608060606000806060600080610e178c6113c5565b9850610e228961140d565b97508a945060009350610e348d6114c2565b9250825160001415610e4957600099506113b4565b600091505b87518210156113b4578251841115610e6957600099506113b4565b610e898883815181101515610e7a57fe5b9060200190602002015161165f565b9650866040516020018082805190602001908083835b60208310610edc57805182527fffffffffffffffffffffffffffffffffffffffffffffffffffffffffffffffe09092019160209182019101610e9f565b6001836020036101000a0380198251168184511680821785525050505050509050019150506040516020818303038152906040526040518082805190602001908083835b60208310610f5d57805182527fffffffffffffffffffffffffffffffffffffffffffffffffffffffffffffffe09092019160209182019101610f20565b5181516020939093036101000a7fffffffffffffffffffffffffffffffffffffffffffffffffffffffffffffffff0180199091169216919091179052604051920182900390912088149250610fb891505057600099506113b4565b610fd88883815181101515610fc957fe5b9060200190602002015161140d565b955085516011141561121a578251841415611198578d6040516020018082805190602001908083835b6020831061103e57805182527fffffffffffffffffffffffffffffffffffffffffffffffffffffffffffffffe09092019160209182019101611001565b6001836020036101000a0380198251168184511680821785525050505050509050019150506040516020818303038152906040526040518082805190602001908083835b602083106110bf57805182527fffffffffffffffffffffffffffffffffffffffffffffffffffffffffffffffe09092019160209182019101611082565b6001836020036101000a038019825116818451168082178552505050505050905001915050604051809103902060001916611102876010815181101515610e7a57fe5b6040518082805190602001908083835b6020831061114f57805182527fffffffffffffffffffffffffffffffffffffffffffffffffffffffffffffffe09092019160209182019101611112565b6001836020036101000a038019825116818451168082178552505050505050905001915050604051809103902060001916141561118f57600199506113b4565b600099506113b4565b82848151811015156111a657fe5b01602001517f0100000000000000000000000000000000000000000000000000000000000000908190048102049050601060ff821611156111ea57600099506113b4565b61120d868260ff168151811015156111fe57fe5b906020019060200201516116b9565b94506001840193506113a9565b85516002141561118f5761124f61124887600081518110151561123957fe5b906020019060200201516116ca565b848661174b565b8351940193841415611370578d6040516020018082805190602001908083835b602083106112ac57805182527fffffffffffffffffffffffffffffffffffffffffffffffffffffffffffffffe0909201916020918201910161126f565b6001836020036101000a0380198251168184511680821785525050505050509050019150506040516020818303038152906040526040518082805190602001908083835b6020831061132d57805182527fffffffffffffffffffffffffffffffffffffffffffffffffffffffffffffffe090920191602091820191016112f0565b6001836020036101000a03801982511681845116808217855250505050505090500191505060405180910390206000191661110287600181518110151561123957fe5b61138561124887600081518110151561123957fe5b151561139457600099506113b4565b6113a68660018151811015156111fe57fe5b94505b600190910190610e4e565b505050505050505050949350505050565b6113cd612002565b815160008115156113f35760408051808201909152600080825260208201529250610dc4565b506040805180820190915260209384018152928301525090565b60606000611419612019565b600061142485611a83565b151561142f57600080fd5b61143885611aad565b92508260405190808252806020026020018201604052801561147457816020015b611461612002565b8152602001906001900390816114595790505b50935061148085611b19565b91505b61148c82611b52565b156114ba5761149a82611b71565b84828151811015156114a857fe5b60209081029091010152600101611483565b505050919050565b606080600080600080600087511115611651576114e0600088611bb3565b7f0100000000000000000000000000000000000000000000000000000000000000900492508260ff166001148061151a57508260ff166003145b156115ad5760018751600202036040519080825280601f01601f191660200182016040528015611554578160200160208202803883390190505b509450611562600188611bb3565b91508185600081518110151561157457fe5b9060200101907effffffffffffffffffffffffffffffffffffffffffffffffffffffffffffff1916908160001a905350600193506115ea565b60028751600202036040519080825280601f01601f1916602001820160405280156115e2578160200160208202803883390190505b509450600093505b5060ff83165b84518110156116515761160b8460ff16820360020188611bb3565b858281518110151561161957fe5b9060200101907effffffffffffffffffffffffffffffffffffffffffffffffffffffffffffff1916908160001a9053506001016115f0565b8495505b5050505050919050565b6020810151606090801515611673576116b3565b806040519080825280601f01601f1916602001820160405280156116a1578160200160208202803883390190505b5091506116b383600001518383611d09565b50919050565b60006116c482611d49565b92915050565b60606000806116d884611d9b565b15156116e357600080fd5b6116ec84611dc4565b604080518281527fffffffffffffffffffffffffffffffffffffffffffffffffffffffffffffffe0601f8401168101602001909152919350915081801561173d578160200160208202803883390190505b509250610dc4828483611d09565b60008060608060008061175d896114c2565b935083516040519080825280601f01601f19166020018201604052801561178e578160200160208202803883390190505b5092508691505b835187018210156118475787828151811015156117ae57fe5b9060200101517f010000000000000000000000000000000000000000000000000000000000000090047f0100000000000000000000000000000000000000000000000000000000000000029050808388840381518110151561180c57fe5b9060200101907effffffffffffffffffffffffffffffffffffffffffffffffffffffffffffff1916908160001a905350600190910190611795565b826040516020018082805190602001908083835b6020831061189857805182527fffffffffffffffffffffffffffffffffffffffffffffffffffffffffffffffe0909201916020918201910161185b565b6001836020036101000a0380198251168184511680821785525050505050509050019150506040516020818303038152906040526040518082805190602001908083835b6020831061191957805182527fffffffffffffffffffffffffffffffffffffffffffffffffffffffffffffffe090920191602091820191016118dc565b51815160209384036101000a7fffffffffffffffffffffffffffffffffffffffffffffffffffffffffffffffff01801990921691161790526040519190930181900381208951909550899450908301928392508401908083835b602083106119b057805182527fffffffffffffffffffffffffffffffffffffffffffffffffffffffffffffffe09092019160209182019101611973565b6001836020036101000a0380198251168184511680821785525050505050509050019150506040516020818303038152906040526040518082805190602001908083835b60208310611a3157805182527fffffffffffffffffffffffffffffffffffffffffffffffffffffffffffffffe090920191602091820191016119f4565b6001836020036101000a0380198251168184511680821785525050505050509050019150506040518091039020600019161415611a715783519450611a76565b600094505b5092979650505050505050565b600080826020015160001415611a9c57600091506116b3565b5050515160c060009190911a101590565b600080600080600080611abf87611a83565b1515611ace5760009550611655565b8651805160001a95509350611ae287611e41565b840192506001876020015185010391505b818311611b0f57611b0383611efd565b90920191600101611af3565b9695505050505050565b611b21612019565b6000611b2c83611a83565b1515611b3757600080fd5b611b4083611e41565b83519383529092016020820152919050565b6000611b5c612002565b50508051602080820151915192015191011190565b611b79612002565b600080611b8584611b52565b1561008d5783602001519150611b9a82611efd565b8284526020808501829052838201908601529050610dc4565b60006002830615611c515760108260028504815181101515611bd157fe5b9060200101517f010000000000000000000000000000000000000000000000000000000000000090047f0100000000000000000000000000000000000000000000000000000000000000027f0100000000000000000000000000000000000000000000000000000000000000900460ff16811515611c4b57fe5b06611ce0565b60108260028504815181101515611c6457fe5b9060200101517f010000000000000000000000000000000000000000000000000000000000000090047f0100000000000000000000000000000000000000000000000000000000000000027f0100000000000000000000000000000000000000000000000000000000000000900460ff16811515611cde57fe5b045b7f0100000000000000000000000000000000000000000000000000000000000000029392505050565b60006020601f83010484602085015b828414611d3657602084028281015190820152600190930192611d18565b6000865160200187015250505050505050565b6000806000611d5784611d9b565b1515611d6257600080fd5b611d6b84611dc4565b90925090506020811180611d7d575080155b15611d8757600080fd5b806020036101000a82510492505050919050565b600080826020015160001415611db457600091506116b3565b5050515160c060009190911a1090565b6000806000806000611dd586611d9b565b1515611de057600080fd5b8551805160001a935091506080831015611e005781945060019350611e39565b60b8831015611e1e5760018660200151039350816001019450611e39565b60b78303905080600187602001510303935080820160010194505b505050915091565b6000806000836020015160001415611e5c5760009250610dc4565b50508151805160001a906080821015611e785760009250610dc4565b60b8821080611e93575060c08210158015611e93575060f882105b15611ea15760019250610dc4565b60c0821015611ed4577fffffffffffffffffffffffffffffffffffffffffffffffffffffffffffffff4a82019250610dc4565b507fffffffffffffffffffffffffffffffffffffffffffffffffffffffffffffff0a0192915050565b8051600090811a6080811015611f1657600191506116b3565b60b8811015611f49577fffffffffffffffffffffffffffffffffffffffffffffffffffffffffffffff81810191506116b3565b60c0811015611f9057600183015160b76020839003016101000a900481017fffffffffffffffffffffffffffffffffffffffffffffffffffffffffffffff4a0191506116b3565b60f8811015611fc3577fffffffffffffffffffffffffffffffffffffffffffffffffffffffffffffff41810191506116b3565b6001929092015160f76020849003016101000a90049091017fffffffffffffffffffffffffffffffffffffffffffffffffffffffffffffff0a01919050565b604080518082019091526000808252602082015290565b60606040519081016040528061202d612002565b81526020016000815250905600a165627a7a723058201094a18b5d3d3080ab994a446a0cfcd35164693bba2bd9dae246663b0694f1f10029",
  "source": "pragma solidity ^0.4.19;\n\nimport \"./Libraries/MerklePatriciaProof.sol\";\n\nimport \"./Interfaces/ITrustAnchor.sol\";\nimport \"./Interfaces/ITrustAnchorStorage.sol\";\nimport \"./Interfaces/ICuratedBinding.sol\";\n\n//@note: This is the basis of the trust anchor interfaces that allow for a wallet like Jaxx\n// to connect with a third party supplying merkle headers (the \"Curated Binding\").\n\n// There are a few race conditions to be aware of:\n\n// 1: Users may not have gas of the proper type to perform consent transactions.\n// Resolution:\n//    We get around this by utilizing the power of the network inflation to fund\n//    wallets that don't have enough gas, through the binding process.\n//\n// 2: Curated bindings owners within the architecture may not have (any) available gas to migrate\n//    their users to Shyft.\n// Resolution:\n//    We get around this by designing the nodes themselves to know if a given binding attestation has\n//    occurred, and if not we have funded this contract with gas from the Shyft Conduit specifically\n//    for the purpose of allowing a \"system pays\" mechanism to repay the nodes for the work surrounding\n//    the attestation.\n\n// Further thoughts:\n//    We may need to integrate both Cache Graph compilation and RMT distribution within the attestation\n//    pipleline, and thus require more gas.\n\ncontract TrustAnchor_Generic is ITrustAnchor {\n\n    //@note: on the Shyft blockchain, this is funded by the Shyft inflation.\n    uint256 contractBalance;\n    uint256 minimumRequiredStake;\n\n    address owner = address(0);\n\n    // set up the base jurisdiction. Use the upper end of the addressable jurisdiction space\n    // (a 16 bit int) as the \"extended mode\"; 2^15 = 32768, + offset.\n    uint16 ta_jurisdiction = extendedJurisdiction + 1;\n\n\n    mapping (bytes32 => address) bindingKeccakToIdentifiedAddress;\n\n    //set up addresses to be linked after deployment.\n    address trustAnchorStorageAddress;\n    address curatedBindingAddress = address(0);\n    bytes32 availabilityAddressEncrypted = 0;\n\n    uint256 consentTransactionCost = 0;\n\n    //@note:@todo:@next:@audit: should this contract have \"Administrable\" style multisig involved for the setting\n    // of the contract relationships?\n\n    function isOwner() internal view returns (bool result) {\n        if (msg.sender == owner) {\n            //is owner\n            return true;\n        } else {\n            //not owner\n            return false;\n        }\n    }\n\n    //returns:\n    // 0 = not owner\n    // 1 = set trustAnchorStorage\n\n    function setTrustAnchorStorageAddress(address _trustAnchorStorageAddress) public returns (uint8 result) {\n        if (isOwner()) {\n            require(_trustAnchorStorageAddress != address(0));\n\n            //@note:@todo:@next:@audit: what happens to the existing attestations when we change these relationships?\n            // example: 1) should they all be revoked?\n            //  or 2) should all of their consent be revoked?\n            //  etc.\n            trustAnchorStorageAddress = _trustAnchorStorageAddress;\n\n            //set trustAnchorStorageAddress\n            return 1;\n        } else {\n            //not owner\n            return 0;\n        }\n    }\n\n    //returns:\n    // 0 = not owner\n    // 1 = set curatedBindingAddress\n\n    //@note:@todo:@next:@audit: should this be able to be changed?\n\n    function setCuratedBindingAddress(address _curatedBindingAddress) public returns (uint8 result) {\n        if (isOwner()) {\n            require(_curatedBindingAddress != address(0));\n\n            curatedBindingAddress  = _curatedBindingAddress;\n\n            //set curatedBindingAddress\n            return 1;\n        } else {\n            //not owner\n            return 0;\n        }\n    }\n\n    function setConsentTransactionCost(uint256 _consentTransactionCost) public {\n        if (isOwner()) {\n            consentTransactionCost = _consentTransactionCost;\n        }\n    }\n\n    //setting the encrypted version of this address\n    function setAvailabilityAddressEncrypted(bytes32 _availabilityAddressEncrypted) public {\n        if (isOwner()) {\n            availabilityAddressEncrypted = _availabilityAddressEncrypted;\n        }\n    }\n\n    //@note: within the constructor, set the minimum stake required such that the Shyft Conduit can\n    // be able to know how much to replete for this contract if it's running low on gas to return to\n    // benevolent Shyft nodes that have helped with the onboarding.\n\n    constructor(uint256 _minimumRequiredStake) {\n        owner = msg.sender;\n\n        //flag that extended mode for jurisdiction is true.\n        extendedModeJurisdiction = true;\n\n        minimumRequiredStake = _minimumRequiredStake;\n    }\n\n\n\n    //@note:@todo:@next: convenience function required to do web3 check for binding not being processed.\n\n    //returns:\n    // 0 = proof does not exist.\n    // 1 = proof exists.\n\n    function getProofExists(bytes32 bindingKeccak) external returns (uint8 result) {\n        if (bindingKeccakToIdentifiedAddress[bindingKeccak] != address(0)) {\n            //proof exists.\n            return 1;\n        } else {\n            //proof does not exist.\n            return 0;\n        }\n    }\n\n    //returns:\n    // 0 = required external interfaces not set up properly\n    // 1 = header doesn't match\n    // 2 = proof passes check\n\n    function getProofPassesExternal(bytes _value,\n                            bytes _encodedPath,\n                            bytes _rlpParentNodes,\n                            bytes32 _headerKeccak) public returns (uint8 result) {\n\n        if (trustAnchorStorageAddress != address(0) && curatedBindingAddress != address(0)) {\n            ICuratedBinding curatedBinding = ICuratedBinding(curatedBindingAddress);\n\n            bytes32 bindingKeccak = keccak256(abi.encodePacked(_value, _headerKeccak));\n\n            bytes32 merkleHeader = curatedBinding.getMerkleRootFromHeader(_headerKeccak);\n\n            // check the proof against the merkle header\n            if (checkProof(_value, _encodedPath, _rlpParentNodes, merkleHeader) == true) {\n                //proof passes check\n                return 2;\n            } else {\n                //header doesn't match\n                return 1;\n            }\n        } else {\n            //required external interfaces not set up properly\n            return 0;\n        }\n    }\n\n    //returns:\n    // 0 = required external interfaces not set up properly\n    // 1 = header doesn't match\n    // 2 = proof passes check\n\n    function getProofPassesInternal(bytes _value,\n                                    bytes _encodedPath,\n                                    bytes _rlpParentNodes,\n                                    bytes32 _headerKeccak) internal returns (uint8 result) {\n\n        if (trustAnchorStorageAddress != address(0) && curatedBindingAddress != address(0)) {\n            ICuratedBinding curatedBinding = ICuratedBinding(curatedBindingAddress);\n\n            //@note: don't involve the _identifiedAddress in the check, since a proof can only\n            // be bound once in any case.\n\n            bytes32 bindingKeccak = keccak256(abi.encodePacked(_value, _headerKeccak));\n\n            bytes32 merkleHeader = curatedBinding.getMerkleRootFromHeader(_headerKeccak);\n\n            // check the proof against the merkle header\n            if (checkProof(_value, _encodedPath, _rlpParentNodes, merkleHeader) == true) {\n                //proof passes check\n                return 2;\n            } else {\n                //invalid proof\n                return 1;\n            }\n        } else {\n            //required external interfaces not set up properly\n            return 0;\n        }\n    }\n\n    //@note: This function attests on a user's behalf. It is gas-neutral, with a return of gas to\n    // the caller.\n\n    //@note:@todo: check for gas?\n\n    //returns:\n    // 0 = required external interfaces not set up properly\n    // 1 = proof doesn't pass check\n    // 2 = address has already been bound to this binding keccak\n    // 3 = properly set attestation, bound to address\n\n    function proveForIdentifiedAddress( address _identifiedAddress,\n                                        bytes _value,\n                                        bytes _encodedPath,\n                                        bytes _rlpParentNodes,\n                                        bytes32 _headerKeccak) public returns (uint8 result) {\n        if (trustAnchorStorageAddress != address(0)) {\n            if (getProofPassesInternal(_value, _encodedPath, _rlpParentNodes, _headerKeccak) == 2) {\n                ITrustAnchorStorage trustAnchorStorage = ITrustAnchorStorage(trustAnchorStorageAddress);\n                ICuratedBinding curatedBinding = ICuratedBinding(curatedBindingAddress);\n\n                //@note: don't involve the _identifiedAddress in the check, since a proof can only\n                // be bound once in any case.\n\n                bytes32 bindingKeccak = keccak256(abi.encodePacked(_value, _headerKeccak));\n\n                // make sure this proof can only be bound once.\n                if (bindingKeccakToIdentifiedAddress[bindingKeccak] == address(0)) {\n                    // get the merkle header, and the channel form from the curated binding contract.\n                    bytes32 merkleHeader = curatedBinding.getMerkleRootFromHeader(_headerKeccak);\n                    uint256 channelForm = curatedBinding.getChannelFormFromHeader(_headerKeccak);\n\n                    bytes memory publicData = hex\"ff\";\n                    bytes memory documentsMatrixEncrypted = hex\"ff\";\n                    bytes32 attestationAvailabilityAddressEncrypted = availabilityAddressEncrypted;\n\n                    // sets the attestation as coming from this source\n                    trustAnchorStorage.setAttestation(  _identifiedAddress,\n                                                        ta_jurisdiction,\n                                                        0,\n                                                        (2**64 - 1),\n                                                        publicData,\n                                                        documentsMatrixEncrypted,\n                                                        attestationAvailabilityAddressEncrypted,\n                                                        false);\n\n                    bindingKeccakToIdentifiedAddress[bindingKeccak] = msg.sender;\n\n                    //@note:@here:@audit: confirm this is safe for re-entry given that the bindingKeccakToIdentifiedAddress is\n                    // set just above, and checked preceding that.\n                    addGasToIdentifiedAddressIfNecessary(_identifiedAddress);\n\n                    //properly set attestation, bound to address\n                    return 3;\n                } else {\n                    //address has already been bound to this binding keccak\n                    return 2;\n                }\n            } else {\n                //proof doesn't pass check\n                return 1;\n            }\n        } else {\n            //required external interfaces not set up properly\n            return 0;\n        }\n    }\n\n    //@note:@here:@critical:@audit: could someone game the system and withdraw the 3x consent gas,\n    // then immediately onboard again, and so on? Maybe it's fine to do so, since each onboarding would\n    // require a consent message to be sent anyhow.\n\n    //returns:\n    // 0 = no need to add gas\n    // 1 = added gas\n\n    function addGasToIdentifiedAddressIfNecessary(address _identifiedAddress) internal returns (uint8 result) {\n        uint256 consentAllowance = consentTransactionCost * 3;\n\n        // skip function if consentTransactionCost is set to zero.\n        if (consentTransactionCost == 0 || _identifiedAddress.balance < consentAllowance) {\n            uint256 gasRequired = consentAllowance - _identifiedAddress.balance;\n\n            _identifiedAddress.transfer(gasRequired);\n\n            //added gas\n            return 1;\n        } else {\n            //no need to add gas\n            return 0;\n        }\n    }\n\n\n    //@note:@todo:@next: fill out these stubs.\n    //@note: this function is able to be called publicly given the distributed\n    //\n\n    function revokeProof() public returns (uint8 result) {\n        return 0;\n    }\n\n    //returns:\n    // false = invalid proof\n    // true = valid proof\n\n    function checkProof(bytes _value, bytes _encodedPath, bytes _rlpParentNodes, bytes32 _root) internal returns (bool success) {\n        if (MerklePatriciaProof.verify(_value, _encodedPath, _rlpParentNodes, _root) == true) {\n            //valid proof\n            return true;\n        } else {\n            //invalid proof\n            return false;\n        }\n    }\n}\n",
  "sourcePath": "/Users/jaypersanchez/shyft_shyftcorecontracts/contracts/TrustAnchor_Generic.sol",
  "compiler": {
    "name": "solc",
    "version": "0.4.28+commit.2fcccea1.Emscripten.clang"
  },
  "schemaVersion": "2.0.3",
  "updatedAt": "2019-02-14T05:20:14.599Z"
}