{
  "contractName": "TrustAnchorStorage",
  "abi": [
    {
      "constant": false,
      "inputs": [
        {
          "name": "_newAdministratorAddress",
          "type": "address"
        }
      ],
      "name": "setPrimaryAdministrator",
      "outputs": [
        {
          "name": "result",
          "type": "uint8"
        }
      ],
      "payable": false,
      "stateMutability": "nonpayable",
      "type": "function"
    },
    {
      "constant": true,
      "inputs": [
        {
          "name": "_administratorAddress",
          "type": "address"
        }
      ],
      "name": "isAdministrator",
      "outputs": [
        {
          "name": "result",
          "type": "bool"
        }
      ],
      "payable": false,
      "stateMutability": "view",
      "type": "function"
    },
    {
      "constant": false,
      "inputs": [
        {
          "name": "_revokeAdministratorAddress",
          "type": "address"
        }
      ],
      "name": "revokeAdministrator",
      "outputs": [
        {
          "name": "result",
          "type": "uint8"
        }
      ],
      "payable": false,
      "stateMutability": "nonpayable",
      "type": "function"
    },
    {
      "constant": true,
      "inputs": [],
      "name": "getUserDefinedMaxAdministrator",
      "outputs": [
        {
          "name": "",
          "type": "uint8"
        }
      ],
      "payable": false,
      "stateMutability": "view",
      "type": "function"
    },
    {
      "constant": true,
      "inputs": [],
      "name": "getMsgSender",
      "outputs": [
        {
          "name": "",
          "type": "address"
        }
      ],
      "payable": false,
      "stateMutability": "view",
      "type": "function"
    },
    {
      "constant": true,
      "inputs": [],
      "name": "owner",
      "outputs": [
        {
          "name": "",
          "type": "address"
        }
      ],
      "payable": false,
      "stateMutability": "view",
      "type": "function"
    },
    {
      "constant": false,
      "inputs": [
        {
          "name": "_administratorAddress",
          "type": "address"
        }
      ],
      "name": "getAdminAccessValue",
      "outputs": [
        {
          "name": "_access",
          "type": "uint256"
        }
      ],
      "payable": false,
      "stateMutability": "nonpayable",
      "type": "function"
    },
    {
      "constant": true,
      "inputs": [],
      "name": "getUserDefinedMaxThreshold",
      "outputs": [
        {
          "name": "",
          "type": "uint8"
        }
      ],
      "payable": false,
      "stateMutability": "view",
      "type": "function"
    },
    {
      "constant": false,
      "inputs": [
        {
          "name": "_newAdministratorAddress",
          "type": "address"
        }
      ],
      "name": "setAdministrator",
      "outputs": [
        {
          "name": "result",
          "type": "uint8"
        }
      ],
      "payable": false,
      "stateMutability": "nonpayable",
      "type": "function"
    },
    {
      "constant": false,
      "inputs": [
        {
          "name": "_valueThreshold",
          "type": "uint8"
        }
      ],
      "name": "changeCurrentThreshold",
      "outputs": [
        {
          "name": "result",
          "type": "uint8"
        }
      ],
      "payable": false,
      "stateMutability": "nonpayable",
      "type": "function"
    },
    {
      "constant": false,
      "inputs": [
        {
          "name": "_valueThreshold",
          "type": "uint8"
        }
      ],
      "name": "changeCurrentAdminThreshold",
      "outputs": [
        {
          "name": "result",
          "type": "uint8"
        }
      ],
      "payable": false,
      "stateMutability": "nonpayable",
      "type": "function"
    },
    {
      "inputs": [],
      "payable": false,
      "stateMutability": "nonpayable",
      "type": "constructor"
    },
    {
      "anonymous": false,
      "inputs": [
        {
          "indexed": false,
          "name": "bitFieldWords",
          "type": "uint32"
        }
      ],
      "name": "EVT_TrustChannelBitFieldWords",
      "type": "event"
    },
    {
      "anonymous": false,
      "inputs": [
        {
          "indexed": false,
          "name": "trustChannelIndex",
          "type": "uint16"
        }
      ],
      "name": "EVT_TrustChannelBitFieldIndex",
      "type": "event"
    },
    {
      "anonymous": false,
      "inputs": [
        {
          "indexed": false,
          "name": "index",
          "type": "uint32"
        },
        {
          "indexed": false,
          "name": "shifter",
          "type": "uint32"
        },
        {
          "indexed": false,
          "name": "trustChannelBitFieldWord",
          "type": "uint32"
        },
        {
          "indexed": false,
          "name": "trustChannelBitField",
          "type": "uint256"
        },
        {
          "indexed": false,
          "name": "trustChannelIndex",
          "type": "uint16"
        }
      ],
      "name": "EVT_TrustChannelBitFieldIndexEXT",
      "type": "event"
    },
    {
      "anonymous": false,
      "inputs": [
        {
          "indexed": false,
          "name": "senderHighestSubmapNumber",
          "type": "uint24"
        },
        {
          "indexed": false,
          "name": "receiverHighestSubmapNumber",
          "type": "uint24"
        }
      ],
      "name": "EVT_GotHighestSubmapNumbers",
      "type": "event"
    },
    {
      "anonymous": false,
      "inputs": [
        {
          "indexed": false,
          "name": "lowestTrustChannelSubmapNumber",
          "type": "uint24"
        },
        {
          "indexed": false,
          "name": "highestTrustChannelSubmapNumber",
          "type": "uint24"
        }
      ],
      "name": "EVT_GotLowestAndHighestTrustChannelSubmapNumber",
      "type": "event"
    },
    {
      "anonymous": false,
      "inputs": [
        {
          "indexed": false,
          "name": "trustChannelIndex",
          "type": "uint24"
        },
        {
          "indexed": false,
          "name": "_senderIdentifiedAddress",
          "type": "address"
        },
        {
          "indexed": false,
          "name": "_receiverIdentifiedAddress",
          "type": "address"
        }
      ],
      "name": "EVT_TrustChannelRouted",
      "type": "event"
    },
    {
      "anonymous": false,
      "inputs": [
        {
          "indexed": false,
          "name": "attestationKeccak",
          "type": "bytes32"
        },
        {
          "indexed": false,
          "name": "msg_sender",
          "type": "address"
        },
        {
          "indexed": false,
          "name": "_identifiedAddress",
          "type": "address"
        },
        {
          "indexed": false,
          "name": "_jurisdiction",
          "type": "uint16"
        },
        {
          "indexed": false,
          "name": "_effectiveTime",
          "type": "uint256"
        },
        {
          "indexed": false,
          "name": "_expiryTime",
          "type": "uint256"
        },
        {
          "indexed": false,
          "name": "_publicData_0",
          "type": "bytes32"
        },
        {
          "indexed": false,
          "name": "_documentsEncrypted_0",
          "type": "bytes32"
        },
        {
          "indexed": false,
          "name": "_documentAvailabilityEncrypted",
          "type": "bytes32"
        }
      ],
      "name": "EVT_setAttestation",
      "type": "event"
    },
    {
      "anonymous": false,
      "inputs": [
        {
          "indexed": false,
          "name": "_attestationKeccak",
          "type": "bytes32"
        }
      ],
      "name": "EVT_REQ_revokeAttestation",
      "type": "event"
    },
    {
      "anonymous": false,
      "inputs": [
        {
          "indexed": false,
          "name": "_attestationKeccak",
          "type": "bytes32"
        },
        {
          "indexed": false,
          "name": "trustAnchorAddress",
          "type": "address"
        },
        {
          "indexed": false,
          "name": "keccakArrayIndex",
          "type": "uint16"
        }
      ],
      "name": "EVT_revokeAttestation",
      "type": "event"
    },
    {
      "anonymous": false,
      "inputs": [
        {
          "indexed": false,
          "name": "shyftCacheGraphAddress",
          "type": "address"
        }
      ],
      "name": "EVT_revokeAttestationDoRecompile",
      "type": "event"
    },
    {
      "constant": false,
      "inputs": [
        {
          "name": "_trustAnchorManagerAddress",
          "type": "address"
        }
      ],
      "name": "setTrustAnchorManagerAddress",
      "outputs": [
        {
          "name": "result",
          "type": "uint8"
        }
      ],
      "payable": false,
      "stateMutability": "nonpayable",
      "type": "function"
    },
    {
      "constant": false,
      "inputs": [
        {
          "name": "_shyftCacheGraphAddress",
          "type": "address"
        }
      ],
      "name": "setShyftCacheGraphAddress",
      "outputs": [
        {
          "name": "result",
          "type": "uint8"
        }
      ],
      "payable": false,
      "stateMutability": "nonpayable",
      "type": "function"
    },
    {
      "constant": true,
      "inputs": [],
      "name": "getTrustAnchorManagerAddress",
      "outputs": [
        {
          "name": "result",
          "type": "address"
        }
      ],
      "payable": false,
      "stateMutability": "view",
      "type": "function"
    },
    {
      "constant": false,
      "inputs": [
        {
          "name": "_identifiedAddress",
          "type": "address"
        },
        {
          "name": "_jurisdiction",
          "type": "uint16"
        },
        {
          "name": "_effectiveTime",
          "type": "uint64"
        },
        {
          "name": "_expiryTime",
          "type": "uint64"
        },
        {
          "name": "_publicData",
          "type": "bytes"
        },
        {
          "name": "_documentsEncrypted",
          "type": "bytes"
        },
        {
          "name": "_documentAvailabilityEncrypted",
          "type": "bytes32"
        }
      ],
      "name": "setAttestation",
      "outputs": [
        {
          "name": "result",
          "type": "uint8"
        }
      ],
      "payable": false,
      "stateMutability": "nonpayable",
      "type": "function"
    },
    {
      "constant": false,
      "inputs": [
        {
          "name": "_attestationKeccak",
          "type": "bytes32"
        },
        {
          "name": "_attestationValidityTrustAnchorSignatureV",
          "type": "uint8"
        },
        {
          "name": "_attestationValidityTrustAnchorSignatureRS",
          "type": "bytes32[2]"
        }
      ],
      "name": "signAttestationTrustAnchorSignature",
      "outputs": [
        {
          "name": "result",
          "type": "uint8"
        }
      ],
      "payable": false,
      "stateMutability": "nonpayable",
      "type": "function"
    },
    {
      "constant": false,
      "inputs": [
        {
          "name": "_attestationKeccak",
          "type": "bytes32"
        },
        {
          "name": "_attestationValidityUserSignatureV",
          "type": "uint8"
        },
        {
          "name": "_attestationValidityUserSignatureRS",
          "type": "bytes32[2]"
        }
      ],
      "name": "signAttestationUserSignature",
      "outputs": [
        {
          "name": "result",
          "type": "uint8"
        }
      ],
      "payable": false,
      "stateMutability": "nonpayable",
      "type": "function"
    },
    {
      "constant": false,
      "inputs": [
        {
          "name": "_attestationKeccak",
          "type": "bytes32"
        }
      ],
      "name": "revokeAttestation",
      "outputs": [
        {
          "name": "result",
          "type": "uint8"
        }
      ],
      "payable": false,
      "stateMutability": "nonpayable",
      "type": "function"
    },
    {
      "constant": false,
      "inputs": [
        {
          "name": "_attestationKeccak",
          "type": "bytes32"
        },
        {
          "name": "_dataRetrievalTarget",
          "type": "address"
        }
      ],
      "name": "addDataRetrievalTarget",
      "outputs": [
        {
          "name": "result",
          "type": "uint8"
        }
      ],
      "payable": false,
      "stateMutability": "nonpayable",
      "type": "function"
    },
    {
      "constant": false,
      "inputs": [
        {
          "name": "_attestationKeccak",
          "type": "bytes32"
        }
      ],
      "name": "dataRetrievalEntityValidateAttestation",
      "outputs": [
        {
          "name": "result",
          "type": "uint8"
        }
      ],
      "payable": false,
      "stateMutability": "nonpayable",
      "type": "function"
    },
    {
      "constant": true,
      "inputs": [
        {
          "name": "_identifiedAddress",
          "type": "address"
        }
      ],
      "name": "getAttestationKeccakArrayLengthForIdentifiedAddress",
      "outputs": [
        {
          "name": "keccakArrayLength",
          "type": "uint16"
        }
      ],
      "payable": false,
      "stateMutability": "view",
      "type": "function"
    },
    {
      "constant": true,
      "inputs": [
        {
          "name": "_attestationKeccak",
          "type": "bytes32"
        }
      ],
      "name": "getAttestationTrustAnchorAddress",
      "outputs": [
        {
          "name": "trustAnchorAddress",
          "type": "address"
        }
      ],
      "payable": false,
      "stateMutability": "view",
      "type": "function"
    },
    {
      "constant": true,
      "inputs": [
        {
          "name": "_attestationKeccak",
          "type": "bytes32"
        }
      ],
      "name": "getAttestationTrustAnchorIndex",
      "outputs": [
        {
          "name": "trustAnchorIndex",
          "type": "uint32"
        }
      ],
      "payable": false,
      "stateMutability": "view",
      "type": "function"
    },
    {
      "constant": true,
      "inputs": [
        {
          "name": "_identifiedAddress",
          "type": "address"
        }
      ],
      "name": "getAttestationKeccakArrayForIdentifiedAddress",
      "outputs": [
        {
          "name": "keccakArray",
          "type": "bytes32[]"
        }
      ],
      "payable": false,
      "stateMutability": "view",
      "type": "function"
    },
    {
      "constant": true,
      "inputs": [
        {
          "name": "_identifiedAddress",
          "type": "address"
        },
        {
          "name": "_index",
          "type": "uint16"
        }
      ],
      "name": "getIndexedAttestationKeccakHashForIdentifiedUser",
      "outputs": [
        {
          "name": "keccakHash",
          "type": "bytes32"
        }
      ],
      "payable": false,
      "stateMutability": "view",
      "type": "function"
    },
    {
      "constant": true,
      "inputs": [
        {
          "name": "_identifiedAddress",
          "type": "address"
        },
        {
          "name": "_index",
          "type": "uint16"
        }
      ],
      "name": "getIndexedAttestationJurisdictionForIdentifiedUser",
      "outputs": [
        {
          "name": "jurisdiction",
          "type": "uint16"
        }
      ],
      "payable": false,
      "stateMutability": "view",
      "type": "function"
    },
    {
      "constant": true,
      "inputs": [
        {
          "name": "_identifiedAddress",
          "type": "address"
        },
        {
          "name": "_index",
          "type": "uint16"
        }
      ],
      "name": "getIndexedAttestationEffectiveTimeForIdentifiedUser",
      "outputs": [
        {
          "name": "effectiveTime",
          "type": "uint256"
        }
      ],
      "payable": false,
      "stateMutability": "view",
      "type": "function"
    },
    {
      "constant": true,
      "inputs": [
        {
          "name": "_identifiedAddress",
          "type": "address"
        },
        {
          "name": "_index",
          "type": "uint16"
        }
      ],
      "name": "getIndexedAttestationExpiryTimeForIdentifiedUser",
      "outputs": [
        {
          "name": "expiryTime",
          "type": "uint256"
        }
      ],
      "payable": false,
      "stateMutability": "view",
      "type": "function"
    },
    {
      "constant": true,
      "inputs": [
        {
          "name": "_identifiedAddress",
          "type": "address"
        },
        {
          "name": "_index",
          "type": "uint16"
        }
      ],
      "name": "getIndexedAttestationDocumentAvailabilityEncryptedForIdentifiedUser",
      "outputs": [
        {
          "name": "documentAvailabilityEncrypted",
          "type": "bytes32"
        }
      ],
      "payable": false,
      "stateMutability": "view",
      "type": "function"
    },
    {
      "constant": true,
      "inputs": [
        {
          "name": "_identifiedAddress",
          "type": "address"
        },
        {
          "name": "_index",
          "type": "uint16"
        }
      ],
      "name": "getGraphConstructableAttestationInKeccakArray",
      "outputs": [
        {
          "name": "keccakHash",
          "type": "bytes32"
        },
        {
          "name": "trustAnchorIndex",
          "type": "uint32"
        },
        {
          "name": "jurisdiction",
          "type": "uint16"
        },
        {
          "name": "attestationStatusApproved",
          "type": "bool"
        }
      ],
      "payable": false,
      "stateMutability": "view",
      "type": "function"
    },
    {
      "constant": true,
      "inputs": [
        {
          "name": "_identifiedAddress",
          "type": "address"
        },
        {
          "name": "_index",
          "type": "uint16"
        }
      ],
      "name": "getAttestationStatusApprovedInKeccakArray",
      "outputs": [
        {
          "name": "attestationStatusApproved",
          "type": "bool"
        }
      ],
      "payable": false,
      "stateMutability": "view",
      "type": "function"
    },
    {
      "constant": true,
      "inputs": [
        {
          "name": "_identifiedAddress",
          "type": "address"
        },
        {
          "name": "_index",
          "type": "uint16"
        }
      ],
      "name": "getConsentAvailableInKeccakArray",
      "outputs": [
        {
          "name": "consentAvailable",
          "type": "uint8"
        }
      ],
      "payable": false,
      "stateMutability": "view",
      "type": "function"
    },
    {
      "constant": true,
      "inputs": [
        {
          "name": "_identifiedAddress",
          "type": "address"
        },
        {
          "name": "_index",
          "type": "uint16"
        }
      ],
      "name": "getTrustAnchorAddressInKeccakArray",
      "outputs": [
        {
          "name": "trustAnchorAddress",
          "type": "address"
        }
      ],
      "payable": false,
      "stateMutability": "view",
      "type": "function"
    },
    {
      "constant": true,
      "inputs": [
        {
          "name": "_identifiedAddress",
          "type": "address"
        },
        {
          "name": "_index",
          "type": "uint16"
        }
      ],
      "name": "getAttestationValiditySignaturesInKeccakArray",
      "outputs": [
        {
          "name": "validityTrustAnchorSignatureV",
          "type": "uint8"
        },
        {
          "name": "validityTrustSignatureRS",
          "type": "bytes32[2]"
        },
        {
          "name": "validityUserSignatureV",
          "type": "uint8"
        },
        {
          "name": "validityUserSignatureRS",
          "type": "bytes32[2]"
        }
      ],
      "payable": false,
      "stateMutability": "view",
      "type": "function"
    },
    {
      "constant": true,
      "inputs": [
        {
          "name": "_identifiedAddress",
          "type": "address"
        },
        {
          "name": "_index",
          "type": "uint16"
        }
      ],
      "name": "getAttestationValidationsArrayLengthInKeccakArray",
      "outputs": [
        {
          "name": "arrayLength",
          "type": "uint16"
        }
      ],
      "payable": false,
      "stateMutability": "view",
      "type": "function"
    },
    {
      "constant": true,
      "inputs": [
        {
          "name": "_identifiedAddress",
          "type": "address"
        },
        {
          "name": "_index",
          "type": "uint16"
        }
      ],
      "name": "getAttestationDataRetrievalsArrayLengthInKeccakArray",
      "outputs": [
        {
          "name": "arrayLength",
          "type": "uint16"
        }
      ],
      "payable": false,
      "stateMutability": "view",
      "type": "function"
    }
  ],
  "bytecode": "0x608060405260008054600760ff199091161761ff001916610200179055600b8054600160a060020a0319908116909155600c8054909116905534801561004457600080fd5b50600080546201000033026201000060b060020a03199091161790556134c78061006f6000396000f3006080604052600436106101c15763ffffffff7c0100000000000000000000000000000000000000000000000000000000600035041663063668c881146101c6578063064ad7c2146102265780630a2eb3011461025457806310ccdd8814610296578063160abcac146103145780632192ca121461034257806324150c2914610377578063363e8af6146103a85780633816d032146103f25780633bb03d69146104235780634402bba31461048157806347c8c172146104af5780634ce72a13146104fb5780634d5e1da614610530578063589044631461054857806374534fb2146105ad57806376106e5e146105c25780637a6ce2e1146105f75780637f639be41461060c5780637fd463ca1461064157806383eef8201461066f57806388316f49146106b65780638da5cb5b146106eb578063951538c914610700578063b7500ac314610735578063ba0d746f1461074d578063bd36590c14610765578063d2631b451461077a578063d511c463146107a8578063d534d027146107bd578063df8089ef146107eb578063e484a38d14610819578063e8de4baf14610834578063f167e57714610908578063f4bbdfb71461093d578063fba7fd78146109ea575b600080fd5b3480156101d257600080fd5b5060408051808201825261021091600480359260ff6024351692369291608491604490600290839083908082843750939650610a0595505050505050565b6040805160ff9092168252519081900360200190f35b34801561023257600080fd5b5061021073ffffffffffffffffffffffffffffffffffffffff60043516610c8d565b34801561026057600080fd5b5061028273ffffffffffffffffffffffffffffffffffffffff60043516610d67565b604080519115158252519081900360200190f35b3480156102a257600080fd5b506102c473ffffffffffffffffffffffffffffffffffffffff60043516610daf565b60408051602080825283518183015283519192839290830191858101910280838360005b838110156103005781810151838201526020016102e8565b505050509050019250505060405180910390f35b34801561032057600080fd5b5061021073ffffffffffffffffffffffffffffffffffffffff60043516610e29565b34801561034e57600080fd5b5061021073ffffffffffffffffffffffffffffffffffffffff6004351661ffff6024351661100a565b34801561038357600080fd5b5061021060043573ffffffffffffffffffffffffffffffffffffffff602435166110ae565b3480156103b457600080fd5b5060408051808201825261021091600480359260ff60243516923692916084916044906002908390839080828437509396506111d595505050505050565b3480156103fe57600080fd5b5061040a6004356113f4565b6040805163ffffffff9092168252519081900360200190f35b34801561042f57600080fd5b5061045873ffffffffffffffffffffffffffffffffffffffff6004351661ffff60243516611427565b6040805173ffffffffffffffffffffffffffffffffffffffff9092168252519081900360200190f35b34801561048d57600080fd5b5061021073ffffffffffffffffffffffffffffffffffffffff600435166114ce565b3480156104bb57600080fd5b506104e473ffffffffffffffffffffffffffffffffffffffff6004351661ffff602435166116c9565b6040805161ffff9092168252519081900360200190f35b34801561050757600080fd5b506104e473ffffffffffffffffffffffffffffffffffffffff6004351661ffff6024351661172a565b34801561053c57600080fd5b506102106004356117d8565b34801561055457600080fd5b5061057d73ffffffffffffffffffffffffffffffffffffffff6004351661ffff60243516611a22565b6040805194855263ffffffff909316602085015261ffff9091168383015215156060830152519081900360800190f35b3480156105b957600080fd5b50610210611ac5565b3480156105ce57600080fd5b5061028273ffffffffffffffffffffffffffffffffffffffff6004351661ffff60243516611acf565b34801561060357600080fd5b50610458611b60565b34801561061857600080fd5b506104e473ffffffffffffffffffffffffffffffffffffffff6004351661ffff60243516611b64565b34801561064d57600080fd5b506104e473ffffffffffffffffffffffffffffffffffffffff60043516611bc5565b34801561067b57600080fd5b506106a473ffffffffffffffffffffffffffffffffffffffff6004351661ffff60243516611bed565b60408051918252519081900360200190f35b3480156106c257600080fd5b506106a473ffffffffffffffffffffffffffffffffffffffff6004351661ffff60243516611c88565b3480156106f757600080fd5b50610458611ce9565b34801561070c57600080fd5b506106a473ffffffffffffffffffffffffffffffffffffffff6004351661ffff60243516611d0b565b34801561074157600080fd5b50610458600435611dc1565b34801561075957600080fd5b50610210600435611dec565b34801561077157600080fd5b50610458611edd565b34801561078657600080fd5b506106a473ffffffffffffffffffffffffffffffffffffffff60043516611ef9565b3480156107b457600080fd5b50610210611f2e565b3480156107c957600080fd5b5061021073ffffffffffffffffffffffffffffffffffffffff60043516611f3c565b3480156107f757600080fd5b5061021073ffffffffffffffffffffffffffffffffffffffff600435166120fc565b34801561082557600080fd5b5061021060ff6004351661219d565b34801561084057600080fd5b50604080516020600460843581810135601f810184900484028501840190955284845261021094823573ffffffffffffffffffffffffffffffffffffffff16946024803561ffff169560443567ffffffffffffffff90811696606435909116953695919460a494909391019190819084018382808284375050604080516020601f89358b018035918201839004830284018301909452808352979a99988101979196509182019450925082915084018382808284375094975050933594506122019350505050565b34801561091457600080fd5b506106a473ffffffffffffffffffffffffffffffffffffffff6004351661ffff60243516612dbf565b34801561094957600080fd5b5061097273ffffffffffffffffffffffffffffffffffffffff6004351661ffff60243516612e3f565b6040805160ff86168152906020820190859080838360005b838110156109a257818101518382015260200161098a565b5050505060ff861692019182525060200182604080838360005b838110156109d45781810151838201526020016109bc565b5050505090500194505050505060405180910390f35b3480156109f657600080fd5b5061021060ff60043516612f3c565b600083815260066020526040812060028101548290819073ffffffffffffffffffffffffffffffffffffffff16331415610c7e57600883015415610c75576040805160208082018a90526c0100000000000000000000000033028284015282516034818403018152605490920192839052815191929182918401908083835b60208310610ac157805182527fffffffffffffffffffffffffffffffffffffffffffffffffffffffffffffffe09092019160209182019101610a84565b5181516020939093036101000a7fffffffffffffffffffffffffffffffffffffffffffffffffffffffffffffffff018019909116921691909117905260405192018290039091209450600192508491508890508760006020020151886001602090810291909101516040805160008082528185018084529790975260ff9095168582015260608501939093526080840152905160a08084019492937fffffffffffffffffffffffffffffffffffffffffffffffffffffffffffffffe0830193908390039091019190865af1158015610b9d573d6000803e3d6000fd5b50506040517fffffffffffffffffffffffffffffffffffffffffffffffffffffffffffffffe0015191505073ffffffffffffffffffffffffffffffffffffffff8116331415610c6c57600a830180547fffffffffffffffffffffffffffffffffffffffffffffffffffffffffffffff001660ff8816179055610c246008840186600261338f565b50600d8301805460ff6101008083048216600101909116027fffffffffffffffffffffffffffffffffffffffffffffffffffffffffffff00ff90911617905560039350610c83565b60029350610c83565b60019350610c83565b600093505b5050509392505050565b6000805462010000900473ffffffffffffffffffffffffffffffffffffffff16331415610d5e5760035460ff161515610d515773ffffffffffffffffffffffffffffffffffffffff821660009081526002602052604090208054600191907fffffffffffffffffffffffffffffffffffffffffffffffffffffffffffffff001682805b0217905550506003805460ff808216600101167fffffffffffffffffffffffffffffffffffffffffffffffffffffffffffffff009091161790556002610d62565b506001610d62565b610d62565b5060005b919050565b6000600173ffffffffffffffffffffffffffffffffffffffff831660009081526002602081905260409091205460ff1690811115610da157fe5b1415610d5e57506001610d62565b73ffffffffffffffffffffffffffffffffffffffff8116600090815260096020908152604091829020805483518184028101840190945280845260609392830182828015610e1d57602002820191906000526020600020905b81548152600190910190602001808311610e08575b50505050509050919050565b60008080808073ffffffffffffffffffffffffffffffffffffffff86161515610e5157600080fd5b610e5a33610d67565b15610ffc57604080517f73687966744361636865477261706841646472657373000000000000000000006020808301919091526c0100000000000000000000000073ffffffffffffffffffffffffffffffffffffffff8a160260368301528251602a818403018152604a90920192839052815191929182918401908083835b60208310610f1657805182527fffffffffffffffffffffffffffffffffffffffffffffffffffffffffffffffe09092019160209182019101610ed9565b6001836020036101000a03801982511681845116808217855250505050505090500191505060405180910390209350610f4e84612fd7565b600054909350610100900460ff1661ffff841610610f6f5760019150610f95565b610f7884612fef565b600054909150610100900460ff1661ffff821610610f9557600191505b60018215151415610ff357600c80547fffffffffffffffffffffffff00000000000000000000000000000000000000001673ffffffffffffffffffffffffffffffffffffffff8816179055610fe98461314f565b5060029450611001565b60019450611001565b600094505b50505050919050565b73ffffffffffffffffffffffffffffffffffffffff821660009081526009602052604081205461ffff831610156110a45773ffffffffffffffffffffffffffffffffffffffff831660009081526009602052604081208054600692919061ffff861690811061107557fe5b600091825260208083209091015483528201929092526040019020600d015460ff6101009091041690506110a8565b5060005b92915050565b6000806110ba33613286565b156111c957506000838152600660205260409020600281015473ffffffffffffffffffffffffffffffffffffffff163314156111c05773ffffffffffffffffffffffffffffffffffffffff8316600090815260108201602052604090205460ff16156111b75773ffffffffffffffffffffffffffffffffffffffff831660008181526010830160209081526040822080547fffffffffffffffffffffffffffffffffffffffffffffffffffffffffffffff001660019081179091556011850180549182018155835291200180547fffffffffffffffffffffffff0000000000000000000000000000000000000000169091179055600391506111ce565b600291506111ce565b600191506111ce565b600091505b5092915050565b600083815260066020526040812060038101548290819073ffffffffffffffffffffffffffffffffffffffff16331415610c7e57600b83015415610c75576040805160208082018a90526c0100000000000000000000000033028284015282516034818403018152605490920192839052815191929182918401908083835b6020831061129157805182527fffffffffffffffffffffffffffffffffffffffffffffffffffffffffffffffe09092019160209182019101611254565b5181516020939093036101000a7fffffffffffffffffffffffffffffffffffffffffffffffffffffffffffffffff018019909116921691909117905260405192018290039091209450600192508491508890508760006020020151886001602090810291909101516040805160008082528185018084529790975260ff9095168582015260608501939093526080840152905160a08084019492937fffffffffffffffffffffffffffffffffffffffffffffffffffffffffffffffe0830193908390039091019190865af115801561136d573d6000803e3d6000fd5b50506040517fffffffffffffffffffffffffffffffffffffffffffffffffffffffffffffffe0015191505073ffffffffffffffffffffffffffffffffffffffff8116331415610c6c57600d830180547fffffffffffffffffffffffffffffffffffffffffffffffffffffffffffffff001660ff8816179055610c24600b840186600261338f565b60009081526006602052604090206002015474010000000000000000000000000000000000000000900463ffffffff1690565b73ffffffffffffffffffffffffffffffffffffffff821660009081526009602052604081205461ffff831610156110a45773ffffffffffffffffffffffffffffffffffffffff831660009081526009602052604081208054600692919061ffff861690811061149257fe5b6000918252602080832090910154835282019290925260400190206002015473ffffffffffffffffffffffffffffffffffffffff1690506110a8565b60008060006114dc33610d67565b156116bd57600173ffffffffffffffffffffffffffffffffffffffff851660009081526002602081905260409091205460ff169081111561151957fe5b14156116b45760405160200180807f61646d696e697374726174696f6e5265766f636174696f6e566f746500000000815250601c0190506040516020818303038152906040526040518082805190602001908083835b602083106115ac57805182527fffffffffffffffffffffffffffffffffffffffffffffffffffffffffffffffe0909201916020918201910161156f565b6001836020036101000a038019825116818451168082178552505050505050905001915050604051809103902091506115e482612fef565b600054909150610100900460ff1661ffff8216106116ab5773ffffffffffffffffffffffffffffffffffffffff8416600090815260026020819052604090912080547fffffffffffffffffffffffffffffffffffffffffffffffffffffffffffffff00166001830217905550600380547fffffffffffffffffffffffffffffffffffffffffffffffffffffffffffffff00811660ff9182167fffffffffffffffffffffffffffffffffffffffffffffffffffffffffffffffff0190911617815592506116c2565b600292506116c2565b600192506116c2565b600092505b5050919050565b73ffffffffffffffffffffffffffffffffffffffff821660009081526009602052604081208054600691839161ffff861690811061170357fe5b60009182526020808320909101548352820192909252604001902060110154905092915050565b73ffffffffffffffffffffffffffffffffffffffff821660009081526009602052604081205461ffff831610156110a45773ffffffffffffffffffffffffffffffffffffffff831660009081526009602052604081208054600692919061ffff861690811061179557fe5b6000918252602080832090910154835282019290925260400190206003015461ffff740100000000000000000000000000000000000000009091041690506110a8565b600b54600082815260066020908152604080832081518681529151939473ffffffffffffffffffffffffffffffffffffffff1693909285927fc7d6b261fc8a1b1253134c883933ff47099918f6c1ef9c35f874c31fc3d21400929081900390910190a1600282015473ffffffffffffffffffffffffffffffffffffffff163314806118f95750604080517f512f3d65000000000000000000000000000000000000000000000000000000008152336004820152905173ffffffffffffffffffffffffffffffffffffffff85169163512f3d659160248083019260209291908290030181600087803b1580156118cc57600080fd5b505af11580156118e0573d6000803e3d6000fd5b505050506040513d60208110156118f657600080fd5b50515b15611a1557600382015473ffffffffffffffffffffffffffffffffffffffff161580159061192d5750815460ff1615156001145b15611a0c575080547fffffffffffffffffffffffffffffffffffffffffffffffffffffffffffffff00168155600c5460038201546000868152600a60205260408082205481517fc62d30dc00000000000000000000000000000000000000000000000000000000815273ffffffffffffffffffffffffffffffffffffffff948516600482015261ffff909116602482015290519290931692839263c62d30dc9260448084019391929182900301818387803b1580156119eb57600080fd5b505af11580156119ff573d6000803e3d6000fd5b5050505060029350611a1a565b60019350611a1a565b600093505b505050919050565b73ffffffffffffffffffffffffffffffffffffffff821660009081526009602052604081208054829182918291829182919061ffff8916908110611a6257fe5b60009182526020808320919091015480835260069091526040909120600281015460038201549154929b740100000000000000000000000000000000000000009182900463ffffffff169b50910461ffff16985060ff9091169650945050505050565b60005460ff165b90565b73ffffffffffffffffffffffffffffffffffffffff821660009081526009602052604081205461ffff831610156110a45773ffffffffffffffffffffffffffffffffffffffff831660009081526009602052604081208054600692919061ffff8616908110611b3a57fe5b6000918252602080832090910154835282019290925260400190205460ff1690506110a8565b3390565b73ffffffffffffffffffffffffffffffffffffffff821660009081526009602052604081208054600691839161ffff8616908110611b9e57fe5b600091825260208083209091015483528201929092526040019020600f0154905092915050565b73ffffffffffffffffffffffffffffffffffffffff1660009081526009602052604090205490565b73ffffffffffffffffffffffffffffffffffffffff821660009081526009602052604081205461ffff831610156110a45773ffffffffffffffffffffffffffffffffffffffff831660009081526009602052604081208054600692919061ffff8616908110611c5857fe5b6000918252602080832090910154835282019290925260400190206004015467ffffffffffffffff1690506110a8565b73ffffffffffffffffffffffffffffffffffffffff821660009081526009602052604081208054600691839161ffff8616908110611cc257fe5b60009182526020808320909101548352820192909252604001902060070154905092915050565b60005462010000900473ffffffffffffffffffffffffffffffffffffffff1681565b73ffffffffffffffffffffffffffffffffffffffff821660009081526009602052604081205461ffff831610156110a45773ffffffffffffffffffffffffffffffffffffffff831660009081526009602052604081208054600692919061ffff8616908110611d7657fe5b6000918252602080832090910154835282019290925260400190206003015467ffffffffffffffff7601000000000000000000000000000000000000000000009091041690506110a8565b60009081526006602052604090206002015473ffffffffffffffffffffffffffffffffffffffff1690565b6000818152600660205260408120600281015473ffffffffffffffffffffffffffffffffffffffff1615611ed257600281015473ffffffffffffffffffffffffffffffffffffffff163314611ec95733600090815260108201602052604090205460ff1615611ec057336000908152600e8201602052604090205460ff1615611eb757600f81018054600181018255600091825260209091200180547fffffffffffffffffffffffff0000000000000000000000000000000000000000163317905560049150611ed7565b60039150611ed7565b60029150611ed7565b60019150611ed7565b600091505b50919050565b600b5473ffffffffffffffffffffffffffffffffffffffff1690565b73ffffffffffffffffffffffffffffffffffffffff8116600090815260026020819052604082205460ff16908111156110a857fe5b600054610100900460ff1690565b60008080808073ffffffffffffffffffffffffffffffffffffffff86161515611f6457600080fd5b611f6d33610d67565b15610ffc57604080517f7472757374416e63686f724d616e6167657241646472657373000000000000006020808301919091526c0100000000000000000000000073ffffffffffffffffffffffffffffffffffffffff8a160260398301528251602d818403018152604d90920192839052815191929182918401908083835b6020831061202957805182527fffffffffffffffffffffffffffffffffffffffffffffffffffffffffffffffe09092019160209182019101611fec565b6001836020036101000a0380198251168184511680821785525050505050509050019150506040518091039020935061206184612fd7565b600054909350610100900460ff1661ffff84161061208257600191506120a8565b61208b84612fef565b600054909150610100900460ff1661ffff8216106120a857600191505b60018215151415610ff357600b80547fffffffffffffffffffffffff00000000000000000000000000000000000000001673ffffffffffffffffffffffffffffffffffffffff8816179055610fe98461314f565b600061210733610d67565b15610d5e57600173ffffffffffffffffffffffffffffffffffffffff831660009081526002602081905260409091205460ff169081111561214457fe5b14610d515773ffffffffffffffffffffffffffffffffffffffff821660009081526002602052604090208054600191907fffffffffffffffffffffffffffffffffffffffffffffffffffffffffffffff00168280610d10565b60006121a833610d67565b15610d5e5760013360009081526002602081905260409091205460ff16908111156121cf57fe5b146121d957600080fd5b600260ff83161080156121f4575060005460ff908116908316115b15610d5157506002610d62565b600080600080600061221233613286565b15612dab5760008851118015612229575060008751115b1561245457338c8c8c8c8c600081518110151561224257fe5b9060200101517f010000000000000000000000000000000000000000000000000000000000000090047f0100000000000000000000000000000000000000000000000000000000000000027effffffffffffffffffffffffffffffffffffffffffffffffffffffffffffff19168c60008151811015156122be57fe5b602091018101516040805173ffffffffffffffffffffffffffffffffffffffff998a166c010000000000000000000000009081028286015298909916909702603489015261ffff959095167e0100000000000000000000000000000000000000000000000000000000000002604888015267ffffffffffffffff9384167801000000000000000000000000000000000000000000000000908102604a890152929093169091026052860152605a8501527f0100000000000000000000000000000000000000000000000000000000000000918290049091027fff0000000000000000000000000000000000000000000000000000000000000016607a840152609a8084018a90528251808503909101815260ba90930191829052825182918401908083835b6020831061242057805182527fffffffffffffffffffffffffffffffffffffffffffffffffffffffffffffffe090920191602091820191016123e3565b6001836020036101000a03801982511681845116808217855250505050505090500191505060405180910390209350612799565b6000875111156125cf57338c8c8c8c8b600081518110151561247257fe5b01602090810151604080516c0100000000000000000000000073ffffffffffffffffffffffffffffffffffffffff998a168102828601529790981690960260348801527e0100000000000000000000000000000000000000000000000000000000000061ffff909516949094026048870152780100000000000000000000000000000000000000000000000067ffffffffffffffff9384168102604a880152919092160260528501527fff000000000000000000000000000000000000000000000000000000000000007f01000000000000000000000000000000000000000000000000000000000000009283900490920291909116605a840152607a8084018a905282518085039091018152609a90930191829052825182918401908083836020831061242057805182527fffffffffffffffffffffffffffffffffffffffffffffffffffffffffffffffe090920191602091820191016123e3565b338c8c8c8c8a604051602001808773ffffffffffffffffffffffffffffffffffffffff1673ffffffffffffffffffffffffffffffffffffffff166c010000000000000000000000000281526014018673ffffffffffffffffffffffffffffffffffffffff1673ffffffffffffffffffffffffffffffffffffffff166c010000000000000000000000000281526014018561ffff1661ffff167e010000000000000000000000000000000000000000000000000000000000000281526002018467ffffffffffffffff1667ffffffffffffffff1678010000000000000000000000000000000000000000000000000281526008018367ffffffffffffffff1667ffffffffffffffff167801000000000000000000000000000000000000000000000000028152600801826000191660001916815260200196505050505050506040516020818303038152906040526040518082805190602001908083835b6020831061276957805182527fffffffffffffffffffffffffffffffffffffffffffffffffffffffffffffffe0909201916020918201910161272c565b6001836020036101000a038019825116818451168082178552505050505050905001915050604051809103902093505b6127a5848d8989613339565b92507f9357811624cca035c844c2f384ee7fdfb2b3af1faca8cadb261dc6390d80f15184338e8e8e8e8e60008151811015156127dd57fe5b9060200101517f010000000000000000000000000000000000000000000000000000000000000090047f0100000000000000000000000000000000000000000000000000000000000000027effffffffffffffffffffffffffffffffffffffffffffffffffffffffffffff19168e600081518110151561285957fe5b0160209081015160408051998a5273ffffffffffffffffffffffffffffffffffffffff988916928a0192909252959096168787015261ffff909316606087015267ffffffffffffffff91821660808701521660a085015260c08401527fff000000000000000000000000000000000000000000000000000000000000007f0100000000000000000000000000000000000000000000000000000000000000918290049091021660e0830152610100820189905251908190036101200190a18260ff1660011415612d935760008481526008602052604090205473ffffffffffffffffffffffffffffffffffffffff161515612d8a575050600b54600083815260066020526040902073ffffffffffffffffffffffffffffffffffffffff909116906103e8420267ffffffffffffffff8b16118015906129b7575067ffffffffffffffff891615806129b75750426103e8028967ffffffffffffffff16115b81547fffffffffffffffffffffffffffffffffffffffffffffffffffffffffffffff0016901515178155600281018054337fffffffffffffffffffffffff00000000000000000000000000000000000000009091168117909155604080517f6efc25c800000000000000000000000000000000000000000000000000000000815260048101929092525173ffffffffffffffffffffffffffffffffffffffff841691636efc25c89160248083019260209291908290030181600087803b158015612a8057600080fd5b505af1158015612a94573d6000803e3d6000fd5b505050506040513d6020811015612aaa57600080fd5b81019080805190602001909291905050508160020160146101000a81548163ffffffff021916908363ffffffff1602179055508b8160030160006101000a81548173ffffffffffffffffffffffffffffffffffffffff021916908373ffffffffffffffffffffffffffffffffffffffff1602179055508a8160030160146101000a81548161ffff021916908361ffff160217905550898160030160166101000a81548167ffffffffffffffff021916908367ffffffffffffffff160217905550888160040160006101000a81548167ffffffffffffffff021916908367ffffffffffffffff16021790555087816005019080519060200190612bad9291906133cf565b508651612bc390600683019060208a01906133cf565b5085816007018160001916905550600760003373ffffffffffffffffffffffffffffffffffffffff1673ffffffffffffffffffffffffffffffffffffffff1681526020019081526020016000208490806001815401808255809150509060018203906000526020600020016000909192909190915090600019169055508b60086000866000191660001916815260200190815260200160002060006101000a81548173ffffffffffffffffffffffffffffffffffffffff021916908373ffffffffffffffffffffffffffffffffffffffff160217905550600960008d73ffffffffffffffffffffffffffffffffffffffff1673ffffffffffffffffffffffffffffffffffffffff16815260200190815260200160002080549050600a6000866000191660001916815260200190815260200160002060006101000a81548161ffff021916908361ffff160217905550600960008d73ffffffffffffffffffffffffffffffffffffffff1673ffffffffffffffffffffffffffffffffffffffff16815260200190815260200160002084908060018154018082558091505090600182039060005260206000200160009091929091909150906000191690555060039450612db0565b60029450612db0565b60ff83161515612da65760019450612db0565b612db0565b600094505b50505050979650505050505050565b73ffffffffffffffffffffffffffffffffffffffff821660009081526009602052604081205461ffff83161015612e375773ffffffffffffffffffffffffffffffffffffffff83166000908152600960205260409020805461ffff8416908110612e2557fe5b906000526020600020015490506110a8565b5060006110a8565b6000612e4961343d565b6000612e5361343d565b73ffffffffffffffffffffffffffffffffffffffff861660009081526009602052604081208054600691839161ffff8a16908110612e8d57fe5b60009182526020808320919091015483528201929092526040908101909120600a810154600d82015483518085019485905292945060ff9182169360088601939290911691600b860191849060029082845b81548152600190910190602001808311612edf575050604080518082019182905294975085935060029250905082845b81548152600190910190602001808311612f0f575050505050905094509450945094505092959194509250565b6000612f4733610d67565b15610d5e5760013360009081526002602081905260409091205460ff1690811115612f6e57fe5b14612f7857600080fd5b600760ff83161115612fb95750600080547fffffffffffffffffffffffffffffffffffffffffffffffffffffffffffffff001660ff83161790556002610d62565b60005460ff61010090910481169083161015610d5957506001610d62565b60009081526004602052604090206002015460ff1690565b6000612ffa33610d67565b15610d5e5760008054838252600460205260409091206002015460ff918216911610801561307e5750600082815260046020908152604080832033845290915281205460ff16600381111561304b57fe5b148061307e57506003600083815260046020908152604080832033845290915290205460ff16600381111561307c57fe5b145b156131345760008281526004602090815260408083206002810180547fffffffffffffffffffffffffffffffffffffffffffffffffffffffffffffff00808216600160ff9384168101909316179092553380875283865284872080549093168217909255918201805480840182559086528486200180547fffffffffffffffffffffffff000000000000000000000000000000000000000016821790558452600583529083208054918201815583529120018290555b5060008181526004602052604090206002015460ff16610d62565b60008061315b33610d67565b15611ed25760008381526004602052604090206002015460ff1615611ec9575060005b60008381526004602052604090206001015481101561322a5760008381526004602052604081206001810180546003939190859081106131ba57fe5b600091825260208083209091015473ffffffffffffffffffffffffffffffffffffffff168352820192909252604001902080547fffffffffffffffffffffffffffffffffffffffffffffffffffffffffffffff0016600183600381111561321d57fe5b021790555060010161317e565b60008381526004602052604081206132459060010182613458565b506000838152600460205260409020600290810180547fffffffffffffffffffffffffffffffffffffffffffffffffffffffffffffff001690559150611ed7565b600b54604080517ff3fc05f400000000000000000000000000000000000000000000000000000000815273ffffffffffffffffffffffffffffffffffffffff848116600483015291516000939290921691829163f3fc05f491602480830192602092919082900301818887803b1580156132ff57600080fd5b505af1158015613313573d6000803e3d6000fd5b505050506040513d602081101561332957600080fd5b505115611ed25760019150611ed7565b6000841580159061335f575073ffffffffffffffffffffffffffffffffffffffff841615155b801561336b5750825115155b801561337657508115155b1561338357506001613387565b5060005b949350505050565b82600281019282156133bf579160200282015b828111156133bf57825182556020909201916001909101906133a2565b506133cb929150613481565b5090565b828054600181600116156101000203166002900490600052602060002090601f016020900481019282601f1061341057805160ff19168380011785556133bf565b828001600101855582156133bf579182015b828111156133bf578251825591602001919060010190613422565b60408051808201825290600290829080388339509192915050565b81548183558181111561347c5760008381526020902061347c918101908301613481565b505050565b611acc91905b808211156133cb57600081556001016134875600a165627a7a7230582037b1a05ef3833c599b7c38f6b6243f0605cabbbd1565cc0b8710f81a46a3599e0029",
  "source": "pragma solidity ^0.4.19;\n\nimport \"./Interfaces/ITrustAnchorStorage.sol\";\nimport \"./Interfaces/ITrustAnchorManager.sol\";\nimport \"./Interfaces/IShyftCacheGraph.sol\";\n\nimport \"./ECRecovery.sol\";\nimport \"./Administrable.sol\";\n\ncontract TrustAnchorStorage is DMTrustAnchorAttestation, Administrable, ITrustAnchorStorage {\n    //@note: due to https://github.com/trufflesuite/truffle-contract/issues/8\n    // events will not log from called contracts (in the attestation revocation call for instance).\n    // this allows for debugging internally.\n//    event EVT_UpdatingCacheGraph(address _identifiedAddress,\n//        uint16 updateLength,\n//        uint16 oldAttestationKeccakArrayLength,\n//        uint16 attestationKeccakArrayLength);\n//    event EVT_DoCompileCacheGraph(address _identifiedAddress,\n//        uint32 i,\n//        uint16 idx);\n//    event EVT_DoConditionallyRemoveTrustChannelEXBitFields(address _identifiedAddress,\n//        uint32 trustAnchorIndex,\n//        bytes32 keccakHash);\n//    event EVT_GotAttestationStatus(address _identifiedAddress,\n//        bool attestationStatusApproved,\n//        bool didChangeApprovedStatus,\n//        uint16 attestationIndex,\n//        bool attestationHasAlreadyBeenProcessed);\n//    event EVT_CompareTime(uint256 _effectiveTime,\n//        uint256 blockTimestamp,\n//        uint256 _expiryTime,\n//        bool isActive);\n//    event EVT_DoCompileCacheGraphTrustChannelEXBitFields(address _identifiedAddress,\n//        bytes32 keccakHash,\n//        bool consentAvailable);\n//    event EVT_GetActiveTrustChannelEXBitFieldLength(uint24 senderHighestSubmapNumber,\n//        uint24 receiverHighestSubmapNumber,\n//        uint256 senderBitfield,\n//        uint256 receiverBitfield,\n//        uint256 andedBitField);\n//    event EVT_GotBitFieldFromTrustAnchor(address trustAnchorAddress,\n//        uint32 trustAnchorIndex,\n//        uint256 bitField);\n\n    event EVT_TrustChannelBitFieldWords(uint32 bitFieldWords);\n    event EVT_TrustChannelBitFieldIndex(uint16 trustChannelIndex);\n    event EVT_TrustChannelBitFieldIndexEXT(uint32 index,\n        uint32 shifter,\n        uint32 trustChannelBitFieldWord,\n        uint256 trustChannelBitField,\n        uint16 trustChannelIndex);\n\n    event EVT_GotHighestSubmapNumbers(uint24 senderHighestSubmapNumber,\n        uint24 receiverHighestSubmapNumber);\n\n    event EVT_GotLowestAndHighestTrustChannelSubmapNumber(uint24 lowestTrustChannelSubmapNumber,\n        uint24 highestTrustChannelSubmapNumber);\n\n    event EVT_TrustChannelRouted(uint24 trustChannelIndex,\n        address _senderIdentifiedAddress,\n        address _receiverIdentifiedAddress);\n\n    event EVT_setAttestation(bytes32 attestationKeccak,\n        address msg_sender,\n        address _identifiedAddress,\n        uint16 _jurisdiction,\n        uint256 _effectiveTime,\n        uint256 _expiryTime,\n        bytes32 _publicData_0,\n        bytes32 _documentsEncrypted_0,\n        bytes32 _documentAvailabilityEncrypted);\n\n    event EVT_REQ_revokeAttestation(bytes32 _attestationKeccak);\n\n    event EVT_revokeAttestation(bytes32 _attestationKeccak,\n        address trustAnchorAddress,\n        uint16 keccakArrayIndex);\n\n    event EVT_revokeAttestationDoRecompile(address shyftCacheGraphAddress);\n\n    //get/set attestation keccak hash to storage of the attestation\n    mapping(bytes32 => trustAnchorAttestation) attestationKeccak_to_attestation;\n    //add/remove attestation keccak hash array to trust anchor's list\n    mapping(address => bytes32[]) trustAnchorAddress_to_attestationKeccakArray;\n\n    //get/set attestation keccak hash to identified address\n    mapping(bytes32 => address) attestationKeccak_to_identifiedAddress;\n    //add/remove attestation keccak hash array to user's list\n    mapping(address => bytes32[]) identifiedAddress_to_attestationKeccakArray;\n\n    mapping(bytes32 => uint16) attestationKeccak_to_identifiedAddressAttestationKeccakArrayIndex;\n\n    //@note:@checkwhenupdating: this is inside of the TrustAnchorReferenceCompatible contract, as to allow access to the struct via inheritance.\n    // struct trustAnchorAttestation {\n    //     address attestorAddress;\n\n    //     address identifiedAddress;\n    //     uint16 jurisdiction;\n    //     uint64 effectiveTime;\n    //     uint64 expiryTime;\n    //     bytes publicData;\n\n    //     bytes documentsEncrypted;\n    //     bytes32 documentAvailabilityEncrypted;\n\n    //     bytes32 trustAnchorPublicAddressEncrypted;\n\n    //     bytes attestationValidityTrustAnchorSignature;\n    //     bytes attestationValidityUserSignature;\n\n    //     uint16 fieldsDirtyBitMap;\n    // }\n\n    address internal trustAnchorManagerAddress = address(0);\n    address internal shyftCacheGraphAddress = address(0);\n\n    constructor() public {\n        owner = msg.sender;\n    }\n    \n    //returns:\n    // 0 = not an administrator\n    // 1 = only one administrator has permissioned change\n    // 2 = trust anchor set\n    \n    function setTrustAnchorManagerAddress(address _trustAnchorManagerAddress) public returns (uint8 result) {\n        require(_trustAnchorManagerAddress != address(0));\n\n        if (isAdministrator(msg.sender)) {\n            bytes32 keyKeccak = keccak256(abi.encodePacked(\"trustAnchorManagerAddress\", _trustAnchorManagerAddress));\n            \n            uint16 numPermissions = getPermissionsForMultisignKey(keyKeccak);\n            \n            bool permittedToModify;\n            \n            if (numPermissions >= maxThreshold) {\n                permittedToModify = true;\n            } else {\n                uint16 numConfirmedPermissions = adminApplyAndGetPermissionsForMultisignKey(keyKeccak);\n                \n                if (numConfirmedPermissions >= maxThreshold) {\n                    permittedToModify = true;\n                } \n            }\n            \n            if (permittedToModify == true) {\n                trustAnchorManagerAddress = _trustAnchorManagerAddress;\n\n                adminResetPermissionsForMultisignKey(keyKeccak);\n                \n                // trust anchor set\n                return 2;\n\n            } else {\n                // not enough administrators have permissioned change\n                return 1;\n            }\n        } else {\n            // not an administrator\n            return 0;\n        }\n    }\n\n    //returns:\n    // 0 = not an administrator\n    // 1 = only one administrator has permissioned change\n    // 2 = trust anchor set\n\n    function setShyftCacheGraphAddress(address _shyftCacheGraphAddress) public returns (uint8 result) {\n        require(_shyftCacheGraphAddress != address(0));\n\n        if (isAdministrator(msg.sender)) {\n            bytes32 keyKeccak = keccak256(abi.encodePacked(\"shyftCacheGraphAddress\", _shyftCacheGraphAddress));\n\n            uint16 numPermissions = getPermissionsForMultisignKey(keyKeccak);\n\n            bool permittedToModify;\n\n            if (numPermissions >= maxThreshold) {\n                permittedToModify = true;\n            } else {\n                uint16 numConfirmedPermissions = adminApplyAndGetPermissionsForMultisignKey(keyKeccak);\n\n                if (numConfirmedPermissions >= maxThreshold) {\n                    permittedToModify = true;\n                }\n            }\n\n            if (permittedToModify == true) {\n                shyftCacheGraphAddress = _shyftCacheGraphAddress;\n\n                adminResetPermissionsForMultisignKey(keyKeccak);\n\n                // trust anchor set\n                return 2;\n\n            } else {\n                // not enough administrators have permissioned change\n                return 1;\n            }\n        } else {\n            // not an administrator\n            return 0;\n        }\n    }\n\n    //returns:\n    // 0 = no trust anchor manager address set\n    // !0 = trust anchor manager address\n\n    function getTrustAnchorManagerAddress() public view returns (address result) {\n        return trustAnchorManagerAddress;\n    }\n\n\n    // ** attestations caching and management ** //\n\n    //results:\n    // false = address not verified\n    // true = verified address\n    \n    function isTrustAnchorVerified(address _trustAnchorAddress) internal view returns (bool result){\n        ITrustAnchorManager trustAnchorManager = ITrustAnchorManager(trustAnchorManagerAddress);\n\n        if (trustAnchorManager.isTrustAnchorVerified(_trustAnchorAddress)) {\n            //verified address\n            return true;\n        } else {\n            //address not verified\n            return false;\n        }\n    }\n\n    //results: (notes: the attestation can never be overwritten due to it being a sha3 hash, so the validity(sanity component) check simply saves gas.)\n    // 0 = trust anchor is not verified\n    // 1 = attestation not valid\n    // 2 = attestation already exists\n    // 3 = attestation set\n\n    //@reference: for remix input\n    //\"0x405346187a971f064f33a8e1368bb86dbf054368\", \"0x85d14957f6d70b3b3921a460e12b5c88186e44ef\", 12, 0, 0, \"gdageagsgc\", \"rtryrturuyrt\", \"0xe0b59a365a026b8ce1524e5b1f293effd626b380\", \"0xe0b59a365a026b8ce1524e5b1f293effd626b380\"\n    //\"0x405346187a971f064f33a8e1368bb86dbf054368\", \"0x85d14957f6d70b3b3921a460e12b5c88186e44ef\", 12, 0, 0, \"\", \"\", \"0xe0b59a365a026b8ce1524e5b1f293effd626b380\", \"0xe0b59a365a026b8ce1524e5b1f293effd626b380\"\n\n    //@note:@todo:@next:@here: maybe adding in coinflip-blinding around specific data fields & hence total kyc level would make sense.\n    // so it'd turn into a statistically relative level that could be attested to, without revealing the exact dimensionality of the\n    // individual's data.\n\n    function setAttestation(address _identifiedAddress,\n                            uint16 _jurisdiction,\n                            uint64 _effectiveTime,\n                            uint64 _expiryTime,\n                            bytes _publicData,\n                            bytes _documentsEncrypted,\n                            bytes32 _documentAvailabilityEncrypted) public returns (uint8 result) {\n        if (isTrustAnchorVerified(msg.sender)) {\n            // Notes on Keccak hash:\n            // the bitmap from the _documents is used\n            // so is the nonce (first 8 bit unsigned int) from the publicData field.\n\n            bytes32 attestationKeccak;\n\n            if (_publicData.length > 0 && _documentsEncrypted.length > 0) {\n                attestationKeccak = keccak256(abi.encodePacked(\n                                                msg.sender,\n                                                _identifiedAddress,\n                                                _jurisdiction,\n                                                _effectiveTime,\n                                                _expiryTime,\n                                                bytes32(_publicData[0]),\n                                                bytes32(_documentsEncrypted[0]),\n                                                _documentAvailabilityEncrypted));\n            } else {\n                if (_documentsEncrypted.length > 0) {\n                    attestationKeccak = keccak256(abi.encodePacked(\n                                                    msg.sender,\n                                                    _identifiedAddress,\n                                                    _jurisdiction,\n                                                    _effectiveTime,\n                                                    _expiryTime,\n                                                    bytes32(_documentsEncrypted[0]),\n                                                    _documentAvailabilityEncrypted));\n                } else {\n                    attestationKeccak = keccak256(abi.encodePacked(\n                                                    msg.sender,\n                                                    _identifiedAddress,\n                                                    _jurisdiction,\n                                                    _effectiveTime,\n                                                    _expiryTime,\n                                                    _documentAvailabilityEncrypted));\n                }\n            }\n\n            uint8 verificationStatus = verifyAttestationValidity(attestationKeccak,\n                                                                _identifiedAddress,\n                                                                _documentsEncrypted,\n                                                                _documentAvailabilityEncrypted);\n            // uint8 verificationStatus = 1;\n\n            emit EVT_setAttestation(attestationKeccak,\n                msg.sender,\n                _identifiedAddress,\n                _jurisdiction,\n                _effectiveTime,\n                _expiryTime,\n                bytes32(_publicData[0]),\n                bytes32(_documentsEncrypted[0]),\n                _documentAvailabilityEncrypted);\n\n            if (verificationStatus == 1) {\n                //@note: @checkwhenupdating: for reference\n                // address attestorAddress;\n\n                // address identifiedAddress;\n                // uint16 jurisdiction;\n                // uint64 effectiveTime;\n                // uint64 expiryTime;\n                // bytes publicData;\n\n                // bytes documentsEncrypted;\n                // bytes32 documentAvailabilityEncrypted;\n\n                // bytes32 trustAnchorPublicAddressEncrypted;\n\n                if (attestationKeccak_to_identifiedAddress[attestationKeccak] == 0) {\n                    //set the main attestation in storage\n                    ITrustAnchorManager trustAnchorManager = ITrustAnchorManager(trustAnchorManagerAddress);\n\n                    trustAnchorAttestation storage newAttestation = attestationKeccak_to_attestation[attestationKeccak];\n                    newAttestation.attestationStatusApproved = (_effectiveTime <= (block.timestamp * 1000) && (_expiryTime == 0 || _expiryTime > (block.timestamp * 1000)));\n\n                    newAttestation.trustAnchorAddress = msg.sender;\n                    newAttestation.trustAnchorIndex = trustAnchorManager.getTrustAnchorIndex(msg.sender);\n                    newAttestation.identifiedAddress = _identifiedAddress;\n                    newAttestation.jurisdiction = _jurisdiction;\n                    newAttestation.effectiveTime = _effectiveTime;\n                    newAttestation.expiryTime = _expiryTime;\n                    newAttestation.publicData = _publicData;\n\n                    newAttestation.documentsEncrypted = _documentsEncrypted;\n                    newAttestation.documentAvailabilityEncrypted = _documentAvailabilityEncrypted;\n\n                    //add the attestation keccak to the trust anchor's list\n                    //@note:@here:@todo: not checking bounds.. will this be an issue?\n                    trustAnchorAddress_to_attestationKeccakArray[msg.sender].push(attestationKeccak);\n                    //create a attestation keccak to end-user mapping\n                    attestationKeccak_to_identifiedAddress[attestationKeccak] = _identifiedAddress;\n                    //add the attestation keccak to the users's list\n                    //@note:@here:@todo: not checking bounds.. will this be an issue?\n                    attestationKeccak_to_identifiedAddressAttestationKeccakArrayIndex[attestationKeccak] = uint16(identifiedAddress_to_attestationKeccakArray[_identifiedAddress].length);\n                    identifiedAddress_to_attestationKeccakArray[_identifiedAddress].push(attestationKeccak);\n\n                    //attestation set\n                    return 3;\n                } else {\n                    // attestation already exists\n                    return 2;\n                }\n            } else {\n                //attestation validity/signature mapping [from verifyAttestationValidity :: 0 = not valid: 2 = invalid signature]\n                if (verificationStatus == 0) {\n                    //attestation not valid\n                    return 1;\n                }\n            }\n        } else {\n            //trust anchor is not verified\n            return 0;\n        }\n    }\n\n    //@note:@here:@todo:@next: in the case where consent has changed, there should be a method of updating (appending to the \"consented\" trust channel mappings for instance) the associated attestations.\n    // otherwise, compiling a non-consented (yet) attestation will prevent the compilation to the consented channels.\n\n    //@note: in this sense, this attestation has the consent of the trust anchor to be published.\n    // causes a secondary consented attestation and the ability of this to be published on the fully consented trust\n    // channel rails.\n\n    //results:\n    // 0 = not the trust anchor address that created this attestation\n    // 0 = already signed\n    // 1 = invalid signature\n    // 2 = stored valid signature\n    function signAttestationTrustAnchorSignature(bytes32 _attestationKeccak, uint8 _attestationValidityTrustAnchorSignatureV, bytes32[2] _attestationValidityTrustAnchorSignatureRS) public returns (uint8 result) {\n        trustAnchorAttestation storage attestation = attestationKeccak_to_attestation[_attestationKeccak];\n\n        if (attestation.trustAnchorAddress == msg.sender) {\n            if (attestation.attestationValidityTrustAnchorSignatureRS[0] != 0) {\n                bytes32 attestationAndTrustAnchorAddressKeccak = keccak256(abi.encodePacked(_attestationKeccak, msg.sender));\n                \n                address recoveredAddress = ecrecover(attestationAndTrustAnchorAddressKeccak, _attestationValidityTrustAnchorSignatureV, _attestationValidityTrustAnchorSignatureRS[0], _attestationValidityTrustAnchorSignatureRS[1]);\n                // address recoveredAddress = ECRecovery.recover(_attestationKeccak, _attestationValidityTrustAnchorSignature);\n                // this should recover the trust anchor's address, but this is encrypted...\n                if (recoveredAddress == msg.sender) {\n                    attestation.attestationValidityTrustAnchorSignatureV = _attestationValidityTrustAnchorSignatureV;\n                    attestation.attestationValidityTrustAnchorSignatureRS = _attestationValidityTrustAnchorSignatureRS;\n\n                    attestation.consentAvailable++;\n                    \n                    //stored valid signature\n                    return 3;\n                } else {\n                    //invalid signature\n                    return 2;\n                }\n            } else {\n                //already signed\n                return 1;\n            }\n        } else {\n            //not the trust anchor address that created this attestation\n            return 0;\n        }\n    }\n\n    //@note: in this sense, this attestation has the consent of the user to be associated with their address.\n    // prevents spam attestations from being considered on the consented rails.\n\n    //results:\n    // 0 = not the user address that is associated with this attestation\n    // 0 = already signed\n    // 1 = invalid signature\n    // 2 = stored valid signature\n    function signAttestationUserSignature(bytes32 _attestationKeccak, uint8 _attestationValidityUserSignatureV, bytes32[2] _attestationValidityUserSignatureRS) public returns (uint8 result) {\n        trustAnchorAttestation storage attestation = attestationKeccak_to_attestation[_attestationKeccak];\n\n        if (attestation.identifiedAddress == msg.sender) {\n            if (attestation.attestationValidityUserSignatureRS[0] != 0) {\n                bytes32 attestationAndUserAddressKeccak = keccak256(abi.encodePacked(_attestationKeccak, msg.sender));\n\n                address recoveredAddress = ecrecover(attestationAndUserAddressKeccak, _attestationValidityUserSignatureV, _attestationValidityUserSignatureRS[0], _attestationValidityUserSignatureRS[1]);\n                // address recoveredAddress = ECRecovery.recover(_attestationKeccak, _attestationValidityTrustAnchorSignature);\n                // this should recover the trust anchor's address, but this is encrypted...\n                if (recoveredAddress == msg.sender) {\n                    attestation.attestationValidityUserSignatureV = _attestationValidityUserSignatureV;\n                    attestation.attestationValidityUserSignatureRS = _attestationValidityUserSignatureRS;\n\n                    attestation.consentAvailable++;\n\n                    //stored valid signature\n                    return 3;\n                } else {\n                    //invalid signature\n                    return 2;\n                }\n            } else {\n                //already signed\n                return 1;\n            }\n        } else {\n            //not the user address that is associated with this attestation\n            return 0;\n        }\n    }\n\n    //@note: @here: @todo: @optimization: should build a function to clear (only by admin access) data by previous (offchain) computation of dirty objects.\n    // this should only be used however once we know what the cost (and thus the gas savings of the storage) would look like to rebuild identifiedAddress graph caches.\n    // function clearAttestationNoCheck(bytes32 _attestationKeccak) public returns (uint8 result) {\n    //     if (isTrustAnchorVerified(msg.sender)) {\n    //         trustAnchorAttestation storage attestation = attestationKeccak_to_attestation[_attestationKeccak];\n    //         if (msg.sender == attestation.attestorAddress) {\n    //             delete attestation.identifiedAddress;\n    //             delete attestation.jurisdiction;\n    //             delete attestation.effectiveTime;\n    //             delete attestation.expiryTime;\n    //             delete attestation.documentsEncrypted;\n    //             delete attestation.documentAvailabilityEncrypted;\n    //             delete attestation.publicData;\n    //         }\n    //         return 1;\n    //     }\n\n    //     //trust anchor not verified\n    //     return 0;\n    // }\n\n    //results:\n    // 0 = not valid\n    // 1 = valid attestation\n    function verifyAttestationValidity( bytes32 _attestationKeccak,\n                                        address _identifiedAddress,\n                                        bytes _documentsEncrypted,\n                                        bytes32 _documentAvailabilityEncrypted) internal pure returns (uint8 result) {\n        if (_attestationKeccak != 0 &&\n            _identifiedAddress != address(0) &&\n            _documentsEncrypted.length != 0 &&\n            _documentAvailabilityEncrypted != 0) {\n            //valid attestation\n            return 1;\n        } else {\n            //not valid\n            return 0;\n        }\n    }\n\n    //@note: revokes attestations. can be used by Shyft's prime revocation manager.\n    //@note:@todo:@audit:@review: what happens when a TA's attestation key is revoked.. should they still be allowed\n    // to revoke attestations?\n\n    //results:\n    // 0 = trust anchor not verified\n    // 1 = no non-revoked attestation found\n    // 2 = attestation revoked\n    function revokeAttestation(bytes32 _attestationKeccak) public returns (uint8 result) {\n        ITrustAnchorManager trustAnchorManager = ITrustAnchorManager(trustAnchorManagerAddress);\n\n        trustAnchorAttestation storage attestation = attestationKeccak_to_attestation[_attestationKeccak];\n\n        emit EVT_REQ_revokeAttestation(_attestationKeccak);\n//        EVT_revokeAttestation(_attestationKeccak, attestation.trustAnchorAddress, attestationKeccak_to_identifiedAddressAttestationKeccakArrayIndex[_attestationKeccak]);\n\n        //@note:@todo:@audit: should trust anchors that have been revoked be able to revoke previously signed\n        // messages?\n\n//        if (isTrustAnchorVerified(msg.sender)) {\n        if (attestation.trustAnchorAddress == msg.sender || trustAnchorManager.isPrimeRevocationManager(msg.sender)) {\n            if (attestation.identifiedAddress != address(0) &&\n                attestation.attestationStatusApproved == true) {\n                attestation.attestationStatusApproved = false;\n\n//                EVT_revokeAttestationDoRecompile(shyftCacheGraphAddress);\n\n                //recompile cache graph of the identifiedAddress that would depend on this attestation.\n                IShyftCacheGraph shyftCacheGraph = IShyftCacheGraph(shyftCacheGraphAddress);\n\n                shyftCacheGraph.compileCacheGraph(attestation.identifiedAddress,\n                    attestationKeccak_to_identifiedAddressAttestationKeccakArrayIndex[_attestationKeccak]);\n\n                //attestation revoked\n                return 2;\n            } else {\n                //no non-revoked attestation found\n                return 1;\n            }\n        } else {\n            //trust anchor not verified\n            return 0;\n        }\n    }\n\n    // ** data retrieval entities management and validation ** //\n\n    //returns:\n    // 0 = trust anchor is not verified\n    // 1 = not the trust anchor address that created this attestation\n    // 2 = attestation already has this data retrieval target\n    // 3 = data retrieval target set\n\n    //@note:@here:@todo:@next: add the ability for the identifiedAddress specified in an attestation to allow a data\n    // retrieval target (possibly a 2 stage process, where the user adds their consent to this transfer, and then the\n    // Trust Anchor initiates the transference through this interface).\n    //\n    //@note:@todo:@next: Also required is a time limit to this data retrieval event. (1 week, 1 month, etc).\n    // also, should this have a bitfield to scope the data retrieval allowed? being on the blockchain, this might\n    // require an encryption pass with the result being a public key encrypted from the TA to the user.\n    // If this is required, a registering TA should provide a public key to perform the RSA-like encryption of small\n    // messages. PGP-like.\n    function addDataRetrievalTarget(bytes32 _attestationKeccak, address _dataRetrievalTarget) public returns (uint8 result) {\n        if (isTrustAnchorVerified(msg.sender)) {\n            trustAnchorAttestation storage attestation = attestationKeccak_to_attestation[_attestationKeccak];\n            if (attestation.trustAnchorAddress == msg.sender) {\n                if (attestation.dataRetrievalTargets[_dataRetrievalTarget] != false) {\n                    attestation.dataRetrievalTargets[_dataRetrievalTarget] = true;\n                    attestation.dataRetrievalTargetsArray.push(_dataRetrievalTarget);\n\n                    //data retrieval target set\n                    return 3;\n                } else {\n                    //attestation already has this data retrieval target\n                    return 2;\n                }\n            } else {\n                //not the trust anchor address that created this attestation\n                return 1;\n            }\n        } else {\n            //trust anchor is not verified\n            return 0;\n        }\n    }\n\n\n    //@note: validates an existing attestation with another trust anchor. useful step after validating out-of-band\n    // data source(s).\n\n    //results:\n    // 0 = attestation does not exist\n    // 1 = attestation cannot be signed by the trust anchor that set the attestation\n    // 2 = attestation data source(s) have not been sent to this entity\n    // 3 = attestation already validated by this entity\n    // 4 = attestation validated\n    //@note:@todo:@next: generalize this and confirm\n    function dataRetrievalEntityValidateAttestation(bytes32 _attestationKeccak) public returns (uint8 result) {\n        trustAnchorAttestation storage attestation = attestationKeccak_to_attestation[_attestationKeccak];\n\n        if (attestation.trustAnchorAddress != address(0)) {\n            if (attestation.trustAnchorAddress != msg.sender) {\n                if (attestation.dataRetrievalTargets[msg.sender] != false) {\n                    if (attestation.validations[msg.sender] != false) {\n                        attestation.validationsArray.push(msg.sender);\n\n                        //attestation validated\n                        return 4;\n                    } else {\n                        //attestation already validated by this entity\n                        return 3;\n                    }\n                } else {\n                    //attestation data source(s) have not been sent to this entity\n                    return 2;\n                }\n            } else {\n                //attestation cannot be signed by the trust anchor that set the attestation\n                return 1;\n            }\n        } else {\n            //attestation does not exist\n            return 0;\n        }\n    }\n\n//    function getAttestation(bytes32 _attestationKeccak) public view returns (trustAnchorAttestation attestation) {\n//        return attestationKeccak_to_attestation[_attestationKeccak];\n//    }\n\n    function getAttestationKeccakArrayLengthForIdentifiedAddress(address _identifiedAddress) public view returns (uint16 keccakArrayLength) {\n        //@note:@here:256 attestations maximum for current bitfield size, however it's not useful for overflows to be blocked\n        return uint16(identifiedAddress_to_attestationKeccakArray[_identifiedAddress].length);\n    }\n\n    function getAttestationTrustAnchorAddress(bytes32 _attestationKeccak) public view returns (address trustAnchorAddress) {\n        return attestationKeccak_to_attestation[_attestationKeccak].trustAnchorAddress;\n    }\n\n    function getAttestationTrustAnchorIndex(bytes32 _attestationKeccak) public view returns (uint32 trustAnchorIndex) {\n        return attestationKeccak_to_attestation[_attestationKeccak].trustAnchorIndex;\n    }\n\n    //@note:@here:@todo: this will copy the memory if it's not passed as storage\n    function getAttestationKeccakArrayForIdentifiedAddress(address _identifiedAddress) public view returns (bytes32[] keccakArray) {\n        return identifiedAddress_to_attestationKeccakArray[_identifiedAddress];\n    }\n    \n    /*\n    * The returning value is for keccakHash and not for error codes.  In order to avoid adding a second return value, \n    * if the calling function passes an _index value greater than the length of the array, it will return a zero, 0, value\n    * if the _index is within the boundary of the array, it will naturally return the keccakHash value\n    * For mapping, if a value is passed that does not exist in the mapping array, the response is just a value of zero\n    * mappings do not throw an exception error\n    */\n    function getIndexedAttestationKeccakHashForIdentifiedUser(address _identifiedAddress, uint16 _index) public view returns (bytes32 keccakHash) {\n        //@note:@here:@todo: not checking bounds.. most likely this will return a VM error if out of bounds on the check.\n        /*\n        * array length is in uint256 but _index is in uint16.  Even if a value is past greater than the range of uint16\n        * there will be lost of data basically garaunting the parameter value will always be less than uint256\n        * The boundary check is just to make sure this will never happen\n        */\n        if( _index < identifiedAddress_to_attestationKeccakArray[_identifiedAddress].length ) {\n            return identifiedAddress_to_attestationKeccakArray[_identifiedAddress][_index];\n        }\n        else {\n            return 0;\n        }\n            \n        \n    }\n\n    function getIndexedAttestationJurisdictionForIdentifiedUser(address _identifiedAddress, uint16 _index) public view returns (uint16 jurisdiction) {\n        //@note:@here:@todo: not checking bounds.. most likely this will return a VM error if out of bounds on the check.\n        if(  _index < identifiedAddress_to_attestationKeccakArray[_identifiedAddress].length) {\n            return attestationKeccak_to_attestation[identifiedAddress_to_attestationKeccakArray[_identifiedAddress][_index]].jurisdiction;\n        }\n        else {\n            return 0;\n        }\n        \n    }\n\n    function getIndexedAttestationEffectiveTimeForIdentifiedUser(address _identifiedAddress, uint16 _index) public view returns (uint256 effectiveTime) {\n        //@note:@here:@todo: not checking bounds.. most likely this will return a VM error if out of bounds on the check.\n        if(_index < identifiedAddress_to_attestationKeccakArray[_identifiedAddress].length) {\n            return attestationKeccak_to_attestation[identifiedAddress_to_attestationKeccakArray[_identifiedAddress][_index]].effectiveTime;\n        }\n        else {\n            return 0;\n        }\n    }\n\n    function getIndexedAttestationExpiryTimeForIdentifiedUser(address _identifiedAddress, uint16 _index) public view returns (uint256 expiryTime) {\n        //@note:@here:@todo: not checking bounds.. most likely this will return a VM error if out of bounds on the check.\n        if(_index < identifiedAddress_to_attestationKeccakArray[_identifiedAddress].length) {\n            return attestationKeccak_to_attestation[identifiedAddress_to_attestationKeccakArray[_identifiedAddress][_index]].expiryTime;\n        }\n        else {\n            return 0;\n        }\n    }\n\n    function getIndexedAttestationDocumentAvailabilityEncryptedForIdentifiedUser(address _identifiedAddress, uint16 _index) public view returns (bytes32 documentAvailabilityEncrypted) {\n        //@note:@here:@todo: not checking bounds.. most likely this will return a VM error if out of bounds on the check.\n        return attestationKeccak_to_attestation[identifiedAddress_to_attestationKeccakArray[_identifiedAddress][_index]].documentAvailabilityEncrypted;\n    }\n\n    function getGraphConstructableAttestationInKeccakArray(address _identifiedAddress, uint16 _index) public view returns ( bytes32 keccakHash,\n                                                                                                                            uint32 trustAnchorIndex,\n                                                                                                                            uint16 jurisdiction,\n//                                                                                                                            uint256 effectiveTime,\n//                                                                                                                            uint256 expiryTime,\n                                                                                                                            bool attestationStatusApproved) {\n//                                                                                                                            bytes32 documentAvailabilityEncrypted) {\n        //@note:@here:@todo: not checking bounds.. most likely this will return a VM error if out of bounds on the check.\n        bytes32 attestationKeccakHash = identifiedAddress_to_attestationKeccakArray[_identifiedAddress][_index];\n        trustAnchorAttestation storage attestation = attestationKeccak_to_attestation[attestationKeccakHash];\n\n        return (attestationKeccakHash,\n                attestation.trustAnchorIndex,\n                attestation.jurisdiction,\n//                attestation.effectiveTime,\n//                attestation.expiryTime,\n                attestation.attestationStatusApproved);\n//                attestation.documentAvailabilityEncrypted);\n    }\n    \n    function getAttestationStatusApprovedInKeccakArray(address _identifiedAddress, uint16 _index) public view returns (bool attestationStatusApproved) {\n        //@note:@here:@todo: not checking bounds.. most likely this will return a VM error if out of bounds on the check.\n        if(_index < identifiedAddress_to_attestationKeccakArray[_identifiedAddress].length) {\n            return attestationKeccak_to_attestation[identifiedAddress_to_attestationKeccakArray[_identifiedAddress][_index]].attestationStatusApproved;\n        }\n        else {\n            return false;\n        }\n    }\n    \n    function getConsentAvailableInKeccakArray(address _identifiedAddress, uint16 _index) public view returns (uint8 consentAvailable) {\n        //@note: return number of signatures for this attestation (currently user and trust anchor)\n        //@note:@here:@todo: not checking bounds.. most likely this will return a VM error if out of bounds on the check.\n        if(_index < identifiedAddress_to_attestationKeccakArray[_identifiedAddress].length) {\n            return attestationKeccak_to_attestation[identifiedAddress_to_attestationKeccakArray[_identifiedAddress][_index]].consentAvailable;\n        }\n        else {\n            return 0;\n        }\n    }\n\n    function getTrustAnchorAddressInKeccakArray(address _identifiedAddress, uint16 _index) public view returns (address trustAnchorAddress) {\n        //@note:@here:@todo: not checking bounds.. most likely this will return a VM error if out of bounds on the check.\n        if(_index < identifiedAddress_to_attestationKeccakArray[_identifiedAddress].length) {\n            return attestationKeccak_to_attestation[identifiedAddress_to_attestationKeccakArray[_identifiedAddress][_index]].trustAnchorAddress;\n        }\n        else {\n            return address(0);\n        }\n    }\n    \n    function getAttestationValiditySignaturesInKeccakArray(address _identifiedAddress, uint16 _index) public view returns ( uint8 validityTrustAnchorSignatureV,\n                                                                                                                            bytes32[2] validityTrustSignatureRS,\n                                                                                                                            uint8 validityUserSignatureV,\n                                                                                                                            bytes32[2] validityUserSignatureRS) {\n        trustAnchorAttestation storage attestation = attestationKeccak_to_attestation[identifiedAddress_to_attestationKeccakArray[_identifiedAddress][_index]];\n        //@note:@here:@todo: not checking bounds.. most likely this will return a VM error if out of bounds on the check.\n        return (attestation.attestationValidityTrustAnchorSignatureV,\n                attestation.attestationValidityTrustAnchorSignatureRS,\n                attestation.attestationValidityUserSignatureV,\n                attestation.attestationValidityUserSignatureRS);\n    }\n\n    function getAttestationValidationsArrayLengthInKeccakArray(address _identifiedAddress, uint16 _index) public view returns (uint16 arrayLength) {\n        return uint16(attestationKeccak_to_attestation[identifiedAddress_to_attestationKeccakArray[_identifiedAddress][_index]].validationsArray.length);\n    }\n\n    function getAttestationDataRetrievalsArrayLengthInKeccakArray(address _identifiedAddress, uint16 _index) public view returns (uint16 arrayLength) {\n        return uint16(attestationKeccak_to_attestation[identifiedAddress_to_attestationKeccakArray[_identifiedAddress][_index]].dataRetrievalTargetsArray.length);\n    }\n}",
  "sourcePath": "/Users/jaypersanchez/shyft_shyftcorecontracts/contracts/TrustAnchorStorage.sol",
  "compiler": {
    "name": "solc",
    "version": "0.4.28+commit.2fcccea1.Emscripten.clang"
  },
  "schemaVersion": "2.0.3",
  "updatedAt": "2019-03-26T16:26:58.728Z"
}