{
  "contractName": "TrustChannelManager",
  "abi": [
    {
      "constant": false,
      "inputs": [
        {
          "name": "_newAdministratorAddress",
          "type": "address"
        }
      ],
      "name": "setPrimaryAdministrator",
      "outputs": [
        {
          "name": "result",
          "type": "uint8"
        }
      ],
      "payable": false,
      "stateMutability": "nonpayable",
      "type": "function"
    },
    {
      "constant": true,
      "inputs": [
        {
          "name": "_administratorAddress",
          "type": "address"
        }
      ],
      "name": "isAdministrator",
      "outputs": [
        {
          "name": "result",
          "type": "bool"
        }
      ],
      "payable": false,
      "stateMutability": "view",
      "type": "function"
    },
    {
      "constant": false,
      "inputs": [
        {
          "name": "_revokeAdministratorAddress",
          "type": "address"
        }
      ],
      "name": "revokeAdministrator",
      "outputs": [
        {
          "name": "result",
          "type": "uint8"
        }
      ],
      "payable": false,
      "stateMutability": "nonpayable",
      "type": "function"
    },
    {
      "constant": true,
      "inputs": [],
      "name": "getUserDefinedMaxAdministrator",
      "outputs": [
        {
          "name": "",
          "type": "uint8"
        }
      ],
      "payable": false,
      "stateMutability": "view",
      "type": "function"
    },
    {
      "constant": true,
      "inputs": [],
      "name": "getMsgSender",
      "outputs": [
        {
          "name": "",
          "type": "address"
        }
      ],
      "payable": false,
      "stateMutability": "view",
      "type": "function"
    },
    {
      "constant": true,
      "inputs": [],
      "name": "owner",
      "outputs": [
        {
          "name": "",
          "type": "address"
        }
      ],
      "payable": false,
      "stateMutability": "view",
      "type": "function"
    },
    {
      "constant": false,
      "inputs": [
        {
          "name": "_administratorAddress",
          "type": "address"
        }
      ],
      "name": "getAdminAccessValue",
      "outputs": [
        {
          "name": "_access",
          "type": "uint256"
        }
      ],
      "payable": false,
      "stateMutability": "nonpayable",
      "type": "function"
    },
    {
      "constant": true,
      "inputs": [],
      "name": "getUserDefinedMaxThreshold",
      "outputs": [
        {
          "name": "",
          "type": "uint8"
        }
      ],
      "payable": false,
      "stateMutability": "view",
      "type": "function"
    },
    {
      "constant": false,
      "inputs": [
        {
          "name": "_newAdministratorAddress",
          "type": "address"
        }
      ],
      "name": "setAdministrator",
      "outputs": [
        {
          "name": "result",
          "type": "uint8"
        }
      ],
      "payable": false,
      "stateMutability": "nonpayable",
      "type": "function"
    },
    {
      "constant": false,
      "inputs": [
        {
          "name": "_valueThreshold",
          "type": "uint8"
        }
      ],
      "name": "changeCurrentThreshold",
      "outputs": [
        {
          "name": "result",
          "type": "uint8"
        }
      ],
      "payable": false,
      "stateMutability": "nonpayable",
      "type": "function"
    },
    {
      "constant": false,
      "inputs": [
        {
          "name": "_valueThreshold",
          "type": "uint8"
        }
      ],
      "name": "changeCurrentAdminThreshold",
      "outputs": [
        {
          "name": "result",
          "type": "uint8"
        }
      ],
      "payable": false,
      "stateMutability": "nonpayable",
      "type": "function"
    },
    {
      "inputs": [],
      "payable": false,
      "stateMutability": "nonpayable",
      "type": "constructor"
    },
    {
      "anonymous": false,
      "inputs": [
        {
          "indexed": false,
          "name": "_trustChannelAdministratorAddress",
          "type": "address"
        },
        {
          "indexed": false,
          "name": "_trustChannelAddress",
          "type": "address"
        },
        {
          "indexed": false,
          "name": "isTrustChannelAdministrator",
          "type": "bool"
        }
      ],
      "name": "EVT_IsTrustChannelAdministrator",
      "type": "event"
    },
    {
      "anonymous": false,
      "inputs": [
        {
          "indexed": false,
          "name": "jurisdiction",
          "type": "uint16"
        },
        {
          "indexed": false,
          "name": "trustAnchorAddress",
          "type": "address"
        },
        {
          "indexed": false,
          "name": "trustChannelAddress",
          "type": "address"
        }
      ],
      "name": "EVT_ReceivedJurisdictionFromTrustAnchor",
      "type": "event"
    },
    {
      "anonymous": false,
      "inputs": [
        {
          "indexed": false,
          "name": "composedBitField",
          "type": "uint256"
        },
        {
          "indexed": false,
          "name": "trustAnchorIndex",
          "type": "uint32"
        },
        {
          "indexed": false,
          "name": "trustChannelIndex",
          "type": "uint32"
        },
        {
          "indexed": false,
          "name": "_trustAnchorAddress",
          "type": "address"
        },
        {
          "indexed": false,
          "name": "_trustChannelAddress",
          "type": "address"
        }
      ],
      "name": "EVT_ComposedTrustChannelWithTrustAnchor",
      "type": "event"
    },
    {
      "anonymous": false,
      "inputs": [
        {
          "indexed": false,
          "name": "ruleStorageIndex",
          "type": "uint256"
        },
        {
          "indexed": false,
          "name": "trustChannelLowestSubmapNumber",
          "type": "uint24"
        },
        {
          "indexed": false,
          "name": "trustChannelHighestSubmapNumber",
          "type": "uint24"
        },
        {
          "indexed": false,
          "name": "_trustAnchorAddress",
          "type": "address"
        },
        {
          "indexed": false,
          "name": "_trustChannelAddress",
          "type": "address"
        }
      ],
      "name": "EVT_AddedTrustAnchorToTrustChannel",
      "type": "event"
    },
    {
      "anonymous": false,
      "inputs": [
        {
          "indexed": false,
          "name": "_senderIdentifiedAddress",
          "type": "address"
        },
        {
          "indexed": false,
          "name": "_receiverIdentifiedAddress",
          "type": "address"
        },
        {
          "indexed": false,
          "name": "_amount",
          "type": "uint256"
        },
        {
          "indexed": false,
          "name": "_trustChannelIndex",
          "type": "uint32"
        }
      ],
      "name": "EVT_Route",
      "type": "event"
    },
    {
      "constant": false,
      "inputs": [
        {
          "name": "_trustAnchorManagerAddress",
          "type": "address"
        }
      ],
      "name": "setTrustAnchorManagerAddress",
      "outputs": [
        {
          "name": "result",
          "type": "uint8"
        }
      ],
      "payable": false,
      "stateMutability": "nonpayable",
      "type": "function"
    },
    {
      "constant": false,
      "inputs": [
        {
          "name": "_trustAnchorStorageAddress",
          "type": "address"
        }
      ],
      "name": "setTrustAnchorStorageAddress",
      "outputs": [
        {
          "name": "result",
          "type": "uint8"
        }
      ],
      "payable": false,
      "stateMutability": "nonpayable",
      "type": "function"
    },
    {
      "constant": false,
      "inputs": [
        {
          "name": "_trustChannelAddress",
          "type": "address"
        }
      ],
      "name": "adminSetupTrustChannel",
      "outputs": [
        {
          "name": "result",
          "type": "uint8"
        }
      ],
      "payable": false,
      "stateMutability": "nonpayable",
      "type": "function"
    },
    {
      "constant": false,
      "inputs": [
        {
          "name": "_trustChannelAdministratorAddress",
          "type": "address"
        },
        {
          "name": "_trustChannelAddress",
          "type": "address"
        }
      ],
      "name": "isTrustChannelAdministrator",
      "outputs": [
        {
          "name": "result",
          "type": "bool"
        }
      ],
      "payable": false,
      "stateMutability": "nonpayable",
      "type": "function"
    },
    {
      "constant": false,
      "inputs": [
        {
          "name": "_trustChannelAddress",
          "type": "address"
        },
        {
          "name": "_index",
          "type": "uint64"
        }
      ],
      "name": "getTrustChannelAdministratorForTrustChannelByIndex",
      "outputs": [
        {
          "name": "result",
          "type": "address"
        }
      ],
      "payable": false,
      "stateMutability": "nonpayable",
      "type": "function"
    },
    {
      "constant": false,
      "inputs": [
        {
          "name": "_newTrustChannelAdministratorAddress",
          "type": "address"
        },
        {
          "name": "_trustChannelAddress",
          "type": "address"
        }
      ],
      "name": "trustChannelAdministratorAddChannelAdministrator",
      "outputs": [
        {
          "name": "result",
          "type": "uint16"
        }
      ],
      "payable": false,
      "stateMutability": "nonpayable",
      "type": "function"
    },
    {
      "constant": false,
      "inputs": [
        {
          "name": "_trustChannelAdministratorAddressToRemove",
          "type": "address"
        },
        {
          "name": "_trustChannelAddress",
          "type": "address"
        }
      ],
      "name": "trustChannelAdministratorRemoveChannelAdministrator",
      "outputs": [
        {
          "name": "result",
          "type": "uint16"
        }
      ],
      "payable": false,
      "stateMutability": "nonpayable",
      "type": "function"
    },
    {
      "constant": false,
      "inputs": [
        {
          "name": "_trustAnchorAddress",
          "type": "address"
        },
        {
          "name": "_trustChannelAddress",
          "type": "address"
        }
      ],
      "name": "trustChannelAdministratorAddTrustAnchorToTrustChannel",
      "outputs": [
        {
          "name": "result",
          "type": "uint8"
        }
      ],
      "payable": false,
      "stateMutability": "nonpayable",
      "type": "function"
    },
    {
      "constant": true,
      "inputs": [
        {
          "name": "_trustAnchorIndex",
          "type": "uint32"
        }
      ],
      "name": "getTrustChannelLowestSubmapNumberForTrustAnchorIndex",
      "outputs": [
        {
          "name": "result",
          "type": "uint24"
        }
      ],
      "payable": false,
      "stateMutability": "view",
      "type": "function"
    },
    {
      "constant": true,
      "inputs": [
        {
          "name": "_trustAnchorIndex",
          "type": "uint32"
        }
      ],
      "name": "getTrustChannelHighestSubmapNumberForTrustAnchorIndex",
      "outputs": [
        {
          "name": "result",
          "type": "uint24"
        }
      ],
      "payable": false,
      "stateMutability": "view",
      "type": "function"
    },
    {
      "constant": true,
      "inputs": [
        {
          "name": "_trustAnchorIndex",
          "type": "uint32"
        },
        {
          "name": "submapNumber",
          "type": "uint24"
        }
      ],
      "name": "getTrustChannelIndexBitFieldAtSubmapNumberForTrustAnchorIndex",
      "outputs": [
        {
          "name": "result",
          "type": "uint256"
        }
      ],
      "payable": false,
      "stateMutability": "view",
      "type": "function"
    },
    {
      "constant": false,
      "inputs": [
        {
          "name": "_amount",
          "type": "uint256"
        },
        {
          "name": "_senderIdentifiedAddress",
          "type": "address"
        },
        {
          "name": "_receiverIdentifiedAddress",
          "type": "address"
        },
        {
          "name": "_trustChannelIndex",
          "type": "uint32"
        }
      ],
      "name": "route",
      "outputs": [
        {
          "name": "result",
          "type": "int16"
        }
      ],
      "payable": false,
      "stateMutability": "nonpayable",
      "type": "function"
    }
  ],
  "bytecode": "0x608060405260008054600760ff199091161761ff0019166102001790556006805461010061ffff199091161762ff00001916620200001763ff0000001916630300000017905534801561005157600080fd5b50600080546201000033026201000060b060020a0319909116179055611ceb8061007c6000396000f3006080604052600436106101325763ffffffff7c0100000000000000000000000000000000000000000000000000000000600035041663064ad7c281146101375780630a2eb3011461017b5780632966497c146101bd5780632d98a86d1461021657806335544bcd146102615780634402bba31461029757806371457397146102c557806374534fb2146102f35780637940d969146103085780637a610cd61461033c5780637a6ce2e1146103a057806380a189dd146103b55780638da5cb5b146103e9578063cda1838e146103fe578063d086c0ae14610432578063d2631b4514610450578063d511c46314610490578063d534d027146104a5578063db4032e0146104d3578063dbdd977214610501578063df8089ef14610527578063e484a38d14610555578063fba7fd7814610570575b600080fd5b34801561014357600080fd5b5061016573ffffffffffffffffffffffffffffffffffffffff6004351661058b565b6040805160ff9092168252519081900360200190f35b34801561018757600080fd5b506101a973ffffffffffffffffffffffffffffffffffffffff60043516610665565b604080519115158252519081900360200190f35b3480156101c957600080fd5b506101fd60043573ffffffffffffffffffffffffffffffffffffffff6024358116906044351663ffffffff606435166106ad565b60408051600192830b90920b8252519081900360200190f35b34801561022257600080fd5b5061024a73ffffffffffffffffffffffffffffffffffffffff60043581169060243516610787565b6040805161ffff9092168252519081900360200190f35b34801561026d57600080fd5b5061027f63ffffffff600435166108ac565b6040805162ffffff9092168252519081900360200190f35b3480156102a357600080fd5b5061016573ffffffffffffffffffffffffffffffffffffffff600435166108c9565b3480156102d157600080fd5b5061016573ffffffffffffffffffffffffffffffffffffffff60043516610ac4565b3480156102ff57600080fd5b50610165610b3e565b34801561031457600080fd5b5061016573ffffffffffffffffffffffffffffffffffffffff60043581169060243516610b47565b34801561034857600080fd5b5061037773ffffffffffffffffffffffffffffffffffffffff6004351667ffffffffffffffff6024351661134b565b6040805173ffffffffffffffffffffffffffffffffffffffff9092168252519081900360200190f35b3480156103ac57600080fd5b506103776113f0565b3480156103c157600080fd5b5061024a73ffffffffffffffffffffffffffffffffffffffff600435811690602435166113f4565b3480156103f557600080fd5b50610377611516565b34801561040a57600080fd5b506101a973ffffffffffffffffffffffffffffffffffffffff60043581169060243516611538565b34801561043e57600080fd5b5061027f63ffffffff600435166115fa565b34801561045c57600080fd5b5061047e73ffffffffffffffffffffffffffffffffffffffff60043516611617565b60408051918252519081900360200190f35b34801561049c57600080fd5b5061016561164c565b3480156104b157600080fd5b5061016573ffffffffffffffffffffffffffffffffffffffff6004351661165a565b3480156104df57600080fd5b5061016573ffffffffffffffffffffffffffffffffffffffff600435166116d4565b34801561050d57600080fd5b5061047e63ffffffff6004351662ffffff60243516611993565b34801561053357600080fd5b5061016573ffffffffffffffffffffffffffffffffffffffff600435166119bf565b34801561056157600080fd5b5061016560ff60043516611a60565b34801561057c57600080fd5b5061016560ff60043516611ac4565b6000805462010000900473ffffffffffffffffffffffffffffffffffffffff1633141561065c5760035460ff16151561064f5773ffffffffffffffffffffffffffffffffffffffff821660009081526002602052604090208054600191907fffffffffffffffffffffffffffffffffffffffffffffffffffffffffffffff001682805b0217905550506003805460ff808216600101167fffffffffffffffffffffffffffffffffffffffffffffffffffffffffffffff009091161790556002610660565b506001610660565b610660565b5060005b919050565b6000600173ffffffffffffffffffffffffffffffffffffffff831660009081526002602081905260409091205460ff169081111561069f57fe5b141561065c57506001610660565b63ffffffff8116600081815260116020908152604080832054835260088252808320815173ffffffffffffffffffffffffffffffffffffffff808a1682528816938101939093528282018990526060830194909452519192600301917fb0a0372537bb33a148e2e531c76b834ba0f134c757928e55a34f441e75e851ec9181900360800190a1600654600382019062010000900460ff166008811061074e57fe5b602091828204019190069054906101000a900460ff161515600115151415610779576001915061077e565b600191505b50949350505050565b6000806107943384611538565b1515600114156108a0576107a88484611538565b151560011415610897575073ffffffffffffffffffffffffffffffffffffffff8083166000818152600a6020908152604080832094881680845294825280832080547fffffffffffffffffffffffffffffffffffffffffffffffffffffffffffffff00169055838352600b825280832094835293815283822054928252600c9052918220805467ffffffffffffffff90921692918390811061084657fe5b9060005260206000200160006101000a81548173ffffffffffffffffffffffffffffffffffffffff021916908373ffffffffffffffffffffffffffffffffffffffff160217905550600291506108a5565b600191506108a5565b600091505b5092915050565b63ffffffff166000908152600f602052604090205462ffffff1690565b60008060006108d733610665565b15610ab857600173ffffffffffffffffffffffffffffffffffffffff851660009081526002602081905260409091205460ff169081111561091457fe5b1415610aaf5760405160200180807f61646d696e697374726174696f6e5265766f636174696f6e566f746500000000815250601c0190506040516020818303038152906040526040518082805190602001908083835b602083106109a757805182527fffffffffffffffffffffffffffffffffffffffffffffffffffffffffffffffe0909201916020918201910161096a565b6001836020036101000a038019825116818451168082178552505050505050905001915050604051809103902091506109df82611b5f565b600054909150610100900460ff1661ffff821610610aa65773ffffffffffffffffffffffffffffffffffffffff8416600090815260026020819052604090912080547fffffffffffffffffffffffffffffffffffffffffffffffffffffffffffffff00166001830217905550600380547fffffffffffffffffffffffffffffffffffffffffffffffffffffffffffffff00811660ff9182167fffffffffffffffffffffffffffffffffffffffffffffffffffffffffffffffff019091161781559250610abd565b60029250610abd565b60019250610abd565b600092505b5050919050565b6000610acf33610665565b1561065c5773ffffffffffffffffffffffffffffffffffffffff82161515610af657600080fd5b50601480547fffffffffffffffffffffffff00000000000000000000000000000000000000001673ffffffffffffffffffffffffffffffffffffffff83161790556001610660565b60005460ff1690565b600080600080600080600080600080610b60338c611538565b1515600114156113375773ffffffffffffffffffffffffffffffffffffffff8b1660009081526007602090815260408083205480845260089092529091208054919a50985060ff1615156001141561132e5773ffffffffffffffffffffffffffffffffffffffff8c16600090815260018901602052604090205460ff16151561132557601354604080517f25b953b300000000000000000000000000000000000000000000000000000000815273ffffffffffffffffffffffffffffffffffffffff8f81166004830152915191909216985088916325b953b39160248083019260209291908290030181600087803b158015610c5b57600080fd5b505af1158015610c6f573d6000803e3d6000fd5b505050506040513d6020811015610c8557600080fd5b5051604080517f6efc25c800000000000000000000000000000000000000000000000000000000815273ffffffffffffffffffffffffffffffffffffffff8f81166004830152915192985090891691636efc25c8916024808201926020929091908290030181600087803b158015610cfc57600080fd5b505af1158015610d10573d6000803e3d6000fd5b505050506040513d6020811015610d2657600080fd5b810190808051906020019092919050505094507f1908c596ed8b427f6cb6af6c89233b2a49493ec730d9f9bb2a4ec6b21cba17cf868d8d604051808461ffff1661ffff1681526020018373ffffffffffffffffffffffffffffffffffffffff1673ffffffffffffffffffffffffffffffffffffffff1681526020018273ffffffffffffffffffffffffffffffffffffffff1673ffffffffffffffffffffffffffffffffffffffff168152602001935050505060405180910390a161ffff8681161461131c5760008981526012602052604090205463ffffffff1693506101008085049350840691508160ff1660020a600d60008763ffffffff1663ffffffff16815260200190815260200160002060008562ffffff1662ffffff168152602001908152602001600020600082825417925050819055507feec9a6ab967fbe92e35468f046e39abc7c0e55421fdc3714872c5afb8d04b5a5600d60008763ffffffff1663ffffffff16815260200190815260200160002060008562ffffff1662ffffff1681526020019081526020016000205486868f8f604051808681526020018563ffffffff1663ffffffff1681526020018463ffffffff1663ffffffff1681526020018373ffffffffffffffffffffffffffffffffffffffff1673ffffffffffffffffffffffffffffffffffffffff1681526020018273ffffffffffffffffffffffffffffffffffffffff1673ffffffffffffffffffffffffffffffffffffffff1681526020019550505050505060405180910390a163ffffffff85166000908152600e602052604090205460ff161515610ff85763ffffffff85166000908152600e6020908152604080832080547fffffffffffffffffffffffffffffffffffffffffffffffffffffffffffffff00166001179055600f9091529020805462ffffff85167fffffffffffffffffffffffffffffffffffffffffffffffffffffffffff000000909116179055611060565b63ffffffff85166000908152600f602052604090205462ffffff808516911611156110605763ffffffff85166000908152600f6020526040902080547fffffffffffffffffffffffffffffffffffffffffffffffffffffffffff0000001662ffffff85161790555b63ffffffff851660009081526010602052604090205462ffffff808516911610156110c85763ffffffff8516600090815260106020526040902080547fffffffffffffffffffffffffffffffffffffffffffffffffffffffffff0000001662ffffff85161790555b6006880180547fffffffffffffffffffffffffffffffffffffffffffffffffffffffffff00ffff166201000017905561010061ffff871681810460ff1694500691508260ff16600660029054906101000a900460ff1660ff1660020a0190508160ff1660020a6001028860030160020160008361ffff1661ffff168152602001908152602001600020600082825417925050816000191690555060018860010160008e73ffffffffffffffffffffffffffffffffffffffff1673ffffffffffffffffffffffffffffffffffffffff16815260200190815260200160002060006101000a81548160ff02191690831515021790555087600201600081819054906101000a900460ff168092919060010191906101000a81548160ff021916908360ff160217905550507fddf7264f7f8b6a56d067ba5808b08e744705140eed9341c2159b07f212f7ec4d81600f60008863ffffffff1663ffffffff16815260200190815260200160002060009054906101000a900462ffffff16601060008963ffffffff1663ffffffff16815260200190815260200160002060009054906101000a900462ffffff168f8f604051808661ffff1681526020018562ffffff1662ffffff1681526020018462ffffff1662ffffff1681526020018373ffffffffffffffffffffffffffffffffffffffff1673ffffffffffffffffffffffffffffffffffffffff1681526020018273ffffffffffffffffffffffffffffffffffffffff1673ffffffffffffffffffffffffffffffffffffffff1681526020019550505050505060405180910390a16004995061133c565b6003995061133c565b6002995061133c565b6001995061133c565b600099505b50505050505050505092915050565b73ffffffffffffffffffffffffffffffffffffffff82166000908152600c602052604081205467ffffffffffffffff831610156113e65773ffffffffffffffffffffffffffffffffffffffff83166000908152600c60205260409020805467ffffffffffffffff84169081106113bd57fe5b60009182526020909120015473ffffffffffffffffffffffffffffffffffffffff1690506113ea565b5060005b92915050565b3390565b60006114003383611538565b1515600114156113e6576114148383611538565b151561150e575073ffffffffffffffffffffffffffffffffffffffff8181166000818152600a60209081526040808320948716808452948252808320805460017fffffffffffffffffffffffffffffffffffffffffffffffffffffffffffffff009091168117909155938352600c8083528184208054600b8552838620888752855292852080547fffffffffffffffffffffffffffffffffffffffffffffffff00000000000000001667ffffffffffffffff90941693909317909255825280549384018155825290200180547fffffffffffffffffffffffff000000000000000000000000000000000000000016909117905560026113ea565b5060016113ea565b60005462010000900473ffffffffffffffffffffffffffffffffffffffff1681565b73ffffffffffffffffffffffffffffffffffffffff8082166000818152600a602090815260408083209487168084529482528083205481519586529185019390935260ff16151583830152905190917fef82a3fe4dc1731fb868b0d1f0dfd653184eba38bab226d0100ff52ada060599919081900360600190a173ffffffffffffffffffffffffffffffffffffffff8083166000908152600a602090815260408083209387168352929052205460ff161515600114156113e6575060016113ea565b63ffffffff1660009081526010602052604090205462ffffff1690565b73ffffffffffffffffffffffffffffffffffffffff8116600090815260026020819052604082205460ff16908111156113ea57fe5b600054610100900460ff1690565b600061166533610665565b1561065c5773ffffffffffffffffffffffffffffffffffffffff8216151561168c57600080fd5b50601380547fffffffffffffffffffffffff00000000000000000000000000000000000000001673ffffffffffffffffffffffffffffffffffffffff83161790556001610660565b60008060006116e233610665565b15610ab85783604051602001808273ffffffffffffffffffffffffffffffffffffffff1673ffffffffffffffffffffffffffffffffffffffff166c010000000000000000000000000281526014019150506040516020818303038152906040526040518082805190602001908083835b6020831061178f57805182527fffffffffffffffffffffffffffffffffffffffffffffffffffffffffffffffe09092019160209182019101611752565b51815160209384036101000a7fffffffffffffffffffffffffffffffffffffffffffffffffffffffffffffffff0180199092169116179052604080519290940182900390912060008181526008909252929020805492965094505060ff1615159150610aaf905057805460017fffffffffffffffffffffffffffffffffffffffffffffffffffffffffffffff009182168117835560038301805483168217905560048301849055600683018054831682177fffffffffffffffffffffffffffffffffffffffffffffffffffffffffff0000ff16905573ffffffffffffffffffffffffffffffffffffffff86166000818152600760209081526040808320889055600980548985526012845282852080547fffffffffffffffffffffffffffffffffffffffffffffffffffffffff0000000090811663ffffffff93841617909155825482168652601185528386208b9055868652600a8552838620338088529086528487208054909a168917909955868652600b8552838620898752855283862080547fffffffffffffffffffffffffffffffffffffffffffffffff0000000000000000169055958552600c8452918420805480880182559085529290932090910180547fffffffffffffffffffffffff0000000000000000000000000000000000000000169095179094558054808516909301909316911617905560029250610abd565b63ffffffff82166000908152600d6020908152604080832062ffffff8516845290915290205492915050565b60006119ca33610665565b1561065c57600173ffffffffffffffffffffffffffffffffffffffff831660009081526002602081905260409091205460ff1690811115611a0757fe5b1461064f5773ffffffffffffffffffffffffffffffffffffffff821660009081526002602052604090208054600191907fffffffffffffffffffffffffffffffffffffffffffffffffffffffffffffff0016828061060e565b6000611a6b33610665565b1561065c5760013360009081526002602081905260409091205460ff1690811115611a9257fe5b14611a9c57600080fd5b600260ff8316108015611ab7575060005460ff908116908316115b1561064f57506002610660565b6000611acf33610665565b1561065c5760013360009081526002602081905260409091205460ff1690811115611af657fe5b14611b0057600080fd5b600760ff83161115611b415750600080547fffffffffffffffffffffffffffffffffffffffffffffffffffffffffffffff001660ff83161790556002610660565b60005460ff6101009091048116908316101561065757506001610660565b6000611b6a33610665565b1561065c5760008054838252600460205260409091206002015460ff9182169116108015611bee5750600082815260046020908152604080832033845290915281205460ff166003811115611bbb57fe5b1480611bee57506003600083815260046020908152604080832033845290915290205460ff166003811115611bec57fe5b145b15611ca45760008281526004602090815260408083206002810180547fffffffffffffffffffffffffffffffffffffffffffffffffffffffffffffff00808216600160ff9384168101909316179092553380875283865284872080549093168217909255918201805480840182559086528486200180547fffffffffffffffffffffffff000000000000000000000000000000000000000016821790558452600583529083208054918201815583529120018290555b5060008181526004602052604090206002015460ff166106605600a165627a7a72305820c5032f40042cadc44decb7c053a6a4b0826ec6a8833da5a06ddb7d52f4113c650029",
  "source": "pragma solidity ^0.4.19;\n\nimport \"./Interfaces/ITrustAnchorManager.sol\";\n\nimport \"./Administrable.sol\";\n\n// The Trust Channel Manager is an interface for Trust Anchors to collaborate and share directed\n// financial communications channels in as closee to a friction free way as possible.\n//\n// Trust Anchors sign up to collaborate on the Trust Channel, assigning rules that must be in place\n// to allow for the interface to function. Verifiability of documentation is a key differentiating\n// factor from other identity solutions.\n//\n// Technically, the Trust Channel contract acts as a service-interface aggregator, relying heavily\n// on bit-field manipulation to associate the DCG (directed cyclic graph) relations of the\n// participating trust anchor efficiently.\n//\n// This creates bounds on logic, as lookup tables increase linearly. Bloom filters could theoretically\n// be utilized to allow a probablistic pathing that might need to have heavier lookups in the future.\n//\n// Within this flow, the Trust Channels are initially set up by the administrators of this smart contract\n// and within each Trust Channel is the ability to add \"Trust Channel Administrators\", who can manage the membership\n// of each Trust Channel.\n\n\n//@note:@todo:@next: examine the use of a de-facto \"global id type\" section, with Shyft running the\n// attestor component via reading certificate-equivalents from signed messages having a valid\n// certificate from some third-party entity.\n//\n// second forms of identity may be used and collected like PGP methods.\n\ncontract TrustChannelManager is Administrable {\n    // ** trust channel management ** //\n\n    event EVT_IsTrustChannelAdministrator(address _trustChannelAdministratorAddress,\n        address _trustChannelAddress,\n        bool isTrustChannelAdministrator);\n\n    event EVT_ReceivedJurisdictionFromTrustAnchor( uint16 jurisdiction,\n        address trustAnchorAddress,\n        address trustChannelAddress );\n\n    event EVT_ComposedTrustChannelWithTrustAnchor( uint256 composedBitField,\n        uint32 trustAnchorIndex,\n        uint32 trustChannelIndex,\n        address _trustAnchorAddress,\n        address _trustChannelAddress );\n\n    event EVT_AddedTrustAnchorToTrustChannel( uint256 ruleStorageIndex,\n        uint24 trustChannelLowestSubmapNumber,\n        uint24 trustChannelHighestSubmapNumber,\n        address _trustAnchorAddress,\n        address _trustChannelAddress );\n\n    event EVT_Route(address _senderIdentifiedAddress,\n        address _receiverIdentifiedAddress,\n        uint256 _amount,\n        uint32 _trustChannelIndex);\n\n    enum TrustChannelRules { VerificationPolicyEnforced,\n        AllowTransitAcrossOtherChannels,\n        AllowTransitAcrossJurisdictions,\n        rules_MinimumSyntheticKycLevelRequired,\n        NumberOfRules}\n\n    uint8 rules_VerificationPolicyEnforced = 0;\n    uint8 rules_AllowTransitAcrossOtherChannels = 1;\n    uint8 rules_AllowTransitAcrossJurisdictions = 2;\n    uint8 rules_MinimumSyntheticKycLevelRequired = 3;\n\n    //\"rulesStorage\" keys below substructured such that there are:\n    // for every rule type (index R):\n    //\n    // 0 -> generalized storage\n    // R * 2**8 + N = Rule storage N, where N < 256.\n    //\n    // [0]: must have verification policy\n    // [1]: allow transit across other channels\n    //  .   [1 * 2**8 + 0] [#256-bit bit field#]: trust channel map A\n    //  .   [1 * 2**8 + 1] [#256-bit bit field#]: trust channel map B\n    //  .   [1 * 2**8 + 2] [#256-bit bit field#]: trust channel map C\n    //  .   [1 * 2**8 + 3] [#256-bit bit field#]: trust channel map D\n    //      ...    note: > 2048 possible trust channels, it is not limited in this contract.\n    // [2]: allow transit across jurisdiction\n    //  .   [2 * 2**8 + 0] [#256-bit bitfield] for jurisdictions allowed under this bit field (0 -> 255)\n    //  .   [2 * 2**8 + 1] [#256-bit bitfield] for jurisdictions allowed under this bit field (255 -> 511)\n    //  .   [2 * 2**8 + 2] [#256-bit bitfield] for jurisdictions allowed under this bit field (511 -> 767)\n    //  .   [2 * 2**8 + 3] [#256-bit bitfield] for jurisdictions allowed under this bit field (767 -> 1023)\n    //      ...    note: > 2048 possible jurisdictions, it is not limited in this contract.\n    // [3]: minimum synthetic kyc level required\n    //  .   [3 * 2**8 + 0] [#16-bit signed integer] kyc level required minimum across all jurisdictions\n\n    //@note: bloom filters aren't considered for the moment while the bit field allows direct comparison.\n    //  .   [0] [#256-bit bloom filter#] bloom filter for jurisdiction phase A << within rulesStorage keccack256(trustChannelKeccak, TrustChannelRules.AllowTransitAcrossJurisdiction, \"A\")\n    //          1 in 256**2 chance of collision\n    //  .   [1] [#256-bit bloom filter#] bloom filter for jurisdiction phase B << within rulesStorage keccack256(trustChannelKeccak, TrustChannelRules.AllowTransitAcrossJurisdiction, \"B\")\n    //          1 in 256**3 chance of collision\n    //  .   [2] [#256-bit bloom filter#] bloom filter for jurisdiction phase C << within rulesStorage keccack256(trustChannelKeccak, TrustChannelRules.AllowTransitAcrossJurisdiction, \"C\")\n    //          1 in 256**4 chance of collision\n    //  .   [3] [#256-bit bloom filter#] bloom filter for jurisdiction phase D << within rulesStorage keccack256(trustChannelKeccak, TrustChannelRules.AllowTransitAcrossJurisdiction, \"D\")\n\n    //minimumSyntheticKyLevelRequired\n    struct trustChannelRules {\n        bool isActive;\n        bytes32 trustChannelKeccak;\n        mapping(uint16 => bytes32) rulesStorage;\n        bool[8] rulesActive;\n    }\n\n    struct trustChannelMap {\n        bool isActive;\n        mapping(address => bool) trustAnchorAddressExists;\n//        uint256[] trustAnchorIndexMapEXBitField;\n        uint8 numMembers;\n\n        trustChannelRules channelRules;\n    }\n\n    mapping(address => bytes32) trustChannelAddressToTrustChannelKeccak;\n    mapping(bytes32 => trustChannelMap) trustChannelKeccakToTrustChannelMap;\n    uint32 numTrustChannels;\n\n    //data model for the administrators of each trust channel.\n    mapping(address => mapping(address => bool)) trustChannelAdministratorExistsMapping;\n    mapping(address => mapping(address => uint64)) trustChannelAdministratorsIndexMapping;\n    mapping(address => address[]) trustChannelAdministratorsArray;\n\n    //@note: this mapping is a bit different than the others.. it is a\n    //trust anchor address to bitfield*s* that make up a practically unlimited\n    //data addressing space. ex:\n    //\n    //trustAnchorIndexToTrustChannelIndexBitField[0] = 256-bit bit field\n    //representing the first 256 trust channels.\n\n    mapping(uint32 => mapping(uint24 => uint256)) trustAnchorIndexToTrustChannelIndexBitField;\n\n    mapping(uint32 => bool) trustAnchorIndexAssociatedToAnyTrustChannels;\n    mapping(uint32 => uint24) trustAnchorIndexToTrustChannelLowestSubmapNumber;\n    mapping(uint32 => uint24) trustAnchorIndexToTrustChannelHighestSubmapNumber;\n\n    mapping(uint32 => bytes32) trustChannelIndexToTrustChannelKeccak;\n    mapping(bytes32 => uint32) trustChannelKeccakToTrustChannelIndex;\n\n    uint16 constant NoJurisdiction = 2 ** 16 - 1;\n\n    address trustAnchorManagerAddress;\n    address trustAnchorStorageAddress;\n\n    constructor() public {\n        owner = msg.sender;\n    }\n\n\n    //@note:@here:@todo:@next: setup the following two functions to be multisig through Administrable, and write tests\n    // to match.\n\n    //returns:\n    // 0 = not owner\n    // 1 = set trust anchor storage address\n\n    function setTrustAnchorManagerAddress(address _trustAnchorManagerAddress) public returns (uint8 result) {\n        if (isAdministrator(msg.sender)) {\n            //@note:@here:@todo: stabilize on whether 1 or 2 admins are required to set up, figure out\n            //what to do if the storage address is replaced (this would be a \"big deal\" re: the user's kyc cache graphs)\n\n            require(_trustAnchorManagerAddress != address(0));\n\n            trustAnchorManagerAddress = _trustAnchorManagerAddress;\n\n            //set trust anchor storage address\n            return 1;\n        } else {\n            //not owner\n            return 0;\n        }\n    }\n\n    //returns:\n    // 0 = not owner\n    // 1 = set trust anchor storage address\n\n    function setTrustAnchorStorageAddress(address _trustAnchorStorageAddress) public returns (uint8 result) {\n        if (isAdministrator(msg.sender)) {\n            //@note:@here:@todo: stabilize on whether 1 or 2 admins are required to set up, figure out\n            //what to do if the storage address is replaced (this would be a \"big deal\" re: the user's kyc cache graphs)\n\n            require(_trustAnchorStorageAddress != address(0));\n\n            trustAnchorStorageAddress = _trustAnchorStorageAddress;\n\n            //set trust anchor storage address\n            return 1;\n        } else {\n            //not owner\n            return 0;\n        }\n    }\n\n    //returns:\n    // 0 = not administrator\n    // 1 = trust channel already exists\n    // 2 = added trust channel\n\n    function adminSetupTrustChannel(address _trustChannelAddress) public returns (uint8 result) {\n        if (isAdministrator(msg.sender)) {\n\n            //@note: @here: @future this should be modified so that an address can own multiple trust channels.\n            bytes32 trustChannelKeccak = keccak256(abi.encodePacked(_trustChannelAddress));\n            trustChannelMap storage channelMap = trustChannelKeccakToTrustChannelMap[trustChannelKeccak];\n\n\n            if (channelMap.isActive == false) {\n                channelMap.isActive = true;\n                channelMap.channelRules.isActive = true;\n                channelMap.channelRules.trustChannelKeccak = trustChannelKeccak;\n                channelMap.channelRules.rulesActive[uint8(TrustChannelRules.VerificationPolicyEnforced)] = true;\n                channelMap.channelRules.rulesActive[uint8(TrustChannelRules.AllowTransitAcrossOtherChannels)] = false;\n                //keccack256(trustChannelKeccak, TrustChannelRules.AllowTransitAcrossOtherChannels, \"A\")\n                channelMap.channelRules.rulesActive[uint8(TrustChannelRules.AllowTransitAcrossJurisdictions)] = false;\n                //keccack256(trustChannelKeccak, TrustChannelRules.AllowTransitAcrossJurisdiction, \"A\")\n\n                trustChannelAddressToTrustChannelKeccak[_trustChannelAddress] = trustChannelKeccak;\n\n                trustChannelKeccakToTrustChannelIndex[trustChannelKeccak] = numTrustChannels;\n                trustChannelIndexToTrustChannelKeccak[numTrustChannels] = trustChannelKeccak;\n\n                //setup the base administrator for this trust channel.\n                trustChannelAdministratorExistsMapping[_trustChannelAddress][msg.sender] = true;\n                trustChannelAdministratorsIndexMapping[_trustChannelAddress][msg.sender] = 0;\n                trustChannelAdministratorsArray[_trustChannelAddress].push(msg.sender);\n\n                numTrustChannels++;\n\n                //added trust channel\n                return 2;\n            } else {\n                //trust channel already exists\n                return 1;\n            }\n        } else {\n            //not administrator\n            return 0;\n        }\n    }\n\n    //returns:\n    //false = not trust channel administrator\n    //true = is trust channel administrator\n\n    function isTrustChannelAdministrator(address _trustChannelAdministratorAddress,\n                                         address _trustChannelAddress) public returns (bool result) {\n        emit EVT_IsTrustChannelAdministrator(_trustChannelAdministratorAddress, _trustChannelAddress, trustChannelAdministratorExistsMapping[_trustChannelAddress][_trustChannelAdministratorAddress]);\n        if (trustChannelAdministratorExistsMapping[_trustChannelAddress][_trustChannelAdministratorAddress] == true) {\n            //is trust channel administrator\n            return true;\n        } else {\n            //not trust channel administrator\n            return false;\n        }\n    }\n\n    //returns:\n    //address(0) = no trust channel administrator found\n    //[address] = address of trust channel administrator\n\n    function getTrustChannelAdministratorForTrustChannelByIndex(address _trustChannelAddress,\n                                                                uint64 _index) public returns (address result) {\n        if (trustChannelAdministratorsArray[_trustChannelAddress].length > _index) {\n            return trustChannelAdministratorsArray[_trustChannelAddress][_index];\n        } else {\n            //not no trust channel administrator found\n            return address(0);\n        }\n    }\n\n    //returns:\n    // 0 = not trust channel administrator\n    // 1 = already a trust channel administrator for this trust channel\n    // 1 = set new trust channel administrator for this trust channel\n\n    //@note:@todo:@audit: does this work better if we had a multisig equivalent for the channel administrators?\n    function trustChannelAdministratorAddChannelAdministrator(address _newTrustChannelAdministratorAddress,\n                                                         address _trustChannelAddress) public returns (uint16 result) {\n        if (isTrustChannelAdministrator(msg.sender, _trustChannelAddress) == true) {\n            if (isTrustChannelAdministrator(_newTrustChannelAdministratorAddress, _trustChannelAddress) == false) {\n                trustChannelAdministratorExistsMapping[_trustChannelAddress][_newTrustChannelAdministratorAddress] = true;\n                trustChannelAdministratorsIndexMapping[_trustChannelAddress][_newTrustChannelAdministratorAddress] = uint64(trustChannelAdministratorsArray[_trustChannelAddress].length);\n                trustChannelAdministratorsArray[_trustChannelAddress].push(_newTrustChannelAdministratorAddress);\n\n                //set new trust channel administrator for this trust channel\n                return 2;\n            } else {\n                //already a trust channel administrator for this trust channel\n                return 1;\n            }\n        } else {\n            //not trust channel administrator\n            return 0;\n        }\n    }\n\n    //returns:\n    // 0 = not trust channel administrator\n    // 1 = trust channel administrator doesn't exist for this trust channel\n    // 1 = trust channel administrator removed for this trust channel\n\n    //@note:@todo:@audit: does this work better if we had a multisig equivalent for the channel administrators?\n    //@note:@todo:@test: write tests surrounding this function.\n    function trustChannelAdministratorRemoveChannelAdministrator(address _trustChannelAdministratorAddressToRemove,\n                                                                 address _trustChannelAddress) public returns (uint16 result) {\n        if (isTrustChannelAdministrator(msg.sender, _trustChannelAddress) == true) {\n            if (isTrustChannelAdministrator(_trustChannelAdministratorAddressToRemove, _trustChannelAddress) == true) {\n                trustChannelAdministratorExistsMapping[_trustChannelAddress][_trustChannelAdministratorAddressToRemove] = false;\n\n                //clear out the trust channel administrator association at a specific index so that the getter for the\n                // trust channel administrators at index N returns a zero address.\n                uint64 index = trustChannelAdministratorsIndexMapping[_trustChannelAddress][_trustChannelAdministratorAddressToRemove];\n                trustChannelAdministratorsArray[_trustChannelAddress][index] = address(0);\n\n                //trust channel administrator removed for this trust channel\n                return 2;\n            } else {\n                //trust channel administrator doesn't exist for this trust channel\n                return 1;\n            }\n        } else {\n            //not trust channel administrator\n            return 0;\n        }\n    }\n\n    //returns:\n    // 0 = not administrator\n    // 1 = not enough administrators have permissioned change\n    // 2 = trust channel removed\n\n    //@note:@here:@todo:@next:@audit:@critical: what happens to the trust channel mappings when a trust channel is removed.\n    //\n    // thoughts; you'd be able to process offline the users affected by that trust channel, and manually remove the trust channel\n    // from each, and from all of the trust anchors that it had been associated to. After that, it could be re-assigned.\n    // this could be a very heavy gas costs #statisticalmodelling.\n\n    // however, consider that this trust anchor attestation is like a license.\n\n//    function adminRemoveTrustChannel(address _trustChannelAddress) public returns (uint16 result) {\n//        if (isAdministrator(msg.sender)) {\n//            bytes32 keyKeccak = keccak256(\"removeTrustChannel\", _trustChannelAddress);\n//\n//            uint16 numPermissions = getPermissionsForMultisignKey(keyKeccak);\n//\n//            bool permittedToModify;\n//\n//            if (numPermissions >= maxThreshold) {\n//                permittedToModify = true;\n//            } else {\n//                uint16 numConfirmedPermissions = adminApplyAndGetPermissionsForMultisignKey(keyKeccak);\n//\n//                if (numConfirmedPermissions >= maxThreshold) {\n//                    permittedToModify = true;\n//                }\n//            }\n//\n//            if (permittedToModify == true) {\n//                bytes32 trustChannelKeccak = keccak256(_trustChannelAddress);\n//                trustChannelKeccakToTrustChannelMap[trustChannelKeccak].isActive = false;\n//\n//                //@note:@here:@security if this function is ill-used by a\n//                // malicious admin, the worst they can do is reset the permissions\n//                // of the keys, and they have to be the one to execute a key\n//                // permissioning to get this far in the stack.\n//                adminResetPermissionsForMultisignKey(keyKeccak);\n//\n//                //trust channel removed\n//                return 2;\n//\n//            } else {\n//                //not enough administrators have permissioned change\n//                return 1;\n//            }\n//        } else {\n//            //not an administrator\n//            return 0;\n//        }\n//    }\n\n    //returns:\n    // 0 = not trust channel administrator\n    // 1 = trust channel not active\n    // 2 = trust anchor already within mapping\n    // 3 = no trust anchor jurisdiction set\n    // 4 = trust anchor added to trust channel\n\n    //@note:@next:@todo:@audit: what happens to the existing users of the trust anchor (w / prior attestations) when the\n    // trust anchor is associated to this new trust channel. ie are new attestations required?\n\n    function trustChannelAdministratorAddTrustAnchorToTrustChannel( address _trustAnchorAddress,\n                                                                    address _trustChannelAddress) public returns (uint8 result) {\n        if (isTrustChannelAdministrator(msg.sender, _trustChannelAddress) == true) {\n            bytes32 trustChannelKeccak = trustChannelAddressToTrustChannelKeccak[_trustChannelAddress];\n            trustChannelMap storage channelMap = trustChannelKeccakToTrustChannelMap[trustChannelKeccak];\n\n            if (channelMap.isActive == true) {\n                if (channelMap.trustAnchorAddressExists[_trustAnchorAddress] == false) {\n\n                    //@note: need to check trust anchor jurisdiction in trust anchor manager lookup\n                    ITrustAnchorManager trustAnchorManager = ITrustAnchorManager(trustAnchorManagerAddress);\n                    uint16 jurisdiction = trustAnchorManager.getTrustAnchorJurisdiction(_trustAnchorAddress);\n                    uint32 trustAnchorIndex = trustAnchorManager.getTrustAnchorIndex(_trustAnchorAddress);\n\n                    emit EVT_ReceivedJurisdictionFromTrustAnchor(jurisdiction, _trustAnchorAddress, _trustChannelAddress);\n\n                    if (jurisdiction != NoJurisdiction) {\n                        uint32 trustChannelIndex = trustChannelKeccakToTrustChannelIndex[trustChannelKeccak];\n\n                        //separate out the trust channel index number with the sub-mapping. this keeps alignment to 256 bits.\n                        //uint24 because the maximum value is the trustChannelIndex (a uint32) shifted over 8 bits.\n                        uint24 submapNumber = uint24(trustChannelIndex >> 8);\n                        uint8 subIndex = uint8(trustChannelIndex % 256);\n\n                        //when the mapping is done, it is OR'd with the 2(to the power of)trustChannelIndex, subIndex being bounded between 0->2**24-1.\n                        //this indicates the trust channel index in a (bounded, but still very very high) address space.\n\n                        trustAnchorIndexToTrustChannelIndexBitField[trustAnchorIndex][submapNumber] |= uint256(2 ** uint256(subIndex));\n\n                        emit EVT_ComposedTrustChannelWithTrustAnchor(trustAnchorIndexToTrustChannelIndexBitField[trustAnchorIndex][submapNumber], trustAnchorIndex, trustChannelIndex, _trustAnchorAddress, _trustChannelAddress);\n\n                        //                        //@note: necessary for trust anchor revocations, and attestation revocation.\n//\n//                        //separate out the trust anchor submap index with the sub-mapping. this keeps alignment to 256 bits.\n//                        uint24 submapNumber = uint24(trustAnchorIndex >> 8);\n//                        uint8 subIndex = uint8(trustAnchorIndex % 256);\n//\n//                        if (channelMap.trustAnchorIndexMapEXBitField.length < (submapNumber + 1)) {\n//                            channelMap.trustAnchorIndexMapEXBitField = submapNumber + 1;\n//                        }\n//                        //@note:@todo:@next: consider the additional complexity if the trust anchor itself is revoked.\n//                        channelMap.trustAnchorIndexMapEXBitField[submapNumber] |= (2 ** uint256(subIndex));\n\n                        //and we keep track of the highest channel index for later high-speed compares. for example larger systems\n                        //might require more 256 bit table lookup/compares.\n                        if (trustAnchorIndexAssociatedToAnyTrustChannels[trustAnchorIndex] == false) {\n                            trustAnchorIndexAssociatedToAnyTrustChannels[trustAnchorIndex] = true;\n                            trustAnchorIndexToTrustChannelLowestSubmapNumber[trustAnchorIndex] = submapNumber;\n                        } else {\n                            if (trustAnchorIndexToTrustChannelLowestSubmapNumber[trustAnchorIndex] > submapNumber) {\n                                trustAnchorIndexToTrustChannelLowestSubmapNumber[trustAnchorIndex] = submapNumber;\n                            }\n                        }\n\n                        if (trustAnchorIndexToTrustChannelHighestSubmapNumber[trustAnchorIndex] < submapNumber) {\n                            trustAnchorIndexToTrustChannelHighestSubmapNumber[trustAnchorIndex] = submapNumber;\n                        }\n\n\n                        channelMap.channelRules.rulesActive[uint8(TrustChannelRules.AllowTransitAcrossJurisdictions)] = true;\n\n                        //separate out the jurisdiction number with the sub-mapping. this keeps alignment to 256 bits.\n                        //@note: reusing \"submapNumber\" which is uint24, casting to uint8 in further.\n                        submapNumber = uint8(jurisdiction >> 8);\n                        subIndex = uint8(jurisdiction % 256);\n                        //when the mapping is done, it is OR'd with the 2(to the power of)subIndex, subIndex being bounded between 0->255.\n                        //this indicates the jurisdiction in a (bounded, but still very very high) address space.\n\n                        uint16 ruleStorageIndex = uint16(2 ** uint256(rules_AllowTransitAcrossJurisdictions)) + uint8(submapNumber);\n\n                        channelMap.channelRules.rulesStorage[ruleStorageIndex] |= bytes32(2 ** uint256(subIndex));\n\n                        channelMap.trustAnchorAddressExists[_trustAnchorAddress] = true;\n                        channelMap.numMembers++;\n\n                        emit EVT_AddedTrustAnchorToTrustChannel( ruleStorageIndex,\n                                                            trustAnchorIndexToTrustChannelLowestSubmapNumber[trustAnchorIndex],\n                                                            trustAnchorIndexToTrustChannelHighestSubmapNumber[trustAnchorIndex],\n                                                            _trustAnchorAddress,\n                                                            _trustChannelAddress);\n\n                        //trust anchor added to trust channel\n                        return 4;\n                    } else {\n\n                        //no trust anchor jurisdiction set\n                        return 3;\n                    }\n                } else {\n                    //trust anchor already within mapping\n                    return 2;\n                }\n            } else {\n                //trust channel not active\n                return 1;\n            }\n        } else {\n            //not channel administrator\n            return 0;\n        }\n    }\n\n    //@note:@here:@todo:@next:@test: write tests for this.\n    function getTrustChannelLowestSubmapNumberForTrustAnchorIndex(uint32 _trustAnchorIndex) public view returns (uint24 result) {\n        return trustAnchorIndexToTrustChannelLowestSubmapNumber[_trustAnchorIndex];\n    }\n\n    //@note:@here:@todo:@next:@test: write tests for this.\n    function getTrustChannelHighestSubmapNumberForTrustAnchorIndex(uint32 _trustAnchorIndex) public view returns (uint24 result) {\n        return trustAnchorIndexToTrustChannelHighestSubmapNumber[_trustAnchorIndex];\n    }\n\n    function getTrustChannelIndexBitFieldAtSubmapNumberForTrustAnchorIndex(uint32 _trustAnchorIndex, uint24 submapNumber) public view returns (uint256 result) {\n        return trustAnchorIndexToTrustChannelIndexBitField[_trustAnchorIndex][submapNumber];\n    }\n\n\n    //@note: this function performs any necessary notifications across the trust channel routing indicies. If there are event subscribers, most of the logistics can\n    // be handled on the app layer instead of the dapp layer. However, automated blockchain accounts, reporting, etc. could do with having specific event subscription\n    // calls.\n\n    //returns:\n    // 1 -> 2**15 - 1 = kyc levels authorized\n    // 0: no routing possible (@note: is this even possible)\n    // -1: pseudonymous only\n    // -2: bridged kyc only (Civic etc)\n    // -3 -> -(2**15 - 1) = bridged kyc modes (@note:@here:@todo:@next: defined these)\n\n    //@note:@todo:@next\n\n\n    //the routing function is only called when the fully identified trust channel indexes are aligned from a KYC'd user's cache graph.\n    //the trust anchors on both the sender and receiver side are guaranteed to exist within this trust channel.\n    //\n    //if any further rules are required by this trust channel, this function might return false.\n    //@note:@todo: other variances such as reporting restrictions might be returned as well from overloaded versions of route.\n\n    //returns:\n    // 0 =\n    // 1 =\n\n    //@note:@here:@todo:@next:@critical: maybe have this function do a lookup to see if the trust channel has been removed. this would be sorta\n    // hacky and I'd prefer if route never got called for invalidated trust channels in the first place (since then the send function\n    // needs to perform another lookup)\n\n    function route(uint256 _amount, address _senderIdentifiedAddress, address _receiverIdentifiedAddress, uint32 _trustChannelIndex) public returns (int16 result) {\n        trustChannelRules storage channelRules = trustChannelKeccakToTrustChannelMap[trustChannelIndexToTrustChannelKeccak[_trustChannelIndex]].channelRules;\n\n        emit EVT_Route(_senderIdentifiedAddress, _receiverIdentifiedAddress, _amount, _trustChannelIndex);\n\n        if (channelRules.rulesActive[rules_AllowTransitAcrossJurisdictions] == true) {\n            // channelRules.rulesActive[rules_AllowTransitAcrossJurisdictions];\n            return 1;\n        }\n\n        return 1;\n    }\n}\n\n",
  "sourcePath": "/Users/jaypersanchez/shyft_shyftcorecontracts/contracts/TrustChannelManager.sol",
  "compiler": {
    "name": "solc",
    "version": "0.4.28+commit.2fcccea1.Emscripten.clang"
  },
  "schemaVersion": "2.0.3",
  "updatedAt": "2019-03-26T16:26:58.714Z"
}