{
  "contractName": "EscrowContract",
  "abi": [
    {
      "inputs": [],
      "stateMutability": "nonpayable",
      "type": "constructor"
    },
    {
      "stateMutability": "payable",
      "type": "fallback",
      "payable": true
    },
    {
      "stateMutability": "payable",
      "type": "receive",
      "payable": true
    },
    {
      "inputs": [],
      "name": "getMsgValue",
      "outputs": [
        {
          "internalType": "uint256",
          "name": "",
          "type": "uint256"
        }
      ],
      "stateMutability": "payable",
      "type": "function",
      "payable": true
    },
    {
      "inputs": [],
      "name": "getMsgSender",
      "outputs": [
        {
          "internalType": "address",
          "name": "",
          "type": "address"
        },
        {
          "internalType": "address",
          "name": "",
          "type": "address"
        }
      ],
      "stateMutability": "view",
      "type": "function",
      "constant": true
    }
  ],
  "bytecode": "0x608060405234801561001057600080fd5b50336000806101000a81548173ffffffffffffffffffffffffffffffffffffffff021916908373ffffffffffffffffffffffffffffffffffffffff16021790555061014d806100606000396000f3fe60806040526004361061002d5760003560e01c80637a6ce2e114610036578063a17042cc146100c057610034565b3661003457005b005b34801561004257600080fd5b5061004b6100de565b604051808373ffffffffffffffffffffffffffffffffffffffff1673ffffffffffffffffffffffffffffffffffffffff1681526020018273ffffffffffffffffffffffffffffffffffffffff1673ffffffffffffffffffffffffffffffffffffffff1681526020019250505060405180910390f35b6100c861010f565b6040518082815260200191505060405180910390f35b600080336000809054906101000a900473ffffffffffffffffffffffffffffffffffffffff16819150915091509091565b60003490509056fea2646970667358221220dbeee17ae31483806e07ff421deb767877225185fcb73da5a757c2b912bee08264736f6c63430006000033",
  "source": "pragma solidity ^0.6.0 < 0.6.11;\r\n\r\nimport \"./ComfreePropertyDataModel.sol\";\r\nimport \"./ComfreeToken.sol\";\r\n\r\n\r\ncontract EscrowContract {\r\n    address owner;\r\n    mapping (address => uint256)  private userBalances;\r\n\r\n    constructor () public {\r\n        owner = msg.sender;\r\n    }//constructor \r\n\r\n    modifier checkAccountBalance(address _accountAddress, uint _escrowAmount) {\r\n        require(_accountAddress.balance >= _escrowAmount);\r\n        _;\r\n    }//checkAccountBalance\r\n\r\n    modifier isContractOwner(address _address) { \r\n    require(msg.sender == _address); \r\n    _; }\r\n\r\n  modifier verifyCaller (address _address) { \r\n    require (msg.sender == _address); \r\n    _;\r\n  }\r\n\r\n  modifier paidEnough(uint _price) { \r\n    require(msg.value >= _price); \r\n    _;\r\n  }\r\n\r\n  modifier checkValue(uint _price) {\r\n    //refund them after pay for item (why it is before, _ checks for logic before func)\r\n    _;\r\n    uint amountToRefund = msg.value - _price;\r\n    msg.sender.transfer(amountToRefund);\r\n    \r\n  }\r\n\r\n  function getMsgValue() public payable returns(uint) {\r\n    return msg.value;\r\n  }\r\n\r\n  function getMsgSender() public view returns(address,address) {\r\n    return (msg.sender, owner);\r\n  }\r\n\r\n  receive() external payable {\r\n            // React to receiving ether\r\n  }\r\n\r\n\r\n  fallback() external payable {\r\n\r\n  }\r\n}",
  "sourcePath": "C:\\Users\\jay.sanchez\\j4\\comfreeproperty\\contracts\\EscrowContract.sol",
  "compiler": {
    "name": "solc",
    "version": "0.6.0+commit.26b70077.Emscripten.clang"
  },
  "schemaVersion": "3.0.23",
  "updatedAt": "2020-07-23T04:09:58.620Z",
  "networkType": "ethereum",
  "devdoc": {
    "methods": {}
  },
  "userdoc": {
    "methods": {}
  }
}