{
  "contractName": "OfferContract",
  "abi": [
    {
      "inputs": [],
      "stateMutability": "nonpayable",
      "type": "constructor"
    },
    {
      "anonymous": false,
      "inputs": [
        {
          "indexed": false,
          "internalType": "uint256",
          "name": "_id",
          "type": "uint256"
        },
        {
          "indexed": false,
          "internalType": "bool",
          "name": "_value",
          "type": "bool"
        }
      ],
      "name": "OfferAccepted",
      "type": "event"
    },
    {
      "anonymous": false,
      "inputs": [
        {
          "indexed": false,
          "internalType": "address",
          "name": "_buyer",
          "type": "address"
        },
        {
          "indexed": false,
          "internalType": "address",
          "name": "_seller",
          "type": "address"
        },
        {
          "indexed": false,
          "internalType": "uint256",
          "name": "offerAmount",
          "type": "uint256"
        }
      ],
      "name": "OfferCreated",
      "type": "event"
    },
    {
      "anonymous": false,
      "inputs": [
        {
          "indexed": false,
          "internalType": "bool",
          "name": "_WallsPainted",
          "type": "bool"
        },
        {
          "indexed": false,
          "internalType": "bool",
          "name": "_CarpetCleaned",
          "type": "bool"
        },
        {
          "indexed": false,
          "internalType": "bool",
          "name": "_WindowsWashed",
          "type": "bool"
        }
      ],
      "name": "isAllSaleConditionsMet",
      "type": "event"
    },
    {
      "inputs": [],
      "name": "escrowDataElements",
      "outputs": [
        {
          "internalType": "address",
          "name": "escrowDepositorAddress",
          "type": "address"
        },
        {
          "internalType": "address",
          "name": "escrowAgentAddress",
          "type": "address"
        },
        {
          "internalType": "address",
          "name": "escrowBeneficiaryAddress",
          "type": "address"
        },
        {
          "internalType": "uint256",
          "name": "escrowAmount",
          "type": "uint256"
        }
      ],
      "stateMutability": "view",
      "type": "function",
      "constant": true
    },
    {
      "inputs": [],
      "name": "getActiveOffers",
      "outputs": [
        {
          "internalType": "uint256[]",
          "name": "",
          "type": "uint256[]"
        }
      ],
      "stateMutability": "view",
      "type": "function",
      "constant": true
    },
    {
      "inputs": [
        {
          "internalType": "uint256",
          "name": "_id",
          "type": "uint256"
        }
      ],
      "name": "getOfferContractDetailsById",
      "outputs": [
        {
          "internalType": "address",
          "name": "_buyerAddress",
          "type": "address"
        },
        {
          "internalType": "address",
          "name": "_sellerAddress",
          "type": "address"
        },
        {
          "internalType": "uint256",
          "name": "_offerDate",
          "type": "uint256"
        },
        {
          "internalType": "uint256",
          "name": "_currentDate",
          "type": "uint256"
        },
        {
          "internalType": "uint256",
          "name": "_expiredDate",
          "type": "uint256"
        },
        {
          "internalType": "uint256",
          "name": "_offerAmount",
          "type": "uint256"
        },
        {
          "internalType": "bool",
          "name": "_accepted",
          "type": "bool"
        }
      ],
      "stateMutability": "view",
      "type": "function",
      "constant": true
    },
    {
      "inputs": [
        {
          "internalType": "address",
          "name": "_buyerAddress",
          "type": "address"
        },
        {
          "internalType": "address",
          "name": "_sellerAddress",
          "type": "address"
        },
        {
          "internalType": "uint256",
          "name": "_offerDate",
          "type": "uint256"
        },
        {
          "internalType": "uint256",
          "name": "_currentDate",
          "type": "uint256"
        },
        {
          "internalType": "uint256",
          "name": "_expiredDate",
          "type": "uint256"
        },
        {
          "internalType": "uint256",
          "name": "_offerAmount",
          "type": "uint256"
        },
        {
          "internalType": "bool",
          "name": "_accepted",
          "type": "bool"
        }
      ],
      "name": "createOfferContract",
      "outputs": [
        {
          "internalType": "uint256",
          "name": "_result",
          "type": "uint256"
        }
      ],
      "stateMutability": "nonpayable",
      "type": "function"
    },
    {
      "inputs": [
        {
          "internalType": "uint256",
          "name": "_id",
          "type": "uint256"
        },
        {
          "internalType": "bool",
          "name": "_value",
          "type": "bool"
        }
      ],
      "name": "accept",
      "outputs": [
        {
          "internalType": "bool",
          "name": "",
          "type": "bool"
        }
      ],
      "stateMutability": "nonpayable",
      "type": "function"
    },
    {
      "inputs": [
        {
          "internalType": "uint256",
          "name": "_id",
          "type": "uint256"
        }
      ],
      "name": "isOfferAccepted",
      "outputs": [
        {
          "internalType": "bool",
          "name": "",
          "type": "bool"
        }
      ],
      "stateMutability": "view",
      "type": "function",
      "constant": true
    },
    {
      "inputs": [
        {
          "internalType": "uint256",
          "name": "_id",
          "type": "uint256"
        }
      ],
      "name": "isOfferExpired",
      "outputs": [
        {
          "internalType": "bool",
          "name": "_value",
          "type": "bool"
        }
      ],
      "stateMutability": "nonpayable",
      "type": "function"
    }
  ],
  "bytecode": "0x6080604052600a600d5534801561001557600080fd5b5033600460006101000a81548173ffffffffffffffffffffffffffffffffffffffff021916908373ffffffffffffffffffffffffffffffffffffffff160217905550610927806100666000396000f3fe608060405234801561001057600080fd5b506004361061007d5760003560e01c80636b3626641161005b5780636b362664146101c65780637321c2ed1461027d5780637ff118ef14610345578063b1f60b46146103a45761007d565b806336f4ac6b146100825780633b41e19c1461012e57806358e83a6014610180575b600080fd5b610118600480360360e081101561009857600080fd5b81019080803573ffffffffffffffffffffffffffffffffffffffff169060200190929190803573ffffffffffffffffffffffffffffffffffffffff169060200190929190803590602001909291908035906020019092919080359060200190929190803590602001909291908035151590602001909291905050506103ea565b6040518082815260200191505060405180910390f35b6101666004803603604081101561014457600080fd5b81019080803590602001909291908035151590602001909291905050506105de565b604051808215151515815260200191505060405180910390f35b6101ac6004803603602081101561019657600080fd5b8101908080359060200190929190505050610617565b604051808215151515815260200191505060405180910390f35b6101ce61061e565b604051808573ffffffffffffffffffffffffffffffffffffffff1673ffffffffffffffffffffffffffffffffffffffff1681526020018473ffffffffffffffffffffffffffffffffffffffff1673ffffffffffffffffffffffffffffffffffffffff1681526020018373ffffffffffffffffffffffffffffffffffffffff1673ffffffffffffffffffffffffffffffffffffffff16815260200182815260200194505050505060405180910390f35b6102a96004803603602081101561029357600080fd5b810190808035906020019092919050505061069c565b604051808873ffffffffffffffffffffffffffffffffffffffff1673ffffffffffffffffffffffffffffffffffffffff1681526020018773ffffffffffffffffffffffffffffffffffffffff1673ffffffffffffffffffffffffffffffffffffffff1681526020018681526020018581526020018481526020018381526020018215151515815260200197505050505050505060405180910390f35b61034d6107ae565b6040518080602001828103825283818151815260200191508051906020019060200280838360005b83811015610390578082015181840152602081019050610375565b505050509050019250505060405180910390f35b6103d0600480360360208110156103ba57600080fd5b81019080803590602001909291905050506108c4565b604051808215151515815260200191505060405180910390f35b6000600460009054906101000a900473ffffffffffffffffffffffffffffffffffffffff1673ffffffffffffffffffffffffffffffffffffffff163373ffffffffffffffffffffffffffffffffffffffff1614156105ce57601160008154809291906001019190505550601154601060006011548152602001908152602001600020600001819055508760106000601154815260200190815260200160002060010160006101000a81548173ffffffffffffffffffffffffffffffffffffffff021916908373ffffffffffffffffffffffffffffffffffffffff1602179055508660106000601154815260200190815260200160002060020160006101000a81548173ffffffffffffffffffffffffffffffffffffffff021916908373ffffffffffffffffffffffffffffffffffffffff16021790555085601060006011548152602001908152602001600020600301819055508360106000601154815260200190815260200160002060040181905550846010600060115481526020019081526020016000206005018190555082601060006011548152602001908152602001600020600601819055508160106000601154815260200190815260200160002060070160006101000a81548160ff021916908315150217905550600190506105d3565b600090505b979650505050505050565b6000816010600085815260200190815260200160002060070160006101000a81548160ff02191690831515021790555081905092915050565b6000919050565b60008060000160009054906101000a900473ffffffffffffffffffffffffffffffffffffffff16908060010160009054906101000a900473ffffffffffffffffffffffffffffffffffffffff16908060020160009054906101000a900473ffffffffffffffffffffffffffffffffffffffff16908060030154905084565b60008060008060008060006010600089815260200190815260200160002060010160009054906101000a900473ffffffffffffffffffffffffffffffffffffffff16601060008a815260200190815260200160002060020160009054906101000a900473ffffffffffffffffffffffffffffffffffffffff16601060008b815260200190815260200160002060030154601060008c815260200190815260200160002060040154601060008d815260200190815260200160002060050154601060008e815260200190815260200160002060060154601060008f815260200190815260200160002060070160009054906101000a900460ff169650965096509650965096509650919395979092949650565b6060806011546040519080825280602002602001820160405280156107e25781602001602082028038833980820191505090505b50905060008090506000600190505b601154811161083e57601060008281526020019081526020016000206000015483838151811061081d57fe5b602002602001018181525050818060010192505080806001019150506107f1565b506060816040519080825280602002602001820160405280156108705781602001602082028038833980820191505090505b50905060008090505b828110156108ba5783818151811061088d57fe5b60200260200101518282815181106108a157fe5b6020026020010181815250508080600101915050610879565b5080935050505090565b60006010600083815260200190815260200160002060070160009054906101000a900460ff16905091905056fea2646970667358221220dc33daae889cb8bc23b92e42c82c058f9e206cb9302ec78aace8b13b1247f00764736f6c63430006000033",
  "source": "pragma solidity ^0.6.0 < 0.6.11;\r\n\r\nimport \"./SaleConditionContract.sol\";\r\nimport \"./ComfreePropertyDataModel.sol\";\r\n\r\n/*\r\n* First contract to be created.  This will have an expiry date of the offer.\r\n*/\r\n\r\ncontract OfferContract is ComfreePropertyDataModel {\r\n\r\n\taddress owner;\r\n\r\n    struct offerContract {\r\n        uint id; \r\n        address buyerAddress;\r\n        address sellerAddress;\r\n        uint offerDate;\r\n        uint expiredDate;\r\n        uint currentDate;\r\n        uint offerAmount;\r\n        bool accepted;\r\n    }\r\n\r\n    offerContract offerContractObjects;\r\n    uint numberDaysExpiration = 10;\r\n    SaleConditionContract saleConditionContract;\r\n\r\n    address[] saleConditionContractsArray;\r\n    mapping (uint => offerContract) _listOfOfferContracts;\r\n    uint offerContractCounter; //this is used as an index that holds each contracts\r\n    \r\n\r\n\tconstructor () public {\r\n        owner = msg.sender;\r\n    }\r\n\r\n    // I don't know what this function is doing\r\n    /*function processData(uint number) external returns(bool) {\r\n        uint _number = number;\r\n        processData(number + 1);\r\n        if(number == _number) {\r\n            return true;\r\n        }\r\n        else {\r\n            return false;\r\n        }\r\n    }*/\r\n\r\n    /*\r\n    * This function is to get all of active offers\r\n    */\r\n    function getActiveOffers() public view returns(uint[] memory) {\r\n        //prepare output array\r\n        uint[] memory indexCounter = new uint[](offerContractCounter);\r\n        uint numberOfSavedOfferContracts = 0;\r\n        //itirate over biodatalist\r\n        for(uint i = 1; i <= offerContractCounter; i++) {\r\n            //show contract data item\r\n            indexCounter[numberOfSavedOfferContracts] = _listOfOfferContracts[i].id;\r\n            numberOfSavedOfferContracts++;\r\n        }\r\n\r\n        //copy contract offers array just get ids pertaining to contractOwner\r\n        uint[] memory owneddata = new uint[](numberOfSavedOfferContracts);\r\n        for(uint j = 0; j < numberOfSavedOfferContracts; j++) {\r\n            owneddata[j] = indexCounter[j];\r\n        }\r\n\r\n        return owneddata;\r\n        \r\n    }\r\n\r\n    /*\r\n    * _address parameter can be either the seller or the buyer\r\n    */\r\n    function getOfferContractDetailsById(uint _id) public view returns(address _buyerAddress, address _sellerAddress, uint _offerDate, uint _currentDate, uint _expiredDate,uint _offerAmount,bool _accepted) {\r\n        return (_listOfOfferContracts[_id].buyerAddress, _listOfOfferContracts[_id].sellerAddress,\r\n                _listOfOfferContracts[_id].offerDate, _listOfOfferContracts[_id].expiredDate,\r\n                _listOfOfferContracts[_id].currentDate, _listOfOfferContracts[_id].offerAmount, \r\n                _listOfOfferContracts[_id].accepted);\r\n    }\r\n\r\n    /*\r\n    * Contract deployer via DApp is the only one allowed to initiate this transaction\r\n    * 1 = Success\r\n    * 0 = Failed\r\n    */\r\n    function createOfferContract(address _buyerAddress, address _sellerAddress, \r\n                                 uint _offerDate, uint _currentDate, uint _expiredDate,\r\n                                 uint _offerAmount,bool _accepted) public returns(uint _result) {\r\n        if(msg.sender == owner) {\r\n            //increment index\r\n            offerContractCounter++;\r\n            _listOfOfferContracts[offerContractCounter].id = offerContractCounter;\r\n            _listOfOfferContracts[offerContractCounter].buyerAddress = _buyerAddress;\r\n            _listOfOfferContracts[offerContractCounter].sellerAddress = _sellerAddress;\r\n            _listOfOfferContracts[offerContractCounter].offerDate = _offerDate;\r\n            _listOfOfferContracts[offerContractCounter].expiredDate = _expiredDate;\r\n            _listOfOfferContracts[offerContractCounter].currentDate = _currentDate;\r\n            _listOfOfferContracts[offerContractCounter].offerAmount = _offerAmount;\r\n            _listOfOfferContracts[offerContractCounter].accepted = _accepted;\r\n            //emit OfferCreated(_buyerAddress, _sellerAddress, _offerAmount);\r\n            return 1;\r\n        }\r\n        else {\r\n            return 0;\r\n        }\r\n    }\r\n\r\n    \r\n    function accept(uint _id, bool _value) public returns(bool) {\r\n        /*\r\n        * Future update.  Must have mechanism to prevent changing accepted offer\r\n        * back to non-acception.  Depending on law of the land, the current\r\n        * instance of this contract may have to be nulled and a new contract\r\n        * must be opened.\r\n        */\r\n        _listOfOfferContracts[_id].accepted = _value;\r\n        //emit OfferAccepted(_id, _value);\r\n        return _value; //this will either return true or false\r\n    }\r\n\r\n    function isOfferAccepted(uint _id) public view returns(bool) {\r\n        return _listOfOfferContracts[_id].accepted;\r\n    }\r\n\r\n    function isOfferExpired(uint _id) public returns(bool _value) {\r\n        /*if( now == offerContractObjects.expiredDate || now > offerContractObjects.expiredDate ) {\r\n            _value = true;\r\n        }\r\n        else {\r\n            _value = false;\r\n        }\r\n        return _value;*/\r\n    }\r\n}\r\n",
  "sourcePath": "C:\\Users\\jay.sanchez\\j4\\comfreeproperty\\contracts\\OfferContract.sol",
  "compiler": {
    "name": "solc",
    "version": "0.6.0+commit.26b70077.Emscripten.clang"
  },
  "schemaVersion": "3.0.23",
  "updatedAt": "2020-07-23T04:09:58.597Z",
  "networkType": "ethereum",
  "devdoc": {
    "methods": {}
  },
  "userdoc": {
    "methods": {}
  }
}