{
  "contractName": "SaleConditionContract",
  "abi": [
    {
      "inputs": [],
      "stateMutability": "nonpayable",
      "type": "constructor"
    },
    {
      "anonymous": false,
      "inputs": [
        {
          "indexed": false,
          "internalType": "uint256",
          "name": "_id",
          "type": "uint256"
        },
        {
          "indexed": false,
          "internalType": "bool",
          "name": "_value",
          "type": "bool"
        }
      ],
      "name": "OfferAccepted",
      "type": "event"
    },
    {
      "anonymous": false,
      "inputs": [
        {
          "indexed": false,
          "internalType": "address",
          "name": "_buyer",
          "type": "address"
        },
        {
          "indexed": false,
          "internalType": "address",
          "name": "_seller",
          "type": "address"
        },
        {
          "indexed": false,
          "internalType": "uint256",
          "name": "offerAmount",
          "type": "uint256"
        }
      ],
      "name": "OfferCreated",
      "type": "event"
    },
    {
      "anonymous": false,
      "inputs": [
        {
          "indexed": false,
          "internalType": "bool",
          "name": "_WallsPainted",
          "type": "bool"
        },
        {
          "indexed": false,
          "internalType": "bool",
          "name": "_CarpetCleaned",
          "type": "bool"
        },
        {
          "indexed": false,
          "internalType": "bool",
          "name": "_WindowsWashed",
          "type": "bool"
        }
      ],
      "name": "isAllSaleConditionsMet",
      "type": "event"
    },
    {
      "inputs": [],
      "name": "escrowDataElements",
      "outputs": [
        {
          "internalType": "address",
          "name": "escrowDepositorAddress",
          "type": "address"
        },
        {
          "internalType": "address",
          "name": "escrowAgentAddress",
          "type": "address"
        },
        {
          "internalType": "address",
          "name": "escrowBeneficiaryAddress",
          "type": "address"
        },
        {
          "internalType": "uint256",
          "name": "escrowAmount",
          "type": "uint256"
        }
      ],
      "stateMutability": "view",
      "type": "function",
      "constant": true
    },
    {
      "inputs": [],
      "name": "isConditionMet",
      "outputs": [
        {
          "internalType": "bool",
          "name": "_value",
          "type": "bool"
        }
      ],
      "stateMutability": "nonpayable",
      "type": "function"
    },
    {
      "inputs": [
        {
          "internalType": "uint256",
          "name": "_dateOfCondition",
          "type": "uint256"
        },
        {
          "internalType": "uint256",
          "name": "_conditionExpiryDate",
          "type": "uint256"
        },
        {
          "internalType": "bool",
          "name": "_conditionMet",
          "type": "bool"
        }
      ],
      "name": "setConditions",
      "outputs": [],
      "stateMutability": "nonpayable",
      "type": "function"
    },
    {
      "inputs": [
        {
          "internalType": "bool",
          "name": "_WallsPainted",
          "type": "bool"
        },
        {
          "internalType": "bool",
          "name": "_CarpetCleaned",
          "type": "bool"
        },
        {
          "internalType": "bool",
          "name": "_WindowsWashed",
          "type": "bool"
        }
      ],
      "name": "setConditionList",
      "outputs": [],
      "stateMutability": "nonpayable",
      "type": "function"
    },
    {
      "inputs": [],
      "name": "getConditions",
      "outputs": [
        {
          "internalType": "bool",
          "name": "_WallsPainted",
          "type": "bool"
        },
        {
          "internalType": "bool",
          "name": "_CarpetCleaned",
          "type": "bool"
        },
        {
          "internalType": "bool",
          "name": "_WindowsWashed",
          "type": "bool"
        }
      ],
      "stateMutability": "nonpayable",
      "type": "function"
    }
  ],
  "bytecode": "0x60806040526000600b60006101000a81548160ff02191690831515021790555034801561002b57600080fd5b5033600460006101000a81548173ffffffffffffffffffffffffffffffffffffffff021916908373ffffffffffffffffffffffffffffffffffffffff1602179055506104a28061007c6000396000f3fe608060405234801561001057600080fd5b50600436106100575760003560e01c80636095204a1461005c5780636b362664146100a45780637c1236271461015b578063d674666a14610193578063f4bd0bcf146101d7575b600080fd5b6100a26004803603606081101561007257600080fd5b810190808035151590602001909291908035151590602001909291908035151590602001909291905050506101f9565b005b6100ac6102f9565b604051808573ffffffffffffffffffffffffffffffffffffffff1673ffffffffffffffffffffffffffffffffffffffff1681526020018473ffffffffffffffffffffffffffffffffffffffff1673ffffffffffffffffffffffffffffffffffffffff1681526020018373ffffffffffffffffffffffffffffffffffffffff1673ffffffffffffffffffffffffffffffffffffffff16815260200182815260200194505050505060405180910390f35b610163610377565b60405180841515151581526020018315151515815260200182151515158152602001935050505060405180910390f35b6101d5600480360360608110156101a957600080fd5b8101908080359060200190929190803590602001909291908035151590602001909291905050506103c0565b005b6101df6103f6565b604051808215151515815260200191505060405180910390f35b82600a60000160006101000a81548160ff02191690831515021790555081600a60000160016101000a81548160ff02191690831515021790555080600a60000160026101000a81548160ff021916908315150217905550600a60000160009054906101000a900460ff16801561027e5750600a60000160019054906101000a900460ff165b80156102995750600a60000160029054906101000a900460ff165b156102f4577fd22a61b28df8cc9b1bbcc03da3c66931ea12e5fa1d8be23eaf04b2eb9ffc322a600180600160405180841515151581526020018315151515815260200182151515158152602001935050505060405180910390a15b505050565b60008060000160009054906101000a900473ffffffffffffffffffffffffffffffffffffffff16908060010160009054906101000a900473ffffffffffffffffffffffffffffffffffffffff16908060020160009054906101000a900473ffffffffffffffffffffffffffffffffffffffff16908060030154905084565b6000806000600a60000160009054906101000a900460ff16600a60000160019054906101000a900460ff16600a60000160029054906101000a900460ff16925092509250909192565b826007600001819055508160076001018190555080600760020160006101000a81548160ff021916908315150217905550505050565b600060011515600a60000160009054906101000a900460ff161515148015610434575060011515600a60000160019054906101000a900460ff161515145b8015610456575060011515600a60000160029054906101000a900460ff161515145b156104645760019050610469565b600090505b9056fea264697066735822122083653cc4a3eff5a3fb218edacd43ca1c2cc06129892346beb5dbca5e83a1c20664736f6c63430006000033",
  "source": "pragma solidity ^0.6.0 < 0.6.11;\r\n\r\nimport \"./OfferContract.sol\";\r\nimport \"./ComfreePropertyDataModel.sol\";\r\n\r\n/*\r\n*   Once the OfferContract is accepted, this contract is next to be set the\r\n* condition before it goes into escrow.  Cannot have a sale condition contract without an\r\n* accepted OfferContract.\r\n*/\r\n\r\ncontract SaleConditionContract is ComfreePropertyDataModel {\r\n    address owner;\r\n\r\n    struct Condition {\r\n        uint dateOfCondition;\r\n        uint conditionExpiryDate;\r\n        bool conditionMet;\r\n    }\r\n\r\n    struct ConditionsList {\r\n        /*\r\n        * For simplicity sake there will only be a few conditions\r\n        * when a condition is set to true, then it is a condition \r\n        * that needs to be met\r\n        */\r\n        bool WallsPainted;\r\n        bool CarpetCleaned;\r\n        bool WindowsWashed;\r\n    }\r\n\r\n    //List of valid OfferContracts\r\n    mapping(address => OfferContract) listOfOfferContracts;\r\n    OfferContract offerContract;\r\n    Condition conditionHeaderData;\r\n    ConditionsList conditionList;\r\n    bool private offerContractValid = false;\r\n\r\n    /* This contract is instantiated and created from OfferContract \r\n    * The modifier is in place to prevent an outside source from creating an instance of this contract\r\n    * without a valid OfferContract.\r\n    */\r\n    constructor () public {\r\n        owner = msg.sender;\r\n    }\r\n\r\n    function isConditionMet() public returns(bool _value) {\r\n        if(conditionList.WallsPainted == true && conditionList.CarpetCleaned == true && conditionList.WindowsWashed == true) {\r\n            return true;\r\n        }\r\n        else {\r\n            return false;\r\n        }           \r\n    }\r\n    \r\n    /*\r\n    * This will set the expiration for conditions to be met\r\n    */\r\n    function setConditions(uint _dateOfCondition, uint _conditionExpiryDate, bool _conditionMet) public {\r\n        conditionHeaderData.dateOfCondition = _dateOfCondition;\r\n        conditionHeaderData.conditionExpiryDate = _conditionExpiryDate;\r\n        conditionHeaderData.conditionMet = _conditionMet;\r\n    }\r\n\r\n    /*\r\n    * This will set which condition in the ConditionsList\r\n    * has been met that must be met before the conditionExpireDate in Condition\r\n    * structs expires\r\n    */\r\n    function setConditionList(bool _WallsPainted, bool _CarpetCleaned,bool _WindowsWashed) public {\r\n        conditionList.WallsPainted = _WallsPainted;\r\n        conditionList.CarpetCleaned = _CarpetCleaned;\r\n        conditionList.WindowsWashed = _WindowsWashed;\r\n        if( conditionList.WallsPainted && conditionList.CarpetCleaned && conditionList.WindowsWashed ) {\r\n            //all sales conditions met\r\n            emit isAllSaleConditionsMet(true, true, true);\r\n        }\r\n    }\r\n\r\n    function getConditions() public returns(bool _WallsPainted, bool _CarpetCleaned,bool _WindowsWashed) {\r\n        //must return the struct as array for UI\r\n        return (conditionList.WallsPainted, conditionList.CarpetCleaned, conditionList.WindowsWashed);\r\n    }\r\n\r\n}",
  "sourcePath": "C:\\Users\\jay.sanchez\\j4\\comfreeproperty\\contracts\\SaleConditionContract.sol",
  "compiler": {
    "name": "solc",
    "version": "0.6.0+commit.26b70077.Emscripten.clang"
  },
  "schemaVersion": "3.0.23",
  "updatedAt": "2020-07-23T04:09:58.615Z",
  "networkType": "ethereum",
  "devdoc": {
    "methods": {}
  },
  "userdoc": {
    "methods": {}
  }
}