{
  "contractName": "ComfreePropertyDataModel",
  "abi": [
    {
      "anonymous": false,
      "inputs": [
        {
          "indexed": false,
          "internalType": "uint256",
          "name": "_id",
          "type": "uint256"
        },
        {
          "indexed": false,
          "internalType": "bool",
          "name": "_value",
          "type": "bool"
        }
      ],
      "name": "OfferAccepted",
      "type": "event"
    },
    {
      "anonymous": false,
      "inputs": [
        {
          "indexed": false,
          "internalType": "address",
          "name": "_buyer",
          "type": "address"
        },
        {
          "indexed": false,
          "internalType": "address",
          "name": "_seller",
          "type": "address"
        },
        {
          "indexed": false,
          "internalType": "uint256",
          "name": "offerAmount",
          "type": "uint256"
        }
      ],
      "name": "OfferCreated",
      "type": "event"
    },
    {
      "anonymous": false,
      "inputs": [
        {
          "indexed": false,
          "internalType": "bool",
          "name": "_WallsPainted",
          "type": "bool"
        },
        {
          "indexed": false,
          "internalType": "bool",
          "name": "_CarpetCleaned",
          "type": "bool"
        },
        {
          "indexed": false,
          "internalType": "bool",
          "name": "_WindowsWashed",
          "type": "bool"
        }
      ],
      "name": "isAllSaleConditionsMet",
      "type": "event"
    },
    {
      "inputs": [],
      "name": "escrowDataElements",
      "outputs": [
        {
          "internalType": "address",
          "name": "escrowDepositorAddress",
          "type": "address"
        },
        {
          "internalType": "address",
          "name": "escrowAgentAddress",
          "type": "address"
        },
        {
          "internalType": "address",
          "name": "escrowBeneficiaryAddress",
          "type": "address"
        },
        {
          "internalType": "uint256",
          "name": "escrowAmount",
          "type": "uint256"
        }
      ],
      "stateMutability": "view",
      "type": "function",
      "constant": true
    }
  ],
  "bytecode": "0x608060405234801561001057600080fd5b5061019b806100206000396000f3fe608060405234801561001057600080fd5b506004361061002b5760003560e01c80636b36266414610030575b600080fd5b6100386100e7565b604051808573ffffffffffffffffffffffffffffffffffffffff1673ffffffffffffffffffffffffffffffffffffffff1681526020018473ffffffffffffffffffffffffffffffffffffffff1673ffffffffffffffffffffffffffffffffffffffff1681526020018373ffffffffffffffffffffffffffffffffffffffff1673ffffffffffffffffffffffffffffffffffffffff16815260200182815260200194505050505060405180910390f35b60008060000160009054906101000a900473ffffffffffffffffffffffffffffffffffffffff16908060010160009054906101000a900473ffffffffffffffffffffffffffffffffffffffff16908060020160009054906101000a900473ffffffffffffffffffffffffffffffffffffffff1690806003015490508456fea2646970667358221220ca2ec5e276023cd37ca35076d64335d55940dc395b1e60b67fe26a0b8ac899bd64736f6c63430006000033",
  "source": "pragma solidity ^0.6.0 < 0.6.11;\r\n\r\ncontract ComfreePropertyDataModel {\r\n\r\n    struct EscrowDataElements {\r\n        address escrowDepositorAddress; //buyer\r\n        address escrowAgentAddress; //bank\r\n        address escrowBeneficiaryAddress; //seller receiving the money to be deposited\r\n        uint256 escrowAmount;\r\n    }\r\n\r\n\r\n    EscrowDataElements public escrowDataElements;\r\n\r\n    //event Transfer(address _sender, address _receiver, uint256 _numTokens);\r\n    //event Approval(address _sender, address _delegate, uint256 _numTokens);\r\n    event OfferCreated(address _buyer, address _seller, uint256 offerAmount);\r\n    event OfferAccepted(uint _id, bool _value);\r\n    event isAllSaleConditionsMet(bool _WallsPainted, bool _CarpetCleaned,bool _WindowsWashed);\r\n}",
  "sourcePath": "C:\\Users\\jay.sanchez\\j4\\comfreeproperty\\contracts\\ComfreePropertyDataModel.sol",
  "compiler": {
    "name": "solc",
    "version": "0.6.0+commit.26b70077.Emscripten.clang"
  },
  "schemaVersion": "3.0.23",
  "updatedAt": "2020-07-23T04:09:58.590Z",
  "networkType": "ethereum",
  "devdoc": {
    "methods": {}
  },
  "userdoc": {
    "methods": {}
  }
}