{
  "contractName": "ComfreeToken",
  "abi": [
    {
      "inputs": [
        {
          "name": "total",
          "type": "uint256"
        }
      ],
      "payable": false,
      "stateMutability": "nonpayable",
      "type": "constructor"
    },
    {
      "anonymous": false,
      "inputs": [
        {
          "indexed": true,
          "name": "tokenOwner",
          "type": "address"
        },
        {
          "indexed": true,
          "name": "spender",
          "type": "address"
        },
        {
          "indexed": false,
          "name": "tokens",
          "type": "uint256"
        }
      ],
      "name": "Approval",
      "type": "event"
    },
    {
      "anonymous": false,
      "inputs": [
        {
          "indexed": true,
          "name": "from",
          "type": "address"
        },
        {
          "indexed": true,
          "name": "to",
          "type": "address"
        },
        {
          "indexed": false,
          "name": "tokens",
          "type": "uint256"
        }
      ],
      "name": "Transfer",
      "type": "event"
    },
    {
      "anonymous": false,
      "inputs": [
        {
          "indexed": false,
          "name": "owner",
          "type": "address"
        },
        {
          "indexed": false,
          "name": "amountInflated",
          "type": "uint256"
        },
        {
          "indexed": false,
          "name": "newTokenSupply",
          "type": "uint256"
        }
      ],
      "name": "InflateToken",
      "type": "event"
    },
    {
      "constant": true,
      "inputs": [],
      "name": "totalSupply",
      "outputs": [
        {
          "name": "",
          "type": "uint256"
        }
      ],
      "payable": false,
      "stateMutability": "view",
      "type": "function"
    },
    {
      "constant": false,
      "inputs": [
        {
          "name": "_amount",
          "type": "uint256"
        }
      ],
      "name": "inflateTotalSupply",
      "outputs": [
        {
          "name": "",
          "type": "uint256"
        }
      ],
      "payable": false,
      "stateMutability": "nonpayable",
      "type": "function"
    },
    {
      "constant": true,
      "inputs": [
        {
          "name": "tokenOwner",
          "type": "address"
        }
      ],
      "name": "balanceOf",
      "outputs": [
        {
          "name": "",
          "type": "uint256"
        }
      ],
      "payable": false,
      "stateMutability": "view",
      "type": "function"
    },
    {
      "constant": true,
      "inputs": [
        {
          "name": "owner",
          "type": "address"
        },
        {
          "name": "delegate",
          "type": "address"
        }
      ],
      "name": "allowance",
      "outputs": [
        {
          "name": "",
          "type": "uint256"
        }
      ],
      "payable": false,
      "stateMutability": "view",
      "type": "function"
    },
    {
      "constant": false,
      "inputs": [
        {
          "name": "receiver",
          "type": "address"
        },
        {
          "name": "numTokens",
          "type": "uint256"
        }
      ],
      "name": "transfer",
      "outputs": [
        {
          "name": "",
          "type": "bool"
        }
      ],
      "payable": false,
      "stateMutability": "nonpayable",
      "type": "function"
    },
    {
      "constant": false,
      "inputs": [
        {
          "name": "delegate",
          "type": "address"
        },
        {
          "name": "numTokens",
          "type": "uint256"
        }
      ],
      "name": "approve",
      "outputs": [
        {
          "name": "",
          "type": "bool"
        }
      ],
      "payable": false,
      "stateMutability": "nonpayable",
      "type": "function"
    },
    {
      "constant": false,
      "inputs": [
        {
          "name": "owner",
          "type": "address"
        },
        {
          "name": "buyer",
          "type": "address"
        },
        {
          "name": "numTokens",
          "type": "uint256"
        }
      ],
      "name": "transferFrom",
      "outputs": [
        {
          "name": "",
          "type": "bool"
        }
      ],
      "payable": false,
      "stateMutability": "nonpayable",
      "type": "function"
    }
  ],
  "bytecode": "0x608060405234801561001057600080fd5b50604051602080610c8c83398101806040528101908080519060200190929190505050806002819055506002546000803373ffffffffffffffffffffffffffffffffffffffff1673ffffffffffffffffffffffffffffffffffffffff1681526020019081526020016000208190555033600360006101000a81548173ffffffffffffffffffffffffffffffffffffffff021916908373ffffffffffffffffffffffffffffffffffffffff16021790555050610bbc806100d06000396000f300608060405260043610610083576000357c0100000000000000000000000000000000000000000000000000000000900463ffffffff168063095ea7b31461008857806318160ddd146100ed57806323b872dd1461011857806370a082311461019d578063a9059cbb146101f4578063c3d3b94014610259578063dd62ed3e1461029a575b600080fd5b34801561009457600080fd5b506100d3600480360381019080803573ffffffffffffffffffffffffffffffffffffffff16906020019092919080359060200190929190505050610311565b604051808215151515815260200191505060405180910390f35b3480156100f957600080fd5b50610102610403565b6040518082815260200191505060405180910390f35b34801561012457600080fd5b50610183600480360381019080803573ffffffffffffffffffffffffffffffffffffffff169060200190929190803573ffffffffffffffffffffffffffffffffffffffff1690602001909291908035906020019092919050505061040d565b604051808215151515815260200191505060405180910390f35b3480156101a957600080fd5b506101de600480360381019080803573ffffffffffffffffffffffffffffffffffffffff16906020019092919050505061075c565b6040518082815260200191505060405180910390f35b34801561020057600080fd5b5061023f600480360381019080803573ffffffffffffffffffffffffffffffffffffffff169060200190929190803590602001909291905050506107a4565b604051808215151515815260200191505060405180910390f35b34801561026557600080fd5b5061028460048036038101908080359060200190929190505050610968565b6040518082815260200191505060405180910390f35b3480156102a657600080fd5b506102fb600480360381019080803573ffffffffffffffffffffffffffffffffffffffff169060200190929190803573ffffffffffffffffffffffffffffffffffffffff169060200190929190505050610b09565b6040518082815260200191505060405180910390f35b600081600160003373ffffffffffffffffffffffffffffffffffffffff1673ffffffffffffffffffffffffffffffffffffffff16815260200190815260200160002060008573ffffffffffffffffffffffffffffffffffffffff1673ffffffffffffffffffffffffffffffffffffffff168152602001908152602001600020819055508273ffffffffffffffffffffffffffffffffffffffff163373ffffffffffffffffffffffffffffffffffffffff167f8c5be1e5ebec7d5bd14f71427d1e84f3dd0314c0f7b2291e5b200ac8c7c3b925846040518082815260200191505060405180910390a36001905092915050565b6000600254905090565b60008060008573ffffffffffffffffffffffffffffffffffffffff1673ffffffffffffffffffffffffffffffffffffffff16815260200190815260200160002054821115151561045c57600080fd5b600160008573ffffffffffffffffffffffffffffffffffffffff1673ffffffffffffffffffffffffffffffffffffffff16815260200190815260200160002060003373ffffffffffffffffffffffffffffffffffffffff1673ffffffffffffffffffffffffffffffffffffffff1681526020019081526020016000205482111515156104e757600080fd5b816000808673ffffffffffffffffffffffffffffffffffffffff1673ffffffffffffffffffffffffffffffffffffffff16815260200190815260200160002054036000808673ffffffffffffffffffffffffffffffffffffffff1673ffffffffffffffffffffffffffffffffffffffff1681526020019081526020016000208190555081600160008673ffffffffffffffffffffffffffffffffffffffff1673ffffffffffffffffffffffffffffffffffffffff16815260200190815260200160002060003373ffffffffffffffffffffffffffffffffffffffff1673ffffffffffffffffffffffffffffffffffffffff1681526020019081526020016000205403600160008673ffffffffffffffffffffffffffffffffffffffff1673ffffffffffffffffffffffffffffffffffffffff16815260200190815260200160002060003373ffffffffffffffffffffffffffffffffffffffff1673ffffffffffffffffffffffffffffffffffffffff16815260200190815260200160002081905550816000808573ffffffffffffffffffffffffffffffffffffffff1673ffffffffffffffffffffffffffffffffffffffff16815260200190815260200160002054016000808573ffffffffffffffffffffffffffffffffffffffff1673ffffffffffffffffffffffffffffffffffffffff168152602001908152602001600020819055508273ffffffffffffffffffffffffffffffffffffffff168473ffffffffffffffffffffffffffffffffffffffff167fddf252ad1be2c89b69c2b068fc378daa952ba7f163c4a11628f55a4df523b3ef846040518082815260200191505060405180910390a3600190509392505050565b60008060008373ffffffffffffffffffffffffffffffffffffffff1673ffffffffffffffffffffffffffffffffffffffff168152602001908152602001600020549050919050565b60008060003373ffffffffffffffffffffffffffffffffffffffff1673ffffffffffffffffffffffffffffffffffffffff1681526020019081526020016000205482111515156107f357600080fd5b816000803373ffffffffffffffffffffffffffffffffffffffff1673ffffffffffffffffffffffffffffffffffffffff16815260200190815260200160002054036000803373ffffffffffffffffffffffffffffffffffffffff1673ffffffffffffffffffffffffffffffffffffffff16815260200190815260200160002081905550816000808573ffffffffffffffffffffffffffffffffffffffff1673ffffffffffffffffffffffffffffffffffffffff16815260200190815260200160002054016000808573ffffffffffffffffffffffffffffffffffffffff1673ffffffffffffffffffffffffffffffffffffffff168152602001908152602001600020819055508273ffffffffffffffffffffffffffffffffffffffff163373ffffffffffffffffffffffffffffffffffffffff167fddf252ad1be2c89b69c2b068fc378daa952ba7f163c4a11628f55a4df523b3ef846040518082815260200191505060405180910390a36001905092915050565b6000600360009054906101000a900473ffffffffffffffffffffffffffffffffffffffff1673ffffffffffffffffffffffffffffffffffffffff163373ffffffffffffffffffffffffffffffffffffffff161415156109c657600080fd5b816000803373ffffffffffffffffffffffffffffffffffffffff1673ffffffffffffffffffffffffffffffffffffffff16815260200190815260200160002054016000803373ffffffffffffffffffffffffffffffffffffffff1673ffffffffffffffffffffffffffffffffffffffff168152602001908152602001600020819055507f38cbd5c49fe30a0b74fb17db2bf64fa42e298e35fc29c06c93dd0d664399527533836000803373ffffffffffffffffffffffffffffffffffffffff1673ffffffffffffffffffffffffffffffffffffffff16815260200190815260200160002054604051808473ffffffffffffffffffffffffffffffffffffffff1673ffffffffffffffffffffffffffffffffffffffff168152602001838152602001828152602001935050505060405180910390a1610b02610403565b9050919050565b6000600160008473ffffffffffffffffffffffffffffffffffffffff1673ffffffffffffffffffffffffffffffffffffffff16815260200190815260200160002060008373ffffffffffffffffffffffffffffffffffffffff1673ffffffffffffffffffffffffffffffffffffffff168152602001908152602001600020549050929150505600a165627a7a72305820b715137153cb031df255b30ed9aeca751fa04a846075fa14174189a89d0b50ba0029",
  "source": "pragma solidity ^0.4.24;\n\n\n/*\n*\tComfreeToken is an ERC20 standard\n*/\n\n/*\n* Token economics\n* Token (stock) price of a company is calculated when a company goes public, an event\n* called and initial public offering (IPO). This is when a company pays an investment\n* bank to use very complex formulas and valuation techniques to derive a company's value * and to determine how many shares will be offered to the public and at what price. \n* For example,* a company whose value is estimated at $100 million may want to issue 10\n* million shares at $10 per share or they may want to issue 20 million at $5 a share.\n*/\ncontract ComfreeToken {\n\n\t//walletaddress = balance of wallet\n\tmapping(address => uint256) balances;\n\t//wallet address = anotherMapping(walletaddress = approvedwithdrawalsum)\n\tmapping(address => mapping (address => uint256)) allowed;\n\tuint256 totalSupply_;\n\taddress private owner;\n\t\n\n\t/*\n\t* Standard event declaration required by ERC20 framework\n\t*/\n\tevent Approval(address indexed tokenOwner, address indexed spender,\n uint tokens);\n\tevent Transfer(address indexed from, address indexed to,\n uint tokens);\n\tevent InflateToken(address owner, uint256 amountInflated, uint256 newTokenSupply);\n\n\t/*\n\t* constructor is run once when it is deployed for the first time\n\t* unlike the standard constructor practice in an OOP\n\t* Only the deploying account can enter a contract’s constructor. When the contract is * started up, this function allocates available tokens to the ‘contract owner’ account.\n\t*/\n\tconstructor ( uint256 total ) public {\n\t\ttotalSupply_ = total;\n\t\tbalances[msg.sender] = totalSupply_;\n\t\towner = msg.sender;\n\t}\n\n\t/*\n\t* ERC20 required function declaration\n\t*/\n\tfunction totalSupply() public view returns (uint256) {\n\t\treturn totalSupply_;\n\t}\n\n\tfunction inflateTotalSupply(uint256 _amount) public returns (uint256) {\n\t\trequire(msg.sender == owner);\n\t\t/*\n\t\t* Implement a function in here to determine inflation rate of token when increased\n\t\t* supply is manually called.\n\t\t*/\n\t\tbalances[msg.sender] = balances[msg.sender]+_amount;\n\t\t//owner address, amount to inflate token, new owner supply balance\n\t\temit InflateToken(msg.sender, _amount, balances[msg.sender]);\n\t\treturn totalSupply();\n\t}\n\n\tfunction balanceOf(address tokenOwner) public view returns (uint) {\n\t\treturn balances[tokenOwner]; \n\t}\n\n\tfunction allowance(address owner, address delegate) public view returns (uint) {\n  \t\treturn allowed[owner][delegate];\n\t}\n\n\tfunction transfer(address receiver, uint numTokens) public returns (bool) {\n  \t\trequire(numTokens <= balances[msg.sender]);\n  \t\tbalances[msg.sender] = balances[msg.sender]-numTokens;\n  \t\tbalances[receiver] = balances[receiver] + numTokens;\n  \t\temit Transfer(msg.sender, receiver, numTokens);\n  \t\treturn true;\n\t}\n\n\t/*\n\t* @Params:\n\t* \tdelegate = spender\n\t*\tnumTokens = tokens to be transfered\n\t*/\n\tfunction approve(address delegate, uint numTokens)  public returns (bool) {\n\t\tallowed[msg.sender][delegate] = numTokens;\n  \t\temit Approval(msg.sender, delegate, numTokens);\n  \t\treturn true;\n\t}\n\n\tfunction transferFrom(address owner, address buyer, uint numTokens) public returns (bool) {\n  \t\trequire(numTokens <= balances[owner]);\n  \t\trequire(numTokens <= allowed[owner][msg.sender]);\n  \t\tbalances[owner] = balances[owner]-numTokens;\n  \t\tallowed[owner][msg.sender] = allowed[owner][msg.sender]-numTokens;\n  \t\tbalances[buyer] = balances[buyer]+numTokens;\n  \t\tTransfer(owner, buyer, numTokens);\n  \t\treturn true;\n\t}\n\n}\n",
  "sourcePath": "/Users/jaypersanchez/comfree/contracts/ComfreeToken.sol",
  "compiler": {
    "name": "solc",
    "version": "0.4.28+commit.2fcccea1.Emscripten.clang"
  },
  "schemaVersion": "2.0.3",
  "updatedAt": "2019-03-31T14:31:28.363Z"
}