{
  "contractName": "ComfreePropertyDataModel",
  "abi": [
    {
      "constant": true,
      "inputs": [],
      "name": "escrowDataElements",
      "outputs": [
        {
          "name": "escrowDepositorAddress",
          "type": "address"
        },
        {
          "name": "escrowAgentAddress",
          "type": "address"
        },
        {
          "name": "escrowBeneficiaryAddress",
          "type": "address"
        },
        {
          "name": "escrowAmount",
          "type": "uint256"
        }
      ],
      "payable": false,
      "stateMutability": "view",
      "type": "function",
      "signature": "0x6b362664"
    },
    {
      "anonymous": false,
      "inputs": [
        {
          "indexed": false,
          "name": "_buyer",
          "type": "address"
        },
        {
          "indexed": false,
          "name": "_seller",
          "type": "address"
        },
        {
          "indexed": false,
          "name": "offerAmount",
          "type": "uint256"
        }
      ],
      "name": "OfferCreated",
      "type": "event",
      "signature": "0x1819ba14baa7481a7b236a7888df8e0a32271ee6d12514a8c92da9f9bba73a67"
    },
    {
      "anonymous": false,
      "inputs": [
        {
          "indexed": false,
          "name": "_id",
          "type": "uint256"
        },
        {
          "indexed": false,
          "name": "_value",
          "type": "bool"
        }
      ],
      "name": "OfferAccepted",
      "type": "event",
      "signature": "0xc1ed61a354e7eb894b73fc76469178cc56183a1c23267f08a7e6bff0cb346b05"
    },
    {
      "anonymous": false,
      "inputs": [
        {
          "indexed": false,
          "name": "_WallsPainted",
          "type": "bool"
        },
        {
          "indexed": false,
          "name": "_CarpetCleaned",
          "type": "bool"
        },
        {
          "indexed": false,
          "name": "_WindowsWashed",
          "type": "bool"
        }
      ],
      "name": "isAllSaleConditionsMet",
      "type": "event",
      "signature": "0xd22a61b28df8cc9b1bbcc03da3c66931ea12e5fa1d8be23eaf04b2eb9ffc322a"
    }
  ],
  "bytecode": "0x608060405234801561001057600080fd5b506101b4806100206000396000f3fe608060405260043610610041576000357c0100000000000000000000000000000000000000000000000000000000900463ffffffff1680636b36266414610046575b600080fd5b34801561005257600080fd5b5061005b61010a565b604051808573ffffffffffffffffffffffffffffffffffffffff1673ffffffffffffffffffffffffffffffffffffffff1681526020018473ffffffffffffffffffffffffffffffffffffffff1673ffffffffffffffffffffffffffffffffffffffff1681526020018373ffffffffffffffffffffffffffffffffffffffff1673ffffffffffffffffffffffffffffffffffffffff16815260200182815260200194505050505060405180910390f35b60018060000160009054906101000a900473ffffffffffffffffffffffffffffffffffffffff16908060010160009054906101000a900473ffffffffffffffffffffffffffffffffffffffff16908060020160009054906101000a900473ffffffffffffffffffffffffffffffffffffffff1690806003015490508456fea165627a7a7230582035142c52ff637e72832174698f378d0deddcc412730d81b6f38a99cb533ca4e90029",
  "source": "pragma solidity ^0.5.0;\n\ncontract ComfreePropertyDataModel {\n\n    address owner;\n\n    struct EscrowDataElements {\n        address escrowDepositorAddress; //buyer\n        address escrowAgentAddress; //bank\n        address escrowBeneficiaryAddress; //seller receiving the money to be deposited\n        uint256 escrowAmount;\n    }\n    EscrowDataElements public escrowDataElements;\n\n    //event Transfer(address _sender, address _receiver, uint256 _numTokens);\n    //event Approval(address _sender, address _delegate, uint256 _numTokens);\n    event OfferCreated(address _buyer, address _seller, uint256 offerAmount);\n    event OfferAccepted(uint _id, bool _value);\n    event isAllSaleConditionsMet(bool _WallsPainted, bool _CarpetCleaned,bool _WindowsWashed);\n}",
  "sourcePath": "/Users/jaypersanchez/comfree/contracts/ComfreePropertyDataModel.sol",
  "compiler": {
    "name": "solc",
    "version": "0.5.0+commit.1d4f565a.Emscripten.clang"
  },
  "schemaVersion": "3.0.6",
  "updatedAt": "2019-05-02T13:39:20.237Z",
  "devdoc": {
    "methods": {}
  },
  "userdoc": {
    "methods": {}
  }
}