{
  "contractName": "ComfreePropertyDataModel",
  "abi": [
    {
      "constant": true,
      "inputs": [],
      "name": "escrowDataElements",
      "outputs": [
        {
          "name": "escrowDepositorAddress",
          "type": "address"
        },
        {
          "name": "escrowAgentAddress",
          "type": "address"
        },
        {
          "name": "escrowBeneficiaryAddress",
          "type": "address"
        },
        {
          "name": "escrowAmount",
          "type": "uint256"
        }
      ],
      "payable": false,
      "stateMutability": "view",
      "type": "function"
    },
    {
      "anonymous": false,
      "inputs": [
        {
          "indexed": false,
          "name": "_sender",
          "type": "address"
        },
        {
          "indexed": false,
          "name": "_receiver",
          "type": "address"
        },
        {
          "indexed": false,
          "name": "_numTokens",
          "type": "uint256"
        }
      ],
      "name": "Transfer",
      "type": "event"
    },
    {
      "anonymous": false,
      "inputs": [
        {
          "indexed": false,
          "name": "_sender",
          "type": "address"
        },
        {
          "indexed": false,
          "name": "_delegate",
          "type": "address"
        },
        {
          "indexed": false,
          "name": "_numTokens",
          "type": "uint256"
        }
      ],
      "name": "Approval",
      "type": "event"
    }
  ],
  "bytecode": "0x608060405234801561001057600080fd5b506101b4806100206000396000f300608060405260043610610041576000357c0100000000000000000000000000000000000000000000000000000000900463ffffffff1680636b36266414610046575b600080fd5b34801561005257600080fd5b5061005b61010a565b604051808573ffffffffffffffffffffffffffffffffffffffff1673ffffffffffffffffffffffffffffffffffffffff1681526020018473ffffffffffffffffffffffffffffffffffffffff1673ffffffffffffffffffffffffffffffffffffffff1681526020018373ffffffffffffffffffffffffffffffffffffffff1673ffffffffffffffffffffffffffffffffffffffff16815260200182815260200194505050505060405180910390f35b60018060000160009054906101000a900473ffffffffffffffffffffffffffffffffffffffff16908060010160009054906101000a900473ffffffffffffffffffffffffffffffffffffffff16908060020160009054906101000a900473ffffffffffffffffffffffffffffffffffffffff169080600301549050845600a165627a7a72305820c38fa26b0f20e57eebd48796d970d855a30d3a2a4de28e1252be00359a482ccc0029",
  "source": "pragma solidity ^0.4.24;\n\ncontract ComfreePropertyDataModel {\n\n    address owner;\n\n    struct EscrowDataElements {\n        address escrowDepositorAddress; //buyer\n        address escrowAgentAddress; //bank\n        address escrowBeneficiaryAddress; //seller receiving the money to be deposited\n        uint256 escrowAmount;\n    }\n    EscrowDataElements public escrowDataElements;\n\n    event Transfer(address _sender, address _receiver, uint256 _numTokens);\n    event Approval(address _sender, address _delegate, uint256 _numTokens);\n}",
  "sourcePath": "/Users/jaypersanchez/comfree/contracts/ComfreePropertyDataModel.sol",
  "compiler": {
    "name": "solc",
    "version": "0.4.28+commit.2fcccea1.Emscripten.clang"
  },
  "schemaVersion": "2.0.3",
  "updatedAt": "2019-01-18T00:18:12.824Z"
}