{
  "contractName": "ComfreePropertyDataModel",
  "abi": [
    {
      "constant": true,
      "inputs": [],
      "name": "escrowDataElements",
      "outputs": [
        {
          "name": "escrowDepositorAddress",
          "type": "address"
        },
        {
          "name": "escrowAgentAddress",
          "type": "address"
        },
        {
          "name": "escrowBeneficiaryAddress",
          "type": "address"
        },
        {
          "name": "escrowAmount",
          "type": "uint256"
        }
      ],
      "payable": false,
      "stateMutability": "view",
      "type": "function"
    },
    {
      "anonymous": false,
      "inputs": [
        {
          "indexed": false,
          "name": "_buyer",
          "type": "address"
        },
        {
          "indexed": false,
          "name": "_seller",
          "type": "address"
        },
        {
          "indexed": false,
          "name": "offerAmount",
          "type": "uint256"
        }
      ],
      "name": "OfferCreated",
      "type": "event"
    },
    {
      "anonymous": false,
      "inputs": [
        {
          "indexed": false,
          "name": "_id",
          "type": "uint256"
        },
        {
          "indexed": false,
          "name": "_value",
          "type": "bool"
        }
      ],
      "name": "OfferAccepted",
      "type": "event"
    },
    {
      "anonymous": false,
      "inputs": [
        {
          "indexed": false,
          "name": "_WallsPainted",
          "type": "bool"
        },
        {
          "indexed": false,
          "name": "_CarpetCleaned",
          "type": "bool"
        },
        {
          "indexed": false,
          "name": "_WindowsWashed",
          "type": "bool"
        }
      ],
      "name": "isAllSaleConditionsMet",
      "type": "event"
    }
  ],
  "bytecode": "0x608060405234801561001057600080fd5b506101b4806100206000396000f300608060405260043610610041576000357c0100000000000000000000000000000000000000000000000000000000900463ffffffff1680636b36266414610046575b600080fd5b34801561005257600080fd5b5061005b61010a565b604051808573ffffffffffffffffffffffffffffffffffffffff1673ffffffffffffffffffffffffffffffffffffffff1681526020018473ffffffffffffffffffffffffffffffffffffffff1673ffffffffffffffffffffffffffffffffffffffff1681526020018373ffffffffffffffffffffffffffffffffffffffff1673ffffffffffffffffffffffffffffffffffffffff16815260200182815260200194505050505060405180910390f35b60018060000160009054906101000a900473ffffffffffffffffffffffffffffffffffffffff16908060010160009054906101000a900473ffffffffffffffffffffffffffffffffffffffff16908060020160009054906101000a900473ffffffffffffffffffffffffffffffffffffffff169080600301549050845600a165627a7a7230582034d52fcb6633a99e8dad29b2986db4221cdfc6159710417737288cb4deb9c0450029",
  "source": "pragma solidity ^0.4.24;\n\ncontract ComfreePropertyDataModel {\n\n    address owner;\n\n    struct EscrowDataElements {\n        address escrowDepositorAddress; //buyer\n        address escrowAgentAddress; //bank\n        address escrowBeneficiaryAddress; //seller receiving the money to be deposited\n        uint256 escrowAmount;\n    }\n    EscrowDataElements public escrowDataElements;\n\n    //event Transfer(address _sender, address _receiver, uint256 _numTokens);\n    //event Approval(address _sender, address _delegate, uint256 _numTokens);\n    event OfferCreated(address _buyer, address _seller, uint256 offerAmount);\n    event OfferAccepted(uint _id, bool _value);\n    event isAllSaleConditionsMet(bool _WallsPainted, bool _CarpetCleaned,bool _WindowsWashed);\n}",
  "sourcePath": "/Users/jaypersanchez/comfree/contracts/ComfreePropertyDataModel.sol",
  "compiler": {
    "name": "solc",
    "version": "0.4.28+commit.2fcccea1.Emscripten.clang"
  },
  "schemaVersion": "2.0.3",
  "updatedAt": "2019-03-31T14:31:29.154Z"
}