{
  "contractName": "ConvertLib",
  "abi": [
    {
      "constant": true,
      "inputs": [
        {
          "name": "amount",
          "type": "uint256"
        },
        {
          "name": "conversionRate",
          "type": "uint256"
        }
      ],
      "name": "convert",
      "outputs": [
        {
          "name": "convertedAmount",
          "type": "uint256"
        }
      ],
      "payable": false,
      "stateMutability": "pure",
      "type": "function"
    },
    {
      "constant": true,
      "inputs": [
        {
          "name": "amount",
          "type": "uint256"
        },
        {
          "name": "conversionRate",
          "type": "uint256"
        }
      ],
      "name": "convertUSDToCAD",
      "outputs": [
        {
          "name": "convertedAmount",
          "type": "uint256"
        }
      ],
      "payable": false,
      "stateMutability": "pure",
      "type": "function"
    },
    {
      "constant": true,
      "inputs": [
        {
          "name": "amount",
          "type": "uint256"
        },
        {
          "name": "conversionRate",
          "type": "uint256"
        }
      ],
      "name": "convertCADToUSD",
      "outputs": [
        {
          "name": "convertedAmount",
          "type": "uint256"
        }
      ],
      "payable": false,
      "stateMutability": "pure",
      "type": "function"
    }
  ],
  "bytecode": "0x610189610030600b82828239805160001a6073146000811461002057610022565bfe5b5030600052607381538281f300730000000000000000000000000000000000000000301460806040526004361061006e576000357c0100000000000000000000000000000000000000000000000000000000900463ffffffff168063106af1ad14610073578063812cb3d3146100b157806396e4ee3d146100ef575b600080fd5b61009b600480360381019080803590602001909291908035906020019092919050505061012d565b6040518082815260200191505060405180910390f35b6100d9600480360381019080803590602001909291908035906020019092919050505061013a565b6040518082815260200191505060405180910390f35b6101176004803603810190808035906020019092919080359060200190929190505050610150565b6040518082815260200191505060405180910390f35b6000818302905092915050565b6000818381151561014757fe5b04905092915050565b60008183029050929150505600a165627a7a723058203ffaaf7d862dd4e8073523b7cccfdd3412c10c66a5850d541185bdfbc9082f330029",
  "source": "pragma solidity ^0.4.24;\n\nlibrary ConvertLib{\n\tfunction convert(uint amount,uint conversionRate) public pure returns (uint convertedAmount)\n\t{\n\t\treturn amount * conversionRate;\n\t}\n\n\tfunction convertUSDToCAD(uint256 amount, uint256 conversionRate) public pure returns(uint256 convertedAmount) {\n\t\treturn (amount * conversionRate);\n\t}\n\n\tfunction convertCADToUSD(uint256 amount, uint256 conversionRate) public pure returns(uint256 convertedAmount) {\n\t\treturn ( amount/conversionRate );\n\t}\n}\n",
  "sourcePath": "/Users/jaypersanchez/comfree/contracts/ConvertLib.sol",
  "compiler": {
    "name": "solc",
    "version": "0.4.28+commit.2fcccea1.Emscripten.clang"
  },
  "schemaVersion": "2.0.3",
  "updatedAt": "2019-01-30T21:36:44.428Z"
}