{
  "contractName": "EscrowContract",
  "abi": [
    {
      "inputs": [],
      "payable": true,
      "stateMutability": "payable",
      "type": "constructor"
    },
    {
      "payable": true,
      "stateMutability": "payable",
      "type": "fallback"
    },
    {
      "constant": false,
      "inputs": [
        {
          "name": "_escrowAmount",
          "type": "uint256"
        },
        {
          "name": "_escrowSellerAddress",
          "type": "address"
        }
      ],
      "name": "sendFundsToSeller",
      "outputs": [
        {
          "name": "",
          "type": "uint256"
        }
      ],
      "payable": true,
      "stateMutability": "payable",
      "type": "function"
    }
  ],
  "bytecode": "0x6080604052336000806101000a81548173ffffffffffffffffffffffffffffffffffffffff021916908373ffffffffffffffffffffffffffffffffffffffff160217905550610135806100536000396000f300608060405260043610610041576000357c0100000000000000000000000000000000000000000000000000000000900463ffffffff1680633b8dff5a14610043575b005b61008160048036038101908080359060200190929190803573ffffffffffffffffffffffffffffffffffffffff169060200190929190505050610097565b6040518082815260200191505060405180910390f35b60008060008091508434101515156100ae57600080fd5b84340390508373ffffffffffffffffffffffffffffffffffffffff166108fc869081150290604051600060405180830381858888f193505050501580156100f9573d6000803e3d6000fd5b50600191508192505050929150505600a165627a7a723058208f248df12b387651d73ed9b63d51bdc0c10c73e1e26c180e02fb8992357142d00029",
  "source": "pragma solidity ^0.4.24;\n\nimport \"./ComfreePropertyDataModel.sol\";\nimport \"./ComfreeToken.sol\";\n\ncontract EscrowContract {\n    address owner;\n\n    constructor () payable {\n        owner = msg.sender;\n    }//constructor \n\n    modifier checkAccountBalance(address _accountAddress, uint _escrowAmount) {\n        require(_accountAddress.balance >= _escrowAmount);\n        _;\n    }//checkAccountBalance\n\n    modifier isContractOwner(address _address) { \n    require(msg.sender == _address); \n    _; }\n\n  modifier verifyCaller (address _address) { \n    require (msg.sender == _address); \n    _;\n  }\n\n  modifier paidEnough(uint _price) { \n    require(msg.value >= _price); \n    _;\n  }\n\n  modifier checkValue(uint _price) {\n    //refund them after pay for item (why it is before, _ checks for logic before func)\n    _;\n    uint amountToRefund = msg.value - _price;\n    msg.sender.transfer(amountToRefund);\n    \n  }\n\n    function sendFundsToSeller(uint _escrowAmount, address _escrowSellerAddress) public payable returns(uint) {\n        /*\n        * transfer funds from escrowDepositor account into \n        * escrowBeneficiary account.  For testing, escrowBeneficiary amount can use \n        * ganache coinbase.  In production, this will be another wallet address\n        */\n        uint result = 0; //default to fail\n        require(msg.value >= _escrowAmount);\n        uint balanceAmount = msg.value - _escrowAmount;\n        //need to transfer ether from account[0] to current contract address\n        address(_escrowSellerAddress).transfer(_escrowAmount);\n        result = 1; //if require does not revert and transfer is successful, change result to 1 for success\n        return result; //success\n    }//sendFundsToSeller\n\n    function() payable {\n\n    }\n}",
  "sourcePath": "/Users/jaypersanchez/comfree/contracts/EscrowContract.sol",
  "compiler": {
    "name": "solc",
    "version": "0.4.28+commit.2fcccea1.Emscripten.clang"
  },
  "schemaVersion": "2.0.3",
  "updatedAt": "2019-01-18T00:18:12.827Z"
}