{
  "contractName": "EscrowContract",
  "abi": [
    {
      "inputs": [],
      "payable": false,
      "stateMutability": "nonpayable",
      "type": "constructor",
      "signature": "constructor"
    },
    {
      "payable": true,
      "stateMutability": "payable",
      "type": "fallback"
    },
    {
      "constant": false,
      "inputs": [],
      "name": "getMsgValue",
      "outputs": [
        {
          "name": "",
          "type": "uint256"
        }
      ],
      "payable": true,
      "stateMutability": "payable",
      "type": "function",
      "signature": "0xa17042cc"
    },
    {
      "constant": true,
      "inputs": [],
      "name": "getMsgSender",
      "outputs": [
        {
          "name": "",
          "type": "address"
        },
        {
          "name": "",
          "type": "address"
        }
      ],
      "payable": false,
      "stateMutability": "view",
      "type": "function",
      "signature": "0x7a6ce2e1"
    }
  ],
  "bytecode": "0x608060405234801561001057600080fd5b50336000806101000a81548173ffffffffffffffffffffffffffffffffffffffff021916908373ffffffffffffffffffffffffffffffffffffffff16021790555061015b806100606000396000f3fe60806040526004361061004c576000357c0100000000000000000000000000000000000000000000000000000000900463ffffffff1680637a6ce2e11461004e578063a17042cc146100d8575b005b34801561005a57600080fd5b506100636100f6565b604051808373ffffffffffffffffffffffffffffffffffffffff1673ffffffffffffffffffffffffffffffffffffffff1681526020018273ffffffffffffffffffffffffffffffffffffffff1673ffffffffffffffffffffffffffffffffffffffff1681526020019250505060405180910390f35b6100e0610127565b6040518082815260200191505060405180910390f35b600080336000809054906101000a900473ffffffffffffffffffffffffffffffffffffffff16819150915091509091565b60003490509056fea165627a7a72305820b4c5800f08ed75688a380480e448d428f975ef60963b070cedf144cf410382a50029",
  "source": "pragma solidity ^0.5.0;\n\nimport \"./ComfreePropertyDataModel.sol\";\nimport \"./ComfreeToken.sol\";\n\n\ncontract EscrowContract {\n    address owner;\n    mapping (address => uint256)  private userBalances;\n\n    constructor () public {\n        owner = msg.sender;\n    }//constructor \n\n    modifier checkAccountBalance(address _accountAddress, uint _escrowAmount) {\n        require(_accountAddress.balance >= _escrowAmount);\n        _;\n    }//checkAccountBalance\n\n    modifier isContractOwner(address _address) { \n    require(msg.sender == _address); \n    _; }\n\n  modifier verifyCaller (address _address) { \n    require (msg.sender == _address); \n    _;\n  }\n\n  modifier paidEnough(uint _price) { \n    require(msg.value >= _price); \n    _;\n  }\n\n  modifier checkValue(uint _price) {\n    //refund them after pay for item (why it is before, _ checks for logic before func)\n    _;\n    uint amountToRefund = msg.value - _price;\n    msg.sender.transfer(amountToRefund);\n    \n  }\n\n  function getMsgValue() public payable returns(uint) {\n    return msg.value;\n  }\n\n  function getMsgSender() public view returns(address,address) {\n    return (msg.sender, owner);\n  }\n\n    \n\n    function() external payable {\n\n    }\n}",
  "sourcePath": "/Users/jaypersanchez/comfree/contracts/EscrowContract.sol",
  "compiler": {
    "name": "solc",
    "version": "0.5.0+commit.1d4f565a.Emscripten.clang"
  },
  "schemaVersion": "3.0.6",
  "updatedAt": "2019-05-02T13:39:20.242Z",
  "devdoc": {
    "methods": {}
  },
  "userdoc": {
    "methods": {}
  }
}