{
  "contractName": "EscrowContract",
  "abi": [
    {
      "inputs": [],
      "payable": false,
      "stateMutability": "nonpayable",
      "type": "constructor"
    },
    {
      "payable": true,
      "stateMutability": "payable",
      "type": "fallback"
    },
    {
      "constant": true,
      "inputs": [],
      "name": "getMsgValue",
      "outputs": [
        {
          "name": "",
          "type": "uint256"
        }
      ],
      "payable": false,
      "stateMutability": "view",
      "type": "function"
    },
    {
      "constant": true,
      "inputs": [],
      "name": "getMsgSender",
      "outputs": [
        {
          "name": "",
          "type": "address"
        },
        {
          "name": "",
          "type": "address"
        }
      ],
      "payable": false,
      "stateMutability": "view",
      "type": "function"
    },
    {
      "constant": false,
      "inputs": [
        {
          "name": "_escrowAmount",
          "type": "uint256"
        },
        {
          "name": "_escrowSellerAddress",
          "type": "address"
        }
      ],
      "name": "sendFundsToSeller",
      "outputs": [
        {
          "name": "",
          "type": "uint256"
        }
      ],
      "payable": true,
      "stateMutability": "payable",
      "type": "function"
    }
  ],
  "bytecode": "0x608060405234801561001057600080fd5b50336000806101000a81548173ffffffffffffffffffffffffffffffffffffffff021916908373ffffffffffffffffffffffffffffffffffffffff1602179055506102ba806100606000396000f300608060405260043610610057576000357c0100000000000000000000000000000000000000000000000000000000900463ffffffff1680633b8dff5a146100595780637a6ce2e1146100ad578063a17042cc14610137575b005b61009760048036038101908080359060200190929190803573ffffffffffffffffffffffffffffffffffffffff169060200190929190505050610162565b6040518082815260200191505060405180910390f35b3480156100b957600080fd5b506100c2610258565b604051808373ffffffffffffffffffffffffffffffffffffffff1673ffffffffffffffffffffffffffffffffffffffff1681526020018273ffffffffffffffffffffffffffffffffffffffff1673ffffffffffffffffffffffffffffffffffffffff1681526020019250505060405180910390f35b34801561014357600080fd5b5061014c610286565b6040518082815260200191505060405180910390f35b600080833373ffffffffffffffffffffffffffffffffffffffff16311015151561018b57600080fd5b6000809054906101000a900473ffffffffffffffffffffffffffffffffffffffff1673ffffffffffffffffffffffffffffffffffffffff163373ffffffffffffffffffffffffffffffffffffffff16141561024c57833373ffffffffffffffffffffffffffffffffffffffff16310390508273ffffffffffffffffffffffffffffffffffffffff166108fc859081150290604051600060405180830381858888f19350505050158015610242573d6000803e3d6000fd5b5060019150610251565b600091505b5092915050565b600080336000809054906101000a900473ffffffffffffffffffffffffffffffffffffffff16915091509091565b6000349050905600a165627a7a72305820d9ec569af733ae66b98cd5aeea4b98871456cf0757cde8dbb25a67fefd4a1b410029",
  "source": "pragma solidity ^0.4.24;\n\nimport \"./ComfreePropertyDataModel.sol\";\nimport \"./ComfreeToken.sol\";\n\n\ncontract EscrowContract {\n    address owner;\n    mapping (address => uint256)  private userBalances;\n\n    constructor () {\n        owner = msg.sender;\n    }//constructor \n\n    modifier checkAccountBalance(address _accountAddress, uint _escrowAmount) {\n        require(_accountAddress.balance >= _escrowAmount);\n        _;\n    }//checkAccountBalance\n\n    modifier isContractOwner(address _address) { \n    require(msg.sender == _address); \n    _; }\n\n  modifier verifyCaller (address _address) { \n    require (msg.sender == _address); \n    _;\n  }\n\n  modifier paidEnough(uint _price) { \n    require(msg.value >= _price); \n    _;\n  }\n\n  modifier checkValue(uint _price) {\n    //refund them after pay for item (why it is before, _ checks for logic before func)\n    _;\n    uint amountToRefund = msg.value - _price;\n    msg.sender.transfer(amountToRefund);\n    \n  }\n\n  function getMsgValue() public view returns(uint) {\n    return msg.value;\n  }\n\n  function getMsgSender() public view returns(address,address) {\n    return (msg.sender, owner);\n  }\n\n    function sendFundsToSeller(uint _escrowAmount, address _escrowSellerAddress) public payable returns(uint) {\n        /*\n        * By design, when not using ERC20 token, ether must first be transfered from buyer address to contract owner\n        */\n        require(msg.sender.balance >= _escrowAmount);\n        if(msg.sender == owner) {\n\n          uint balanceAmount = msg.sender.balance - _escrowAmount;\n          //need to transfer ether from account[0] to current contract address\n          address(_escrowSellerAddress).transfer(_escrowAmount);\n          return 1; //success\n        }\n        else {\n          return 0; //fail\n        }\n    }//sendFundsToSeller\n\n    function() payable {\n\n    }\n}",
  "sourcePath": "/Users/jaypersanchez/comfree/contracts/EscrowContract.sol",
  "compiler": {
    "name": "solc",
    "version": "0.4.28+commit.2fcccea1.Emscripten.clang"
  },
  "schemaVersion": "2.0.3",
  "updatedAt": "2019-03-31T14:31:29.157Z"
}