{
  "contractName": "OfferContract",
  "abi": [
    {
      "constant": true,
      "inputs": [
        {
          "name": "",
          "type": "uint256"
        }
      ],
      "name": "_listOfOfferContracts",
      "outputs": [
        {
          "name": "id",
          "type": "uint256"
        },
        {
          "name": "buyerAddress",
          "type": "address"
        },
        {
          "name": "sellerAddress",
          "type": "address"
        },
        {
          "name": "offerDate",
          "type": "uint256"
        },
        {
          "name": "expiredDate",
          "type": "uint256"
        },
        {
          "name": "currentDate",
          "type": "uint256"
        },
        {
          "name": "offerAmount",
          "type": "uint256"
        },
        {
          "name": "accepted",
          "type": "bool"
        }
      ],
      "payable": false,
      "stateMutability": "view",
      "type": "function"
    },
    {
      "constant": true,
      "inputs": [],
      "name": "escrowDataElements",
      "outputs": [
        {
          "name": "escrowDepositorAddress",
          "type": "address"
        },
        {
          "name": "escrowAgentAddress",
          "type": "address"
        },
        {
          "name": "escrowBeneficiaryAddress",
          "type": "address"
        },
        {
          "name": "escrowAmount",
          "type": "uint256"
        }
      ],
      "payable": false,
      "stateMutability": "view",
      "type": "function"
    },
    {
      "inputs": [],
      "payable": false,
      "stateMutability": "nonpayable",
      "type": "constructor"
    },
    {
      "anonymous": false,
      "inputs": [
        {
          "indexed": false,
          "name": "_buyer",
          "type": "address"
        },
        {
          "indexed": false,
          "name": "_seller",
          "type": "address"
        },
        {
          "indexed": false,
          "name": "offerAmount",
          "type": "uint256"
        }
      ],
      "name": "OfferCreated",
      "type": "event"
    },
    {
      "anonymous": false,
      "inputs": [
        {
          "indexed": false,
          "name": "_id",
          "type": "uint256"
        },
        {
          "indexed": false,
          "name": "_value",
          "type": "bool"
        }
      ],
      "name": "OfferAccepted",
      "type": "event"
    },
    {
      "anonymous": false,
      "inputs": [
        {
          "indexed": false,
          "name": "_WallsPainted",
          "type": "bool"
        },
        {
          "indexed": false,
          "name": "_CarpetCleaned",
          "type": "bool"
        },
        {
          "indexed": false,
          "name": "_WindowsWashed",
          "type": "bool"
        }
      ],
      "name": "isAllSaleConditionsMet",
      "type": "event"
    },
    {
      "constant": true,
      "inputs": [],
      "name": "getActiveOffers",
      "outputs": [
        {
          "name": "",
          "type": "uint256[]"
        }
      ],
      "payable": false,
      "stateMutability": "view",
      "type": "function"
    },
    {
      "constant": true,
      "inputs": [
        {
          "name": "_id",
          "type": "uint256"
        }
      ],
      "name": "getOfferContractDetailsById",
      "outputs": [
        {
          "name": "_buyerAddress",
          "type": "address"
        },
        {
          "name": "_sellerAddress",
          "type": "address"
        },
        {
          "name": "_offerDate",
          "type": "uint256"
        },
        {
          "name": "_currentDate",
          "type": "uint256"
        },
        {
          "name": "_expiredDate",
          "type": "uint256"
        },
        {
          "name": "_offerAmount",
          "type": "uint256"
        },
        {
          "name": "_accepted",
          "type": "bool"
        }
      ],
      "payable": false,
      "stateMutability": "view",
      "type": "function"
    },
    {
      "constant": false,
      "inputs": [
        {
          "name": "_buyerAddress",
          "type": "address"
        },
        {
          "name": "_sellerAddress",
          "type": "address"
        },
        {
          "name": "_offerDate",
          "type": "uint256"
        },
        {
          "name": "_currentDate",
          "type": "uint256"
        },
        {
          "name": "_expiredDate",
          "type": "uint256"
        },
        {
          "name": "_offerAmount",
          "type": "uint256"
        },
        {
          "name": "_accepted",
          "type": "bool"
        }
      ],
      "name": "createOfferContract",
      "outputs": [
        {
          "name": "_result",
          "type": "uint256"
        }
      ],
      "payable": false,
      "stateMutability": "nonpayable",
      "type": "function"
    },
    {
      "constant": false,
      "inputs": [
        {
          "name": "_id",
          "type": "uint256"
        },
        {
          "name": "_value",
          "type": "bool"
        }
      ],
      "name": "accept",
      "outputs": [
        {
          "name": "",
          "type": "bool"
        }
      ],
      "payable": false,
      "stateMutability": "nonpayable",
      "type": "function"
    },
    {
      "constant": true,
      "inputs": [
        {
          "name": "_id",
          "type": "uint256"
        }
      ],
      "name": "isOfferAccepted",
      "outputs": [
        {
          "name": "",
          "type": "bool"
        }
      ],
      "payable": false,
      "stateMutability": "view",
      "type": "function"
    },
    {
      "constant": false,
      "inputs": [
        {
          "name": "_id",
          "type": "uint256"
        }
      ],
      "name": "isOfferExpired",
      "outputs": [
        {
          "name": "_value",
          "type": "bool"
        }
      ],
      "payable": false,
      "stateMutability": "nonpayable",
      "type": "function"
    }
  ],
  "bytecode": "0x6080604052600a600e5534801561001557600080fd5b5033600560006101000a81548173ffffffffffffffffffffffffffffffffffffffff021916908373ffffffffffffffffffffffffffffffffffffffff160217905550610b89806100666000396000f30060806040526004361061008e576000357c0100000000000000000000000000000000000000000000000000000000900463ffffffff16806336f4ac6b146100935780633b41e19c1461013e578063554d8bb61461018f57806358e83a601461025d5780636b362664146102a25780637321c2ed146103665780637ff118ef1461042d578063b1f60b4614610499575b600080fd5b34801561009f57600080fd5b50610128600480360381019080803573ffffffffffffffffffffffffffffffffffffffff169060200190929190803573ffffffffffffffffffffffffffffffffffffffff169060200190929190803590602001909291908035906020019092919080359060200190929190803590602001909291908035151590602001909291905050506104de565b6040518082815260200191505060405180910390f35b34801561014a57600080fd5b5061017560048036038101908080359060200190929190803515159060200190929190505050610763565b604051808215151515815260200191505060405180910390f35b34801561019b57600080fd5b506101ba600480360381019080803590602001909291905050506107df565b604051808981526020018873ffffffffffffffffffffffffffffffffffffffff1673ffffffffffffffffffffffffffffffffffffffff1681526020018773ffffffffffffffffffffffffffffffffffffffff1673ffffffffffffffffffffffffffffffffffffffff168152602001868152602001858152602001848152602001838152602001821515151581526020019850505050505050505060405180910390f35b34801561026957600080fd5b5061028860048036038101908080359060200190929190505050610874565b604051808215151515815260200191505060405180910390f35b3480156102ae57600080fd5b506102b761087b565b604051808573ffffffffffffffffffffffffffffffffffffffff1673ffffffffffffffffffffffffffffffffffffffff1681526020018473ffffffffffffffffffffffffffffffffffffffff1673ffffffffffffffffffffffffffffffffffffffff1681526020018373ffffffffffffffffffffffffffffffffffffffff1673ffffffffffffffffffffffffffffffffffffffff16815260200182815260200194505050505060405180910390f35b34801561037257600080fd5b50610391600480360381019080803590602001909291905050506108f9565b604051808873ffffffffffffffffffffffffffffffffffffffff1673ffffffffffffffffffffffffffffffffffffffff1681526020018773ffffffffffffffffffffffffffffffffffffffff1673ffffffffffffffffffffffffffffffffffffffff1681526020018681526020018581526020018481526020018381526020018215151515815260200197505050505050505060405180910390f35b34801561043957600080fd5b50610442610a0b565b6040518080602001828103825283818151815260200191508051906020019060200280838360005b8381101561048557808201518184015260208101905061046a565b505050509050019250505060405180910390f35b3480156104a557600080fd5b506104c460048036038101908080359060200190929190505050610b30565b604051808215151515815260200191505060405180910390f35b6000600560009054906101000a900473ffffffffffffffffffffffffffffffffffffffff1673ffffffffffffffffffffffffffffffffffffffff163373ffffffffffffffffffffffffffffffffffffffff161415610753576012600081548092919060010191905055506101006040519081016040528060125481526020018973ffffffffffffffffffffffffffffffffffffffff1681526020018873ffffffffffffffffffffffffffffffffffffffff1681526020018781526020018681526020018581526020018481526020018315158152506011600060125481526020019081526020016000206000820151816000015560208201518160010160006101000a81548173ffffffffffffffffffffffffffffffffffffffff021916908373ffffffffffffffffffffffffffffffffffffffff16021790555060408201518160020160006101000a81548173ffffffffffffffffffffffffffffffffffffffff021916908373ffffffffffffffffffffffffffffffffffffffff160217905550606082015181600301556080820151816004015560a0820151816005015560c0820151816006015560e08201518160070160006101000a81548160ff0219169083151502179055509050507f1819ba14baa7481a7b236a7888df8e0a32271ee6d12514a8c92da9f9bba73a67888885604051808473ffffffffffffffffffffffffffffffffffffffff1673ffffffffffffffffffffffffffffffffffffffff1681526020018373ffffffffffffffffffffffffffffffffffffffff1673ffffffffffffffffffffffffffffffffffffffff168152602001828152602001935050505060405180910390a160019050610758565b600090505b979650505050505050565b6000816011600085815260200190815260200160002060070160006101000a81548160ff0219169083151502179055507fc1ed61a354e7eb894b73fc76469178cc56183a1c23267f08a7e6bff0cb346b05838360405180838152602001821515151581526020019250505060405180910390a181905092915050565b60116020528060005260406000206000915090508060000154908060010160009054906101000a900473ffffffffffffffffffffffffffffffffffffffff16908060020160009054906101000a900473ffffffffffffffffffffffffffffffffffffffff16908060030154908060040154908060050154908060060154908060070160009054906101000a900460ff16905088565b6000919050565b60018060000160009054906101000a900473ffffffffffffffffffffffffffffffffffffffff16908060010160009054906101000a900473ffffffffffffffffffffffffffffffffffffffff16908060020160009054906101000a900473ffffffffffffffffffffffffffffffffffffffff16908060030154905084565b60008060008060008060006011600089815260200190815260200160002060010160009054906101000a900473ffffffffffffffffffffffffffffffffffffffff16601160008a815260200190815260200160002060020160009054906101000a900473ffffffffffffffffffffffffffffffffffffffff16601160008b815260200190815260200160002060030154601160008c815260200190815260200160002060040154601160008d815260200190815260200160002060050154601160008e815260200190815260200160002060060154601160008f815260200190815260200160002060070160009054906101000a900460ff169650965096509650965096509650919395979092949650565b60608060008060606000601254604051908082528060200260200182016040528015610a465781602001602082028038833980820191505090505b50945060009350600192505b60125483111515610aa55760116000848152602001908152602001600020600001548585815181101515610a8257fe5b906020019060200201818152505083806001019450508280600101935050610a52565b83604051908082528060200260200182016040528015610ad45781602001602082028038833980820191505090505b509150600090505b83811015610b25578481815181101515610af257fe5b906020019060200201518282815181101515610b0a57fe5b90602001906020020181815250508080600101915050610adc565b819550505050505090565b60006011600083815260200190815260200160002060070160009054906101000a900460ff1690509190505600a165627a7a72305820e08b43c65b2b49c607b7671762ddffb0daa3458937cad0b98ce9c9182198b3c60029",
  "source": "pragma solidity ^0.4.24;\n\nimport \"./SaleConditionContract.sol\";\nimport \"./ComfreePropertyDataModel.sol\";\n\n/*\n* First contract to be created.  This will have an expiry date of the offer.\n*/\n\ncontract OfferContract is ComfreePropertyDataModel {\n\taddress owner;\n\n    struct OfferContract {\n        uint id; \n        address buyerAddress;\n        address sellerAddress;\n        uint offerDate;\n        uint expiredDate;\n        uint currentDate;\n        uint offerAmount;\n        bool accepted;\n    }\n\n    OfferContract offerContractObjects;\n    uint numberDaysExpiration = 10;\n    SaleConditionContract saleConditionContract;\n\n    address[] saleConditionContractsArray;\n    mapping (uint => OfferContract) public _listOfOfferContracts;\n    uint offerContractCounter; //this is used as an index that holds each contracts\n    \n\n\tconstructor () public {\n        owner = msg.sender;\n    }\n\n    /*\n    * This function is to get all of active offers\n    */\n    function getActiveOffers() public view returns(uint[]) {\n        //prepare output array\n        uint[] memory indexCounter = new uint[](offerContractCounter);\n        uint numberOfSavedOfferContracts = 0;\n        //itirate over biodatalist\n        for(uint i = 1; i <= offerContractCounter; i++) {\n            //show bio data item\n            indexCounter[numberOfSavedOfferContracts] = _listOfOfferContracts[i].id;\n            numberOfSavedOfferContracts++;\n        }\n        //copy bioDataIds array just get ids pertaining to contractOwner\n        uint[] memory owneddata = new uint[](numberOfSavedOfferContracts);\n        for(uint j = 0; j < numberOfSavedOfferContracts; j++) {\n            owneddata[j] = indexCounter[j];\n        }\n\n        return owneddata;\n        \n    }\n\n    /*\n    * _address parameter can be either the seller or the buyer\n    */\n    function getOfferContractDetailsById(uint _id) public view returns(address _buyerAddress, address _sellerAddress, uint _offerDate, uint _currentDate, uint _expiredDate,uint _offerAmount,bool _accepted) {\n        return (_listOfOfferContracts[_id].buyerAddress, _listOfOfferContracts[_id].sellerAddress,\n                _listOfOfferContracts[_id].offerDate, _listOfOfferContracts[_id].expiredDate,\n                _listOfOfferContracts[_id].currentDate, _listOfOfferContracts[_id].offerAmount, \n                _listOfOfferContracts[_id].accepted);\n    }\n\n    /*\n    * Contract deployer via DApp is the only one allowed to initiate this transaction\n    * 1 = Success\n    * 0 = Failed\n    */\n    function createOfferContract(address _buyerAddress, address _sellerAddress, \n                                 uint _offerDate, uint _currentDate, uint _expiredDate,\n                                 uint _offerAmount,bool _accepted) public returns(uint _result) {\n        if(msg.sender == owner) {\n            //increment index\n            offerContractCounter++;\n            _listOfOfferContracts[offerContractCounter] = OfferContract(offerContractCounter, _buyerAddress, _sellerAddress, _offerDate, _currentDate, _expiredDate, _offerAmount, _accepted);\n            emit OfferCreated(_buyerAddress, _sellerAddress, _offerAmount);\n            return 1;\n        }\n        else {\n            return 0;\n        }\n    }\n\n    \n    function accept(uint _id, bool _value) public returns(bool) {\n        /*\n        * Future update.  Must have mechanism to prevent changing accepted offer\n        * back to non-acception.  Depending on law of the land, the current\n        * instance of this contract may have to be nulled and a new contract\n        * must be opened.\n        */\n        _listOfOfferContracts[_id].accepted = _value;\n        emit OfferAccepted(_id, _value);\n        return _value; //this will either return true or false\n    }\n\n    function isOfferAccepted(uint _id) public view returns(bool) {\n        return _listOfOfferContracts[_id].accepted;\n    }\n\n    function isOfferExpired(uint _id) public returns(bool _value) {\n        /*if( now == offerContractObjects.expiredDate || now > offerContractObjects.expiredDate ) {\n            _value = true;\n        }\n        else {\n            _value = false;\n        }\n        return _value;*/\n    }\n}\n",
  "sourcePath": "/Users/jaypersanchez/comfree/contracts/OfferContract.sol",
  "compiler": {
    "name": "solc",
    "version": "0.4.28+commit.2fcccea1.Emscripten.clang"
  },
  "schemaVersion": "2.0.3",
  "updatedAt": "2019-03-31T14:31:29.160Z"
}