{
  "contractName": "OfferContract",
  "abi": [
    {
      "constant": true,
      "inputs": [],
      "name": "escrowDataElements",
      "outputs": [
        {
          "name": "escrowDepositorAddress",
          "type": "address"
        },
        {
          "name": "escrowAgentAddress",
          "type": "address"
        },
        {
          "name": "escrowBeneficiaryAddress",
          "type": "address"
        },
        {
          "name": "escrowAmount",
          "type": "uint256"
        }
      ],
      "payable": false,
      "stateMutability": "view",
      "type": "function"
    },
    {
      "constant": true,
      "inputs": [
        {
          "name": "",
          "type": "address"
        }
      ],
      "name": "listOfOfferContracts",
      "outputs": [
        {
          "name": "buyerAddress",
          "type": "address"
        },
        {
          "name": "sellerAddress",
          "type": "address"
        },
        {
          "name": "offerDate",
          "type": "uint256"
        },
        {
          "name": "expiredDate",
          "type": "uint256"
        },
        {
          "name": "currentDate",
          "type": "uint256"
        },
        {
          "name": "offerAmount",
          "type": "uint256"
        },
        {
          "name": "accepted",
          "type": "bool"
        }
      ],
      "payable": false,
      "stateMutability": "view",
      "type": "function"
    },
    {
      "inputs": [],
      "payable": false,
      "stateMutability": "nonpayable",
      "type": "constructor"
    },
    {
      "anonymous": false,
      "inputs": [
        {
          "indexed": false,
          "name": "_sender",
          "type": "address"
        },
        {
          "indexed": false,
          "name": "_receiver",
          "type": "address"
        },
        {
          "indexed": false,
          "name": "_numTokens",
          "type": "uint256"
        }
      ],
      "name": "Transfer",
      "type": "event"
    },
    {
      "anonymous": false,
      "inputs": [
        {
          "indexed": false,
          "name": "_sender",
          "type": "address"
        },
        {
          "indexed": false,
          "name": "_delegate",
          "type": "address"
        },
        {
          "indexed": false,
          "name": "_numTokens",
          "type": "uint256"
        }
      ],
      "name": "Approval",
      "type": "event"
    },
    {
      "constant": true,
      "inputs": [
        {
          "name": "_address",
          "type": "address"
        }
      ],
      "name": "getOfferContractData",
      "outputs": [
        {
          "name": "_buyerAddress",
          "type": "address"
        },
        {
          "name": "_sellerAddress",
          "type": "address"
        },
        {
          "name": "_offerDate",
          "type": "uint256"
        },
        {
          "name": "_currentDate",
          "type": "uint256"
        },
        {
          "name": "_expiredDate",
          "type": "uint256"
        },
        {
          "name": "_offerAmount",
          "type": "uint256"
        },
        {
          "name": "_accepted",
          "type": "bool"
        }
      ],
      "payable": false,
      "stateMutability": "view",
      "type": "function"
    },
    {
      "constant": false,
      "inputs": [
        {
          "name": "_buyerAddress",
          "type": "address"
        },
        {
          "name": "_sellerAddress",
          "type": "address"
        },
        {
          "name": "_offerDate",
          "type": "uint256"
        },
        {
          "name": "_currentDate",
          "type": "uint256"
        },
        {
          "name": "_expiredDate",
          "type": "uint256"
        },
        {
          "name": "_offerAmount",
          "type": "uint256"
        },
        {
          "name": "_accepted",
          "type": "bool"
        }
      ],
      "name": "createOfferContract",
      "outputs": [],
      "payable": false,
      "stateMutability": "nonpayable",
      "type": "function"
    },
    {
      "constant": false,
      "inputs": [
        {
          "name": "_address",
          "type": "address"
        },
        {
          "name": "_offerAmount",
          "type": "uint256"
        }
      ],
      "name": "setBuyerOffer",
      "outputs": [],
      "payable": false,
      "stateMutability": "nonpayable",
      "type": "function"
    },
    {
      "constant": false,
      "inputs": [
        {
          "name": "_address",
          "type": "address"
        },
        {
          "name": "_value",
          "type": "bool"
        }
      ],
      "name": "accept",
      "outputs": [
        {
          "name": "",
          "type": "bool"
        }
      ],
      "payable": false,
      "stateMutability": "nonpayable",
      "type": "function"
    },
    {
      "constant": true,
      "inputs": [
        {
          "name": "_address",
          "type": "address"
        }
      ],
      "name": "isOfferAccepted",
      "outputs": [
        {
          "name": "",
          "type": "bool"
        }
      ],
      "payable": false,
      "stateMutability": "view",
      "type": "function"
    },
    {
      "constant": false,
      "inputs": [],
      "name": "isOfferExpired",
      "outputs": [
        {
          "name": "_value",
          "type": "bool"
        }
      ],
      "payable": false,
      "stateMutability": "nonpayable",
      "type": "function"
    }
  ],
  "bytecode": "0x6080604052600a600d5534801561001557600080fd5b5033600560006101000a81548173ffffffffffffffffffffffffffffffffffffffff021916908373ffffffffffffffffffffffffffffffffffffffff160217905550610bf4806100666000396000f30060806040526004361061008e576000357c0100000000000000000000000000000000000000000000000000000000900463ffffffff168063130bc1e81461009357806336f4ac6b1461017057806368e47f59146102075780636b3626641461026e5780636faef7ea146103325780639ffa9d0814610361578063aac41618146103bc578063b0d642aa14610409575b600080fd5b34801561009f57600080fd5b506100d4600480360381019080803573ffffffffffffffffffffffffffffffffffffffff1690602001909291905050506104e6565b604051808873ffffffffffffffffffffffffffffffffffffffff1673ffffffffffffffffffffffffffffffffffffffff1681526020018773ffffffffffffffffffffffffffffffffffffffff1673ffffffffffffffffffffffffffffffffffffffff1681526020018681526020018581526020018481526020018381526020018215151515815260200197505050505050505060405180910390f35b34801561017c57600080fd5b50610205600480360381019080803573ffffffffffffffffffffffffffffffffffffffff169060200190929190803573ffffffffffffffffffffffffffffffffffffffff1690602001909291908035906020019092919080359060200190929190803590602001909291908035906020019092919080351515906020019092919050505061072c565b005b34801561021357600080fd5b50610254600480360381019080803573ffffffffffffffffffffffffffffffffffffffff1690602001909291908035151590602001909291905050506109ad565b604051808215151515815260200191505060405180910390f35b34801561027a57600080fd5b50610283610a12565b604051808573ffffffffffffffffffffffffffffffffffffffff1673ffffffffffffffffffffffffffffffffffffffff1681526020018473ffffffffffffffffffffffffffffffffffffffff1673ffffffffffffffffffffffffffffffffffffffff1681526020018373ffffffffffffffffffffffffffffffffffffffff1673ffffffffffffffffffffffffffffffffffffffff16815260200182815260200194505050505060405180910390f35b34801561033e57600080fd5b50610347610a90565b604051808215151515815260200191505060405180910390f35b34801561036d57600080fd5b506103a2600480360381019080803573ffffffffffffffffffffffffffffffffffffffff169060200190929190505050610a95565b604051808215151515815260200191505060405180910390f35b3480156103c857600080fd5b50610407600480360381019080803573ffffffffffffffffffffffffffffffffffffffff16906020019092919080359060200190929190505050610aee565b005b34801561041557600080fd5b5061044a600480360381019080803573ffffffffffffffffffffffffffffffffffffffff169060200190929190505050610b39565b604051808873ffffffffffffffffffffffffffffffffffffffff1673ffffffffffffffffffffffffffffffffffffffff1681526020018773ffffffffffffffffffffffffffffffffffffffff1673ffffffffffffffffffffffffffffffffffffffff1681526020018681526020018581526020018481526020018381526020018215151515815260200197505050505050505060405180910390f35b6000806000806000806000601060008973ffffffffffffffffffffffffffffffffffffffff1673ffffffffffffffffffffffffffffffffffffffff16815260200190815260200160002060000160009054906101000a900473ffffffffffffffffffffffffffffffffffffffff16601060008a73ffffffffffffffffffffffffffffffffffffffff1673ffffffffffffffffffffffffffffffffffffffff16815260200190815260200160002060010160009054906101000a900473ffffffffffffffffffffffffffffffffffffffff16601060008b73ffffffffffffffffffffffffffffffffffffffff1673ffffffffffffffffffffffffffffffffffffffff16815260200190815260200160002060020154601060008c73ffffffffffffffffffffffffffffffffffffffff1673ffffffffffffffffffffffffffffffffffffffff16815260200190815260200160002060030154601060008d73ffffffffffffffffffffffffffffffffffffffff1673ffffffffffffffffffffffffffffffffffffffff16815260200190815260200160002060040154601060008e73ffffffffffffffffffffffffffffffffffffffff1673ffffffffffffffffffffffffffffffffffffffff16815260200190815260200160002060050154601060008f73ffffffffffffffffffffffffffffffffffffffff1673ffffffffffffffffffffffffffffffffffffffff16815260200190815260200160002060060160009054906101000a900460ff169650965096509650965096509650919395979092949650565b86601060008973ffffffffffffffffffffffffffffffffffffffff1673ffffffffffffffffffffffffffffffffffffffff16815260200190815260200160002060000160006101000a81548173ffffffffffffffffffffffffffffffffffffffff021916908373ffffffffffffffffffffffffffffffffffffffff16021790555085601060008973ffffffffffffffffffffffffffffffffffffffff1673ffffffffffffffffffffffffffffffffffffffff16815260200190815260200160002060010160006101000a81548173ffffffffffffffffffffffffffffffffffffffff021916908373ffffffffffffffffffffffffffffffffffffffff16021790555084601060008973ffffffffffffffffffffffffffffffffffffffff1673ffffffffffffffffffffffffffffffffffffffff1681526020019081526020016000206002018190555083601060008973ffffffffffffffffffffffffffffffffffffffff1673ffffffffffffffffffffffffffffffffffffffff1681526020019081526020016000206004018190555082601060008973ffffffffffffffffffffffffffffffffffffffff1673ffffffffffffffffffffffffffffffffffffffff1681526020019081526020016000206003018190555081601060008973ffffffffffffffffffffffffffffffffffffffff1673ffffffffffffffffffffffffffffffffffffffff1681526020019081526020016000206005018190555080601060008973ffffffffffffffffffffffffffffffffffffffff1673ffffffffffffffffffffffffffffffffffffffff16815260200190815260200160002060060160006101000a81548160ff02191690831515021790555050505050505050565b600081601060008573ffffffffffffffffffffffffffffffffffffffff1673ffffffffffffffffffffffffffffffffffffffff16815260200190815260200160002060060160006101000a81548160ff02191690831515021790555081905092915050565b60018060000160009054906101000a900473ffffffffffffffffffffffffffffffffffffffff16908060010160009054906101000a900473ffffffffffffffffffffffffffffffffffffffff16908060020160009054906101000a900473ffffffffffffffffffffffffffffffffffffffff16908060030154905084565b600090565b6000601060008373ffffffffffffffffffffffffffffffffffffffff1673ffffffffffffffffffffffffffffffffffffffff16815260200190815260200160002060060160009054906101000a900460ff169050919050565b80601060008473ffffffffffffffffffffffffffffffffffffffff1673ffffffffffffffffffffffffffffffffffffffff168152602001908152602001600020600501819055505050565b60106020528060005260406000206000915090508060000160009054906101000a900473ffffffffffffffffffffffffffffffffffffffff16908060010160009054906101000a900473ffffffffffffffffffffffffffffffffffffffff16908060020154908060030154908060040154908060050154908060060160009054906101000a900460ff169050875600a165627a7a723058202ff6e90cffb5c3884d96498e33812dc4d7961e490037b97fcb54014337ed5ace0029",
  "source": "pragma solidity ^0.4.24;\n\nimport \"./SaleConditionContract.sol\";\nimport \"./ComfreePropertyDataModel.sol\";\n\n/*\n* First contract to be created.  This will have an expiry date of the offer.\n*/\n\ncontract OfferContract is ComfreePropertyDataModel {\n\taddress owner;\n\n    struct OfferContract {\n        address buyerAddress;\n        address sellerAddress;\n        uint offerDate;\n        uint expiredDate;\n        uint currentDate;\n        uint offerAmount;\n        bool accepted;\n    }\n\n    OfferContract offerContractObjects;\n    uint numberDaysExpiration = 10;\n    SaleConditionContract saleConditionContract;\n\n    address[] saleConditionContractsArray;\n    mapping (address => OfferContract) public listOfOfferContracts;\n\n    \n\n\tconstructor () public {\n        //default setting\n\t\t//offerContractObjects.accepted = false;\n        //offerContractObjects.currentDate = now;\n        //Expiration date is set from current date plus numberDaysExpiration default to 10 days\n        //offerContractObjects.expiredDate = now+numberDaysExpiration;\n        owner = msg.sender;\n    }\n\n    /*\n    * _address parameter can be either the seller or the buyer\n    */\n    function getOfferContractData(address _address) public view returns(address _buyerAddress, address _sellerAddress, uint _offerDate, uint _currentDate, uint _expiredDate,uint _offerAmount,bool _accepted) {\n        return (listOfOfferContracts[_address].buyerAddress, listOfOfferContracts[_address].sellerAddress,\n                listOfOfferContracts[_address].offerDate, listOfOfferContracts[_address].expiredDate,\n                listOfOfferContracts[_address].currentDate, listOfOfferContracts[_address].offerAmount, \n                listOfOfferContracts[_address].accepted);\n    }\n\n    function createOfferContract(address _buyerAddress, address _sellerAddress, \n                                 uint _offerDate, uint _currentDate, uint _expiredDate,\n                                 uint _offerAmount,bool _accepted) public {\n        listOfOfferContracts[_buyerAddress].buyerAddress = _buyerAddress;\n        listOfOfferContracts[_buyerAddress].sellerAddress = _sellerAddress;\n        listOfOfferContracts[_buyerAddress].offerDate = _offerDate;\n        listOfOfferContracts[_buyerAddress].currentDate = _currentDate;\n        listOfOfferContracts[_buyerAddress].expiredDate = _expiredDate;\n        listOfOfferContracts[_buyerAddress].offerAmount = _offerAmount;\n        listOfOfferContracts[_buyerAddress].accepted = _accepted;\n    }\n\n    /*\n    * Parameters\n    *  - buyerAddress is wallet address of buyer\n    */\n\tfunction setBuyerOffer(address _address, uint _offerAmount) public  {\n\t\tlistOfOfferContracts[_address].offerAmount = _offerAmount;\n\t}\n\n    function accept(address _address, bool _value) public returns(bool) {\n        /*\n        * Future update.  Must have mechanism to prevent changing accepted offer\n        * back to non-acception.  Depending on law of the land, the current\n        * instance of this contract may have to be nulled and a new contract\n        * must be opened.\n        */\n        listOfOfferContracts[_address].accepted = _value;\n        return _value; //this will either return true or false\n    }\n\n    function isOfferAccepted(address _address) public view returns(bool) {\n        return listOfOfferContracts[_address].accepted;\n    }\n\n    function isOfferExpired() public returns(bool _value) {\n        /*if( now == offerContractObjects.expiredDate || now > offerContractObjects.expiredDate ) {\n            _value = true;\n        }\n        else {\n            _value = false;\n        }\n        return _value;*/\n    }\n}\n",
  "sourcePath": "/Users/jaypersanchez/comfree/contracts/OfferContract.sol",
  "compiler": {
    "name": "solc",
    "version": "0.4.28+commit.2fcccea1.Emscripten.clang"
  },
  "schemaVersion": "2.0.3",
  "updatedAt": "2019-01-15T00:18:09.806Z"
}