{
  "contractName": "OfferContract",
  "abi": [
    {
      "inputs": [],
      "payable": false,
      "stateMutability": "nonpayable",
      "type": "constructor"
    },
    {
      "constant": false,
      "inputs": [
        {
          "name": "_value",
          "type": "address"
        }
      ],
      "name": "setSellerAddress",
      "outputs": [],
      "payable": false,
      "stateMutability": "nonpayable",
      "type": "function"
    },
    {
      "constant": false,
      "inputs": [
        {
          "name": "_value",
          "type": "address"
        }
      ],
      "name": "setBuyerAddress",
      "outputs": [],
      "payable": false,
      "stateMutability": "nonpayable",
      "type": "function"
    },
    {
      "constant": false,
      "inputs": [],
      "name": "getSellerAddress",
      "outputs": [
        {
          "name": "_addy",
          "type": "address"
        }
      ],
      "payable": false,
      "stateMutability": "nonpayable",
      "type": "function"
    },
    {
      "constant": false,
      "inputs": [],
      "name": "getBuyerAddress",
      "outputs": [
        {
          "name": "_addy",
          "type": "address"
        }
      ],
      "payable": false,
      "stateMutability": "nonpayable",
      "type": "function"
    },
    {
      "constant": false,
      "inputs": [
        {
          "name": "_offerAmount",
          "type": "uint256"
        }
      ],
      "name": "setBuyerOffer",
      "outputs": [],
      "payable": false,
      "stateMutability": "nonpayable",
      "type": "function"
    },
    {
      "constant": false,
      "inputs": [],
      "name": "getOfferAmount",
      "outputs": [
        {
          "name": "_value",
          "type": "uint256"
        }
      ],
      "payable": false,
      "stateMutability": "nonpayable",
      "type": "function"
    },
    {
      "constant": false,
      "inputs": [
        {
          "name": "_value",
          "type": "bool"
        }
      ],
      "name": "accept",
      "outputs": [
        {
          "name": "",
          "type": "bool"
        }
      ],
      "payable": false,
      "stateMutability": "nonpayable",
      "type": "function"
    },
    {
      "constant": false,
      "inputs": [],
      "name": "isOfferAccepted",
      "outputs": [
        {
          "name": "",
          "type": "bool"
        }
      ],
      "payable": false,
      "stateMutability": "nonpayable",
      "type": "function"
    },
    {
      "constant": false,
      "inputs": [],
      "name": "isOfferExpired",
      "outputs": [
        {
          "name": "_value",
          "type": "bool"
        }
      ],
      "payable": false,
      "stateMutability": "nonpayable",
      "type": "function"
    }
  ],
  "bytecode": "0x6080604052600a60075534801561001557600080fd5b5060008060060160006101000a81548160ff02191690831515021790555042600060040181905550600754420160006003018190555061082e8061005a6000396000f300608060405260043610610099576000357c0100000000000000000000000000000000000000000000000000000000900463ffffffff1680631b697bb21461009e5780631fce6fed146100e1578063400527da1461010c5780636faef7ea1461015357806384b09e8614610182578063a12df12e146101d9578063b11751381461021c578063cd6024c11461024b578063fa0c151314610278575b600080fd5b3480156100aa57600080fd5b506100df600480360381019080803573ffffffffffffffffffffffffffffffffffffffff1690602001909291905050506102cf565b005b3480156100ed57600080fd5b506100f6610315565b6040518082815260200191505060405180910390f35b34801561011857600080fd5b50610139600480360381019080803515159060200190929190505050610321565b604051808215151515815260200191505060405180910390f35b34801561015f57600080fd5b506101686103ad565b604051808215151515815260200191505060405180910390f35b34801561018e57600080fd5b506101976103de565b604051808273ffffffffffffffffffffffffffffffffffffffff1673ffffffffffffffffffffffffffffffffffffffff16815260200191505060405180910390f35b3480156101e557600080fd5b5061021a600480360381019080803573ffffffffffffffffffffffffffffffffffffffff16906020019092919050505061040a565b005b34801561022857600080fd5b50610231610451565b604051808215151515815260200191505060405180910390f35b34801561025757600080fd5b506102766004803603810190808035906020019092919050505061046a565b005b34801561028457600080fd5b5061028d610477565b604051808273ffffffffffffffffffffffffffffffffffffffff1673ffffffffffffffffffffffffffffffffffffffff16815260200191505060405180910390f35b806000800160006101000a81548173ffffffffffffffffffffffffffffffffffffffff021916908373ffffffffffffffffffffffffffffffffffffffff16021790555050565b60008060050154905090565b600081600060060160006101000a81548160ff0219169083151502179055506103486104a3565b604051809103906000f080158015610364573d6000803e3d6000fd5b50600860006101000a81548173ffffffffffffffffffffffffffffffffffffffff021916908373ffffffffffffffffffffffffffffffffffffffff160217905550819050919050565b600080600301544214806103c5575060006003015442115b156103d357600190506103d8565b600090505b80905090565b60008060010160009054906101000a900473ffffffffffffffffffffffffffffffffffffffff16905090565b80600060010160006101000a81548173ffffffffffffffffffffffffffffffffffffffff021916908373ffffffffffffffffffffffffffffffffffffffff16021790555050565b60008060060160009054906101000a900460ff16905090565b8060006005018190555050565b60008060000160009054906101000a900473ffffffffffffffffffffffffffffffffffffffff16905090565b60405161034f806104b483390190560060806040526000600660006101000a81548160ff02191690831515021790555034801561002b57600080fd5b506000600260000181905550600060026001018190555060006002800160006101000a81548160ff0219169083151502179055506102e18061006e6000396000f300608060405260043610610062576000357c0100000000000000000000000000000000000000000000000000000000900463ffffffff1680636095204a146100675780637c123627146100ae578063d674666a146100f3578063f4bd0bcf14610136575b600080fd5b34801561007357600080fd5b506100ac600480360381019080803515159060200190929190803515159060200190929190803515159060200190929190505050610165565b005b3480156100ba57600080fd5b506100c36101c1565b60405180841515151581526020018315151515815260200182151515158152602001935050505060405180910390f35b3480156100ff57600080fd5b50610134600480360381019080803590602001909291908035906020019092919080351515906020019092919050505061020a565b005b34801561014257600080fd5b5061014b61023f565b604051808215151515815260200191505060405180910390f35b82600560000160006101000a81548160ff02191690831515021790555081600560000160016101000a81548160ff02191690831515021790555080600560000160026101000a81548160ff021916908315150217905550505050565b6000806000600560000160009054906101000a900460ff16600560000160019054906101000a900460ff16600560000160029054906101000a900460ff16925092509250909192565b8260026000018190555081600260010181905550806002800160006101000a81548160ff021916908315150217905550505050565b600060011515600560000160009054906101000a900460ff16151514801561027d575060011515600560000160019054906101000a900460ff161515145b801561029f575060011515600560000160029054906101000a900460ff161515145b156102ad57600190506102b2565b600090505b905600a165627a7a72305820d483ace53186e95588967ebae9a276f6c63a4d888d7334c1725fe470432dc6c80029a165627a7a72305820100d42107443f9159fdab69ae2f154e0edcd6585d19756d289ae459608a48eac0029",
  "source": "pragma solidity ^0.4.24;\n\nimport \"./SaleConditionContract.sol\";\n\n/*\n* First contract to be created.  This will have an expiry date of the offer.\n*/\n\ncontract OfferContract {\n\t\n    struct OfferContract {\n        address buyerAddress;\n        address sellerAddress;\n        uint offerDate;\n        uint expiredDate;\n        uint currentDate;\n        uint offerAmount;\n        bool accepted;\n    }\n\n    OfferContract offerContractObject;\n    uint numberDaysExpiration = 10;\n    SaleConditionContract saleConditionContract;\n\n\tconstructor() public {\n        //default setting\n\t\tofferContractObject.accepted = false;\n        offerContractObject.currentDate = now;\n        //Expiration date is set from current date plus numberDaysExpiration default to 10 days\n        offerContractObject.expiredDate = now+numberDaysExpiration;\n    }\n\n    function setSellerAddress(address _value) public {\n        offerContractObject.sellerAddress = _value;\n    }\n\n    function setBuyerAddress(address _value) public {\n        offerContractObject.buyerAddress = _value;\n    }\n\n    function getSellerAddress() public returns(address _addy) {\n        return offerContractObject.sellerAddress;\n    } \n\n    function getBuyerAddress() public returns(address _addy) {\n        return offerContractObject.buyerAddress;\n    }\n\n\t/*\n    * Parameters\n    *  - buyerAddress is wallet address of buyer\n    */\n\tfunction setBuyerOffer(uint _offerAmount) public  {\n\t\tofferContractObject.offerAmount = _offerAmount;\n\t}\n\n    function getOfferAmount() public returns(uint _value) {\n        return offerContractObject.offerAmount;\n    }\n\n    function accept(bool _value) public returns(bool) {\n        /*\n        * Future update.  Must have mechanism to prevent changing accepted offer\n        * back to non-acception.  Depending on law of the land, the current\n        * instance of this contract may have to be nulled and a new contract\n        * must be opened.\n        */\n        offerContractObject.accepted = _value;\n        /* Instantiate a new SaleConditionContract once offer is accepted */\n        saleConditionContract = new SaleConditionContract();\n        return _value; //this will either return true or false\n    }\n\n    function isOfferAccepted() public returns(bool) {\n        return offerContractObject.accepted;\n    }\n\n    function isOfferExpired() public returns(bool _value) {\n        if( now == offerContractObject.expiredDate || now > offerContractObject.expiredDate ) {\n            _value = true;\n        }\n        else {\n            _value = false;\n        }\n        return _value;\n    }\n}\n",
  "sourcePath": "/Users/jaypersanchez/comfree/contracts/OfferContract.sol",
  "compiler": {
    "name": "solc",
    "version": "0.4.28+commit.2fcccea1.Emscripten.clang"
  },
  "schemaVersion": "2.0.3",
  "updatedAt": "2018-12-20T00:28:16.627Z"
}