{
  "contractName": "OfferContract",
  "abi": [
    {
      "inputs": [],
      "payable": false,
      "stateMutability": "nonpayable",
      "type": "constructor"
    },
    {
      "constant": false,
      "inputs": [
        {
          "name": "_value",
          "type": "address"
        }
      ],
      "name": "setSellerAddress",
      "outputs": [],
      "payable": false,
      "stateMutability": "nonpayable",
      "type": "function"
    },
    {
      "constant": false,
      "inputs": [
        {
          "name": "_value",
          "type": "address"
        }
      ],
      "name": "setBuyerAddress",
      "outputs": [],
      "payable": false,
      "stateMutability": "nonpayable",
      "type": "function"
    },
    {
      "constant": false,
      "inputs": [],
      "name": "getSellerAddress",
      "outputs": [
        {
          "name": "_addy",
          "type": "address"
        }
      ],
      "payable": false,
      "stateMutability": "nonpayable",
      "type": "function"
    },
    {
      "constant": false,
      "inputs": [],
      "name": "getBuyerAddress",
      "outputs": [
        {
          "name": "_addy",
          "type": "address"
        }
      ],
      "payable": false,
      "stateMutability": "nonpayable",
      "type": "function"
    },
    {
      "constant": false,
      "inputs": [
        {
          "name": "_offerAmount",
          "type": "uint256"
        }
      ],
      "name": "setBuyerOffer",
      "outputs": [],
      "payable": false,
      "stateMutability": "nonpayable",
      "type": "function"
    },
    {
      "constant": false,
      "inputs": [],
      "name": "getOfferAmount",
      "outputs": [
        {
          "name": "_value",
          "type": "uint256"
        }
      ],
      "payable": false,
      "stateMutability": "nonpayable",
      "type": "function"
    },
    {
      "constant": false,
      "inputs": [
        {
          "name": "_value",
          "type": "bool"
        }
      ],
      "name": "accept",
      "outputs": [
        {
          "name": "",
          "type": "bool"
        }
      ],
      "payable": false,
      "stateMutability": "nonpayable",
      "type": "function"
    },
    {
      "constant": false,
      "inputs": [],
      "name": "isOfferAccepted",
      "outputs": [
        {
          "name": "",
          "type": "bool"
        }
      ],
      "payable": false,
      "stateMutability": "nonpayable",
      "type": "function"
    },
    {
      "constant": false,
      "inputs": [],
      "name": "isOfferExpired",
      "outputs": [
        {
          "name": "_value",
          "type": "bool"
        }
      ],
      "payable": false,
      "stateMutability": "nonpayable",
      "type": "function"
    }
  ],
  "bytecode": "0x6080604052600a60085534801561001557600080fd5b506000600160060160006101000a81548160ff02191690831515021790555042600160040181905550600854420160016003018190555061046e8061005b6000396000f300608060405260043610610099576000357c0100000000000000000000000000000000000000000000000000000000900463ffffffff1680631b697bb21461009e5780631fce6fed146100e1578063400527da1461010c5780636faef7ea1461015357806384b09e8614610182578063a12df12e146101d9578063b11751381461021c578063cd6024c11461024b578063fa0c151314610278575b600080fd5b3480156100aa57600080fd5b506100df600480360381019080803573ffffffffffffffffffffffffffffffffffffffff1690602001909291905050506102cf565b005b3480156100ed57600080fd5b506100f6610316565b6040518082815260200191505060405180910390f35b34801561011857600080fd5b50610139600480360381019080803515159060200190929190505050610323565b604051808215151515815260200191505060405180910390f35b34801561015f57600080fd5b5061016861034a565b604051808215151515815260200191505060405180910390f35b34801561018e57600080fd5b5061019761037c565b604051808273ffffffffffffffffffffffffffffffffffffffff1673ffffffffffffffffffffffffffffffffffffffff16815260200191505060405180910390f35b3480156101e557600080fd5b5061021a600480360381019080803573ffffffffffffffffffffffffffffffffffffffff1690602001909291905050506103a8565b005b34801561022857600080fd5b506102316103ee565b604051808215151515815260200191505060405180910390f35b34801561025757600080fd5b5061027660048036038101908080359060200190929190505050610408565b005b34801561028457600080fd5b5061028d610415565b604051808273ffffffffffffffffffffffffffffffffffffffff1673ffffffffffffffffffffffffffffffffffffffff16815260200191505060405180910390f35b80600160000160006101000a81548173ffffffffffffffffffffffffffffffffffffffff021916908373ffffffffffffffffffffffffffffffffffffffff16021790555050565b6000600160050154905090565b600081600160060160006101000a81548160ff021916908315150217905550819050919050565b6000600160030154421480610363575060016003015442115b156103715760019050610376565b600090505b80905090565b60006001800160009054906101000a900473ffffffffffffffffffffffffffffffffffffffff16905090565b806001800160006101000a81548173ffffffffffffffffffffffffffffffffffffffff021916908373ffffffffffffffffffffffffffffffffffffffff16021790555050565b6000600160060160009054906101000a900460ff16905090565b8060016005018190555050565b6000600160000160009054906101000a900473ffffffffffffffffffffffffffffffffffffffff169050905600a165627a7a7230582090719c14cd25ae2fe5de54752527817c3830114a1f5e332764158bad80f752900029",
  "source": "pragma solidity ^0.4.24;\n\nimport \"./SaleConditionContract.sol\";\n\n/*\n* First contract to be created.  This will have an expiry date of the offer.\n*/\n\ncontract OfferContract {\n\t\n    struct OfferContract {\n        address buyerAddress;\n        address sellerAddress;\n        uint offerDate;\n        uint expiredDate;\n        uint currentDate;\n        uint offerAmount;\n        bool accepted;\n    }\n\n    address[] saleConditionContractsArray;\n\n    OfferContract offerContractObject;\n    uint numberDaysExpiration = 10;\n    SaleConditionContract saleConditionContract;\n\n\tconstructor() public {\n        //default setting\n\t\tofferContractObject.accepted = false;\n        offerContractObject.currentDate = now;\n        //Expiration date is set from current date plus numberDaysExpiration default to 10 days\n        offerContractObject.expiredDate = now+numberDaysExpiration;\n    }\n\n    function setSellerAddress(address _value) public {\n        offerContractObject.sellerAddress = _value;\n    }\n\n    function setBuyerAddress(address _value) public {\n        offerContractObject.buyerAddress = _value;\n    }\n\n    function getSellerAddress() public returns(address _addy) {\n        return offerContractObject.sellerAddress;\n    } \n\n    function getBuyerAddress() public returns(address _addy) {\n        return offerContractObject.buyerAddress;\n    }\n\n\t/*\n    * Parameters\n    *  - buyerAddress is wallet address of buyer\n    */\n\tfunction setBuyerOffer(uint _offerAmount) public  {\n\t\tofferContractObject.offerAmount = _offerAmount;\n\t}\n\n    function getOfferAmount() public returns(uint _value) {\n        return offerContractObject.offerAmount;\n    }\n\n    function accept(bool _value) public returns(bool) {\n        /*\n        * Future update.  Must have mechanism to prevent changing accepted offer\n        * back to non-acception.  Depending on law of the land, the current\n        * instance of this contract may have to be nulled and a new contract\n        * must be opened.\n        */\n        offerContractObject.accepted = _value;\n        return _value; //this will either return true or false\n    }\n\n    function isOfferAccepted() public returns(bool) {\n        return offerContractObject.accepted;\n    }\n\n    function isOfferExpired() public returns(bool _value) {\n        if( now == offerContractObject.expiredDate || now > offerContractObject.expiredDate ) {\n            _value = true;\n        }\n        else {\n            _value = false;\n        }\n        return _value;\n    }\n}\n",
  "sourcePath": "/Users/jaypersanchez/comfree/contracts/OfferContract.sol",
  "compiler": {
    "name": "solc",
    "version": "0.4.28+commit.2fcccea1.Emscripten.clang"
  },
  "schemaVersion": "2.0.3",
  "updatedAt": "2018-12-21T06:33:12.194Z"
}