{
  "contractName": "OfferContract",
  "abi": [
    {
      "constant": true,
      "inputs": [
        {
          "name": "",
          "type": "uint256"
        }
      ],
      "name": "_listOfOfferContracts",
      "outputs": [
        {
          "name": "id",
          "type": "uint256"
        },
        {
          "name": "buyerAddress",
          "type": "address"
        },
        {
          "name": "sellerAddress",
          "type": "address"
        },
        {
          "name": "offerDate",
          "type": "uint256"
        },
        {
          "name": "expiredDate",
          "type": "uint256"
        },
        {
          "name": "currentDate",
          "type": "uint256"
        },
        {
          "name": "offerAmount",
          "type": "uint256"
        },
        {
          "name": "accepted",
          "type": "bool"
        }
      ],
      "payable": false,
      "stateMutability": "view",
      "type": "function"
    },
    {
      "constant": true,
      "inputs": [],
      "name": "escrowDataElements",
      "outputs": [
        {
          "name": "escrowDepositorAddress",
          "type": "address"
        },
        {
          "name": "escrowAgentAddress",
          "type": "address"
        },
        {
          "name": "escrowBeneficiaryAddress",
          "type": "address"
        },
        {
          "name": "escrowAmount",
          "type": "uint256"
        }
      ],
      "payable": false,
      "stateMutability": "view",
      "type": "function"
    },
    {
      "constant": true,
      "inputs": [
        {
          "name": "",
          "type": "address"
        }
      ],
      "name": "listOfOfferContracts",
      "outputs": [
        {
          "name": "id",
          "type": "uint256"
        },
        {
          "name": "buyerAddress",
          "type": "address"
        },
        {
          "name": "sellerAddress",
          "type": "address"
        },
        {
          "name": "offerDate",
          "type": "uint256"
        },
        {
          "name": "expiredDate",
          "type": "uint256"
        },
        {
          "name": "currentDate",
          "type": "uint256"
        },
        {
          "name": "offerAmount",
          "type": "uint256"
        },
        {
          "name": "accepted",
          "type": "bool"
        }
      ],
      "payable": false,
      "stateMutability": "view",
      "type": "function"
    },
    {
      "inputs": [],
      "payable": false,
      "stateMutability": "nonpayable",
      "type": "constructor"
    },
    {
      "anonymous": false,
      "inputs": [
        {
          "indexed": false,
          "name": "_sender",
          "type": "address"
        },
        {
          "indexed": false,
          "name": "_receiver",
          "type": "address"
        },
        {
          "indexed": false,
          "name": "_numTokens",
          "type": "uint256"
        }
      ],
      "name": "Transfer",
      "type": "event"
    },
    {
      "anonymous": false,
      "inputs": [
        {
          "indexed": false,
          "name": "_sender",
          "type": "address"
        },
        {
          "indexed": false,
          "name": "_delegate",
          "type": "address"
        },
        {
          "indexed": false,
          "name": "_numTokens",
          "type": "uint256"
        }
      ],
      "name": "Approval",
      "type": "event"
    },
    {
      "constant": true,
      "inputs": [],
      "name": "getActiveOffers",
      "outputs": [
        {
          "name": "",
          "type": "uint256[]"
        }
      ],
      "payable": false,
      "stateMutability": "view",
      "type": "function"
    },
    {
      "constant": false,
      "inputs": [
        {
          "name": "_buyerAddress",
          "type": "address"
        },
        {
          "name": "_sellerAddress",
          "type": "address"
        },
        {
          "name": "_offerDate",
          "type": "uint256"
        },
        {
          "name": "_currentDate",
          "type": "uint256"
        },
        {
          "name": "_expiredDate",
          "type": "uint256"
        },
        {
          "name": "_offerAmount",
          "type": "uint256"
        },
        {
          "name": "_accepted",
          "type": "bool"
        }
      ],
      "name": "createOfferContract",
      "outputs": [],
      "payable": false,
      "stateMutability": "nonpayable",
      "type": "function"
    },
    {
      "constant": false,
      "inputs": [
        {
          "name": "_address",
          "type": "address"
        },
        {
          "name": "_offerAmount",
          "type": "uint256"
        }
      ],
      "name": "setBuyerOffer",
      "outputs": [],
      "payable": false,
      "stateMutability": "nonpayable",
      "type": "function"
    },
    {
      "constant": false,
      "inputs": [
        {
          "name": "_address",
          "type": "address"
        },
        {
          "name": "_value",
          "type": "bool"
        }
      ],
      "name": "accept",
      "outputs": [
        {
          "name": "",
          "type": "bool"
        }
      ],
      "payable": false,
      "stateMutability": "nonpayable",
      "type": "function"
    },
    {
      "constant": true,
      "inputs": [
        {
          "name": "_address",
          "type": "address"
        }
      ],
      "name": "isOfferAccepted",
      "outputs": [
        {
          "name": "",
          "type": "bool"
        }
      ],
      "payable": false,
      "stateMutability": "view",
      "type": "function"
    },
    {
      "constant": false,
      "inputs": [],
      "name": "isOfferExpired",
      "outputs": [
        {
          "name": "_value",
          "type": "bool"
        }
      ],
      "payable": false,
      "stateMutability": "nonpayable",
      "type": "function"
    }
  ],
  "bytecode": "0x6080604052600a600e5534801561001557600080fd5b5033600560006101000a81548173ffffffffffffffffffffffffffffffffffffffff021916908373ffffffffffffffffffffffffffffffffffffffff160217905550610ada806100666000396000f300608060405260043610610099576000357c0100000000000000000000000000000000000000000000000000000000900463ffffffff16806336f4ac6b1461009e578063554d8bb61461013557806368e47f59146102035780636b3626641461026a5780636faef7ea1461032e5780637ff118ef1461035d5780639ffa9d08146103c9578063aac4161814610424578063b0d642aa14610471575b600080fd5b3480156100aa57600080fd5b50610133600480360381019080803573ffffffffffffffffffffffffffffffffffffffff169060200190929190803573ffffffffffffffffffffffffffffffffffffffff16906020019092919080359060200190929190803590602001909291908035906020019092919080359060200190929190803515159060200190929190505050610555565b005b34801561014157600080fd5b50610160600480360381019080803590602001909291905050506106d3565b604051808981526020018873ffffffffffffffffffffffffffffffffffffffff1673ffffffffffffffffffffffffffffffffffffffff1681526020018773ffffffffffffffffffffffffffffffffffffffff1673ffffffffffffffffffffffffffffffffffffffff168152602001868152602001858152602001848152602001838152602001821515151581526020019850505050505050505060405180910390f35b34801561020f57600080fd5b50610250600480360381019080803573ffffffffffffffffffffffffffffffffffffffff169060200190929190803515159060200190929190505050610768565b604051808215151515815260200191505060405180910390f35b34801561027657600080fd5b5061027f6107cd565b604051808573ffffffffffffffffffffffffffffffffffffffff1673ffffffffffffffffffffffffffffffffffffffff1681526020018473ffffffffffffffffffffffffffffffffffffffff1673ffffffffffffffffffffffffffffffffffffffff1681526020018373ffffffffffffffffffffffffffffffffffffffff1673ffffffffffffffffffffffffffffffffffffffff16815260200182815260200194505050505060405180910390f35b34801561033a57600080fd5b5061034361084b565b604051808215151515815260200191505060405180910390f35b34801561036957600080fd5b50610372610850565b6040518080602001828103825283818151815260200191508051906020019060200280838360005b838110156103b557808201518184015260208101905061039a565b505050509050019250505060405180910390f35b3480156103d557600080fd5b5061040a600480360381019080803573ffffffffffffffffffffffffffffffffffffffff169060200190929190505050610975565b604051808215151515815260200191505060405180910390f35b34801561043057600080fd5b5061046f600480360381019080803573ffffffffffffffffffffffffffffffffffffffff169060200190929190803590602001909291905050506109ce565b005b34801561047d57600080fd5b506104b2600480360381019080803573ffffffffffffffffffffffffffffffffffffffff169060200190929190505050610a19565b604051808981526020018873ffffffffffffffffffffffffffffffffffffffff1673ffffffffffffffffffffffffffffffffffffffff1681526020018773ffffffffffffffffffffffffffffffffffffffff1673ffffffffffffffffffffffffffffffffffffffff168152602001868152602001858152602001848152602001838152602001821515151581526020019850505050505050505060405180910390f35b6013600081548092919060010191905055506101006040519081016040528060135481526020018873ffffffffffffffffffffffffffffffffffffffff1681526020018773ffffffffffffffffffffffffffffffffffffffff1681526020018681526020018581526020018481526020018381526020018215158152506012600060135481526020019081526020016000206000820151816000015560208201518160010160006101000a81548173ffffffffffffffffffffffffffffffffffffffff021916908373ffffffffffffffffffffffffffffffffffffffff16021790555060408201518160020160006101000a81548173ffffffffffffffffffffffffffffffffffffffff021916908373ffffffffffffffffffffffffffffffffffffffff160217905550606082015181600301556080820151816004015560a0820151816005015560c0820151816006015560e08201518160070160006101000a81548160ff02191690831515021790555090505050505050505050565b60126020528060005260406000206000915090508060000154908060010160009054906101000a900473ffffffffffffffffffffffffffffffffffffffff16908060020160009054906101000a900473ffffffffffffffffffffffffffffffffffffffff16908060030154908060040154908060050154908060060154908060070160009054906101000a900460ff16905088565b600081601160008573ffffffffffffffffffffffffffffffffffffffff1673ffffffffffffffffffffffffffffffffffffffff16815260200190815260200160002060070160006101000a81548160ff02191690831515021790555081905092915050565b60018060000160009054906101000a900473ffffffffffffffffffffffffffffffffffffffff16908060010160009054906101000a900473ffffffffffffffffffffffffffffffffffffffff16908060020160009054906101000a900473ffffffffffffffffffffffffffffffffffffffff16908060030154905084565b600090565b6060806000806060600060135460405190808252806020026020018201604052801561088b5781602001602082028038833980820191505090505b50945060009350600192505b601354831115156108ea57601260008481526020019081526020016000206000015485858151811015156108c757fe5b906020019060200201818152505083806001019450508280600101935050610897565b836040519080825280602002602001820160405280156109195781602001602082028038833980820191505090505b509150600090505b8381101561096a57848181518110151561093757fe5b90602001906020020151828281518110151561094f57fe5b90602001906020020181815250508080600101915050610921565b819550505050505090565b6000601160008373ffffffffffffffffffffffffffffffffffffffff1673ffffffffffffffffffffffffffffffffffffffff16815260200190815260200160002060070160009054906101000a900460ff169050919050565b80601160008473ffffffffffffffffffffffffffffffffffffffff1673ffffffffffffffffffffffffffffffffffffffff168152602001908152602001600020600601819055505050565b60116020528060005260406000206000915090508060000154908060010160009054906101000a900473ffffffffffffffffffffffffffffffffffffffff16908060020160009054906101000a900473ffffffffffffffffffffffffffffffffffffffff16908060030154908060040154908060050154908060060154908060070160009054906101000a900460ff169050885600a165627a7a7230582014d83448dce1e41022ab59cb9657e2ea2eafd9776d51f60a7c2397c34aed35030029",
  "source": "pragma solidity ^0.4.24;\n\nimport \"./SaleConditionContract.sol\";\nimport \"./ComfreePropertyDataModel.sol\";\n\n/*\n* First contract to be created.  This will have an expiry date of the offer.\n*/\n\ncontract OfferContract is ComfreePropertyDataModel {\n\taddress owner;\n\n    struct OfferContract {\n        uint id; \n        address buyerAddress;\n        address sellerAddress;\n        uint offerDate;\n        uint expiredDate;\n        uint currentDate;\n        uint offerAmount;\n        bool accepted;\n    }\n\n    OfferContract offerContractObjects;\n    uint numberDaysExpiration = 10;\n    SaleConditionContract saleConditionContract;\n\n    address[] saleConditionContractsArray;\n    mapping (address => OfferContract) public listOfOfferContracts;\n    //mapping will hold differentr contract struct\n    mapping (uint => OfferContract) public _listOfOfferContracts;\n    uint offerContractCounter; //this is used as an index that holds each contracts\n    \n\n\tconstructor () public {\n        owner = msg.sender;\n    }\n\n    /*\n    * This function is to get all of active offers\n    */\n    function getActiveOffers() public view returns(uint[]) {\n        //prepare output array\n        uint[] memory indexCounter = new uint[](offerContractCounter);\n        uint numberOfSavedOfferContracts = 0;\n        //itirate over biodatalist\n        for(uint i = 1; i <= offerContractCounter; i++) {\n            //show bio data item\n            indexCounter[numberOfSavedOfferContracts] = _listOfOfferContracts[i].id;\n            numberOfSavedOfferContracts++;\n        }\n        //copy bioDataIds array just get ids pertaining to contractOwner\n        uint[] memory owneddata = new uint[](numberOfSavedOfferContracts);\n        for(uint j = 0; j < numberOfSavedOfferContracts; j++) {\n            owneddata[j] = indexCounter[j];\n        }\n\n        return owneddata;\n        \n    }\n\n    /*\n    * _address parameter can be either the seller or the buyer\n    */\n    /*function getOfferContractData(address _address) public view returns(address _buyerAddress, address _sellerAddress, uint _offerDate, uint _currentDate, uint _expiredDate,uint _offerAmount,bool _accepted) {\n        return (listOfOfferContracts[_address].buyerAddress, listOfOfferContracts[_address].sellerAddress,\n                listOfOfferContracts[_address].offerDate, listOfOfferContracts[_address].expiredDate,\n                listOfOfferContracts[_address].currentDate, listOfOfferContracts[_address].offerAmount, \n                listOfOfferContracts[_address].accepted);\n    }*/\n\n    function createOfferContract(address _buyerAddress, address _sellerAddress, \n                                 uint _offerDate, uint _currentDate, uint _expiredDate,\n                                 uint _offerAmount,bool _accepted) public {\n        //increment index\n        offerContractCounter++;\n        //biodatalist[recordCounter] = BioDataObj(recordCounter,msg.sender,_firstName, _middleName, _lastName);\n        _listOfOfferContracts[offerContractCounter] = OfferContract(offerContractCounter, _buyerAddress, _sellerAddress, _offerDate, _currentDate, _expiredDate, _offerAmount, _accepted);\n        /*listOfOfferContracts[_buyerAddress].buyerAddress = _buyerAddress;\n        listOfOfferContracts[_buyerAddress].sellerAddress = _sellerAddress;\n        listOfOfferContracts[_buyerAddress].offerDate = _offerDate;\n        listOfOfferContracts[_buyerAddress].currentDate = _currentDate;\n        listOfOfferContracts[_buyerAddress].expiredDate = _expiredDate;\n        listOfOfferContracts[_buyerAddress].offerAmount = _offerAmount;\n        listOfOfferContracts[_buyerAddress].accepted = _accepted;*/\n    }\n\n    /*\n    * Parameters\n    *  - buyerAddress is wallet address of buyer\n    */\n\tfunction setBuyerOffer(address _address, uint _offerAmount) public  {\n\t\tlistOfOfferContracts[_address].offerAmount = _offerAmount;\n\t}\n\n    function accept(address _address, bool _value) public returns(bool) {\n        /*\n        * Future update.  Must have mechanism to prevent changing accepted offer\n        * back to non-acception.  Depending on law of the land, the current\n        * instance of this contract may have to be nulled and a new contract\n        * must be opened.\n        */\n        listOfOfferContracts[_address].accepted = _value;\n        return _value; //this will either return true or false\n    }\n\n    function isOfferAccepted(address _address) public view returns(bool) {\n        return listOfOfferContracts[_address].accepted;\n    }\n\n    function isOfferExpired() public returns(bool _value) {\n        /*if( now == offerContractObjects.expiredDate || now > offerContractObjects.expiredDate ) {\n            _value = true;\n        }\n        else {\n            _value = false;\n        }\n        return _value;*/\n    }\n}\n",
  "sourcePath": "/Users/jaypersanchez/comfree/contracts/OfferContract.sol",
  "compiler": {
    "name": "solc",
    "version": "0.4.28+commit.2fcccea1.Emscripten.clang"
  },
  "schemaVersion": "2.0.3",
  "updatedAt": "2019-01-18T00:18:12.829Z"
}