{
  "contractName": "SaleConditionContract",
  "abi": [
    {
      "inputs": [],
      "payable": false,
      "stateMutability": "nonpayable",
      "type": "constructor"
    },
    {
      "constant": false,
      "inputs": [],
      "name": "isConditionMet",
      "outputs": [
        {
          "name": "_value",
          "type": "bool"
        }
      ],
      "payable": false,
      "stateMutability": "nonpayable",
      "type": "function"
    },
    {
      "constant": false,
      "inputs": [
        {
          "name": "_dateOfCondition",
          "type": "uint256"
        },
        {
          "name": "_conditionExpiryDate",
          "type": "uint256"
        },
        {
          "name": "_conditionMet",
          "type": "bool"
        }
      ],
      "name": "setConditions",
      "outputs": [],
      "payable": false,
      "stateMutability": "nonpayable",
      "type": "function"
    },
    {
      "constant": false,
      "inputs": [
        {
          "name": "_WallsPainted",
          "type": "bool"
        },
        {
          "name": "_CarpetCleaned",
          "type": "bool"
        },
        {
          "name": "_WindowsWashed",
          "type": "bool"
        }
      ],
      "name": "setConditionList",
      "outputs": [],
      "payable": false,
      "stateMutability": "nonpayable",
      "type": "function"
    },
    {
      "constant": false,
      "inputs": [],
      "name": "getConditions",
      "outputs": [
        {
          "name": "_WallsPainted",
          "type": "bool"
        },
        {
          "name": "_CarpetCleaned",
          "type": "bool"
        },
        {
          "name": "_WindowsWashed",
          "type": "bool"
        }
      ],
      "payable": false,
      "stateMutability": "nonpayable",
      "type": "function"
    }
  ],
  "bytecode": "0x60806040526000600660006101000a81548160ff02191690831515021790555034801561002b57600080fd5b506000600260000181905550600060026001018190555060006002800160006101000a81548160ff0219169083151502179055506102e18061006e6000396000f300608060405260043610610062576000357c0100000000000000000000000000000000000000000000000000000000900463ffffffff1680636095204a146100675780637c123627146100ae578063d674666a146100f3578063f4bd0bcf14610136575b600080fd5b34801561007357600080fd5b506100ac600480360381019080803515159060200190929190803515159060200190929190803515159060200190929190505050610165565b005b3480156100ba57600080fd5b506100c36101c1565b60405180841515151581526020018315151515815260200182151515158152602001935050505060405180910390f35b3480156100ff57600080fd5b50610134600480360381019080803590602001909291908035906020019092919080351515906020019092919050505061020a565b005b34801561014257600080fd5b5061014b61023f565b604051808215151515815260200191505060405180910390f35b82600560000160006101000a81548160ff02191690831515021790555081600560000160016101000a81548160ff02191690831515021790555080600560000160026101000a81548160ff021916908315150217905550505050565b6000806000600560000160009054906101000a900460ff16600560000160019054906101000a900460ff16600560000160029054906101000a900460ff16925092509250909192565b8260026000018190555081600260010181905550806002800160006101000a81548160ff021916908315150217905550505050565b600060011515600560000160009054906101000a900460ff16151514801561027d575060011515600560000160019054906101000a900460ff161515145b801561029f575060011515600560000160029054906101000a900460ff161515145b156102ad57600190506102b2565b600090505b905600a165627a7a72305820d483ace53186e95588967ebae9a276f6c63a4d888d7334c1725fe470432dc6c80029",
  "source": "pragma solidity ^0.4.24;\n\nimport \"./OfferContract.sol\";\n\n/*\n*   Once the OfferContract is accepted, this contract is next to be set the\n* condition before it goes into escrow.  Cannot have a sale condition contract without an\n* accepted OfferContract.\n*/\n\ncontract SaleConditionContract {\n\n    struct Condition {\n        uint dateOfCondition;\n        uint conditionExpiryDate;\n        bool conditionMet;\n    }\n\n    struct ConditionsList {\n        /*\n        * For simplicity sake there will only be a few conditions\n        * when a condition is set to true, then it is a condition \n        * that needs to be met\n        */\n        bool WallsPainted;\n        bool CarpetCleaned;\n        bool WindowsWashed;\n    }\n\n    //List of valid OfferContracts\n    mapping(address => OfferContract) listOfOfferContracts;\n    OfferContract offerContract;\n    Condition conditionHeaderData;\n    ConditionsList conditionList;\n    bool private offerContractValid = false;\n\n    modifier isOfferContractValid(address _offerContractAddress) {\n        offerContract = OfferContract(_offerContractAddress);\n        require(offerContract.isOfferAccepted() == true);\n        _;\n    }\n\n    /* This contract is instantiated and created from OfferContract \n    * The modifier is in place to prevent an outside source from creating an instance of this contract\n    * without a valid OfferContract.\n    */\n    /*constructor(address _offerContractAddress) public isOfferContractValid(_offerContractAddress) {\n        conditionHeaderData.dateOfCondition = 0;\n        conditionHeaderData.conditionExpiryDate = 0;\n        conditionHeaderData.conditionMet = false;\n    }*/\n    constructor() public {\n        conditionHeaderData.dateOfCondition = 0;\n        conditionHeaderData.conditionExpiryDate = 0;\n        conditionHeaderData.conditionMet = false;\n    }\n\n    function isConditionMet() public returns(bool _value) {\n        if(conditionList.WallsPainted == true && conditionList.CarpetCleaned == true && conditionList.WindowsWashed == true) {\n            return true;\n        }\n        else {\n            return false;\n        }           \n    }\n    \n    /*\n    * This will set which condition in the ConditionsList\n    * must be met before the conditionExpireDate in Condition\n    * structs expires\n    */\n    function setConditions(uint _dateOfCondition, uint _conditionExpiryDate, bool _conditionMet) public {\n        conditionHeaderData.dateOfCondition = _dateOfCondition;\n        conditionHeaderData.conditionExpiryDate = _conditionExpiryDate;\n        conditionHeaderData.conditionMet = _conditionMet;\n    }\n\n    function setConditionList(bool _WallsPainted, bool _CarpetCleaned,bool _WindowsWashed) public {\n        conditionList.WallsPainted = _WallsPainted;\n        conditionList.CarpetCleaned = _CarpetCleaned;\n        conditionList.WindowsWashed = _WindowsWashed;\n    }\n\n    function getConditions() public returns(bool _WallsPainted, bool _CarpetCleaned,bool _WindowsWashed) {\n        //must return the struct as array for UI\n        return (conditionList.WallsPainted, conditionList.CarpetCleaned, conditionList.WindowsWashed);\n    }\n\n}",
  "sourcePath": "/Users/jaypersanchez/comfree/contracts/SaleConditionContract.sol",
  "compiler": {
    "name": "solc",
    "version": "0.4.28+commit.2fcccea1.Emscripten.clang"
  },
  "schemaVersion": "2.0.3",
  "updatedAt": "2018-12-20T00:28:16.624Z"
}