{
  "contractName": "SaleConditionContract",
  "abi": [
    {
      "constant": true,
      "inputs": [],
      "name": "escrowDataElements",
      "outputs": [
        {
          "name": "escrowDepositorAddress",
          "type": "address"
        },
        {
          "name": "escrowAgentAddress",
          "type": "address"
        },
        {
          "name": "escrowBeneficiaryAddress",
          "type": "address"
        },
        {
          "name": "escrowAmount",
          "type": "uint256"
        }
      ],
      "payable": false,
      "stateMutability": "view",
      "type": "function"
    },
    {
      "inputs": [],
      "payable": false,
      "stateMutability": "nonpayable",
      "type": "constructor"
    },
    {
      "anonymous": false,
      "inputs": [
        {
          "indexed": false,
          "name": "_buyer",
          "type": "address"
        },
        {
          "indexed": false,
          "name": "_seller",
          "type": "address"
        },
        {
          "indexed": false,
          "name": "offerAmount",
          "type": "uint256"
        }
      ],
      "name": "OfferCreated",
      "type": "event"
    },
    {
      "anonymous": false,
      "inputs": [
        {
          "indexed": false,
          "name": "_id",
          "type": "uint256"
        },
        {
          "indexed": false,
          "name": "_value",
          "type": "bool"
        }
      ],
      "name": "OfferAccepted",
      "type": "event"
    },
    {
      "anonymous": false,
      "inputs": [
        {
          "indexed": false,
          "name": "_WallsPainted",
          "type": "bool"
        },
        {
          "indexed": false,
          "name": "_CarpetCleaned",
          "type": "bool"
        },
        {
          "indexed": false,
          "name": "_WindowsWashed",
          "type": "bool"
        }
      ],
      "name": "isAllSaleConditionsMet",
      "type": "event"
    },
    {
      "constant": false,
      "inputs": [],
      "name": "isConditionMet",
      "outputs": [
        {
          "name": "_value",
          "type": "bool"
        }
      ],
      "payable": false,
      "stateMutability": "nonpayable",
      "type": "function"
    },
    {
      "constant": false,
      "inputs": [
        {
          "name": "_dateOfCondition",
          "type": "uint256"
        },
        {
          "name": "_conditionExpiryDate",
          "type": "uint256"
        },
        {
          "name": "_conditionMet",
          "type": "bool"
        }
      ],
      "name": "setConditions",
      "outputs": [],
      "payable": false,
      "stateMutability": "nonpayable",
      "type": "function"
    },
    {
      "constant": false,
      "inputs": [
        {
          "name": "_WallsPainted",
          "type": "bool"
        },
        {
          "name": "_CarpetCleaned",
          "type": "bool"
        },
        {
          "name": "_WindowsWashed",
          "type": "bool"
        }
      ],
      "name": "setConditionList",
      "outputs": [],
      "payable": false,
      "stateMutability": "nonpayable",
      "type": "function"
    },
    {
      "constant": false,
      "inputs": [],
      "name": "getConditions",
      "outputs": [
        {
          "name": "_WallsPainted",
          "type": "bool"
        },
        {
          "name": "_CarpetCleaned",
          "type": "bool"
        },
        {
          "name": "_WindowsWashed",
          "type": "bool"
        }
      ],
      "payable": false,
      "stateMutability": "nonpayable",
      "type": "function"
    }
  ],
  "bytecode": "0x60806040526000600c60006101000a81548160ff02191690831515021790555034801561002b57600080fd5b5033600560006101000a81548173ffffffffffffffffffffffffffffffffffffffff021916908373ffffffffffffffffffffffffffffffffffffffff1602179055506104d38061007c6000396000f30060806040526004361061006d576000357c0100000000000000000000000000000000000000000000000000000000900463ffffffff1680636095204a146100725780636b362664146100b95780637c1236271461017d578063d674666a146101c2578063f4bd0bcf14610205575b600080fd5b34801561007e57600080fd5b506100b7600480360381019080803515159060200190929190803515159060200190929190803515159060200190929190505050610234565b005b3480156100c557600080fd5b506100ce610334565b604051808573ffffffffffffffffffffffffffffffffffffffff1673ffffffffffffffffffffffffffffffffffffffff1681526020018473ffffffffffffffffffffffffffffffffffffffff1673ffffffffffffffffffffffffffffffffffffffff1681526020018373ffffffffffffffffffffffffffffffffffffffff1673ffffffffffffffffffffffffffffffffffffffff16815260200182815260200194505050505060405180910390f35b34801561018957600080fd5b506101926103b2565b60405180841515151581526020018315151515815260200182151515158152602001935050505060405180910390f35b3480156101ce57600080fd5b5061020360048036038101908080359060200190929190803590602001909291908035151590602001909291905050506103fb565b005b34801561021157600080fd5b5061021a610431565b604051808215151515815260200191505060405180910390f35b82600b60000160006101000a81548160ff02191690831515021790555081600b60000160016101000a81548160ff02191690831515021790555080600b60000160026101000a81548160ff021916908315150217905550600b60000160009054906101000a900460ff1680156102b95750600b60000160019054906101000a900460ff165b80156102d45750600b60000160029054906101000a900460ff165b1561032f577fd22a61b28df8cc9b1bbcc03da3c66931ea12e5fa1d8be23eaf04b2eb9ffc322a600180600160405180841515151581526020018315151515815260200182151515158152602001935050505060405180910390a15b505050565b60018060000160009054906101000a900473ffffffffffffffffffffffffffffffffffffffff16908060010160009054906101000a900473ffffffffffffffffffffffffffffffffffffffff16908060020160009054906101000a900473ffffffffffffffffffffffffffffffffffffffff16908060030154905084565b6000806000600b60000160009054906101000a900460ff16600b60000160019054906101000a900460ff16600b60000160029054906101000a900460ff16925092509250909192565b826008600001819055508160086001018190555080600860020160006101000a81548160ff021916908315150217905550505050565b600060011515600b60000160009054906101000a900460ff16151514801561046f575060011515600b60000160019054906101000a900460ff161515145b8015610491575060011515600b60000160029054906101000a900460ff161515145b1561049f57600190506104a4565b600090505b905600a165627a7a7230582012d7bae3c2d16882e7defc3226ecdc9dac8d47a947a3043c761f4348f6f6d8760029",
  "source": "pragma solidity ^0.4.24;\n\nimport \"./OfferContract.sol\";\nimport \"./ComfreePropertyDataModel.sol\";\n\n/*\n*   Once the OfferContract is accepted, this contract is next to be set the\n* condition before it goes into escrow.  Cannot have a sale condition contract without an\n* accepted OfferContract.\n*/\n\ncontract SaleConditionContract is ComfreePropertyDataModel {\n    address owner;\n\n    struct Condition {\n        uint dateOfCondition;\n        uint conditionExpiryDate;\n        bool conditionMet;\n    }\n\n    struct ConditionsList {\n        /*\n        * For simplicity sake there will only be a few conditions\n        * when a condition is set to true, then it is a condition \n        * that needs to be met\n        */\n        bool WallsPainted;\n        bool CarpetCleaned;\n        bool WindowsWashed;\n    }\n\n    //List of valid OfferContracts\n    mapping(address => OfferContract) listOfOfferContracts;\n    OfferContract offerContract;\n    Condition conditionHeaderData;\n    ConditionsList conditionList;\n    bool private offerContractValid = false;\n\n    /* This contract is instantiated and created from OfferContract \n    * The modifier is in place to prevent an outside source from creating an instance of this contract\n    * without a valid OfferContract.\n    */\n    constructor () public {\n        owner = msg.sender;\n    }\n\n    function isConditionMet() public returns(bool _value) {\n        if(conditionList.WallsPainted == true && conditionList.CarpetCleaned == true && conditionList.WindowsWashed == true) {\n            return true;\n        }\n        else {\n            return false;\n        }           \n    }\n    \n    /*\n    * This will set the expiration for conditions to be met\n    */\n    function setConditions(uint _dateOfCondition, uint _conditionExpiryDate, bool _conditionMet) public {\n        conditionHeaderData.dateOfCondition = _dateOfCondition;\n        conditionHeaderData.conditionExpiryDate = _conditionExpiryDate;\n        conditionHeaderData.conditionMet = _conditionMet;\n    }\n\n    /*\n    * This will set which condition in the ConditionsList\n    * has been met that must be met before the conditionExpireDate in Condition\n    * structs expires\n    */\n    function setConditionList(bool _WallsPainted, bool _CarpetCleaned,bool _WindowsWashed) public {\n        conditionList.WallsPainted = _WallsPainted;\n        conditionList.CarpetCleaned = _CarpetCleaned;\n        conditionList.WindowsWashed = _WindowsWashed;\n        if( conditionList.WallsPainted && conditionList.CarpetCleaned && conditionList.WindowsWashed ) {\n            //all sales conditions met\n            emit isAllSaleConditionsMet(true, true, true);\n        }\n    }\n\n    function getConditions() public returns(bool _WallsPainted, bool _CarpetCleaned,bool _WindowsWashed) {\n        //must return the struct as array for UI\n        return (conditionList.WallsPainted, conditionList.CarpetCleaned, conditionList.WindowsWashed);\n    }\n\n}",
  "sourcePath": "/Users/jaypersanchez/comfree/contracts/SaleConditionContract.sol",
  "compiler": {
    "name": "solc",
    "version": "0.4.28+commit.2fcccea1.Emscripten.clang"
  },
  "schemaVersion": "2.0.3",
  "updatedAt": "2019-03-31T14:31:29.156Z"
}